{
  "contractName": "Comptroller",
  "abi": [
    {
      "inputs": [
        {
          "internalType": "uint256",
          "name": "_exchangeRate",
          "type": "uint256"
        }
      ],
      "stateMutability": "payable",
      "type": "constructor"
    },
    {
      "anonymous": false,
      "inputs": [
        {
          "indexed": false,
          "internalType": "address",
          "name": "goodAddress",
          "type": "address"
        },
        {
          "indexed": false,
          "internalType": "uint32",
          "name": "goodId",
          "type": "uint32"
        },
        {
          "indexed": false,
          "internalType": "uint256",
          "name": "goodValue",
          "type": "uint256"
        }
      ],
      "name": "GoodPublished",
      "type": "event"
    },
    {
      "anonymous": false,
      "inputs": [
        {
          "indexed": false,
          "internalType": "address",
          "name": "goodAddress",
          "type": "address"
        },
        {
          "indexed": false,
          "internalType": "uint256",
          "name": "goodValue",
          "type": "uint256"
        },
        {
          "indexed": false,
          "internalType": "uint256",
          "name": "balance",
          "type": "uint256"
        },
        {
          "indexed": false,
          "internalType": "uint256",
          "name": "mf",
          "type": "uint256"
        },
        {
          "indexed": false,
          "internalType": "uint256",
          "name": "mintValue",
          "type": "uint256"
        }
      ],
      "name": "MintForAddGoodValue",
      "type": "event"
    },
    {
      "anonymous": false,
      "inputs": [
        {
          "indexed": false,
          "internalType": "address",
          "name": "user",
          "type": "address"
        },
        {
          "indexed": false,
          "internalType": "uint256",
          "name": "amount",
          "type": "uint256"
        }
      ],
      "name": "MintForUsers",
      "type": "event"
    },
    {
      "anonymous": false,
      "inputs": [
        {
          "indexed": true,
          "internalType": "address",
          "name": "previousOwner",
          "type": "address"
        },
        {
          "indexed": true,
          "internalType": "address",
          "name": "newOwner",
          "type": "address"
        }
      ],
      "name": "OwnershipTransferred",
      "type": "event"
    },
    {
      "inputs": [
        {
          "internalType": "uint256",
          "name": "",
          "type": "uint256"
        }
      ],
      "name": "allGoods",
      "outputs": [
        {
          "internalType": "contract GoodLottery",
          "name": "",
          "type": "address"
        }
      ],
      "stateMutability": "view",
      "type": "function"
    },
    {
      "inputs": [],
      "name": "ethToTokenExchangeRate",
      "outputs": [
        {
          "internalType": "uint256",
          "name": "",
          "type": "uint256"
        }
      ],
      "stateMutability": "view",
      "type": "function"
    },
    {
      "inputs": [
        {
          "internalType": "address",
          "name": "",
          "type": "address"
        }
      ],
      "name": "goodAddressMapping",
      "outputs": [
        {
          "internalType": "bool",
          "name": "isList",
          "type": "bool"
        },
        {
          "internalType": "uint32",
          "name": "goodId",
          "type": "uint32"
        },
        {
          "internalType": "uint256",
          "name": "goodIndex",
          "type": "uint256"
        },
        {
          "internalType": "contract GoodLottery",
          "name": "good",
          "type": "address"
        }
      ],
      "stateMutability": "view",
      "type": "function"
    },
    {
      "inputs": [
        {
          "internalType": "uint32",
          "name": "",
          "type": "uint32"
        }
      ],
      "name": "goodIds",
      "outputs": [
        {
          "internalType": "address",
          "name": "",
          "type": "address"
        }
      ],
      "stateMutability": "view",
      "type": "function"
    },
    {
      "inputs": [
        {
          "internalType": "uint32",
          "name": "",
          "type": "uint32"
        }
      ],
      "name": "goodsMapping",
      "outputs": [
        {
          "internalType": "bool",
          "name": "isList",
          "type": "bool"
        },
        {
          "internalType": "uint32",
          "name": "goodId",
          "type": "uint32"
        },
        {
          "internalType": "uint256",
          "name": "goodIndex",
          "type": "uint256"
        },
        {
          "internalType": "contract GoodLottery",
          "name": "good",
          "type": "address"
        }
      ],
      "stateMutability": "view",
      "type": "function"
    },
    {
      "inputs": [],
      "name": "owner",
      "outputs": [
        {
          "internalType": "address",
          "name": "",
          "type": "address"
        }
      ],
      "stateMutability": "view",
      "type": "function"
    },
    {
      "inputs": [],
      "name": "renounceOwnership",
      "outputs": [],
      "stateMutability": "nonpayable",
      "type": "function"
    },
    {
      "inputs": [],
      "name": "token",
      "outputs": [
        {
          "internalType": "contract WishToken",
          "name": "",
          "type": "address"
        }
      ],
      "stateMutability": "view",
      "type": "function"
    },
    {
      "inputs": [
        {
          "internalType": "address",
          "name": "newOwner",
          "type": "address"
        }
      ],
      "name": "transferOwnership",
      "outputs": [],
      "stateMutability": "nonpayable",
      "type": "function"
    },
    {
      "inputs": [
        {
          "internalType": "address",
          "name": "",
          "type": "address"
        }
      ],
      "name": "userNames",
      "outputs": [
        {
          "internalType": "string",
          "name": "",
          "type": "string"
        }
      ],
      "stateMutability": "view",
      "type": "function"
    },
    {
      "inputs": [
        {
          "internalType": "address",
          "name": "",
          "type": "address"
        },
        {
          "internalType": "uint256",
          "name": "",
          "type": "uint256"
        }
      ],
      "name": "userPublishedGoods",
      "outputs": [
        {
          "internalType": "address",
          "name": "",
          "type": "address"
        }
      ],
      "stateMutability": "view",
      "type": "function"
    },
    {
      "stateMutability": "payable",
      "type": "receive"
    },
    {
      "inputs": [],
      "name": "exchange",
      "outputs": [],
      "stateMutability": "payable",
      "type": "function"
    },
    {
      "inputs": [
        {
          "internalType": "string",
          "name": "name",
          "type": "string"
        }
      ],
      "name": "changeUserName",
      "outputs": [],
      "stateMutability": "nonpayable",
      "type": "function"
    },
    {
      "inputs": [
        {
          "internalType": "uint256",
          "name": "amount",
          "type": "uint256"
        }
      ],
      "name": "withdraw",
      "outputs": [],
      "stateMutability": "nonpayable",
      "type": "function"
    },
    {
      "inputs": [
        {
          "internalType": "address",
          "name": "user",
          "type": "address"
        },
        {
          "internalType": "address",
          "name": "good",
          "type": "address"
        }
      ],
      "name": "addGood",
      "outputs": [],
      "stateMutability": "nonpayable",
      "type": "function"
    },
    {
      "inputs": [
        {
          "internalType": "address[]",
          "name": "goods",
          "type": "address[]"
        }
      ],
      "name": "publishGood",
      "outputs": [
        {
          "internalType": "uint256[]",
          "name": "",
          "type": "uint256[]"
        }
      ],
      "stateMutability": "nonpayable",
      "type": "function"
    },
    {
      "inputs": [
        {
          "internalType": "uint32",
          "name": "goodsId",
          "type": "uint32"
        },
        {
          "internalType": "uint256",
          "name": "amount",
          "type": "uint256"
        }
      ],
      "name": "exchangeAndJoin",
      "outputs": [],
      "stateMutability": "payable",
      "type": "function"
    },
    {
      "inputs": [
        {
          "internalType": "address",
          "name": "good",
          "type": "address"
        }
      ],
      "name": "pickWinnerAllowed",
      "outputs": [
        {
          "internalType": "uint256",
          "name": "",
          "type": "uint256"
        }
      ],
      "stateMutability": "nonpayable",
      "type": "function"
    },
    {
      "inputs": [],
      "name": "getExchangeRate",
      "outputs": [
        {
          "internalType": "uint256",
          "name": "",
          "type": "uint256"
        }
      ],
      "stateMutability": "view",
      "type": "function"
    },
    {
      "inputs": [],
      "name": "getGoods",
      "outputs": [
        {
          "internalType": "contract GoodLottery[]",
          "name": "",
          "type": "address[]"
        }
      ],
      "stateMutability": "view",
      "type": "function"
    },
    {
      "inputs": [
        {
          "internalType": "address",
          "name": "user",
          "type": "address"
        }
      ],
      "name": "getUserPublishedGoods",
      "outputs": [
        {
          "internalType": "address[]",
          "name": "",
          "type": "address[]"
        }
      ],
      "stateMutability": "view",
      "type": "function"
    },
    {
      "inputs": [
        {
          "internalType": "uint32",
          "name": "goodId",
          "type": "uint32"
        }
      ],
      "name": "isDuplicateGoodId",
      "outputs": [
        {
          "internalType": "bool",
          "name": "",
          "type": "bool"
        }
      ],
      "stateMutability": "view",
      "type": "function"
    },
    {
      "inputs": [
        {
          "internalType": "uint32",
          "name": "goodId",
          "type": "uint32"
        },
        {
          "internalType": "address",
          "name": "checkAddress",
          "type": "address"
        }
      ],
      "name": "goodIsList",
      "outputs": [
        {
          "internalType": "bool",
          "name": "",
          "type": "bool"
        }
      ],
      "stateMutability": "view",
      "type": "function"
    }
  ],
  "bytecode": "0x6080604052604051620069b0380380620069b083398181016040528101906200002991906200044d565b620000496200003d6200011b60201b60201c565b6200012360201b60201c565b600081116200008f576040517f08c379a0000000000000000000000000000000000000000000000000000000008152600401620000869062000506565b60405180910390fd5b80600281905550604051620000a490620003ff565b604051809103906000f080158015620000c1573d6000803e3d6000fd5b50600160006101000a81548173ffffffffffffffffffffffffffffffffffffffff021916908373ffffffffffffffffffffffffffffffffffffffff160217905550620001143334620001e760201b60201c565b50620007cb565b600033905090565b60008060009054906101000a900473ffffffffffffffffffffffffffffffffffffffff169050816000806101000a81548173ffffffffffffffffffffffffffffffffffffffff021916908373ffffffffffffffffffffffffffffffffffffffff1602179055508173ffffffffffffffffffffffffffffffffffffffff168173ffffffffffffffffffffffffffffffffffffffff167f8be0079c531659141344cd1fd0a4f28419497f9722a3daafe3b4186f6b6457e060405160405180910390a35050565b600081116200022d576040517f08c379a0000000000000000000000000000000000000000000000000000000008152600401620002249062000578565b60405180910390fd5b600062000243826002546200031860201b60201c565b9050600160009054906101000a900473ffffffffffffffffffffffffffffffffffffffff1673ffffffffffffffffffffffffffffffffffffffff166340c10f1984836040518363ffffffff1660e01b8152600401620002a4929190620005f0565b600060405180830381600087803b158015620002bf57600080fd5b505af1158015620002d4573d6000803e3d6000fd5b505050507fe483ee6d344b571ff11f3deb09271e1fcc40233c27abe0319f66c9d923388d7e83836040516200030b929190620005f0565b60405180910390a1505050565b60006200036283836040518060400160405280601781526020017f6d756c7469706c69636174696f6e206f766572666c6f770000000000000000008152506200036a60201b60201c565b905092915050565b6000808414806200037b5750600083145b156200038b5760009050620003f8565b600083856200039b91906200064c565b9050838582620003ac9190620006dc565b148390620003f2576040517f08c379a0000000000000000000000000000000000000000000000000000000008152600401620003e99190620007a7565b60405180910390fd5b50809150505b9392505050565b612844806200416c83390190565b600080fd5b6000819050919050565b620004278162000412565b81146200043357600080fd5b50565b60008151905062000447816200041c565b92915050565b6000602082840312156200046657620004656200040d565b5b6000620004768482850162000436565b91505092915050565b600082825260208201905092915050565b7f65786368616e676552617465206d75737420626520677265617465722074686160008201527f6e20302000000000000000000000000000000000000000000000000000000000602082015250565b6000620004ee6024836200047f565b9150620004fb8262000490565b604082019050919050565b600060208201905081810360008301526200052181620004df565b9050919050565b7f6d7573742070726f7669646572206574682067726561746572207468616e2030600082015250565b6000620005606020836200047f565b91506200056d8262000528565b602082019050919050565b60006020820190508181036000830152620005938162000551565b9050919050565b600073ffffffffffffffffffffffffffffffffffffffff82169050919050565b6000620005c7826200059a565b9050919050565b620005d981620005ba565b82525050565b620005ea8162000412565b82525050565b6000604082019050620006076000830185620005ce565b620006166020830184620005df565b9392505050565b7f4e487b7100000000000000000000000000000000000000000000000000000000600052601160045260246000fd5b6000620006598262000412565b9150620006668362000412565b9250817fffffffffffffffffffffffffffffffffffffffffffffffffffffffffffffffff0483118215151615620006a257620006a16200061d565b5b828202905092915050565b7f4e487b7100000000000000000000000000000000000000000000000000000000600052601260045260246000fd5b6000620006e98262000412565b9150620006f68362000412565b925082620007095762000708620006ad565b5b828204905092915050565b600081519050919050565b60005b838110156200073f57808201518184015260208101905062000722565b838111156200074f576000848401525b50505050565b6000601f19601f8301169050919050565b6000620007738262000714565b6200077f81856200047f565b9350620007918185602086016200071f565b6200079c8162000755565b840191505092915050565b60006020820190508181036000830152620007c3818462000766565b905092915050565b61399180620007db6000396000f3fe6080604052600436106101445760003560e01c80638da5cb5b116100b6578063d2f7265a1161006f578063d2f7265a146104c6578063e6aa216c146104d0578063f2fde38b146104fb578063f83c72dd14610524578063fbfa490c14610561578063fc0c546a1461058c57610155565b80638da5cb5b146103a15780639b44f940146103cc578063a5e737bd146103f7578063ab10c76c14610420578063b7c157cf14610460578063be28db3c1461048957610155565b80636ce99a7c116101085780636ce99a7c146102565780636d0380f31461029657806370967bed146102d3578063715018a6146103105780637a284627146103275780637f2816351461036457610155565b8063252819391461015a5780632e1a7d4d146101975780632e3d4819146101c057806335564a47146101fd57806352bbb0bd1461021957610155565b366101555761015333346105b7565b005b600080fd5b34801561016657600080fd5b50610181600480360381019061017c91906126f4565b6106d7565b60405161018e919061273a565b60405180910390f35b3480156101a357600080fd5b506101be60048036038101906101b99190612781565b610e4d565b005b3480156101cc57600080fd5b506101e760048036038101906101e291906127ea565b610fce565b6040516101f49190612845565b60405180910390f35b61021760048036038101906102129190612860565b6110b7565b005b34801561022557600080fd5b50610240600480360381019061023b91906128a0565b611295565b60405161024d91906128ef565b60405180910390f35b34801561026257600080fd5b5061027d6004803603810190610278919061290a565b6112e3565b60405161028d94939291906129a5565b60405180910390f35b3480156102a257600080fd5b506102bd60048036038101906102b891906126f4565b611350565b6040516102ca9190612aa8565b60405180910390f35b3480156102df57600080fd5b506102fa60048036038101906102f5919061290a565b61141d565b60405161030791906128ef565b60405180910390f35b34801561031c57600080fd5b50610325611450565b005b34801561033357600080fd5b5061034e60048036038101906103499190612c23565b6114d8565b60405161035b9190612d2a565b60405180910390f35b34801561037057600080fd5b5061038b600480360381019061038691906126f4565b6115f3565b6040516103989190612dd4565b60405180910390f35b3480156103ad57600080fd5b506103b6611693565b6040516103c391906128ef565b60405180910390f35b3480156103d857600080fd5b506103e16116bc565b6040516103ee9190612ea3565b60405180910390f35b34801561040357600080fd5b5061041e60048036038101906104199190612f20565b61174a565b005b34801561042c57600080fd5b50610447600480360381019061044291906126f4565b61179d565b60405161045794939291906129a5565b60405180910390f35b34801561046c57600080fd5b5061048760048036038101906104829190612f6d565b61180a565b005b34801561049557600080fd5b506104b060048036038101906104ab9190612781565b6118b4565b6040516104bd9190612fad565b60405180910390f35b6104ce6118f3565b005b3480156104dc57600080fd5b506104e56118ff565b6040516104f2919061273a565b60405180910390f35b34801561050757600080fd5b50610522600480360381019061051d91906126f4565b6119c8565b005b34801561053057600080fd5b5061054b6004803603810190610546919061290a565b611abf565b6040516105589190612845565b60405180910390f35b34801561056d57600080fd5b50610576611b37565b604051610583919061273a565b60405180910390f35b34801561059857600080fd5b506105a1611b3d565b6040516105ae9190612fe9565b60405180910390f35b600081116105fa576040517f08c379a00000000000000000000000000000000000000000000000000000000081526004016105f190613050565b60405180910390fd5b600061060882600254611b63565b9050600160009054906101000a900473ffffffffffffffffffffffffffffffffffffffff1673ffffffffffffffffffffffffffffffffffffffff166340c10f1984836040518363ffffffff1660e01b8152600401610667929190613070565b600060405180830381600087803b15801561068157600080fd5b505af1158015610695573d6000803e3d6000fd5b505050507fe483ee6d344b571ff11f3deb09271e1fcc40233c27abe0319f66c9d923388d7e83836040516106ca929190613070565b60405180910390a1505050565b6000808273ffffffffffffffffffffffffffffffffffffffff1663df4c0ab16040518163ffffffff1660e01b8152600401602060405180830381865afa158015610725573d6000803e3d6000fd5b505050506040513d601f19601f8201168201806040525081019061074991906130ae565b90506000600560008363ffffffff1663ffffffff168152602001908152602001600020905060008160020160009054906101000a900473ffffffffffffffffffffffffffffffffffffffff169050600073ffffffffffffffffffffffffffffffffffffffff168260020160009054906101000a900473ffffffffffffffffffffffffffffffffffffffff1673ffffffffffffffffffffffffffffffffffffffff160361082a576040517f08c379a000000000000000000000000000000000000000000000000000000000815260040161082190613127565b60405180910390fd5b8473ffffffffffffffffffffffffffffffffffffffff168260020160009054906101000a900473ffffffffffffffffffffffffffffffffffffffff1673ffffffffffffffffffffffffffffffffffffffff16146108bc576040517f08c379a00000000000000000000000000000000000000000000000000000000081526004016108b390613193565b60405180910390fd5b600460068111156108d0576108cf6131b3565b5b8260020160009054906101000a900473ffffffffffffffffffffffffffffffffffffffff1673ffffffffffffffffffffffffffffffffffffffff1663fcaa76646040518163ffffffff1660e01b8152600401602060405180830381865afa15801561093f573d6000803e3d6000fd5b505050506040513d601f19601f820116820180604052508101906109639190613207565b6006811115610975576109746131b3565b5b146109b5576040517f08c379a00000000000000000000000000000000000000000000000000000000081526004016109ac906132a6565b60405180910390fd5b6109bd611693565b73ffffffffffffffffffffffffffffffffffffffff168173ffffffffffffffffffffffffffffffffffffffff16638da5cb5b6040518163ffffffff1660e01b8152600401602060405180830381865afa158015610a1e573d6000803e3d6000fd5b505050506040513d601f19601f82011682018060405250810190610a4291906132db565b73ffffffffffffffffffffffffffffffffffffffff1614610a98576040517f08c379a0000000000000000000000000000000000000000000000000000000008152600401610a8f90613354565b60405180910390fd5b6000600160009054906101000a900473ffffffffffffffffffffffffffffffffffffffff1673ffffffffffffffffffffffffffffffffffffffff166370a08231836040518263ffffffff1660e01b8152600401610af591906128ef565b602060405180830381865afa158015610b12573d6000803e3d6000fd5b505050506040513d601f19601f82011682018060405250810190610b369190613389565b905060008273ffffffffffffffffffffffffffffffffffffffff1663c379b4be6040518163ffffffff1660e01b8152600401602060405180830381865afa158015610b85573d6000803e3d6000fd5b505050506040513d601f19601f82011682018060405250810190610ba99190613389565b905060008373ffffffffffffffffffffffffffffffffffffffff1663046604496040518163ffffffff1660e01b8152600401602060405180830381865afa158015610bf8573d6000803e3d6000fd5b505050506040513d601f19601f82011682018060405250810190610c1c9190613389565b905060008473ffffffffffffffffffffffffffffffffffffffff1663c01d1c606040518163ffffffff1660e01b8152600401602060405180830381865afa158015610c6b573d6000803e3d6000fd5b505050506040513d601f19601f82011682018060405250810190610c8f9190613389565b90506000610ca6610ca08585611bad565b83611b63565b9050848111610cbf578498505050505050505050610e48565b60008582610ccd91906133e5565b9050600160009054906101000a900473ffffffffffffffffffffffffffffffffffffffff1673ffffffffffffffffffffffffffffffffffffffff166340c10f1988836040518363ffffffff1660e01b8152600401610d2c929190613070565b600060405180830381600087803b158015610d4657600080fd5b505af1158015610d5a573d6000803e3d6000fd5b505050507f59df894f81517e73e3e11f324b7b9144e67bed08455a35e9328084e4171b0ebd8786888785604051610d95959493929190613419565b60405180910390a1600160009054906101000a900473ffffffffffffffffffffffffffffffffffffffff1673ffffffffffffffffffffffffffffffffffffffff166370a08231886040518263ffffffff1660e01b8152600401610df891906128ef565b602060405180830381865afa158015610e15573d6000803e3d6000fd5b505050506040513d601f19601f82011682018060405250810190610e399190613389565b95508599505050505050505050505b919050565b600160009054906101000a900473ffffffffffffffffffffffffffffffffffffffff1673ffffffffffffffffffffffffffffffffffffffff166379cc679033836040518363ffffffff1660e01b8152600401610eaa929190613070565b600060405180830381600087803b158015610ec457600080fd5b505af1158015610ed8573d6000803e3d6000fd5b505050506000610f7847600160009054906101000a900473ffffffffffffffffffffffffffffffffffffffff1673ffffffffffffffffffffffffffffffffffffffff166318160ddd6040518163ffffffff1660e01b8152600401602060405180830381865afa158015610f4f573d6000803e3d6000fd5b505050506040513d601f19601f82011682018060405250810190610f739190613389565b611bf7565b90503373ffffffffffffffffffffffffffffffffffffffff166108fc610f9e8484611b63565b9081150290604051600060405180830381858888f19350505050158015610fc9573d6000803e3d6000fd5b505050565b600080600560008563ffffffff1663ffffffff1681526020019081526020016000209050600073ffffffffffffffffffffffffffffffffffffffff168373ffffffffffffffffffffffffffffffffffffffff161461109b578060000160009054906101000a900460ff16801561109357508060020160009054906101000a900473ffffffffffffffffffffffffffffffffffffffff1673ffffffffffffffffffffffffffffffffffffffff168373ffffffffffffffffffffffffffffffffffffffff16145b9150506110b1565b8060000160009054906101000a900460ff169150505b92915050565b600560008363ffffffff1663ffffffff16815260200190815260200160002060000160009054906101000a900460ff16611126576040517f08c379a000000000000000000000000000000000000000000000000000000000815260040161111d906134b8565b60405180910390fd5b600034111561113a5761113933346105b7565b5b6000600560008463ffffffff1663ffffffff16815260200190815260200160002060020160009054906101000a900473ffffffffffffffffffffffffffffffffffffffff169050600160009054906101000a900473ffffffffffffffffffffffffffffffffffffffff1673ffffffffffffffffffffffffffffffffffffffff16636aee9b9533836111d386670de0b6b3a7640000611b63565b6040518463ffffffff1660e01b81526004016111f1939291906134d8565b600060405180830381600087803b15801561120b57600080fd5b505af115801561121f573d6000803e3d6000fd5b505050508073ffffffffffffffffffffffffffffffffffffffff16633b4da69f33846040518363ffffffff1660e01b815260040161125e929190613070565b600060405180830381600087803b15801561127857600080fd5b505af115801561128c573d6000803e3d6000fd5b50505050505050565b600860205281600052604060002081815481106112b157600080fd5b906000526020600020016000915091509054906101000a900473ffffffffffffffffffffffffffffffffffffffff1681565b60056020528060005260406000206000915090508060000160009054906101000a900460ff16908060000160019054906101000a900463ffffffff16908060010154908060020160009054906101000a900473ffffffffffffffffffffffffffffffffffffffff16905084565b6060600860008373ffffffffffffffffffffffffffffffffffffffff1673ffffffffffffffffffffffffffffffffffffffff16815260200190815260200160002080548060200260200160405190810160405280929190818152602001828054801561141157602002820191906000526020600020905b8160009054906101000a900473ffffffffffffffffffffffffffffffffffffffff1673ffffffffffffffffffffffffffffffffffffffff16815260200190600101908083116113c7575b50505050509050919050565b60046020528060005260406000206000915054906101000a900473ffffffffffffffffffffffffffffffffffffffff1681565b611458611c41565b73ffffffffffffffffffffffffffffffffffffffff16611476611693565b73ffffffffffffffffffffffffffffffffffffffff16146114cc576040517f08c379a00000000000000000000000000000000000000000000000000000000081526004016114c39061355b565b60405180910390fd5b6114d66000611c49565b565b606060008251905060008111611523576040517f08c379a000000000000000000000000000000000000000000000000000000000815260040161151a906135c7565b60405180910390fd5b60008167ffffffffffffffff81111561153f5761153e612ae0565b5b60405190808252806020026020018201604052801561156d5781602001602082028036833780820191505090505b50905060005b828110156115e85760008582815181106115905761158f6135e7565b5b602002602001015190506115a381611d0d565b60038111156115b5576115b46131b3565b5b8383815181106115c8576115c76135e7565b5b6020026020010181815250505080806115e090613616565b915050611573565b508092505050919050565b600760205280600052604060002060009150905080546116129061368d565b80601f016020809104026020016040519081016040528092919081815260200182805461163e9061368d565b801561168b5780601f106116605761010080835404028352916020019161168b565b820191906000526020600020905b81548152906001019060200180831161166e57829003601f168201915b505050505081565b60008060009054906101000a900473ffffffffffffffffffffffffffffffffffffffff16905090565b6060600380548060200260200160405190810160405280929190818152602001828054801561174057602002820191906000526020600020905b8160009054906101000a900473ffffffffffffffffffffffffffffffffffffffff1673ffffffffffffffffffffffffffffffffffffffff16815260200190600101908083116116f6575b5050505050905090565b8181600760003373ffffffffffffffffffffffffffffffffffffffff1673ffffffffffffffffffffffffffffffffffffffff16815260200190815260200160002091906117989291906125df565b505050565b60066020528060005260406000206000915090508060000160009054906101000a900460ff16908060000160019054906101000a900463ffffffff16908060010154908060020160009054906101000a900473ffffffffffffffffffffffffffffffffffffffff16905084565b6000819050600860008473ffffffffffffffffffffffffffffffffffffffff1673ffffffffffffffffffffffffffffffffffffffff168152602001908152602001600020829080600181540180825580915050600190039060005260206000200160009091909190916101000a81548173ffffffffffffffffffffffffffffffffffffffff021916908373ffffffffffffffffffffffffffffffffffffffff160217905550505050565b600381815481106118c457600080fd5b906000526020600020016000915054906101000a900473ffffffffffffffffffffffffffffffffffffffff1681565b6118fd33346105b7565b565b600080600160009054906101000a900473ffffffffffffffffffffffffffffffffffffffff1673ffffffffffffffffffffffffffffffffffffffff166318160ddd6040518163ffffffff1660e01b8152600401602060405180830381865afa15801561196f573d6000803e3d6000fd5b505050506040513d601f19601f820116820180604052508101906119939190613389565b9050600030905060008173ffffffffffffffffffffffffffffffffffffffff163190506119c08382611bf7565b935050505090565b6119d0611c41565b73ffffffffffffffffffffffffffffffffffffffff166119ee611693565b73ffffffffffffffffffffffffffffffffffffffff1614611a44576040517f08c379a0000000000000000000000000000000000000000000000000000000008152600401611a3b9061355b565b60405180910390fd5b600073ffffffffffffffffffffffffffffffffffffffff168173ffffffffffffffffffffffffffffffffffffffff1603611ab3576040517f08c379a0000000000000000000000000000000000000000000000000000000008152600401611aaa90613730565b60405180910390fd5b611abc81611c49565b50565b60008073ffffffffffffffffffffffffffffffffffffffff16600460008463ffffffff1663ffffffff16815260200190815260200160002060009054906101000a900473ffffffffffffffffffffffffffffffffffffffff1673ffffffffffffffffffffffffffffffffffffffff1614159050919050565b60025481565b600160009054906101000a900473ffffffffffffffffffffffffffffffffffffffff1681565b6000611ba583836040518060400160405280601781526020017f6d756c7469706c69636174696f6e206f766572666c6f77000000000000000000815250612494565b905092915050565b6000611bef83836040518060400160405280601181526020017f6164646974696f6e206f766572666c6f7700000000000000000000000000000081525061251f565b905092915050565b6000611c3983836040518060400160405280600e81526020017f646976696465206279207a65726f000000000000000000000000000000000000815250612582565b905092915050565b600033905090565b60008060009054906101000a900473ffffffffffffffffffffffffffffffffffffffff169050816000806101000a81548173ffffffffffffffffffffffffffffffffffffffff021916908373ffffffffffffffffffffffffffffffffffffffff1602179055508173ffffffffffffffffffffffffffffffffffffffff168173ffffffffffffffffffffffffffffffffffffffff167f8be0079c531659141344cd1fd0a4f28419497f9722a3daafe3b4186f6b6457e060405160405180910390a35050565b6000808273ffffffffffffffffffffffffffffffffffffffff1663df4c0ab16040518163ffffffff1660e01b8152600401602060405180830381865afa158015611d5b573d6000803e3d6000fd5b505050506040513d601f19601f82011682018060405250810190611d7f91906130ae565b9050611d89611693565b73ffffffffffffffffffffffffffffffffffffffff168373ffffffffffffffffffffffffffffffffffffffff16638da5cb5b6040518163ffffffff1660e01b8152600401602060405180830381865afa158015611dea573d6000803e3d6000fd5b505050506040513d601f19601f82011682018060405250810190611e0e91906132db565b73ffffffffffffffffffffffffffffffffffffffff1614611e2e57600080fd5b600560008473ffffffffffffffffffffffffffffffffffffffff1663df4c0ab16040518163ffffffff1660e01b8152600401602060405180830381865afa158015611e7d573d6000803e3d6000fd5b505050506040513d601f19601f82011682018060405250810190611ea191906130ae565b63ffffffff1663ffffffff16815260200190815260200160002060000160009054906101000a900460ff1615611edb57600191505061248f565b8273ffffffffffffffffffffffffffffffffffffffff16633d98fc176040518163ffffffff1660e01b8152600401602060405180830381865afa158015611f26573d6000803e3d6000fd5b505050506040513d601f19601f82011682018060405250810190611f4a919061377c565b611f5857600291505061248f565b600160009054906101000a900473ffffffffffffffffffffffffffffffffffffffff1673ffffffffffffffffffffffffffffffffffffffff168373ffffffffffffffffffffffffffffffffffffffff1663fc0c546a6040518163ffffffff1660e01b8152600401602060405180830381865afa158015611fdc573d6000803e3d6000fd5b505050506040513d601f19601f8201168201806040525081019061200091906137e7565b73ffffffffffffffffffffffffffffffffffffffff161461202557600391505061248f565b60405180608001604052806001151581526020018263ffffffff16815260200160038054905081526020018473ffffffffffffffffffffffffffffffffffffffff16815250600560008573ffffffffffffffffffffffffffffffffffffffff1663df4c0ab16040518163ffffffff1660e01b8152600401602060405180830381865afa1580156120b9573d6000803e3d6000fd5b505050506040513d601f19601f820116820180604052508101906120dd91906130ae565b63ffffffff1663ffffffff16815260200190815260200160002060008201518160000160006101000a81548160ff02191690831515021790555060208201518160000160016101000a81548163ffffffff021916908363ffffffff1602179055506040820151816001015560608201518160020160006101000a81548173ffffffffffffffffffffffffffffffffffffffff021916908373ffffffffffffffffffffffffffffffffffffffff16021790555090505060405180608001604052806001151581526020018263ffffffff16815260200160038054905081526020018473ffffffffffffffffffffffffffffffffffffffff16815250600660008573ffffffffffffffffffffffffffffffffffffffff1673ffffffffffffffffffffffffffffffffffffffff16815260200190815260200160002060008201518160000160006101000a81548160ff02191690831515021790555060208201518160000160016101000a81548163ffffffff021916908363ffffffff1602179055506040820151816001015560608201518160020160006101000a81548173ffffffffffffffffffffffffffffffffffffffff021916908373ffffffffffffffffffffffffffffffffffffffff1602179055509050506003839080600181540180825580915050600190039060005260206000200160009091909190916101000a81548173ffffffffffffffffffffffffffffffffffffffff021916908373ffffffffffffffffffffffffffffffffffffffff16021790555082600460008363ffffffff1663ffffffff16815260200190815260200160002060006101000a81548173ffffffffffffffffffffffffffffffffffffffff021916908373ffffffffffffffffffffffffffffffffffffffff1602179055507f79c15b7d71c2d981f95776a6e12a8fa91ba14c26050b923145af86420c662c0f838473ffffffffffffffffffffffffffffffffffffffff1663df4c0ab16040518163ffffffff1660e01b8152600401602060405180830381865afa1580156123df573d6000803e3d6000fd5b505050506040513d601f19601f8201168201806040525081019061240391906130ae565b8573ffffffffffffffffffffffffffffffffffffffff1663c379b4be6040518163ffffffff1660e01b8152600401602060405180830381865afa15801561244e573d6000803e3d6000fd5b505050506040513d601f19601f820116820180604052508101906124729190613389565b60405161248193929190613814565b60405180910390a160009150505b919050565b6000808414806124a45750600083145b156124b25760009050612518565b600083856124c0919061384b565b90508385826124cf91906138d4565b148390612512576040517f08c379a00000000000000000000000000000000000000000000000000000000081526004016125099190612dd4565b60405180910390fd5b50809150505b9392505050565b600080838561252e9190613905565b9050848110158390612576576040517f08c379a000000000000000000000000000000000000000000000000000000000815260040161256d9190612dd4565b60405180910390fd5b50809150509392505050565b600080831182906125c9576040517f08c379a00000000000000000000000000000000000000000000000000000000081526004016125c09190612dd4565b60405180910390fd5b5082846125d691906138d4565b90509392505050565b8280546125eb9061368d565b90600052602060002090601f01602090048101928261260d5760008555612654565b82601f1061262657803560ff1916838001178555612654565b82800160010185558215612654579182015b82811115612653578235825591602001919060010190612638565b5b5090506126619190612665565b5090565b5b8082111561267e576000816000905550600101612666565b5090565b6000604051905090565b600080fd5b600080fd5b600073ffffffffffffffffffffffffffffffffffffffff82169050919050565b60006126c182612696565b9050919050565b6126d1816126b6565b81146126dc57600080fd5b50565b6000813590506126ee816126c8565b92915050565b60006020828403121561270a5761270961268c565b5b6000612718848285016126df565b91505092915050565b6000819050919050565b61273481612721565b82525050565b600060208201905061274f600083018461272b565b92915050565b61275e81612721565b811461276957600080fd5b50565b60008135905061277b81612755565b92915050565b6000602082840312156127975761279661268c565b5b60006127a58482850161276c565b91505092915050565b600063ffffffff82169050919050565b6127c7816127ae565b81146127d257600080fd5b50565b6000813590506127e4816127be565b92915050565b600080604083850312156128015761280061268c565b5b600061280f858286016127d5565b9250506020612820858286016126df565b9150509250929050565b60008115159050919050565b61283f8161282a565b82525050565b600060208201905061285a6000830184612836565b92915050565b600080604083850312156128775761287661268c565b5b6000612885858286016127d5565b92505060206128968582860161276c565b9150509250929050565b600080604083850312156128b7576128b661268c565b5b60006128c5858286016126df565b92505060206128d68582860161276c565b9150509250929050565b6128e9816126b6565b82525050565b600060208201905061290460008301846128e0565b92915050565b6000602082840312156129205761291f61268c565b5b600061292e848285016127d5565b91505092915050565b612940816127ae565b82525050565b6000819050919050565b600061296b61296661296184612696565b612946565b612696565b9050919050565b600061297d82612950565b9050919050565b600061298f82612972565b9050919050565b61299f81612984565b82525050565b60006080820190506129ba6000830187612836565b6129c76020830186612937565b6129d4604083018561272b565b6129e16060830184612996565b95945050505050565b600081519050919050565b600082825260208201905092915050565b6000819050602082019050919050565b612a1f816126b6565b82525050565b6000612a318383612a16565b60208301905092915050565b6000602082019050919050565b6000612a55826129ea565b612a5f81856129f5565b9350612a6a83612a06565b8060005b83811015612a9b578151612a828882612a25565b9750612a8d83612a3d565b925050600181019050612a6e565b5085935050505092915050565b60006020820190508181036000830152612ac28184612a4a565b905092915050565b600080fd5b6000601f19601f8301169050919050565b7f4e487b7100000000000000000000000000000000000000000000000000000000600052604160045260246000fd5b612b1882612acf565b810181811067ffffffffffffffff82111715612b3757612b36612ae0565b5b80604052505050565b6000612b4a612682565b9050612b568282612b0f565b919050565b600067ffffffffffffffff821115612b7657612b75612ae0565b5b602082029050602081019050919050565b600080fd5b6000612b9f612b9a84612b5b565b612b40565b90508083825260208201905060208402830185811115612bc257612bc1612b87565b5b835b81811015612beb5780612bd788826126df565b845260208401935050602081019050612bc4565b5050509392505050565b600082601f830112612c0a57612c09612aca565b5b8135612c1a848260208601612b8c565b91505092915050565b600060208284031215612c3957612c3861268c565b5b600082013567ffffffffffffffff811115612c5757612c56612691565b5b612c6384828501612bf5565b91505092915050565b600081519050919050565b600082825260208201905092915050565b6000819050602082019050919050565b612ca181612721565b82525050565b6000612cb38383612c98565b60208301905092915050565b6000602082019050919050565b6000612cd782612c6c565b612ce18185612c77565b9350612cec83612c88565b8060005b83811015612d1d578151612d048882612ca7565b9750612d0f83612cbf565b925050600181019050612cf0565b5085935050505092915050565b60006020820190508181036000830152612d448184612ccc565b905092915050565b600081519050919050565b600082825260208201905092915050565b60005b83811015612d86578082015181840152602081019050612d6b565b83811115612d95576000848401525b50505050565b6000612da682612d4c565b612db08185612d57565b9350612dc0818560208601612d68565b612dc981612acf565b840191505092915050565b60006020820190508181036000830152612dee8184612d9b565b905092915050565b600081519050919050565b6000819050602082019050919050565b612e1a81612984565b82525050565b6000612e2c8383612e11565b60208301905092915050565b6000602082019050919050565b6000612e5082612df6565b612e5a81856129f5565b9350612e6583612e01565b8060005b83811015612e96578151612e7d8882612e20565b9750612e8883612e38565b925050600181019050612e69565b5085935050505092915050565b60006020820190508181036000830152612ebd8184612e45565b905092915050565b600080fd5b60008083601f840112612ee057612edf612aca565b5b8235905067ffffffffffffffff811115612efd57612efc612ec5565b5b602083019150836001820283011115612f1957612f18612b87565b5b9250929050565b60008060208385031215612f3757612f3661268c565b5b600083013567ffffffffffffffff811115612f5557612f54612691565b5b612f6185828601612eca565b92509250509250929050565b60008060408385031215612f8457612f8361268c565b5b6000612f92858286016126df565b9250506020612fa3858286016126df565b9150509250929050565b6000602082019050612fc26000830184612996565b92915050565b6000612fd382612972565b9050919050565b612fe381612fc8565b82525050565b6000602082019050612ffe6000830184612fda565b92915050565b7f6d7573742070726f7669646572206574682067726561746572207468616e2030600082015250565b600061303a602083612d57565b915061304582613004565b602082019050919050565b600060208201905081810360008301526130698161302d565b9050919050565b600060408201905061308560008301856128e0565b613092602083018461272b565b9392505050565b6000815190506130a8816127be565b92915050565b6000602082840312156130c4576130c361268c565b5b60006130d284828501613099565b91505092915050565b7f6d7573742066696e6420676f6f6420636f6e7472616374000000000000000000600082015250565b6000613111601783612d57565b915061311c826130db565b602082019050919050565b6000602082019050818103600083015261314081613104565b9050919050565b7f676f6f642069732066616b650000000000000000000000000000000000000000600082015250565b600061317d600c83612d57565b915061318882613147565b602082019050919050565b600060208201905081810360008301526131ac81613170565b9050919050565b7f4e487b7100000000000000000000000000000000000000000000000000000000600052602160045260246000fd5b600781106131ef57600080fd5b50565b600081519050613201816131e2565b92915050565b60006020828403121561321d5761321c61268c565b5b600061322b848285016131f2565b91505092915050565b7f676f6f64206c6f747465727920737461747573206973206e6f7420636f72726560008201527f6374000000000000000000000000000000000000000000000000000000000000602082015250565b6000613290602283612d57565b915061329b82613234565b604082019050919050565b600060208201905081810360008301526132bf81613283565b9050919050565b6000815190506132d5816126c8565b92915050565b6000602082840312156132f1576132f061268c565b5b60006132ff848285016132c6565b91505092915050565b7f746865206f776e6572206973206e6f7420636f72726563740000000000000000600082015250565b600061333e601883612d57565b915061334982613308565b602082019050919050565b6000602082019050818103600083015261336d81613331565b9050919050565b60008151905061338381612755565b92915050565b60006020828403121561339f5761339e61268c565b5b60006133ad84828501613374565b91505092915050565b7f4e487b7100000000000000000000000000000000000000000000000000000000600052601160045260246000fd5b60006133f082612721565b91506133fb83612721565b92508282101561340e5761340d6133b6565b5b828203905092915050565b600060a08201905061342e60008301886128e0565b61343b602083018761272b565b613448604083018661272b565b613455606083018561272b565b613462608083018461272b565b9695505050505050565b7f6e6f7420666f756e6420676f6f64730000000000000000000000000000000000600082015250565b60006134a2600f83612d57565b91506134ad8261346c565b602082019050919050565b600060208201905081810360008301526134d181613495565b9050919050565b60006060820190506134ed60008301866128e0565b6134fa60208301856128e0565b613507604083018461272b565b949350505050565b7f4f776e61626c653a2063616c6c6572206973206e6f7420746865206f776e6572600082015250565b6000613545602083612d57565b91506135508261350f565b602082019050919050565b6000602082019050818103600083015261357481613538565b9050919050565b7f6c656e677468206d757374206e6f7420626520656d7074790000000000000000600082015250565b60006135b1601883612d57565b91506135bc8261357b565b602082019050919050565b600060208201905081810360008301526135e0816135a4565b9050919050565b7f4e487b7100000000000000000000000000000000000000000000000000000000600052603260045260246000fd5b600061362182612721565b91507fffffffffffffffffffffffffffffffffffffffffffffffffffffffffffffffff8203613653576136526133b6565b5b600182019050919050565b7f4e487b7100000000000000000000000000000000000000000000000000000000600052602260045260246000fd5b600060028204905060018216806136a557607f821691505b6020821081036136b8576136b761365e565b5b50919050565b7f4f776e61626c653a206e6577206f776e657220697320746865207a65726f206160008201527f6464726573730000000000000000000000000000000000000000000000000000602082015250565b600061371a602683612d57565b9150613725826136be565b604082019050919050565b600060208201905081810360008301526137498161370d565b9050919050565b6137598161282a565b811461376457600080fd5b50565b60008151905061377681613750565b92915050565b6000602082840312156137925761379161268c565b5b60006137a084828501613767565b91505092915050565b60006137b4826126b6565b9050919050565b6137c4816137a9565b81146137cf57600080fd5b50565b6000815190506137e1816137bb565b92915050565b6000602082840312156137fd576137fc61268c565b5b600061380b848285016137d2565b91505092915050565b600060608201905061382960008301866128e0565b6138366020830185612937565b613843604083018461272b565b949350505050565b600061385682612721565b915061386183612721565b9250817fffffffffffffffffffffffffffffffffffffffffffffffffffffffffffffffff048311821515161561389a576138996133b6565b5b828202905092915050565b7f4e487b7100000000000000000000000000000000000000000000000000000000600052601260045260246000fd5b60006138df82612721565b91506138ea83612721565b9250826138fa576138f96138a5565b5b828204905092915050565b600061391082612721565b915061391b83612721565b9250827fffffffffffffffffffffffffffffffffffffffffffffffffffffffffffffffff038211156139505761394f6133b6565b5b82820190509291505056fea26469706673582212203a5edbe38d65045e92b2640ee13fc787391c69b72d7b0996ad4a2171e5c368e664736f6c634300080d003360806040523480156200001157600080fd5b506040518060400160405280600981526020017f57697368546f6b656e00000000000000000000000000000000000000000000008152506040518060400160405280600481526020017f5749534800000000000000000000000000000000000000000000000000000000815250816003908051906020019062000096929190620001a6565b508060049080519060200190620000af929190620001a6565b505050620000d2620000c6620000d860201b60201c565b620000e060201b60201c565b620002ba565b600033905090565b6000600560009054906101000a900473ffffffffffffffffffffffffffffffffffffffff16905081600560006101000a81548173ffffffffffffffffffffffffffffffffffffffff021916908373ffffffffffffffffffffffffffffffffffffffff1602179055508173ffffffffffffffffffffffffffffffffffffffff168173ffffffffffffffffffffffffffffffffffffffff167f8be0079c531659141344cd1fd0a4f28419497f9722a3daafe3b4186f6b6457e060405160405180910390a35050565b828054620001b49062000285565b90600052602060002090601f016020900481019282620001d8576000855562000224565b82601f10620001f357805160ff191683800117855562000224565b8280016001018555821562000224579182015b828111156200022357825182559160200191906001019062000206565b5b50905062000233919062000237565b5090565b5b808211156200025257600081600090555060010162000238565b5090565b7f4e487b7100000000000000000000000000000000000000000000000000000000600052602260045260246000fd5b600060028204905060018216806200029e57607f821691505b602082108103620002b457620002b362000256565b5b50919050565b61257a80620002ca6000396000f3fe608060405234801561001057600080fd5b506004361061012c5760003560e01c806370a08231116100ad578063a457c2d711610071578063a457c2d714610331578063a9059cbb14610361578063dd62ed3e14610391578063f2fde38b146103c1578063fcf7ff2a146103dd5761012c565b806370a082311461029f578063715018a6146102cf57806379cc6790146102d95780638da5cb5b146102f557806395d89b41146103135761012c565b806337467de1116100f457806337467de1146101eb578063395093511461021b57806340c10f191461024b57806342966c68146102675780636aee9b95146102835761012c565b806306fdde0314610131578063095ea7b31461014f57806318160ddd1461017f57806323b872dd1461019d578063313ce567146101cd575b600080fd5b610139610410565b6040516101469190611993565b60405180910390f35b61016960048036038101906101649190611a4e565b6104a2565b6040516101769190611aa9565b60405180910390f35b6101876104c5565b6040516101949190611ad3565b60405180910390f35b6101b760048036038101906101b29190611aee565b6104cf565b6040516101c49190611aa9565b60405180910390f35b6101d56104fe565b6040516101e29190611b5d565b60405180910390f35b61020560048036038101906102009190611b78565b610507565b6040516102129190611cc7565b60405180910390f35b61023560048036038101906102309190611a4e565b610665565b6040516102429190611aa9565b60405180910390f35b61026560048036038101906102609190611a4e565b61069c565b005b610281600480360381019061027c9190611ce9565b610726565b005b61029d60048036038101906102989190611aee565b6107b6565b005b6102b960048036038101906102b49190611b78565b610842565b6040516102c69190611ad3565b60405180910390f35b6102d761088a565b005b6102f360048036038101906102ee9190611a4e565b610912565b005b6102fd61099c565b60405161030a9190611d25565b60405180910390f35b61031b6109c6565b6040516103289190611993565b60405180910390f35b61034b60048036038101906103469190611a4e565b610a58565b6040516103589190611aa9565b60405180910390f35b61037b60048036038101906103769190611a4e565b610acf565b6040516103889190611aa9565b60405180910390f35b6103ab60048036038101906103a69190611d40565b610af2565b6040516103b89190611ad3565b60405180910390f35b6103db60048036038101906103d69190611b78565b610b79565b005b6103f760048036038101906103f29190611a4e565b610c70565b6040516104079493929190611d80565b60405180910390f35b60606003805461041f90611df4565b80601f016020809104026020016040519081016040528092919081815260200182805461044b90611df4565b80156104985780601f1061046d57610100808354040283529160200191610498565b820191906000526020600020905b81548152906001019060200180831161047b57829003601f168201915b5050505050905090565b6000806104ad610cfd565b90506104ba818585610d05565b600191505092915050565b6000600254905090565b6000806104da610cfd565b90506104e7858285610ece565b6104f2858585610f5a565b60019150509392505050565b60006012905090565b6060600660008373ffffffffffffffffffffffffffffffffffffffff1673ffffffffffffffffffffffffffffffffffffffff168152602001908152602001600020805480602002602001604051908101604052809291908181526020016000905b8282101561065a57838290600052602060002090600402016040518060800160405290816000820160009054906101000a900473ffffffffffffffffffffffffffffffffffffffff1673ffffffffffffffffffffffffffffffffffffffff1673ffffffffffffffffffffffffffffffffffffffff1681526020016001820160009054906101000a900473ffffffffffffffffffffffffffffffffffffffff1673ffffffffffffffffffffffffffffffffffffffff1673ffffffffffffffffffffffffffffffffffffffff1681526020016002820154815260200160038201548152505081526020019060010190610568565b505050509050919050565b600080610670610cfd565b90506106918185856106828589610af2565b61068c9190611e54565b610d05565b600191505092915050565b6106a4610cfd565b73ffffffffffffffffffffffffffffffffffffffff166106c261099c565b73ffffffffffffffffffffffffffffffffffffffff1614610718576040517f08c379a000000000000000000000000000000000000000000000000000000000815260040161070f90611ef6565b60405180910390fd5b61072282826111d9565b5050565b61072e610cfd565b73ffffffffffffffffffffffffffffffffffffffff1661074c61099c565b73ffffffffffffffffffffffffffffffffffffffff16146107a2576040517f08c379a000000000000000000000000000000000000000000000000000000000815260040161079990611ef6565b60405180910390fd5b6107b36107ad610cfd565b82611338565b50565b6107be610cfd565b73ffffffffffffffffffffffffffffffffffffffff166107dc61099c565b73ffffffffffffffffffffffffffffffffffffffff1614610832576040517f08c379a000000000000000000000000000000000000000000000000000000000815260040161082990611ef6565b60405180910390fd5b61083d838383610d05565b505050565b60008060008373ffffffffffffffffffffffffffffffffffffffff1673ffffffffffffffffffffffffffffffffffffffff168152602001908152602001600020549050919050565b610892610cfd565b73ffffffffffffffffffffffffffffffffffffffff166108b061099c565b73ffffffffffffffffffffffffffffffffffffffff1614610906576040517f08c379a00000000000000000000000000000000000000000000000000000000081526004016108fd90611ef6565b60405180910390fd5b610910600061150e565b565b61091a610cfd565b73ffffffffffffffffffffffffffffffffffffffff1661093861099c565b73ffffffffffffffffffffffffffffffffffffffff161461098e576040517f08c379a000000000000000000000000000000000000000000000000000000000815260040161098590611ef6565b60405180910390fd5b6109988282611338565b5050565b6000600560009054906101000a900473ffffffffffffffffffffffffffffffffffffffff16905090565b6060600480546109d590611df4565b80601f0160208091040260200160405190810160405280929190818152602001828054610a0190611df4565b8015610a4e5780601f10610a2357610100808354040283529160200191610a4e565b820191906000526020600020905b815481529060010190602001808311610a3157829003601f168201915b5050505050905090565b600080610a63610cfd565b90506000610a718286610af2565b905083811015610ab6576040517f08c379a0000000000000000000000000000000000000000000000000000000008152600401610aad90611f88565b60405180910390fd5b610ac38286868403610d05565b60019250505092915050565b600080610ada610cfd565b9050610ae7818585610f5a565b600191505092915050565b6000600160008473ffffffffffffffffffffffffffffffffffffffff1673ffffffffffffffffffffffffffffffffffffffff16815260200190815260200160002060008373ffffffffffffffffffffffffffffffffffffffff1673ffffffffffffffffffffffffffffffffffffffff16815260200190815260200160002054905092915050565b610b81610cfd565b73ffffffffffffffffffffffffffffffffffffffff16610b9f61099c565b73ffffffffffffffffffffffffffffffffffffffff1614610bf5576040517f08c379a0000000000000000000000000000000000000000000000000000000008152600401610bec90611ef6565b60405180910390fd5b600073ffffffffffffffffffffffffffffffffffffffff168173ffffffffffffffffffffffffffffffffffffffff1603610c64576040517f08c379a0000000000000000000000000000000000000000000000000000000008152600401610c5b9061201a565b60405180910390fd5b610c6d8161150e565b50565b60066020528160005260406000208181548110610c8c57600080fd5b9060005260206000209060040201600091509150508060000160009054906101000a900473ffffffffffffffffffffffffffffffffffffffff16908060010160009054906101000a900473ffffffffffffffffffffffffffffffffffffffff16908060020154908060030154905084565b600033905090565b600073ffffffffffffffffffffffffffffffffffffffff168373ffffffffffffffffffffffffffffffffffffffff1603610d74576040517f08c379a0000000000000000000000000000000000000000000000000000000008152600401610d6b906120ac565b60405180910390fd5b600073ffffffffffffffffffffffffffffffffffffffff168273ffffffffffffffffffffffffffffffffffffffff1603610de3576040517f08c379a0000000000000000000000000000000000000000000000000000000008152600401610dda9061213e565b60405180910390fd5b80600160008573ffffffffffffffffffffffffffffffffffffffff1673ffffffffffffffffffffffffffffffffffffffff16815260200190815260200160002060008473ffffffffffffffffffffffffffffffffffffffff1673ffffffffffffffffffffffffffffffffffffffff168152602001908152602001600020819055508173ffffffffffffffffffffffffffffffffffffffff168373ffffffffffffffffffffffffffffffffffffffff167f8c5be1e5ebec7d5bd14f71427d1e84f3dd0314c0f7b2291e5b200ac8c7c3b92583604051610ec19190611ad3565b60405180910390a3505050565b6000610eda8484610af2565b90507fffffffffffffffffffffffffffffffffffffffffffffffffffffffffffffffff8114610f545781811015610f46576040517f08c379a0000000000000000000000000000000000000000000000000000000008152600401610f3d906121aa565b60405180910390fd5b610f538484848403610d05565b5b50505050565b600073ffffffffffffffffffffffffffffffffffffffff168373ffffffffffffffffffffffffffffffffffffffff1603610fc9576040517f08c379a0000000000000000000000000000000000000000000000000000000008152600401610fc09061223c565b60405180910390fd5b600073ffffffffffffffffffffffffffffffffffffffff168273ffffffffffffffffffffffffffffffffffffffff1603611038576040517f08c379a000000000000000000000000000000000000000000000000000000000815260040161102f906122ce565b60405180910390fd5b6110438383836115d4565b60008060008573ffffffffffffffffffffffffffffffffffffffff1673ffffffffffffffffffffffffffffffffffffffff168152602001908152602001600020549050818110156110c9576040517f08c379a00000000000000000000000000000000000000000000000000000000081526004016110c090612360565b60405180910390fd5b8181036000808673ffffffffffffffffffffffffffffffffffffffff1673ffffffffffffffffffffffffffffffffffffffff16815260200190815260200160002081905550816000808573ffffffffffffffffffffffffffffffffffffffff1673ffffffffffffffffffffffffffffffffffffffff168152602001908152602001600020600082825461115c9190611e54565b925050819055508273ffffffffffffffffffffffffffffffffffffffff168473ffffffffffffffffffffffffffffffffffffffff167fddf252ad1be2c89b69c2b068fc378daa952ba7f163c4a11628f55a4df523b3ef846040516111c09190611ad3565b60405180910390a36111d38484846115d9565b50505050565b600073ffffffffffffffffffffffffffffffffffffffff168273ffffffffffffffffffffffffffffffffffffffff1603611248576040517f08c379a000000000000000000000000000000000000000000000000000000000815260040161123f906123cc565b60405180910390fd5b611254600083836115d4565b80600260008282546112669190611e54565b92505081905550806000808473ffffffffffffffffffffffffffffffffffffffff1673ffffffffffffffffffffffffffffffffffffffff16815260200190815260200160002060008282546112bb9190611e54565b925050819055508173ffffffffffffffffffffffffffffffffffffffff16600073ffffffffffffffffffffffffffffffffffffffff167fddf252ad1be2c89b69c2b068fc378daa952ba7f163c4a11628f55a4df523b3ef836040516113209190611ad3565b60405180910390a3611334600083836115d9565b5050565b600073ffffffffffffffffffffffffffffffffffffffff168273ffffffffffffffffffffffffffffffffffffffff16036113a7576040517f08c379a000000000000000000000000000000000000000000000000000000000815260040161139e9061245e565b60405180910390fd5b6113b3826000836115d4565b60008060008473ffffffffffffffffffffffffffffffffffffffff1673ffffffffffffffffffffffffffffffffffffffff16815260200190815260200160002054905081811015611439576040517f08c379a0000000000000000000000000000000000000000000000000000000008152600401611430906124f0565b60405180910390fd5b8181036000808573ffffffffffffffffffffffffffffffffffffffff1673ffffffffffffffffffffffffffffffffffffffff1681526020019081526020016000208190555081600260008282546114909190612510565b92505081905550600073ffffffffffffffffffffffffffffffffffffffff168373ffffffffffffffffffffffffffffffffffffffff167fddf252ad1be2c89b69c2b068fc378daa952ba7f163c4a11628f55a4df523b3ef846040516114f59190611ad3565b60405180910390a3611509836000846115d9565b505050565b6000600560009054906101000a900473ffffffffffffffffffffffffffffffffffffffff16905081600560006101000a81548173ffffffffffffffffffffffffffffffffffffffff021916908373ffffffffffffffffffffffffffffffffffffffff1602179055508173ffffffffffffffffffffffffffffffffffffffff168173ffffffffffffffffffffffffffffffffffffffff167f8be0079c531659141344cd1fd0a4f28419497f9722a3daafe3b4186f6b6457e060405160405180910390a35050565b505050565b600073ffffffffffffffffffffffffffffffffffffffff168373ffffffffffffffffffffffffffffffffffffffff161461176757600660008473ffffffffffffffffffffffffffffffffffffffff1673ffffffffffffffffffffffffffffffffffffffff16815260200190815260200160002060405180608001604052808573ffffffffffffffffffffffffffffffffffffffff1681526020018473ffffffffffffffffffffffffffffffffffffffff16815260200183815260200143815250908060018154018082558091505060019003906000526020600020906004020160009091909190915060008201518160000160006101000a81548173ffffffffffffffffffffffffffffffffffffffff021916908373ffffffffffffffffffffffffffffffffffffffff16021790555060208201518160010160006101000a81548173ffffffffffffffffffffffffffffffffffffffff021916908373ffffffffffffffffffffffffffffffffffffffff160217905550604082015181600201556060820151816003015550505b600073ffffffffffffffffffffffffffffffffffffffff168273ffffffffffffffffffffffffffffffffffffffff16146118f557600660008373ffffffffffffffffffffffffffffffffffffffff1673ffffffffffffffffffffffffffffffffffffffff16815260200190815260200160002060405180608001604052808573ffffffffffffffffffffffffffffffffffffffff1681526020018473ffffffffffffffffffffffffffffffffffffffff16815260200183815260200143815250908060018154018082558091505060019003906000526020600020906004020160009091909190915060008201518160000160006101000a81548173ffffffffffffffffffffffffffffffffffffffff021916908373ffffffffffffffffffffffffffffffffffffffff16021790555060208201518160010160006101000a81548173ffffffffffffffffffffffffffffffffffffffff021916908373ffffffffffffffffffffffffffffffffffffffff160217905550604082015181600201556060820151816003015550505b505050565b600081519050919050565b600082825260208201905092915050565b60005b83811015611934578082015181840152602081019050611919565b83811115611943576000848401525b50505050565b6000601f19601f8301169050919050565b6000611965826118fa565b61196f8185611905565b935061197f818560208601611916565b61198881611949565b840191505092915050565b600060208201905081810360008301526119ad818461195a565b905092915050565b600080fd5b600073ffffffffffffffffffffffffffffffffffffffff82169050919050565b60006119e5826119ba565b9050919050565b6119f5816119da565b8114611a0057600080fd5b50565b600081359050611a12816119ec565b92915050565b6000819050919050565b611a2b81611a18565b8114611a3657600080fd5b50565b600081359050611a4881611a22565b92915050565b60008060408385031215611a6557611a646119b5565b5b6000611a7385828601611a03565b9250506020611a8485828601611a39565b9150509250929050565b60008115159050919050565b611aa381611a8e565b82525050565b6000602082019050611abe6000830184611a9a565b92915050565b611acd81611a18565b82525050565b6000602082019050611ae86000830184611ac4565b92915050565b600080600060608486031215611b0757611b066119b5565b5b6000611b1586828701611a03565b9350506020611b2686828701611a03565b9250506040611b3786828701611a39565b9150509250925092565b600060ff82169050919050565b611b5781611b41565b82525050565b6000602082019050611b726000830184611b4e565b92915050565b600060208284031215611b8e57611b8d6119b5565b5b6000611b9c84828501611a03565b91505092915050565b600081519050919050565b600082825260208201905092915050565b6000819050602082019050919050565b611bda816119da565b82525050565b611be981611a18565b82525050565b608082016000820151611c056000850182611bd1565b506020820151611c186020850182611bd1565b506040820151611c2b6040850182611be0565b506060820151611c3e6060850182611be0565b50505050565b6000611c508383611bef565b60808301905092915050565b6000602082019050919050565b6000611c7482611ba5565b611c7e8185611bb0565b9350611c8983611bc1565b8060005b83811015611cba578151611ca18882611c44565b9750611cac83611c5c565b925050600181019050611c8d565b5085935050505092915050565b60006020820190508181036000830152611ce18184611c69565b905092915050565b600060208284031215611cff57611cfe6119b5565b5b6000611d0d84828501611a39565b91505092915050565b611d1f816119da565b82525050565b6000602082019050611d3a6000830184611d16565b92915050565b60008060408385031215611d5757611d566119b5565b5b6000611d6585828601611a03565b9250506020611d7685828601611a03565b9150509250929050565b6000608082019050611d956000830187611d16565b611da26020830186611d16565b611daf6040830185611ac4565b611dbc6060830184611ac4565b95945050505050565b7f4e487b7100000000000000000000000000000000000000000000000000000000600052602260045260246000fd5b60006002820490506001821680611e0c57607f821691505b602082108103611e1f57611e1e611dc5565b5b50919050565b7f4e487b7100000000000000000000000000000000000000000000000000000000600052601160045260246000fd5b6000611e5f82611a18565b9150611e6a83611a18565b9250827fffffffffffffffffffffffffffffffffffffffffffffffffffffffffffffffff03821115611e9f57611e9e611e25565b5b828201905092915050565b7f4f776e61626c653a2063616c6c6572206973206e6f7420746865206f776e6572600082015250565b6000611ee0602083611905565b9150611eeb82611eaa565b602082019050919050565b60006020820190508181036000830152611f0f81611ed3565b9050919050565b7f45524332303a2064656372656173656420616c6c6f77616e63652062656c6f7760008201527f207a65726f000000000000000000000000000000000000000000000000000000602082015250565b6000611f72602583611905565b9150611f7d82611f16565b604082019050919050565b60006020820190508181036000830152611fa181611f65565b9050919050565b7f4f776e61626c653a206e6577206f776e657220697320746865207a65726f206160008201527f6464726573730000000000000000000000000000000000000000000000000000602082015250565b6000612004602683611905565b915061200f82611fa8565b604082019050919050565b6000602082019050818103600083015261203381611ff7565b9050919050565b7f45524332303a20617070726f76652066726f6d20746865207a65726f2061646460008201527f7265737300000000000000000000000000000000000000000000000000000000602082015250565b6000612096602483611905565b91506120a18261203a565b604082019050919050565b600060208201905081810360008301526120c581612089565b9050919050565b7f45524332303a20617070726f766520746f20746865207a65726f20616464726560008201527f7373000000000000000000000000000000000000000000000000000000000000602082015250565b6000612128602283611905565b9150612133826120cc565b604082019050919050565b600060208201905081810360008301526121578161211b565b9050919050565b7f45524332303a20696e73756666696369656e7420616c6c6f77616e6365000000600082015250565b6000612194601d83611905565b915061219f8261215e565b602082019050919050565b600060208201905081810360008301526121c381612187565b9050919050565b7f45524332303a207472616e736665722066726f6d20746865207a65726f20616460008201527f6472657373000000000000000000000000000000000000000000000000000000602082015250565b6000612226602583611905565b9150612231826121ca565b604082019050919050565b6000602082019050818103600083015261225581612219565b9050919050565b7f45524332303a207472616e7366657220746f20746865207a65726f206164647260008201527f6573730000000000000000000000000000000000000000000000000000000000602082015250565b60006122b8602383611905565b91506122c38261225c565b604082019050919050565b600060208201905081810360008301526122e7816122ab565b9050919050565b7f45524332303a207472616e7366657220616d6f756e742065786365656473206260008201527f616c616e63650000000000000000000000000000000000000000000000000000602082015250565b600061234a602683611905565b9150612355826122ee565b604082019050919050565b600060208201905081810360008301526123798161233d565b9050919050565b7f45524332303a206d696e7420746f20746865207a65726f206164647265737300600082015250565b60006123b6601f83611905565b91506123c182612380565b602082019050919050565b600060208201905081810360008301526123e5816123a9565b9050919050565b7f45524332303a206275726e2066726f6d20746865207a65726f2061646472657360008201527f7300000000000000000000000000000000000000000000000000000000000000602082015250565b6000612448602183611905565b9150612453826123ec565b604082019050919050565b600060208201905081810360008301526124778161243b565b9050919050565b7f45524332303a206275726e20616d6f756e7420657863656564732062616c616e60008201527f6365000000000000000000000000000000000000000000000000000000000000602082015250565b60006124da602283611905565b91506124e58261247e565b604082019050919050565b60006020820190508181036000830152612509816124cd565b9050919050565b600061251b82611a18565b915061252683611a18565b92508282101561253957612538611e25565b5b82820390509291505056fea26469706673582212208b00bab1c9289d0561d3d1af2ff4b0cebd9fb967b5b645946b0b9ebc99c06acd64736f6c634300080d0033",
  "immutableReferences": {},
  "source": "// SPDX-License-Identifier: MIT\npragma solidity >=0.4.22 <0.9.0;\n\nimport \"@openzeppelin/contracts/access/Ownable.sol\";\nimport \"./WishToken.sol\";\nimport \"./Exponential.sol\";\nimport \"./GoodLottery.sol\";\nimport \"./ComptrollerInterface.sol\";\n\ncontract Comptroller is Ownable, Exponential, ComptrollerInterface {\n\n    enum Error {\n        NO_ERROR,\n        DUPLICATE_GOOD,\n        INVALID_ADDRESS,\n        INVALID_TOKEN_ADDRESS\n    }\n\n\n    struct GoodInfo {\n        bool isList;\n        uint32 goodId;\n        uint goodIndex;\n        GoodLottery good;\n    }\n\n    WishToken public token;\n    uint256 public ethToTokenExchangeRate;\n\n    GoodLottery[] public allGoods;\n    mapping(uint32 => address) public goodIds;\n\n    mapping(uint32 => GoodInfo) public goodsMapping;\n\n    mapping(address => GoodInfo) public goodAddressMapping;\n\n    mapping(address => string) public userNames;\n\n    mapping(address => address[]) public userPublishedGoods;\n\n    constructor(uint256 _exchangeRate) payable Ownable() {\n        require(_exchangeRate > 0, \"exchangeRate must be greater than 0 \");\n        ethToTokenExchangeRate = _exchangeRate; \n        token = new WishToken();\n        _mintToken(msg.sender, msg.value);\n    }\n\n\n    function exchange() public payable {\n        _mintToken(msg.sender, msg.value);\n    }\n\n    receive() external payable {\n        _mintToken(msg.sender, msg.value);\n    }\n\n    function changeUserName(string calldata name) public {\n        userNames[msg.sender] = name;\n    }\n\n    function withdraw(uint amount) public {\n        token.burnFrom(msg.sender, amount);\n        uint exchangeRate = div_(address(this).balance, token.totalSupply());\n        payable(msg.sender).transfer(mul_(amount, exchangeRate));\n    }\n\n    function addGood(address user, address good) external override {\n        //TODO: check good lottery method.\n        GoodLottery goodLottery = GoodLottery(good);\n        userPublishedGoods[user].push(good);\n    }\n    \n\n    function publishGood(address[] memory goods) public override returns (uint[] memory) {\n        uint len = goods.length;\n        require(len > 0, \"length must not be empty\");\n\n        uint[] memory results = new uint[](len);\n\n        for (uint i = 0; i < len; i++) {\n            GoodLottery goodLottery = GoodLottery(goods[i]);\n            results[i] = uint(publishGoodInternal(goodLottery));\n        }\n\n        return results;\n\n    }\n\n    function exchangeAndJoin(uint32 goodsId, uint amount) public payable {\n        require(goodsMapping[goodsId].isList, \"not found goods\");\n\n        if (msg.value > 0) {\n            _mintToken(msg.sender, msg.value);\n        }\n\n        GoodLottery goodLottery = goodsMapping[goodsId].good;\n        token.approveByOwner(msg.sender, address(goodLottery), mul_(amount, 10 ** 18));\n\n        goodLottery.join(msg.sender, amount);\n    }\n\n     function publishGoodInternal(GoodLottery goodLottery) internal returns (Error) {\n       uint32 goodId = goodLottery.goodId();\n       require(goodLottery.owner() == owner());\n\n       if (goodsMapping[goodLottery.goodId()].isList) {\n           return Error.DUPLICATE_GOOD;\n       }\n\n       if (!goodLottery.isGoodLottery()) {\n           return Error.INVALID_ADDRESS;\n       }\n\n       if (address(goodLottery.token()) != address(token)) {\n           return Error.INVALID_TOKEN_ADDRESS;\n       }\n\n       goodsMapping[goodLottery.goodId()] = GoodInfo({isList: true, goodId: goodId, good: goodLottery, goodIndex: allGoods.length});\n       goodAddressMapping[address(goodLottery)] = GoodInfo({isList: true, goodId: goodId, good: goodLottery, goodIndex: allGoods.length});\n\n       allGoods.push(goodLottery);\n       goodIds[goodId] = address(goodLottery);\n\n        emit GoodPublished(address(goodLottery), goodLottery.goodId(), goodLottery.goodValue());\n\n        return Error.NO_ERROR;\n    }\n\n    \n     function pickWinnerAllowed(address good) external override returns (uint) {\n       uint32 goodId = GoodLottery(good).goodId();\n       GoodInfo storage goodInfo = goodsMapping[goodId];\n\n       GoodLottery goodLottery = goodInfo.good; \n\n       require(address(goodInfo.good) != address(0), \"must find good contract\");\n       require(address(goodInfo.good) == good, \"good is fake\");\n       require(goodInfo.good.getStage() == GoodInterface.Stage.IN_PICK, \"good lottery status is not correct\");\n       require(goodLottery.owner() == owner(),  \"the owner is not correct\");\n\n       uint256 balance = token.balanceOf(address(goodLottery));\n       uint goodValue = goodLottery.goodValue();\n       uint mf = goodLottery.maintenanceFee();\n\n       uint rate = goodLottery.getTokenExchangeRate();\n\n       uint needTokens = mul_(add_(goodValue, mf), rate);\n\n       if(needTokens <= balance) {\n           return balance;\n       }\n\n       uint mintValue = needTokens - balance;\n\n       token.mint(address(goodLottery), mintValue);\n\n       emit MintForAddGoodValue(address(goodLottery), goodValue, balance, mf, mintValue);\n\n       balance = token.balanceOf(address(goodLottery));\n\n       return balance;\n     }\n\n    function _mintToken(address user, uint256 amount) internal virtual {\n        require(amount > 0, \"must provider eth greater than 0\");\n        uint mintValue = mul_(amount, ethToTokenExchangeRate);\n\n        token.mint(user, mintValue);\n\n        emit MintForUsers(user, amount); \n    }\n\n\n    function getExchangeRate() public view returns (uint256) {\n        uint256 totalTokens = token.totalSupply();\n        address eoa = address(this);\n        uint256 balance = eoa.balance;\n\n        return div_(totalTokens, balance);\n    }\n\n    function getGoods() public view returns (GoodLottery[] memory) {\n        return allGoods;\n    }\n\n    function getUserPublishedGoods(address user) public view returns (address[] memory) {\n        return userPublishedGoods[user];\n    }\n\n    function isDuplicateGoodId(uint32 goodId) public view override returns(bool) {\n        return goodIds[goodId] != address(0);\n    }\n\n    function goodIsList(uint32 goodId, address checkAddress) public view returns (bool) {\n        GoodInfo storage info = goodsMapping[goodId];\n        if(checkAddress != address(0)) {\n            return info.isList && checkAddress == address(info.good);\n        }\n        return info.isList;\n    }\n}",
  "sourcePath": "/Users/jonah/SolidityProject/makewish-contract/contracts/Comptroller.sol",
  "compiler": {
    "name": "solc",
    "version": "0.8.13+commit.abaa5c0e.Emscripten.clang"
  },
  "schemaVersion": "3.4.7",
  "updatedAt": "2022-06-02T03:56:10.444Z",
  "devdoc": {
    "kind": "dev",
    "methods": {
      "owner()": {
        "details": "Returns the address of the current owner."
      },
      "renounceOwnership()": {
        "details": "Leaves the contract without owner. It will not be possible to call `onlyOwner` functions anymore. Can only be called by the current owner. NOTE: Renouncing ownership will leave the contract without an owner, thereby removing any functionality that is only available to the owner."
      },
      "transferOwnership(address)": {
        "details": "Transfers ownership of the contract to a new account (`newOwner`). Can only be called by the current owner."
      }
    },
    "version": 1
  },
  "userdoc": {
    "kind": "user",
    "methods": {},
    "version": 1
  }
}