{
  "contractName": "Comptroller",
  "abi": [
    {
      "inputs": [
        {
          "internalType": "uint256",
          "name": "_exchangeRate",
          "type": "uint256"
        }
      ],
      "stateMutability": "payable",
      "type": "constructor",
      "payable": true
    },
    {
      "anonymous": false,
      "inputs": [
        {
          "indexed": false,
          "internalType": "address",
          "name": "goodAddress",
          "type": "address"
        },
        {
          "indexed": false,
          "internalType": "uint32",
          "name": "goodId",
          "type": "uint32"
        },
        {
          "indexed": false,
          "internalType": "uint256",
          "name": "goodValue",
          "type": "uint256"
        }
      ],
      "name": "GoodPublished",
      "type": "event"
    },
    {
      "anonymous": false,
      "inputs": [
        {
          "indexed": false,
          "internalType": "address",
          "name": "goodAddress",
          "type": "address"
        },
        {
          "indexed": false,
          "internalType": "uint256",
          "name": "goodValue",
          "type": "uint256"
        },
        {
          "indexed": false,
          "internalType": "uint256",
          "name": "balance",
          "type": "uint256"
        },
        {
          "indexed": false,
          "internalType": "uint256",
          "name": "mf",
          "type": "uint256"
        },
        {
          "indexed": false,
          "internalType": "uint256",
          "name": "mintValue",
          "type": "uint256"
        }
      ],
      "name": "MintForAddGoodValue",
      "type": "event"
    },
    {
      "anonymous": false,
      "inputs": [
        {
          "indexed": false,
          "internalType": "address",
          "name": "user",
          "type": "address"
        },
        {
          "indexed": false,
          "internalType": "uint256",
          "name": "amount",
          "type": "uint256"
        }
      ],
      "name": "MintForUsers",
      "type": "event"
    },
    {
      "anonymous": false,
      "inputs": [
        {
          "indexed": true,
          "internalType": "address",
          "name": "previousOwner",
          "type": "address"
        },
        {
          "indexed": true,
          "internalType": "address",
          "name": "newOwner",
          "type": "address"
        }
      ],
      "name": "OwnershipTransferred",
      "type": "event"
    },
    {
      "inputs": [
        {
          "internalType": "uint256",
          "name": "",
          "type": "uint256"
        }
      ],
      "name": "allGoods",
      "outputs": [
        {
          "internalType": "contract GoodLottery",
          "name": "",
          "type": "address"
        }
      ],
      "stateMutability": "view",
      "type": "function",
      "constant": true
    },
    {
      "inputs": [],
      "name": "ethToTokenExchangeRate",
      "outputs": [
        {
          "internalType": "uint256",
          "name": "",
          "type": "uint256"
        }
      ],
      "stateMutability": "view",
      "type": "function",
      "constant": true
    },
    {
      "inputs": [
        {
          "internalType": "uint32",
          "name": "",
          "type": "uint32"
        }
      ],
      "name": "goodsMapping",
      "outputs": [
        {
          "internalType": "bool",
          "name": "isList",
          "type": "bool"
        },
        {
          "internalType": "uint32",
          "name": "goodId",
          "type": "uint32"
        },
        {
          "internalType": "contract GoodLottery",
          "name": "good",
          "type": "address"
        }
      ],
      "stateMutability": "view",
      "type": "function",
      "constant": true
    },
    {
      "inputs": [],
      "name": "owner",
      "outputs": [
        {
          "internalType": "address",
          "name": "",
          "type": "address"
        }
      ],
      "stateMutability": "view",
      "type": "function",
      "constant": true
    },
    {
      "inputs": [],
      "name": "renounceOwnership",
      "outputs": [],
      "stateMutability": "nonpayable",
      "type": "function"
    },
    {
      "inputs": [],
      "name": "token",
      "outputs": [
        {
          "internalType": "contract WishToken",
          "name": "",
          "type": "address"
        }
      ],
      "stateMutability": "view",
      "type": "function",
      "constant": true
    },
    {
      "inputs": [
        {
          "internalType": "address",
          "name": "newOwner",
          "type": "address"
        }
      ],
      "name": "transferOwnership",
      "outputs": [],
      "stateMutability": "nonpayable",
      "type": "function"
    },
    {
      "inputs": [],
      "name": "exchange",
      "outputs": [],
      "stateMutability": "payable",
      "type": "function",
      "payable": true
    },
    {
      "inputs": [
        {
          "internalType": "uint256",
          "name": "amount",
          "type": "uint256"
        }
      ],
      "name": "withdraw",
      "outputs": [],
      "stateMutability": "nonpayable",
      "type": "function"
    },
    {
      "inputs": [
        {
          "internalType": "address[]",
          "name": "goods",
          "type": "address[]"
        }
      ],
      "name": "publishGood",
      "outputs": [
        {
          "internalType": "uint256[]",
          "name": "",
          "type": "uint256[]"
        }
      ],
      "stateMutability": "nonpayable",
      "type": "function"
    },
    {
      "inputs": [
        {
          "internalType": "uint32",
          "name": "goodsId",
          "type": "uint32"
        },
        {
          "internalType": "uint256",
          "name": "amount",
          "type": "uint256"
        }
      ],
      "name": "exchangeAndJoin",
      "outputs": [],
      "stateMutability": "payable",
      "type": "function",
      "payable": true
    },
    {
      "inputs": [
        {
          "internalType": "address",
          "name": "good",
          "type": "address"
        }
      ],
      "name": "pickWinnerAllowed",
      "outputs": [
        {
          "internalType": "uint256",
          "name": "",
          "type": "uint256"
        }
      ],
      "stateMutability": "nonpayable",
      "type": "function"
    },
    {
      "inputs": [],
      "name": "getExchangeRate",
      "outputs": [
        {
          "internalType": "uint256",
          "name": "",
          "type": "uint256"
        }
      ],
      "stateMutability": "view",
      "type": "function",
      "constant": true
    },
    {
      "inputs": [],
      "name": "getGoods",
      "outputs": [
        {
          "internalType": "contract GoodLottery[]",
          "name": "",
          "type": "address[]"
        }
      ],
      "stateMutability": "view",
      "type": "function",
      "constant": true
    }
  ],
  "bytecode": "0x6080604052604051620055803803806200558083398181016040528101906200002991906200044d565b620000496200003d6200011b60201b60201c565b6200012360201b60201c565b600081116200008f576040517f08c379a0000000000000000000000000000000000000000000000000000000008152600401620000869062000506565b60405180910390fd5b80600281905550604051620000a490620003ff565b604051809103906000f080158015620000c1573d6000803e3d6000fd5b50600160006101000a81548173ffffffffffffffffffffffffffffffffffffffff021916908373ffffffffffffffffffffffffffffffffffffffff160217905550620001143334620001e760201b60201c565b50620007cb565b600033905090565b60008060009054906101000a900473ffffffffffffffffffffffffffffffffffffffff169050816000806101000a81548173ffffffffffffffffffffffffffffffffffffffff021916908373ffffffffffffffffffffffffffffffffffffffff1602179055508173ffffffffffffffffffffffffffffffffffffffff168173ffffffffffffffffffffffffffffffffffffffff167f8be0079c531659141344cd1fd0a4f28419497f9722a3daafe3b4186f6b6457e060405160405180910390a35050565b600081116200022d576040517f08c379a0000000000000000000000000000000000000000000000000000000008152600401620002249062000578565b60405180910390fd5b600062000243826002546200031860201b60201c565b9050600160009054906101000a900473ffffffffffffffffffffffffffffffffffffffff1673ffffffffffffffffffffffffffffffffffffffff166340c10f1984836040518363ffffffff1660e01b8152600401620002a4929190620005f0565b600060405180830381600087803b158015620002bf57600080fd5b505af1158015620002d4573d6000803e3d6000fd5b505050507fe483ee6d344b571ff11f3deb09271e1fcc40233c27abe0319f66c9d923388d7e83836040516200030b929190620005f0565b60405180910390a1505050565b60006200036283836040518060400160405280601781526020017f6d756c7469706c69636174696f6e206f766572666c6f770000000000000000008152506200036a60201b60201c565b905092915050565b6000808414806200037b5750600083145b156200038b5760009050620003f8565b600083856200039b91906200064c565b9050838582620003ac9190620006dc565b148390620003f2576040517f08c379a0000000000000000000000000000000000000000000000000000000008152600401620003e99190620007a7565b60405180910390fd5b50809150505b9392505050565b61214d806200343383390190565b600080fd5b6000819050919050565b620004278162000412565b81146200043357600080fd5b50565b60008151905062000447816200041c565b92915050565b6000602082840312156200046657620004656200040d565b5b6000620004768482850162000436565b91505092915050565b600082825260208201905092915050565b7f65786368616e676552617465206d75737420626520677265617465722074686160008201527f6e20302000000000000000000000000000000000000000000000000000000000602082015250565b6000620004ee6024836200047f565b9150620004fb8262000490565b604082019050919050565b600060208201905081810360008301526200052181620004df565b9050919050565b7f6d7573742070726f7669646572206574682067726561746572207468616e2030600082015250565b6000620005606020836200047f565b91506200056d8262000528565b602082019050919050565b60006020820190508181036000830152620005938162000551565b9050919050565b600073ffffffffffffffffffffffffffffffffffffffff82169050919050565b6000620005c7826200059a565b9050919050565b620005d981620005ba565b82525050565b620005ea8162000412565b82525050565b6000604082019050620006076000830185620005ce565b620006166020830184620005df565b9392505050565b7f4e487b7100000000000000000000000000000000000000000000000000000000600052601160045260246000fd5b6000620006598262000412565b9150620006668362000412565b9250817fffffffffffffffffffffffffffffffffffffffffffffffffffffffffffffffff0483118215151615620006a257620006a16200061d565b5b828202905092915050565b7f4e487b7100000000000000000000000000000000000000000000000000000000600052601260045260246000fd5b6000620006e98262000412565b9150620006f68362000412565b925082620007095762000708620006ad565b5b828204905092915050565b600081519050919050565b60005b838110156200073f57808201518184015260208101905062000722565b838111156200074f576000848401525b50505050565b6000601f19601f8301169050919050565b6000620007738262000714565b6200077f81856200047f565b9350620007918185602086016200071f565b6200079c8162000755565b840191505092915050565b60006020820190508181036000830152620007c3818462000766565b905092915050565b612c5880620007db6000396000f3fe6080604052600436106100dd5760003560e01c80639b44f9401161007f578063e6aa216c11610059578063e6aa216c14610294578063f2fde38b146102bf578063fbfa490c146102e8578063fc0c546a14610313576100dd565b80639b44f94014610222578063be28db3c1461024d578063d2f7265a1461028a576100dd565b80636ce99a7c116100bb5780636ce99a7c14610164578063715018a6146101a35780637a284627146101ba5780638da5cb5b146101f7576100dd565b806325281939146100e25780632e1a7d4d1461011f57806335564a4714610148575b600080fd5b3480156100ee57600080fd5b5061010960048036038101906101049190611c7b565b61033e565b6040516101169190611cc1565b60405180910390f35b34801561012b57600080fd5b5061014660048036038101906101419190611d08565b610ab4565b005b610162600480360381019061015d9190611d71565b610b5a565b005b34801561017057600080fd5b5061018b60048036038101906101869190611db1565b610d38565b60405161019a93929190611e67565b60405180910390f35b3480156101af57600080fd5b506101b8610d9f565b005b3480156101c657600080fd5b506101e160048036038101906101dc9190611ff7565b610e27565b6040516101ee91906120fe565b60405180910390f35b34801561020357600080fd5b5061020c610fbe565b604051610219919061212f565b60405180910390f35b34801561022e57600080fd5b50610237610fe7565b6040516102449190612208565b60405180910390f35b34801561025957600080fd5b50610274600480360381019061026f9190611d08565b611075565b604051610281919061222a565b60405180910390f35b6102926110b4565b005b3480156102a057600080fd5b506102a96110c0565b6040516102b69190611cc1565b60405180910390f35b3480156102cb57600080fd5b506102e660048036038101906102e19190611c7b565b611189565b005b3480156102f457600080fd5b506102fd611280565b60405161030a9190611cc1565b60405180910390f35b34801561031f57600080fd5b50610328611286565b6040516103359190612266565b60405180910390f35b6000808273ffffffffffffffffffffffffffffffffffffffff1663df4c0ab16040518163ffffffff1660e01b8152600401602060405180830381865afa15801561038c573d6000803e3d6000fd5b505050506040513d601f19601f820116820180604052508101906103b09190612296565b90506000600460008363ffffffff1663ffffffff168152602001908152602001600020905060008160000160059054906101000a900473ffffffffffffffffffffffffffffffffffffffff169050600073ffffffffffffffffffffffffffffffffffffffff168260000160059054906101000a900473ffffffffffffffffffffffffffffffffffffffff1673ffffffffffffffffffffffffffffffffffffffff1603610491576040517f08c379a000000000000000000000000000000000000000000000000000000000815260040161048890612320565b60405180910390fd5b8473ffffffffffffffffffffffffffffffffffffffff168260000160059054906101000a900473ffffffffffffffffffffffffffffffffffffffff1673ffffffffffffffffffffffffffffffffffffffff1614610523576040517f08c379a000000000000000000000000000000000000000000000000000000000815260040161051a9061238c565b60405180910390fd5b60046006811115610537576105366123ac565b5b8260000160059054906101000a900473ffffffffffffffffffffffffffffffffffffffff1673ffffffffffffffffffffffffffffffffffffffff1663c040e6b86040518163ffffffff1660e01b8152600401602060405180830381865afa1580156105a6573d6000803e3d6000fd5b505050506040513d601f19601f820116820180604052508101906105ca9190612400565b60068111156105dc576105db6123ac565b5b1461061c576040517f08c379a00000000000000000000000000000000000000000000000000000000081526004016106139061249f565b60405180910390fd5b610624610fbe565b73ffffffffffffffffffffffffffffffffffffffff168173ffffffffffffffffffffffffffffffffffffffff16638da5cb5b6040518163ffffffff1660e01b8152600401602060405180830381865afa158015610685573d6000803e3d6000fd5b505050506040513d601f19601f820116820180604052508101906106a991906124d4565b73ffffffffffffffffffffffffffffffffffffffff16146106ff576040517f08c379a00000000000000000000000000000000000000000000000000000000081526004016106f69061254d565b60405180910390fd5b6000600160009054906101000a900473ffffffffffffffffffffffffffffffffffffffff1673ffffffffffffffffffffffffffffffffffffffff166370a08231836040518263ffffffff1660e01b815260040161075c919061212f565b602060405180830381865afa158015610779573d6000803e3d6000fd5b505050506040513d601f19601f8201168201806040525081019061079d9190612582565b905060008273ffffffffffffffffffffffffffffffffffffffff1663c379b4be6040518163ffffffff1660e01b8152600401602060405180830381865afa1580156107ec573d6000803e3d6000fd5b505050506040513d601f19601f820116820180604052508101906108109190612582565b905060008373ffffffffffffffffffffffffffffffffffffffff1663046604496040518163ffffffff1660e01b8152600401602060405180830381865afa15801561085f573d6000803e3d6000fd5b505050506040513d601f19601f820116820180604052508101906108839190612582565b905060008473ffffffffffffffffffffffffffffffffffffffff1663c01d1c606040518163ffffffff1660e01b8152600401602060405180830381865afa1580156108d2573d6000803e3d6000fd5b505050506040513d601f19601f820116820180604052508101906108f69190612582565b9050600061090d61090785856112ac565b836112f6565b9050848111610926578498505050505050505050610aaf565b6000858261093491906125de565b9050600160009054906101000a900473ffffffffffffffffffffffffffffffffffffffff1673ffffffffffffffffffffffffffffffffffffffff166340c10f1988836040518363ffffffff1660e01b8152600401610993929190612612565b600060405180830381600087803b1580156109ad57600080fd5b505af11580156109c1573d6000803e3d6000fd5b505050507f59df894f81517e73e3e11f324b7b9144e67bed08455a35e9328084e4171b0ebd87868887856040516109fc95949392919061263b565b60405180910390a1600160009054906101000a900473ffffffffffffffffffffffffffffffffffffffff1673ffffffffffffffffffffffffffffffffffffffff166370a08231886040518263ffffffff1660e01b8152600401610a5f919061212f565b602060405180830381865afa158015610a7c573d6000803e3d6000fd5b505050506040513d601f19601f82011682018060405250810190610aa09190612582565b95508599505050505050505050505b919050565b600160009054906101000a900473ffffffffffffffffffffffffffffffffffffffff1673ffffffffffffffffffffffffffffffffffffffff166323b872dd3330846040518463ffffffff1660e01b8152600401610b139392919061268e565b6020604051808303816000875af1158015610b32573d6000803e3d6000fd5b505050506040513d601f19601f82011682018060405250810190610b5691906126f1565b5050565b600460008363ffffffff1663ffffffff16815260200190815260200160002060000160009054906101000a900460ff16610bc9576040517f08c379a0000000000000000000000000000000000000000000000000000000008152600401610bc09061276a565b60405180910390fd5b6000341115610bdd57610bdc3334611340565b5b6000600460008463ffffffff1663ffffffff16815260200190815260200160002060000160059054906101000a900473ffffffffffffffffffffffffffffffffffffffff169050600160009054906101000a900473ffffffffffffffffffffffffffffffffffffffff1673ffffffffffffffffffffffffffffffffffffffff16636aee9b953383610c7686670de0b6b3a76400006112f6565b6040518463ffffffff1660e01b8152600401610c949392919061268e565b600060405180830381600087803b158015610cae57600080fd5b505af1158015610cc2573d6000803e3d6000fd5b505050508073ffffffffffffffffffffffffffffffffffffffff16633b4da69f33846040518363ffffffff1660e01b8152600401610d01929190612612565b600060405180830381600087803b158015610d1b57600080fd5b505af1158015610d2f573d6000803e3d6000fd5b50505050505050565b60046020528060005260406000206000915090508060000160009054906101000a900460ff16908060000160019054906101000a900463ffffffff16908060000160059054906101000a900473ffffffffffffffffffffffffffffffffffffffff16905083565b610da7611460565b73ffffffffffffffffffffffffffffffffffffffff16610dc5610fbe565b73ffffffffffffffffffffffffffffffffffffffff1614610e1b576040517f08c379a0000000000000000000000000000000000000000000000000000000008152600401610e12906127d6565b60405180910390fd5b610e256000611468565b565b6060610e31611460565b73ffffffffffffffffffffffffffffffffffffffff16610e4f610fbe565b73ffffffffffffffffffffffffffffffffffffffff1614610ea5576040517f08c379a0000000000000000000000000000000000000000000000000000000008152600401610e9c906127d6565b60405180910390fd5b60008251905060008111610eee576040517f08c379a0000000000000000000000000000000000000000000000000000000008152600401610ee590612842565b60405180910390fd5b60008167ffffffffffffffff811115610f0a57610f09611eb4565b5b604051908082528060200260200182016040528015610f385781602001602082028036833780820191505090505b50905060005b82811015610fb3576000858281518110610f5b57610f5a612862565b5b60200260200101519050610f6e8161152c565b6003811115610f8057610f7f6123ac565b5b838381518110610f9357610f92612862565b5b602002602001018181525050508080610fab90612891565b915050610f3e565b508092505050919050565b60008060009054906101000a900473ffffffffffffffffffffffffffffffffffffffff16905090565b6060600380548060200260200160405190810160405280929190818152602001828054801561106b57602002820191906000526020600020905b8160009054906101000a900473ffffffffffffffffffffffffffffffffffffffff1673ffffffffffffffffffffffffffffffffffffffff1681526020019060010190808311611021575b5050505050905090565b6003818154811061108557600080fd5b906000526020600020016000915054906101000a900473ffffffffffffffffffffffffffffffffffffffff1681565b6110be3334611340565b565b600080600160009054906101000a900473ffffffffffffffffffffffffffffffffffffffff1673ffffffffffffffffffffffffffffffffffffffff166318160ddd6040518163ffffffff1660e01b8152600401602060405180830381865afa158015611130573d6000803e3d6000fd5b505050506040513d601f19601f820116820180604052508101906111549190612582565b9050600030905060008173ffffffffffffffffffffffffffffffffffffffff163190506111818382611a74565b935050505090565b611191611460565b73ffffffffffffffffffffffffffffffffffffffff166111af610fbe565b73ffffffffffffffffffffffffffffffffffffffff1614611205576040517f08c379a00000000000000000000000000000000000000000000000000000000081526004016111fc906127d6565b60405180910390fd5b600073ffffffffffffffffffffffffffffffffffffffff168173ffffffffffffffffffffffffffffffffffffffff1603611274576040517f08c379a000000000000000000000000000000000000000000000000000000000815260040161126b9061294b565b60405180910390fd5b61127d81611468565b50565b60025481565b600160009054906101000a900473ffffffffffffffffffffffffffffffffffffffff1681565b60006112ee83836040518060400160405280601181526020017f6164646974696f6e206f766572666c6f77000000000000000000000000000000815250611abe565b905092915050565b600061133883836040518060400160405280601781526020017f6d756c7469706c69636174696f6e206f766572666c6f77000000000000000000815250611b21565b905092915050565b60008111611383576040517f08c379a000000000000000000000000000000000000000000000000000000000815260040161137a906129b7565b60405180910390fd5b6000611391826002546112f6565b9050600160009054906101000a900473ffffffffffffffffffffffffffffffffffffffff1673ffffffffffffffffffffffffffffffffffffffff166340c10f1984836040518363ffffffff1660e01b81526004016113f0929190612612565b600060405180830381600087803b15801561140a57600080fd5b505af115801561141e573d6000803e3d6000fd5b505050507fe483ee6d344b571ff11f3deb09271e1fcc40233c27abe0319f66c9d923388d7e8383604051611453929190612612565b60405180910390a1505050565b600033905090565b60008060009054906101000a900473ffffffffffffffffffffffffffffffffffffffff169050816000806101000a81548173ffffffffffffffffffffffffffffffffffffffff021916908373ffffffffffffffffffffffffffffffffffffffff1602179055508173ffffffffffffffffffffffffffffffffffffffff168173ffffffffffffffffffffffffffffffffffffffff167f8be0079c531659141344cd1fd0a4f28419497f9722a3daafe3b4186f6b6457e060405160405180910390a35050565b6000808273ffffffffffffffffffffffffffffffffffffffff1663df4c0ab16040518163ffffffff1660e01b8152600401602060405180830381865afa15801561157a573d6000803e3d6000fd5b505050506040513d601f19601f8201168201806040525081019061159e9190612296565b9050600460008473ffffffffffffffffffffffffffffffffffffffff1663df4c0ab16040518163ffffffff1660e01b8152600401602060405180830381865afa1580156115ef573d6000803e3d6000fd5b505050506040513d601f19601f820116820180604052508101906116139190612296565b63ffffffff1663ffffffff16815260200190815260200160002060000160009054906101000a900460ff161561164d576001915050611a6f565b8273ffffffffffffffffffffffffffffffffffffffff16633d98fc176040518163ffffffff1660e01b8152600401602060405180830381865afa158015611698573d6000803e3d6000fd5b505050506040513d601f19601f820116820180604052508101906116bc91906126f1565b6116ca576002915050611a6f565b600160009054906101000a900473ffffffffffffffffffffffffffffffffffffffff1673ffffffffffffffffffffffffffffffffffffffff168373ffffffffffffffffffffffffffffffffffffffff1663fc0c546a6040518163ffffffff1660e01b8152600401602060405180830381865afa15801561174e573d6000803e3d6000fd5b505050506040513d601f19601f820116820180604052508101906117729190612a15565b73ffffffffffffffffffffffffffffffffffffffff1614611797576003915050611a6f565b60405180606001604052806001151581526020018263ffffffff1681526020018473ffffffffffffffffffffffffffffffffffffffff16815250600460008573ffffffffffffffffffffffffffffffffffffffff1663df4c0ab16040518163ffffffff1660e01b8152600401602060405180830381865afa158015611820573d6000803e3d6000fd5b505050506040513d601f19601f820116820180604052508101906118449190612296565b63ffffffff1663ffffffff16815260200190815260200160002060008201518160000160006101000a81548160ff02191690831515021790555060208201518160000160016101000a81548163ffffffff021916908363ffffffff16021790555060408201518160000160056101000a81548173ffffffffffffffffffffffffffffffffffffffff021916908373ffffffffffffffffffffffffffffffffffffffff1602179055509050506003839080600181540180825580915050600190039060005260206000200160009091909190916101000a81548173ffffffffffffffffffffffffffffffffffffffff021916908373ffffffffffffffffffffffffffffffffffffffff1602179055507f79c15b7d71c2d981f95776a6e12a8fa91ba14c26050b923145af86420c662c0f838473ffffffffffffffffffffffffffffffffffffffff1663df4c0ab16040518163ffffffff1660e01b8152600401602060405180830381865afa1580156119bf573d6000803e3d6000fd5b505050506040513d601f19601f820116820180604052508101906119e39190612296565b8573ffffffffffffffffffffffffffffffffffffffff1663c379b4be6040518163ffffffff1660e01b8152600401602060405180830381865afa158015611a2e573d6000803e3d6000fd5b505050506040513d601f19601f82011682018060405250810190611a529190612582565b604051611a6193929190612a42565b60405180910390a160009150505b919050565b6000611ab683836040518060400160405280600e81526020017f646976696465206279207a65726f000000000000000000000000000000000000815250611bac565b905092915050565b6000808385611acd9190612a79565b9050848110158390611b15576040517f08c379a0000000000000000000000000000000000000000000000000000000008152600401611b0c9190612b46565b60405180910390fd5b50809150509392505050565b600080841480611b315750600083145b15611b3f5760009050611ba5565b60008385611b4d9190612b68565b9050838582611b5c9190612bf1565b148390611b9f576040517f08c379a0000000000000000000000000000000000000000000000000000000008152600401611b969190612b46565b60405180910390fd5b50809150505b9392505050565b60008083118290611bf3576040517f08c379a0000000000000000000000000000000000000000000000000000000008152600401611bea9190612b46565b60405180910390fd5b508284611c009190612bf1565b90509392505050565b6000604051905090565b600080fd5b600080fd5b600073ffffffffffffffffffffffffffffffffffffffff82169050919050565b6000611c4882611c1d565b9050919050565b611c5881611c3d565b8114611c6357600080fd5b50565b600081359050611c7581611c4f565b92915050565b600060208284031215611c9157611c90611c13565b5b6000611c9f84828501611c66565b91505092915050565b6000819050919050565b611cbb81611ca8565b82525050565b6000602082019050611cd66000830184611cb2565b92915050565b611ce581611ca8565b8114611cf057600080fd5b50565b600081359050611d0281611cdc565b92915050565b600060208284031215611d1e57611d1d611c13565b5b6000611d2c84828501611cf3565b91505092915050565b600063ffffffff82169050919050565b611d4e81611d35565b8114611d5957600080fd5b50565b600081359050611d6b81611d45565b92915050565b60008060408385031215611d8857611d87611c13565b5b6000611d9685828601611d5c565b9250506020611da785828601611cf3565b9150509250929050565b600060208284031215611dc757611dc6611c13565b5b6000611dd584828501611d5c565b91505092915050565b60008115159050919050565b611df381611dde565b82525050565b611e0281611d35565b82525050565b6000819050919050565b6000611e2d611e28611e2384611c1d565b611e08565b611c1d565b9050919050565b6000611e3f82611e12565b9050919050565b6000611e5182611e34565b9050919050565b611e6181611e46565b82525050565b6000606082019050611e7c6000830186611dea565b611e896020830185611df9565b611e966040830184611e58565b949350505050565b600080fd5b6000601f19601f8301169050919050565b7f4e487b7100000000000000000000000000000000000000000000000000000000600052604160045260246000fd5b611eec82611ea3565b810181811067ffffffffffffffff82111715611f0b57611f0a611eb4565b5b80604052505050565b6000611f1e611c09565b9050611f2a8282611ee3565b919050565b600067ffffffffffffffff821115611f4a57611f49611eb4565b5b602082029050602081019050919050565b600080fd5b6000611f73611f6e84611f2f565b611f14565b90508083825260208201905060208402830185811115611f9657611f95611f5b565b5b835b81811015611fbf5780611fab8882611c66565b845260208401935050602081019050611f98565b5050509392505050565b600082601f830112611fde57611fdd611e9e565b5b8135611fee848260208601611f60565b91505092915050565b60006020828403121561200d5761200c611c13565b5b600082013567ffffffffffffffff81111561202b5761202a611c18565b5b61203784828501611fc9565b91505092915050565b600081519050919050565b600082825260208201905092915050565b6000819050602082019050919050565b61207581611ca8565b82525050565b6000612087838361206c565b60208301905092915050565b6000602082019050919050565b60006120ab82612040565b6120b5818561204b565b93506120c08361205c565b8060005b838110156120f15781516120d8888261207b565b97506120e383612093565b9250506001810190506120c4565b5085935050505092915050565b6000602082019050818103600083015261211881846120a0565b905092915050565b61212981611c3d565b82525050565b60006020820190506121446000830184612120565b92915050565b600081519050919050565b600082825260208201905092915050565b6000819050602082019050919050565b61217f81611e46565b82525050565b60006121918383612176565b60208301905092915050565b6000602082019050919050565b60006121b58261214a565b6121bf8185612155565b93506121ca83612166565b8060005b838110156121fb5781516121e28882612185565b97506121ed8361219d565b9250506001810190506121ce565b5085935050505092915050565b6000602082019050818103600083015261222281846121aa565b905092915050565b600060208201905061223f6000830184611e58565b92915050565b600061225082611e34565b9050919050565b61226081612245565b82525050565b600060208201905061227b6000830184612257565b92915050565b60008151905061229081611d45565b92915050565b6000602082840312156122ac576122ab611c13565b5b60006122ba84828501612281565b91505092915050565b600082825260208201905092915050565b7f6d7573742066696e6420676f6f6420636f6e7472616374000000000000000000600082015250565b600061230a6017836122c3565b9150612315826122d4565b602082019050919050565b60006020820190508181036000830152612339816122fd565b9050919050565b7f676f6f642069732066616b650000000000000000000000000000000000000000600082015250565b6000612376600c836122c3565b915061238182612340565b602082019050919050565b600060208201905081810360008301526123a581612369565b9050919050565b7f4e487b7100000000000000000000000000000000000000000000000000000000600052602160045260246000fd5b600781106123e857600080fd5b50565b6000815190506123fa816123db565b92915050565b60006020828403121561241657612415611c13565b5b6000612424848285016123eb565b91505092915050565b7f676f6f64206c6f747465727920737461747573206973206e6f7420636f72726560008201527f6374000000000000000000000000000000000000000000000000000000000000602082015250565b60006124896022836122c3565b91506124948261242d565b604082019050919050565b600060208201905081810360008301526124b88161247c565b9050919050565b6000815190506124ce81611c4f565b92915050565b6000602082840312156124ea576124e9611c13565b5b60006124f8848285016124bf565b91505092915050565b7f746865206f776e6572206973206e6f7420636f72726563740000000000000000600082015250565b60006125376018836122c3565b915061254282612501565b602082019050919050565b600060208201905081810360008301526125668161252a565b9050919050565b60008151905061257c81611cdc565b92915050565b60006020828403121561259857612597611c13565b5b60006125a68482850161256d565b91505092915050565b7f4e487b7100000000000000000000000000000000000000000000000000000000600052601160045260246000fd5b60006125e982611ca8565b91506125f483611ca8565b925082821015612607576126066125af565b5b828203905092915050565b60006040820190506126276000830185612120565b6126346020830184611cb2565b9392505050565b600060a0820190506126506000830188612120565b61265d6020830187611cb2565b61266a6040830186611cb2565b6126776060830185611cb2565b6126846080830184611cb2565b9695505050505050565b60006060820190506126a36000830186612120565b6126b06020830185612120565b6126bd6040830184611cb2565b949350505050565b6126ce81611dde565b81146126d957600080fd5b50565b6000815190506126eb816126c5565b92915050565b60006020828403121561270757612706611c13565b5b6000612715848285016126dc565b91505092915050565b7f6e6f7420666f756e6420676f6f64730000000000000000000000000000000000600082015250565b6000612754600f836122c3565b915061275f8261271e565b602082019050919050565b6000602082019050818103600083015261278381612747565b9050919050565b7f4f776e61626c653a2063616c6c6572206973206e6f7420746865206f776e6572600082015250565b60006127c06020836122c3565b91506127cb8261278a565b602082019050919050565b600060208201905081810360008301526127ef816127b3565b9050919050565b7f6c656e677468206d757374206e6f7420626520656d7074790000000000000000600082015250565b600061282c6018836122c3565b9150612837826127f6565b602082019050919050565b6000602082019050818103600083015261285b8161281f565b9050919050565b7f4e487b7100000000000000000000000000000000000000000000000000000000600052603260045260246000fd5b600061289c82611ca8565b91507fffffffffffffffffffffffffffffffffffffffffffffffffffffffffffffffff82036128ce576128cd6125af565b5b600182019050919050565b7f4f776e61626c653a206e6577206f776e657220697320746865207a65726f206160008201527f6464726573730000000000000000000000000000000000000000000000000000602082015250565b60006129356026836122c3565b9150612940826128d9565b604082019050919050565b6000602082019050818103600083015261296481612928565b9050919050565b7f6d7573742070726f7669646572206574682067726561746572207468616e2030600082015250565b60006129a16020836122c3565b91506129ac8261296b565b602082019050919050565b600060208201905081810360008301526129d081612994565b9050919050565b60006129e282611c3d565b9050919050565b6129f2816129d7565b81146129fd57600080fd5b50565b600081519050612a0f816129e9565b92915050565b600060208284031215612a2b57612a2a611c13565b5b6000612a3984828501612a00565b91505092915050565b6000606082019050612a576000830186612120565b612a646020830185611df9565b612a716040830184611cb2565b949350505050565b6000612a8482611ca8565b9150612a8f83611ca8565b9250827fffffffffffffffffffffffffffffffffffffffffffffffffffffffffffffffff03821115612ac457612ac36125af565b5b828201905092915050565b600081519050919050565b60005b83811015612af8578082015181840152602081019050612add565b83811115612b07576000848401525b50505050565b6000612b1882612acf565b612b2281856122c3565b9350612b32818560208601612ada565b612b3b81611ea3565b840191505092915050565b60006020820190508181036000830152612b608184612b0d565b905092915050565b6000612b7382611ca8565b9150612b7e83611ca8565b9250817fffffffffffffffffffffffffffffffffffffffffffffffffffffffffffffffff0483118215151615612bb757612bb66125af565b5b828202905092915050565b7f4e487b7100000000000000000000000000000000000000000000000000000000600052601260045260246000fd5b6000612bfc82611ca8565b9150612c0783611ca8565b925082612c1757612c16612bc2565b5b82820490509291505056fea264697066735822122047b342a0a635bda095b8ffacdc7d38b65501a1973e0935ba6503051e26a2a3e364736f6c634300080d003360806040523480156200001157600080fd5b506040518060400160405280600981526020017f57697368546f6b656e00000000000000000000000000000000000000000000008152506040518060400160405280600481526020017f5749534800000000000000000000000000000000000000000000000000000000815250816003908051906020019062000096929190620001a6565b508060049080519060200190620000af929190620001a6565b505050620000d2620000c6620000d860201b60201c565b620000e060201b60201c565b620002ba565b600033905090565b6000600560009054906101000a900473ffffffffffffffffffffffffffffffffffffffff16905081600560006101000a81548173ffffffffffffffffffffffffffffffffffffffff021916908373ffffffffffffffffffffffffffffffffffffffff1602179055508173ffffffffffffffffffffffffffffffffffffffff168173ffffffffffffffffffffffffffffffffffffffff167f8be0079c531659141344cd1fd0a4f28419497f9722a3daafe3b4186f6b6457e060405160405180910390a35050565b828054620001b49062000285565b90600052602060002090601f016020900481019282620001d8576000855562000224565b82601f10620001f357805160ff191683800117855562000224565b8280016001018555821562000224579182015b828111156200022357825182559160200191906001019062000206565b5b50905062000233919062000237565b5090565b5b808211156200025257600081600090555060010162000238565b5090565b7f4e487b7100000000000000000000000000000000000000000000000000000000600052602260045260246000fd5b600060028204905060018216806200029e57607f821691505b602082108103620002b457620002b362000256565b5b50919050565b611e8380620002ca6000396000f3fe608060405234801561001057600080fd5b50600436106101165760003560e01c806370a08231116100a257806395d89b411161007157806395d89b41146102cd578063a457c2d7146102eb578063a9059cbb1461031b578063dd62ed3e1461034b578063f2fde38b1461037b57610116565b806370a0823114610259578063715018a61461028957806379cc6790146102935780638da5cb5b146102af57610116565b8063313ce567116100e9578063313ce567146101b757806339509351146101d557806340c10f191461020557806342966c68146102215780636aee9b951461023d57610116565b806306fdde031461011b578063095ea7b31461013957806318160ddd1461016957806323b872dd14610187575b600080fd5b610123610397565b6040516101309190611425565b60405180910390f35b610153600480360381019061014e91906114e0565b610429565b604051610160919061153b565b60405180910390f35b61017161044c565b60405161017e9190611565565b60405180910390f35b6101a1600480360381019061019c9190611580565b610456565b6040516101ae919061153b565b60405180910390f35b6101bf610485565b6040516101cc91906115ef565b60405180910390f35b6101ef60048036038101906101ea91906114e0565b61048e565b6040516101fc919061153b565b60405180910390f35b61021f600480360381019061021a91906114e0565b6104c5565b005b61023b6004803603810190610236919061160a565b61054f565b005b61025760048036038101906102529190611580565b6105df565b005b610273600480360381019061026e9190611637565b61066b565b6040516102809190611565565b60405180910390f35b6102916106b3565b005b6102ad60048036038101906102a891906114e0565b61073b565b005b6102b76107d7565b6040516102c49190611673565b60405180910390f35b6102d5610801565b6040516102e29190611425565b60405180910390f35b610305600480360381019061030091906114e0565b610893565b604051610312919061153b565b60405180910390f35b610335600480360381019061033091906114e0565b61090a565b604051610342919061153b565b60405180910390f35b6103656004803603810190610360919061168e565b61092d565b6040516103729190611565565b60405180910390f35b61039560048036038101906103909190611637565b6109b4565b005b6060600380546103a6906116fd565b80601f01602080910402602001604051908101604052809291908181526020018280546103d2906116fd565b801561041f5780601f106103f45761010080835404028352916020019161041f565b820191906000526020600020905b81548152906001019060200180831161040257829003601f168201915b5050505050905090565b600080610434610aab565b9050610441818585610ab3565b600191505092915050565b6000600254905090565b600080610461610aab565b905061046e858285610c7c565b610479858585610d08565b60019150509392505050565b60006012905090565b600080610499610aab565b90506104ba8185856104ab858961092d565b6104b5919061175d565b610ab3565b600191505092915050565b6104cd610aab565b73ffffffffffffffffffffffffffffffffffffffff166104eb6107d7565b73ffffffffffffffffffffffffffffffffffffffff1614610541576040517f08c379a0000000000000000000000000000000000000000000000000000000008152600401610538906117ff565b60405180910390fd5b61054b8282610f87565b5050565b610557610aab565b73ffffffffffffffffffffffffffffffffffffffff166105756107d7565b73ffffffffffffffffffffffffffffffffffffffff16146105cb576040517f08c379a00000000000000000000000000000000000000000000000000000000081526004016105c2906117ff565b60405180910390fd5b6105dc6105d6610aab565b826110e6565b50565b6105e7610aab565b73ffffffffffffffffffffffffffffffffffffffff166106056107d7565b73ffffffffffffffffffffffffffffffffffffffff161461065b576040517f08c379a0000000000000000000000000000000000000000000000000000000008152600401610652906117ff565b60405180910390fd5b610666838383610ab3565b505050565b60008060008373ffffffffffffffffffffffffffffffffffffffff1673ffffffffffffffffffffffffffffffffffffffff168152602001908152602001600020549050919050565b6106bb610aab565b73ffffffffffffffffffffffffffffffffffffffff166106d96107d7565b73ffffffffffffffffffffffffffffffffffffffff161461072f576040517f08c379a0000000000000000000000000000000000000000000000000000000008152600401610726906117ff565b60405180910390fd5b61073960006112bc565b565b610743610aab565b73ffffffffffffffffffffffffffffffffffffffff166107616107d7565b73ffffffffffffffffffffffffffffffffffffffff16146107b7576040517f08c379a00000000000000000000000000000000000000000000000000000000081526004016107ae906117ff565b60405180910390fd5b6107c9826107c3610aab565b83610c7c565b6107d382826110e6565b5050565b6000600560009054906101000a900473ffffffffffffffffffffffffffffffffffffffff16905090565b606060048054610810906116fd565b80601f016020809104026020016040519081016040528092919081815260200182805461083c906116fd565b80156108895780601f1061085e57610100808354040283529160200191610889565b820191906000526020600020905b81548152906001019060200180831161086c57829003601f168201915b5050505050905090565b60008061089e610aab565b905060006108ac828661092d565b9050838110156108f1576040517f08c379a00000000000000000000000000000000000000000000000000000000081526004016108e890611891565b60405180910390fd5b6108fe8286868403610ab3565b60019250505092915050565b600080610915610aab565b9050610922818585610d08565b600191505092915050565b6000600160008473ffffffffffffffffffffffffffffffffffffffff1673ffffffffffffffffffffffffffffffffffffffff16815260200190815260200160002060008373ffffffffffffffffffffffffffffffffffffffff1673ffffffffffffffffffffffffffffffffffffffff16815260200190815260200160002054905092915050565b6109bc610aab565b73ffffffffffffffffffffffffffffffffffffffff166109da6107d7565b73ffffffffffffffffffffffffffffffffffffffff1614610a30576040517f08c379a0000000000000000000000000000000000000000000000000000000008152600401610a27906117ff565b60405180910390fd5b600073ffffffffffffffffffffffffffffffffffffffff168173ffffffffffffffffffffffffffffffffffffffff1603610a9f576040517f08c379a0000000000000000000000000000000000000000000000000000000008152600401610a9690611923565b60405180910390fd5b610aa8816112bc565b50565b600033905090565b600073ffffffffffffffffffffffffffffffffffffffff168373ffffffffffffffffffffffffffffffffffffffff1603610b22576040517f08c379a0000000000000000000000000000000000000000000000000000000008152600401610b19906119b5565b60405180910390fd5b600073ffffffffffffffffffffffffffffffffffffffff168273ffffffffffffffffffffffffffffffffffffffff1603610b91576040517f08c379a0000000000000000000000000000000000000000000000000000000008152600401610b8890611a47565b60405180910390fd5b80600160008573ffffffffffffffffffffffffffffffffffffffff1673ffffffffffffffffffffffffffffffffffffffff16815260200190815260200160002060008473ffffffffffffffffffffffffffffffffffffffff1673ffffffffffffffffffffffffffffffffffffffff168152602001908152602001600020819055508173ffffffffffffffffffffffffffffffffffffffff168373ffffffffffffffffffffffffffffffffffffffff167f8c5be1e5ebec7d5bd14f71427d1e84f3dd0314c0f7b2291e5b200ac8c7c3b92583604051610c6f9190611565565b60405180910390a3505050565b6000610c88848461092d565b90507fffffffffffffffffffffffffffffffffffffffffffffffffffffffffffffffff8114610d025781811015610cf4576040517f08c379a0000000000000000000000000000000000000000000000000000000008152600401610ceb90611ab3565b60405180910390fd5b610d018484848403610ab3565b5b50505050565b600073ffffffffffffffffffffffffffffffffffffffff168373ffffffffffffffffffffffffffffffffffffffff1603610d77576040517f08c379a0000000000000000000000000000000000000000000000000000000008152600401610d6e90611b45565b60405180910390fd5b600073ffffffffffffffffffffffffffffffffffffffff168273ffffffffffffffffffffffffffffffffffffffff1603610de6576040517f08c379a0000000000000000000000000000000000000000000000000000000008152600401610ddd90611bd7565b60405180910390fd5b610df1838383611382565b60008060008573ffffffffffffffffffffffffffffffffffffffff1673ffffffffffffffffffffffffffffffffffffffff16815260200190815260200160002054905081811015610e77576040517f08c379a0000000000000000000000000000000000000000000000000000000008152600401610e6e90611c69565b60405180910390fd5b8181036000808673ffffffffffffffffffffffffffffffffffffffff1673ffffffffffffffffffffffffffffffffffffffff16815260200190815260200160002081905550816000808573ffffffffffffffffffffffffffffffffffffffff1673ffffffffffffffffffffffffffffffffffffffff1681526020019081526020016000206000828254610f0a919061175d565b925050819055508273ffffffffffffffffffffffffffffffffffffffff168473ffffffffffffffffffffffffffffffffffffffff167fddf252ad1be2c89b69c2b068fc378daa952ba7f163c4a11628f55a4df523b3ef84604051610f6e9190611565565b60405180910390a3610f81848484611387565b50505050565b600073ffffffffffffffffffffffffffffffffffffffff168273ffffffffffffffffffffffffffffffffffffffff1603610ff6576040517f08c379a0000000000000000000000000000000000000000000000000000000008152600401610fed90611cd5565b60405180910390fd5b61100260008383611382565b8060026000828254611014919061175d565b92505081905550806000808473ffffffffffffffffffffffffffffffffffffffff1673ffffffffffffffffffffffffffffffffffffffff1681526020019081526020016000206000828254611069919061175d565b925050819055508173ffffffffffffffffffffffffffffffffffffffff16600073ffffffffffffffffffffffffffffffffffffffff167fddf252ad1be2c89b69c2b068fc378daa952ba7f163c4a11628f55a4df523b3ef836040516110ce9190611565565b60405180910390a36110e260008383611387565b5050565b600073ffffffffffffffffffffffffffffffffffffffff168273ffffffffffffffffffffffffffffffffffffffff1603611155576040517f08c379a000000000000000000000000000000000000000000000000000000000815260040161114c90611d67565b60405180910390fd5b61116182600083611382565b60008060008473ffffffffffffffffffffffffffffffffffffffff1673ffffffffffffffffffffffffffffffffffffffff168152602001908152602001600020549050818110156111e7576040517f08c379a00000000000000000000000000000000000000000000000000000000081526004016111de90611df9565b60405180910390fd5b8181036000808573ffffffffffffffffffffffffffffffffffffffff1673ffffffffffffffffffffffffffffffffffffffff16815260200190815260200160002081905550816002600082825461123e9190611e19565b92505081905550600073ffffffffffffffffffffffffffffffffffffffff168373ffffffffffffffffffffffffffffffffffffffff167fddf252ad1be2c89b69c2b068fc378daa952ba7f163c4a11628f55a4df523b3ef846040516112a39190611565565b60405180910390a36112b783600084611387565b505050565b6000600560009054906101000a900473ffffffffffffffffffffffffffffffffffffffff16905081600560006101000a81548173ffffffffffffffffffffffffffffffffffffffff021916908373ffffffffffffffffffffffffffffffffffffffff1602179055508173ffffffffffffffffffffffffffffffffffffffff168173ffffffffffffffffffffffffffffffffffffffff167f8be0079c531659141344cd1fd0a4f28419497f9722a3daafe3b4186f6b6457e060405160405180910390a35050565b505050565b505050565b600081519050919050565b600082825260208201905092915050565b60005b838110156113c65780820151818401526020810190506113ab565b838111156113d5576000848401525b50505050565b6000601f19601f8301169050919050565b60006113f78261138c565b6114018185611397565b93506114118185602086016113a8565b61141a816113db565b840191505092915050565b6000602082019050818103600083015261143f81846113ec565b905092915050565b600080fd5b600073ffffffffffffffffffffffffffffffffffffffff82169050919050565b60006114778261144c565b9050919050565b6114878161146c565b811461149257600080fd5b50565b6000813590506114a48161147e565b92915050565b6000819050919050565b6114bd816114aa565b81146114c857600080fd5b50565b6000813590506114da816114b4565b92915050565b600080604083850312156114f7576114f6611447565b5b600061150585828601611495565b9250506020611516858286016114cb565b9150509250929050565b60008115159050919050565b61153581611520565b82525050565b6000602082019050611550600083018461152c565b92915050565b61155f816114aa565b82525050565b600060208201905061157a6000830184611556565b92915050565b60008060006060848603121561159957611598611447565b5b60006115a786828701611495565b93505060206115b886828701611495565b92505060406115c9868287016114cb565b9150509250925092565b600060ff82169050919050565b6115e9816115d3565b82525050565b600060208201905061160460008301846115e0565b92915050565b6000602082840312156116205761161f611447565b5b600061162e848285016114cb565b91505092915050565b60006020828403121561164d5761164c611447565b5b600061165b84828501611495565b91505092915050565b61166d8161146c565b82525050565b60006020820190506116886000830184611664565b92915050565b600080604083850312156116a5576116a4611447565b5b60006116b385828601611495565b92505060206116c485828601611495565b9150509250929050565b7f4e487b7100000000000000000000000000000000000000000000000000000000600052602260045260246000fd5b6000600282049050600182168061171557607f821691505b602082108103611728576117276116ce565b5b50919050565b7f4e487b7100000000000000000000000000000000000000000000000000000000600052601160045260246000fd5b6000611768826114aa565b9150611773836114aa565b9250827fffffffffffffffffffffffffffffffffffffffffffffffffffffffffffffffff038211156117a8576117a761172e565b5b828201905092915050565b7f4f776e61626c653a2063616c6c6572206973206e6f7420746865206f776e6572600082015250565b60006117e9602083611397565b91506117f4826117b3565b602082019050919050565b60006020820190508181036000830152611818816117dc565b9050919050565b7f45524332303a2064656372656173656420616c6c6f77616e63652062656c6f7760008201527f207a65726f000000000000000000000000000000000000000000000000000000602082015250565b600061187b602583611397565b91506118868261181f565b604082019050919050565b600060208201905081810360008301526118aa8161186e565b9050919050565b7f4f776e61626c653a206e6577206f776e657220697320746865207a65726f206160008201527f6464726573730000000000000000000000000000000000000000000000000000602082015250565b600061190d602683611397565b9150611918826118b1565b604082019050919050565b6000602082019050818103600083015261193c81611900565b9050919050565b7f45524332303a20617070726f76652066726f6d20746865207a65726f2061646460008201527f7265737300000000000000000000000000000000000000000000000000000000602082015250565b600061199f602483611397565b91506119aa82611943565b604082019050919050565b600060208201905081810360008301526119ce81611992565b9050919050565b7f45524332303a20617070726f766520746f20746865207a65726f20616464726560008201527f7373000000000000000000000000000000000000000000000000000000000000602082015250565b6000611a31602283611397565b9150611a3c826119d5565b604082019050919050565b60006020820190508181036000830152611a6081611a24565b9050919050565b7f45524332303a20696e73756666696369656e7420616c6c6f77616e6365000000600082015250565b6000611a9d601d83611397565b9150611aa882611a67565b602082019050919050565b60006020820190508181036000830152611acc81611a90565b9050919050565b7f45524332303a207472616e736665722066726f6d20746865207a65726f20616460008201527f6472657373000000000000000000000000000000000000000000000000000000602082015250565b6000611b2f602583611397565b9150611b3a82611ad3565b604082019050919050565b60006020820190508181036000830152611b5e81611b22565b9050919050565b7f45524332303a207472616e7366657220746f20746865207a65726f206164647260008201527f6573730000000000000000000000000000000000000000000000000000000000602082015250565b6000611bc1602383611397565b9150611bcc82611b65565b604082019050919050565b60006020820190508181036000830152611bf081611bb4565b9050919050565b7f45524332303a207472616e7366657220616d6f756e742065786365656473206260008201527f616c616e63650000000000000000000000000000000000000000000000000000602082015250565b6000611c53602683611397565b9150611c5e82611bf7565b604082019050919050565b60006020820190508181036000830152611c8281611c46565b9050919050565b7f45524332303a206d696e7420746f20746865207a65726f206164647265737300600082015250565b6000611cbf601f83611397565b9150611cca82611c89565b602082019050919050565b60006020820190508181036000830152611cee81611cb2565b9050919050565b7f45524332303a206275726e2066726f6d20746865207a65726f2061646472657360008201527f7300000000000000000000000000000000000000000000000000000000000000602082015250565b6000611d51602183611397565b9150611d5c82611cf5565b604082019050919050565b60006020820190508181036000830152611d8081611d44565b9050919050565b7f45524332303a206275726e20616d6f756e7420657863656564732062616c616e60008201527f6365000000000000000000000000000000000000000000000000000000000000602082015250565b6000611de3602283611397565b9150611dee82611d87565b604082019050919050565b60006020820190508181036000830152611e1281611dd6565b9050919050565b6000611e24826114aa565b9150611e2f836114aa565b925082821015611e4257611e4161172e565b5b82820390509291505056fea2646970667358221220a2a23024488cc5cb1650c28457f226a3b1dab193078ee0ad09e1b4b664b063c564736f6c634300080d0033",
  "immutableReferences": {},
  "source": "// SPDX-License-Identifier: MIT\npragma solidity >=0.4.22 <0.9.0;\n\nimport \"@openzeppelin/contracts/access/Ownable.sol\";\nimport \"./WishToken.sol\";\nimport \"./Exponential.sol\";\nimport \"./GoodLottery.sol\";\nimport \"./ComptrollerInterface.sol\";\n\ncontract Comptroller is Ownable, Exponential, ComptrollerInterface {\n\n    enum Error {\n        NO_ERROR,\n        DUPLICATE_GOOD,\n        INVALID_ADDRESS,\n        INVALID_TOKEN_ADDRESS\n    }\n\n\n    struct GoodInfo {\n        bool isList;\n        uint32 goodId;\n        GoodLottery good;\n    }\n\n    WishToken public token;\n    uint256 public ethToTokenExchangeRate;\n\n    GoodLottery[] public allGoods;\n    mapping(uint32 => GoodInfo) public goodsMapping;\n\n\n\n    constructor(uint256 _exchangeRate) payable Ownable() {\n        require(_exchangeRate > 0, \"exchangeRate must be greater than 0 \");\n        ethToTokenExchangeRate = _exchangeRate; \n        token = new WishToken();\n        _mintToken(msg.sender, msg.value);\n    }\n\n\n    function exchange() public payable {\n        _mintToken(msg.sender, msg.value);\n    }\n\n    function withdraw(uint amount) public {\n        token.transferFrom(msg.sender, address(this), amount);\n    }\n\n    function publishGood(address[] memory goods) public onlyOwner returns (uint[] memory) {\n        uint len = goods.length;\n        require(len > 0, \"length must not be empty\");\n\n        uint[] memory results = new uint[](len);\n\n        for (uint i = 0; i < len; i++) {\n            GoodLottery goodLottery = GoodLottery(goods[i]);\n            results[i] = uint(publishGoodInternal(goodLottery));\n        }\n\n        return results;\n\n    }\n\n    function exchangeAndJoin(uint32 goodsId, uint amount) public payable {\n        require(goodsMapping[goodsId].isList, \"not found goods\");\n\n        if (msg.value > 0) {\n            _mintToken(msg.sender, msg.value);\n        }\n\n        GoodLottery goodLottery = goodsMapping[goodsId].good;\n        token.approveByOwner(msg.sender, address(goodLottery), mul_(amount, 10 ** 18));\n\n        goodLottery.join(msg.sender, amount);\n    }\n\n     function publishGoodInternal(GoodLottery goodLottery) internal returns (Error) {\n       uint32 goodId = goodLottery.goodId();\n       if (goodsMapping[goodLottery.goodId()].isList) {\n           return Error.DUPLICATE_GOOD;\n       }\n\n       if (!goodLottery.isGoodLottery()) {\n           return Error.INVALID_ADDRESS;\n       }\n\n       if (address(goodLottery.token()) != address(token)) {\n           return Error.INVALID_TOKEN_ADDRESS;\n       }\n\n       goodsMapping[goodLottery.goodId()] = GoodInfo({isList: true, goodId: goodId, good: goodLottery});\n       allGoods.push(goodLottery);\n\n        emit GoodPublished(address(goodLottery), goodLottery.goodId(), goodLottery.goodValue());\n\n        return Error.NO_ERROR;\n    }\n\n    \n     function pickWinnerAllowed(address good) external returns (uint) {\n       uint32 goodId = GoodLottery(good).goodId();\n       GoodInfo storage goodInfo = goodsMapping[goodId];\n\n       GoodLottery goodLottery = goodInfo.good; \n\n       require(address(goodInfo.good) != address(0), \"must find good contract\");\n       require(address(goodInfo.good) == good, \"good is fake\");\n       require(goodInfo.good.stage() == GoodLottery.Stage.IN_PICK, \"good lottery status is not correct\");\n       require(goodLottery.owner() == owner(),  \"the owner is not correct\");\n\n       uint256 balance = token.balanceOf(address(goodLottery));\n       uint goodValue = goodLottery.goodValue();\n       uint mf = goodLottery.maintenanceFee();\n\n       uint rate = goodLottery.getTokenExchangeRate();\n\n       uint needTokens = mul_(add_(goodValue, mf), rate);\n\n       if(needTokens <= balance) {\n           return balance;\n       }\n\n       uint mintValue = needTokens - balance;\n\n       token.mint(address(goodLottery), mintValue);\n\n       emit MintForAddGoodValue(address(goodLottery), goodValue, balance, mf, mintValue);\n\n       balance = token.balanceOf(address(goodLottery));\n\n       return balance;\n     }\n\n    function _mintToken(address user, uint256 amount) internal virtual {\n        require(amount > 0, \"must provider eth greater than 0\");\n        uint mintValue = mul_(amount, ethToTokenExchangeRate);\n\n        token.mint(user, mintValue);\n\n        emit MintForUsers(user, amount); \n    }\n\n\n    function getExchangeRate() public view returns (uint256) {\n        uint256 totalTokens = token.totalSupply();\n        address eoa = address(this);\n        uint256 balance = eoa.balance;\n\n        return div_(totalTokens, balance);\n    }\n\n    function getGoods() public view returns (GoodLottery[] memory) {\n        return allGoods;\n    }\n}",
  "sourcePath": "/Users/jonah/SolidityProject/makewish-contract/contracts/Comptroller.sol",
  "compiler": {
    "name": "solc",
    "version": "0.8.13+commit.abaa5c0e.Emscripten.clang"
  },
  "schemaVersion": "3.4.7",
  "updatedAt": "2022-05-25T05:31:33.549Z",
  "networkType": "ethereum",
  "devdoc": {
    "kind": "dev",
    "methods": {
      "owner()": {
        "details": "Returns the address of the current owner."
      },
      "renounceOwnership()": {
        "details": "Leaves the contract without owner. It will not be possible to call `onlyOwner` functions anymore. Can only be called by the current owner. NOTE: Renouncing ownership will leave the contract without an owner, thereby removing any functionality that is only available to the owner."
      },
      "transferOwnership(address)": {
        "details": "Transfers ownership of the contract to a new account (`newOwner`). Can only be called by the current owner."
      }
    },
    "version": 1
  },
  "userdoc": {
    "kind": "user",
    "methods": {},
    "version": 1
  }
}