{
  "contractName": "Comptroller",
  "abi": [
    {
      "inputs": [
        {
          "internalType": "uint256",
          "name": "_exchangeRate",
          "type": "uint256"
        }
      ],
      "stateMutability": "payable",
      "type": "constructor"
    },
    {
      "anonymous": false,
      "inputs": [
        {
          "indexed": true,
          "internalType": "address",
          "name": "previousOwner",
          "type": "address"
        },
        {
          "indexed": true,
          "internalType": "address",
          "name": "newOwner",
          "type": "address"
        }
      ],
      "name": "OwnershipTransferred",
      "type": "event"
    },
    {
      "inputs": [],
      "name": "ethToTokenExchangeRate",
      "outputs": [
        {
          "internalType": "uint256",
          "name": "",
          "type": "uint256"
        }
      ],
      "stateMutability": "view",
      "type": "function"
    },
    {
      "inputs": [],
      "name": "owner",
      "outputs": [
        {
          "internalType": "address",
          "name": "",
          "type": "address"
        }
      ],
      "stateMutability": "view",
      "type": "function"
    },
    {
      "inputs": [],
      "name": "renounceOwnership",
      "outputs": [],
      "stateMutability": "nonpayable",
      "type": "function"
    },
    {
      "inputs": [],
      "name": "token",
      "outputs": [
        {
          "internalType": "contract WishToken",
          "name": "",
          "type": "address"
        }
      ],
      "stateMutability": "view",
      "type": "function"
    },
    {
      "inputs": [
        {
          "internalType": "address",
          "name": "newOwner",
          "type": "address"
        }
      ],
      "name": "transferOwnership",
      "outputs": [],
      "stateMutability": "nonpayable",
      "type": "function"
    },
    {
      "inputs": [],
      "name": "purchase",
      "outputs": [],
      "stateMutability": "payable",
      "type": "function"
    },
    {
      "inputs": [],
      "name": "withdraw",
      "outputs": [],
      "stateMutability": "nonpayable",
      "type": "function"
    },
    {
      "inputs": [],
      "name": "getExchangeRate",
      "outputs": [
        {
          "internalType": "uint256",
          "name": "",
          "type": "uint256"
        }
      ],
      "stateMutability": "view",
      "type": "function"
    }
  ],
  "bytecode": "0x60806040526040516200361638038062003616833981810160405281019062000029919062000479565b620000496200003d620000d560201b60201c565b620000dd60201b60201c565b806002819055506040516200005e906200042b565b604051809103906000f0801580156200007b573d6000803e3d6000fd5b50600160006101000a81548173ffffffffffffffffffffffffffffffffffffffff021916908373ffffffffffffffffffffffffffffffffffffffff160217905550620000ce3334620001a160201b60201c565b50620007cf565b600033905090565b60008060009054906101000a900473ffffffffffffffffffffffffffffffffffffffff169050816000806101000a81548173ffffffffffffffffffffffffffffffffffffffff021916908373ffffffffffffffffffffffffffffffffffffffff1602179055508173ffffffffffffffffffffffffffffffffffffffff168173ffffffffffffffffffffffffffffffffffffffff167f8be0079c531659141344cd1fd0a4f28419497f9722a3daafe3b4186f6b6457e060405160405180910390a35050565b60008111620001e7576040517f08c379a0000000000000000000000000000000000000000000000000000000008152600401620001de906200050c565b60405180910390fd5b6000620001fd826002546200034460201b60201c565b90506000620002a982600160009054906101000a900473ffffffffffffffffffffffffffffffffffffffff1673ffffffffffffffffffffffffffffffffffffffff1663313ce5676040518163ffffffff1660e01b8152600401602060405180830381865afa15801562000274573d6000803e3d6000fd5b505050506040513d601f19601f820116820180604052508101906200029a91906200056c565b60ff166200034460201b60201c565b9050600160009054906101000a900473ffffffffffffffffffffffffffffffffffffffff1673ffffffffffffffffffffffffffffffffffffffff166340c10f1985836040518363ffffffff1660e01b81526004016200030a929190620005f4565b600060405180830381600087803b1580156200032557600080fd5b505af11580156200033a573d6000803e3d6000fd5b5050505050505050565b60006200038e83836040518060400160405280601781526020017f6d756c7469706c69636174696f6e206f766572666c6f770000000000000000008152506200039660201b60201c565b905092915050565b600080841480620003a75750600083145b15620003b7576000905062000424565b60008385620003c7919062000650565b9050838582620003d89190620006e0565b1483906200041e576040517f08c379a0000000000000000000000000000000000000000000000000000000008152600401620004159190620007ab565b60405180910390fd5b50809150505b9392505050565b61209a806200157c83390190565b600080fd5b6000819050919050565b62000453816200043e565b81146200045f57600080fd5b50565b600081519050620004738162000448565b92915050565b60006020828403121562000492576200049162000439565b5b6000620004a28482850162000462565b91505092915050565b600082825260208201905092915050565b7f6d7573742070726f7669646572206574682067726561746572207468616e2030600082015250565b6000620004f4602083620004ab565b91506200050182620004bc565b602082019050919050565b600060208201905081810360008301526200052781620004e5565b9050919050565b600060ff82169050919050565b62000546816200052e565b81146200055257600080fd5b50565b60008151905062000566816200053b565b92915050565b60006020828403121562000585576200058462000439565b5b6000620005958482850162000555565b91505092915050565b600073ffffffffffffffffffffffffffffffffffffffff82169050919050565b6000620005cb826200059e565b9050919050565b620005dd81620005be565b82525050565b620005ee816200043e565b82525050565b60006040820190506200060b6000830185620005d2565b6200061a6020830184620005e3565b9392505050565b7f4e487b7100000000000000000000000000000000000000000000000000000000600052601160045260246000fd5b60006200065d826200043e565b91506200066a836200043e565b9250817fffffffffffffffffffffffffffffffffffffffffffffffffffffffffffffffff0483118215151615620006a657620006a562000621565b5b828202905092915050565b7f4e487b7100000000000000000000000000000000000000000000000000000000600052601260045260246000fd5b6000620006ed826200043e565b9150620006fa836200043e565b9250826200070d576200070c620006b1565b5b828204905092915050565b600081519050919050565b60005b838110156200074357808201518184015260208101905062000726565b8381111562000753576000848401525b50505050565b6000601f19601f8301169050919050565b6000620007778262000718565b620007838185620004ab565b93506200079581856020860162000723565b620007a08162000759565b840191505092915050565b60006020820190508181036000830152620007c781846200076a565b905092915050565b610d9d80620007df6000396000f3fe60806040526004361061007b5760003560e01c8063e6aa216c1161004e578063e6aa216c146100e3578063f2fde38b1461010e578063fbfa490c14610137578063fc0c546a146101625761007b565b80633ccfd60b1461008057806364edfbf014610097578063715018a6146100a15780638da5cb5b146100b8575b600080fd5b34801561008c57600080fd5b5061009561018d565b005b61009f61018f565b005b3480156100ad57600080fd5b506100b661019b565b005b3480156100c457600080fd5b506100cd610223565b6040516100da919061084a565b60405180910390f35b3480156100ef57600080fd5b506100f861024c565b604051610105919061087e565b60405180910390f35b34801561011a57600080fd5b50610135600480360381019061013091906108ca565b610315565b005b34801561014357600080fd5b5061014c61040c565b604051610159919061087e565b60405180910390f35b34801561016e57600080fd5b50610177610412565b6040516101849190610956565b60405180910390f35b565b6101993334610438565b565b6101a36105c1565b73ffffffffffffffffffffffffffffffffffffffff166101c1610223565b73ffffffffffffffffffffffffffffffffffffffff1614610217576040517f08c379a000000000000000000000000000000000000000000000000000000000815260040161020e906109ce565b60405180910390fd5b61022160006105c9565b565b60008060009054906101000a900473ffffffffffffffffffffffffffffffffffffffff16905090565b600080600160009054906101000a900473ffffffffffffffffffffffffffffffffffffffff1673ffffffffffffffffffffffffffffffffffffffff166318160ddd6040518163ffffffff1660e01b8152600401602060405180830381865afa1580156102bc573d6000803e3d6000fd5b505050506040513d601f19601f820116820180604052508101906102e09190610a1a565b9050600030905060008173ffffffffffffffffffffffffffffffffffffffff1631905061030d838261068d565b935050505090565b61031d6105c1565b73ffffffffffffffffffffffffffffffffffffffff1661033b610223565b73ffffffffffffffffffffffffffffffffffffffff1614610391576040517f08c379a0000000000000000000000000000000000000000000000000000000008152600401610388906109ce565b60405180910390fd5b600073ffffffffffffffffffffffffffffffffffffffff168173ffffffffffffffffffffffffffffffffffffffff1603610400576040517f08c379a00000000000000000000000000000000000000000000000000000000081526004016103f790610ab9565b60405180910390fd5b610409816105c9565b50565b60025481565b600160009054906101000a900473ffffffffffffffffffffffffffffffffffffffff1681565b6000811161047b576040517f08c379a000000000000000000000000000000000000000000000000000000000815260040161047290610b25565b60405180910390fd5b6000610489826002546106d7565b9050600061052a82600160009054906101000a900473ffffffffffffffffffffffffffffffffffffffff1673ffffffffffffffffffffffffffffffffffffffff1663313ce5676040518163ffffffff1660e01b8152600401602060405180830381865afa1580156104fe573d6000803e3d6000fd5b505050506040513d601f19601f820116820180604052508101906105229190610b7e565b60ff166106d7565b9050600160009054906101000a900473ffffffffffffffffffffffffffffffffffffffff1673ffffffffffffffffffffffffffffffffffffffff166340c10f1985836040518363ffffffff1660e01b8152600401610589929190610bab565b600060405180830381600087803b1580156105a357600080fd5b505af11580156105b7573d6000803e3d6000fd5b5050505050505050565b600033905090565b60008060009054906101000a900473ffffffffffffffffffffffffffffffffffffffff169050816000806101000a81548173ffffffffffffffffffffffffffffffffffffffff021916908373ffffffffffffffffffffffffffffffffffffffff1602179055508173ffffffffffffffffffffffffffffffffffffffff168173ffffffffffffffffffffffffffffffffffffffff167f8be0079c531659141344cd1fd0a4f28419497f9722a3daafe3b4186f6b6457e060405160405180910390a35050565b60006106cf83836040518060400160405280600e81526020017f646976696465206279207a65726f000000000000000000000000000000000000815250610721565b905092915050565b600061071983836040518060400160405280601781526020017f6d756c7469706c69636174696f6e206f766572666c6f7700000000000000000081525061077e565b905092915050565b60008083118290610768576040517f08c379a000000000000000000000000000000000000000000000000000000000815260040161075f9190610c5c565b60405180910390fd5b5082846107759190610cdc565b90509392505050565b60008084148061078e5750600083145b1561079c5760009050610802565b600083856107aa9190610d0d565b90508385826107b99190610cdc565b1483906107fc576040517f08c379a00000000000000000000000000000000000000000000000000000000081526004016107f39190610c5c565b60405180910390fd5b50809150505b9392505050565b600073ffffffffffffffffffffffffffffffffffffffff82169050919050565b600061083482610809565b9050919050565b61084481610829565b82525050565b600060208201905061085f600083018461083b565b92915050565b6000819050919050565b61087881610865565b82525050565b6000602082019050610893600083018461086f565b92915050565b600080fd5b6108a781610829565b81146108b257600080fd5b50565b6000813590506108c48161089e565b92915050565b6000602082840312156108e0576108df610899565b5b60006108ee848285016108b5565b91505092915050565b6000819050919050565b600061091c61091761091284610809565b6108f7565b610809565b9050919050565b600061092e82610901565b9050919050565b600061094082610923565b9050919050565b61095081610935565b82525050565b600060208201905061096b6000830184610947565b92915050565b600082825260208201905092915050565b7f4f776e61626c653a2063616c6c6572206973206e6f7420746865206f776e6572600082015250565b60006109b8602083610971565b91506109c382610982565b602082019050919050565b600060208201905081810360008301526109e7816109ab565b9050919050565b6109f781610865565b8114610a0257600080fd5b50565b600081519050610a14816109ee565b92915050565b600060208284031215610a3057610a2f610899565b5b6000610a3e84828501610a05565b91505092915050565b7f4f776e61626c653a206e6577206f776e657220697320746865207a65726f206160008201527f6464726573730000000000000000000000000000000000000000000000000000602082015250565b6000610aa3602683610971565b9150610aae82610a47565b604082019050919050565b60006020820190508181036000830152610ad281610a96565b9050919050565b7f6d7573742070726f7669646572206574682067726561746572207468616e2030600082015250565b6000610b0f602083610971565b9150610b1a82610ad9565b602082019050919050565b60006020820190508181036000830152610b3e81610b02565b9050919050565b600060ff82169050919050565b610b5b81610b45565b8114610b6657600080fd5b50565b600081519050610b7881610b52565b92915050565b600060208284031215610b9457610b93610899565b5b6000610ba284828501610b69565b91505092915050565b6000604082019050610bc0600083018561083b565b610bcd602083018461086f565b9392505050565b600081519050919050565b60005b83811015610bfd578082015181840152602081019050610be2565b83811115610c0c576000848401525b50505050565b6000601f19601f8301169050919050565b6000610c2e82610bd4565b610c388185610971565b9350610c48818560208601610bdf565b610c5181610c12565b840191505092915050565b60006020820190508181036000830152610c768184610c23565b905092915050565b7f4e487b7100000000000000000000000000000000000000000000000000000000600052601260045260246000fd5b7f4e487b7100000000000000000000000000000000000000000000000000000000600052601160045260246000fd5b6000610ce782610865565b9150610cf283610865565b925082610d0257610d01610c7e565b5b828204905092915050565b6000610d1882610865565b9150610d2383610865565b9250817fffffffffffffffffffffffffffffffffffffffffffffffffffffffffffffffff0483118215151615610d5c57610d5b610cad565b5b82820290509291505056fea2646970667358221220c2f00ed223a359714ac69ea0fcd8219b237c8986c057d1983958895809fcfe8164736f6c634300080d003360806040523480156200001157600080fd5b506040518060400160405280600981526020017f57697368546f6b656e00000000000000000000000000000000000000000000008152506040518060400160405280600581526020017f5749534854000000000000000000000000000000000000000000000000000000815250816003908051906020019062000096929190620001a6565b508060049080519060200190620000af929190620001a6565b505050620000d2620000c6620000d860201b60201c565b620000e060201b60201c565b620002ba565b600033905090565b6000600560009054906101000a900473ffffffffffffffffffffffffffffffffffffffff16905081600560006101000a81548173ffffffffffffffffffffffffffffffffffffffff021916908373ffffffffffffffffffffffffffffffffffffffff1602179055508173ffffffffffffffffffffffffffffffffffffffff168173ffffffffffffffffffffffffffffffffffffffff167f8be0079c531659141344cd1fd0a4f28419497f9722a3daafe3b4186f6b6457e060405160405180910390a35050565b828054620001b49062000285565b90600052602060002090601f016020900481019282620001d8576000855562000224565b82601f10620001f357805160ff191683800117855562000224565b8280016001018555821562000224579182015b828111156200022357825182559160200191906001019062000206565b5b50905062000233919062000237565b5090565b5b808211156200025257600081600090555060010162000238565b5090565b7f4e487b7100000000000000000000000000000000000000000000000000000000600052602260045260246000fd5b600060028204905060018216806200029e57607f821691505b602082108103620002b457620002b362000256565b5b50919050565b611dd080620002ca6000396000f3fe608060405234801561001057600080fd5b506004361061010b5760003560e01c806370a08231116100a257806395d89b411161007157806395d89b41146102a6578063a457c2d7146102c4578063a9059cbb146102f4578063dd62ed3e14610324578063f2fde38b146103545761010b565b806370a0823114610232578063715018a61461026257806379cc67901461026c5780638da5cb5b146102885761010b565b8063313ce567116100de578063313ce567146101ac57806339509351146101ca57806340c10f19146101fa57806342966c68146102165761010b565b806306fdde0314610110578063095ea7b31461012e57806318160ddd1461015e57806323b872dd1461017c575b600080fd5b610118610370565b6040516101259190611372565b60405180910390f35b6101486004803603810190610143919061142d565b610402565b6040516101559190611488565b60405180910390f35b610166610425565b60405161017391906114b2565b60405180910390f35b610196600480360381019061019191906114cd565b61042f565b6040516101a39190611488565b60405180910390f35b6101b461045e565b6040516101c1919061153c565b60405180910390f35b6101e460048036038101906101df919061142d565b610467565b6040516101f19190611488565b60405180910390f35b610214600480360381019061020f919061142d565b61049e565b005b610230600480360381019061022b9190611557565b610528565b005b61024c60048036038101906102479190611584565b6105b8565b60405161025991906114b2565b60405180910390f35b61026a610600565b005b6102866004803603810190610281919061142d565b610688565b005b610290610724565b60405161029d91906115c0565b60405180910390f35b6102ae61074e565b6040516102bb9190611372565b60405180910390f35b6102de60048036038101906102d9919061142d565b6107e0565b6040516102eb9190611488565b60405180910390f35b61030e6004803603810190610309919061142d565b610857565b60405161031b9190611488565b60405180910390f35b61033e600480360381019061033991906115db565b61087a565b60405161034b91906114b2565b60405180910390f35b61036e60048036038101906103699190611584565b610901565b005b60606003805461037f9061164a565b80601f01602080910402602001604051908101604052809291908181526020018280546103ab9061164a565b80156103f85780601f106103cd576101008083540402835291602001916103f8565b820191906000526020600020905b8154815290600101906020018083116103db57829003601f168201915b5050505050905090565b60008061040d6109f8565b905061041a818585610a00565b600191505092915050565b6000600254905090565b60008061043a6109f8565b9050610447858285610bc9565b610452858585610c55565b60019150509392505050565b60006012905090565b6000806104726109f8565b9050610493818585610484858961087a565b61048e91906116aa565b610a00565b600191505092915050565b6104a66109f8565b73ffffffffffffffffffffffffffffffffffffffff166104c4610724565b73ffffffffffffffffffffffffffffffffffffffff161461051a576040517f08c379a00000000000000000000000000000000000000000000000000000000081526004016105119061174c565b60405180910390fd5b6105248282610ed4565b5050565b6105306109f8565b73ffffffffffffffffffffffffffffffffffffffff1661054e610724565b73ffffffffffffffffffffffffffffffffffffffff16146105a4576040517f08c379a000000000000000000000000000000000000000000000000000000000815260040161059b9061174c565b60405180910390fd5b6105b56105af6109f8565b82611033565b50565b60008060008373ffffffffffffffffffffffffffffffffffffffff1673ffffffffffffffffffffffffffffffffffffffff168152602001908152602001600020549050919050565b6106086109f8565b73ffffffffffffffffffffffffffffffffffffffff16610626610724565b73ffffffffffffffffffffffffffffffffffffffff161461067c576040517f08c379a00000000000000000000000000000000000000000000000000000000081526004016106739061174c565b60405180910390fd5b6106866000611209565b565b6106906109f8565b73ffffffffffffffffffffffffffffffffffffffff166106ae610724565b73ffffffffffffffffffffffffffffffffffffffff1614610704576040517f08c379a00000000000000000000000000000000000000000000000000000000081526004016106fb9061174c565b60405180910390fd5b610716826107106109f8565b83610bc9565b6107208282611033565b5050565b6000600560009054906101000a900473ffffffffffffffffffffffffffffffffffffffff16905090565b60606004805461075d9061164a565b80601f01602080910402602001604051908101604052809291908181526020018280546107899061164a565b80156107d65780601f106107ab576101008083540402835291602001916107d6565b820191906000526020600020905b8154815290600101906020018083116107b957829003601f168201915b5050505050905090565b6000806107eb6109f8565b905060006107f9828661087a565b90508381101561083e576040517f08c379a0000000000000000000000000000000000000000000000000000000008152600401610835906117de565b60405180910390fd5b61084b8286868403610a00565b60019250505092915050565b6000806108626109f8565b905061086f818585610c55565b600191505092915050565b6000600160008473ffffffffffffffffffffffffffffffffffffffff1673ffffffffffffffffffffffffffffffffffffffff16815260200190815260200160002060008373ffffffffffffffffffffffffffffffffffffffff1673ffffffffffffffffffffffffffffffffffffffff16815260200190815260200160002054905092915050565b6109096109f8565b73ffffffffffffffffffffffffffffffffffffffff16610927610724565b73ffffffffffffffffffffffffffffffffffffffff161461097d576040517f08c379a00000000000000000000000000000000000000000000000000000000081526004016109749061174c565b60405180910390fd5b600073ffffffffffffffffffffffffffffffffffffffff168173ffffffffffffffffffffffffffffffffffffffff16036109ec576040517f08c379a00000000000000000000000000000000000000000000000000000000081526004016109e390611870565b60405180910390fd5b6109f581611209565b50565b600033905090565b600073ffffffffffffffffffffffffffffffffffffffff168373ffffffffffffffffffffffffffffffffffffffff1603610a6f576040517f08c379a0000000000000000000000000000000000000000000000000000000008152600401610a6690611902565b60405180910390fd5b600073ffffffffffffffffffffffffffffffffffffffff168273ffffffffffffffffffffffffffffffffffffffff1603610ade576040517f08c379a0000000000000000000000000000000000000000000000000000000008152600401610ad590611994565b60405180910390fd5b80600160008573ffffffffffffffffffffffffffffffffffffffff1673ffffffffffffffffffffffffffffffffffffffff16815260200190815260200160002060008473ffffffffffffffffffffffffffffffffffffffff1673ffffffffffffffffffffffffffffffffffffffff168152602001908152602001600020819055508173ffffffffffffffffffffffffffffffffffffffff168373ffffffffffffffffffffffffffffffffffffffff167f8c5be1e5ebec7d5bd14f71427d1e84f3dd0314c0f7b2291e5b200ac8c7c3b92583604051610bbc91906114b2565b60405180910390a3505050565b6000610bd5848461087a565b90507fffffffffffffffffffffffffffffffffffffffffffffffffffffffffffffffff8114610c4f5781811015610c41576040517f08c379a0000000000000000000000000000000000000000000000000000000008152600401610c3890611a00565b60405180910390fd5b610c4e8484848403610a00565b5b50505050565b600073ffffffffffffffffffffffffffffffffffffffff168373ffffffffffffffffffffffffffffffffffffffff1603610cc4576040517f08c379a0000000000000000000000000000000000000000000000000000000008152600401610cbb90611a92565b60405180910390fd5b600073ffffffffffffffffffffffffffffffffffffffff168273ffffffffffffffffffffffffffffffffffffffff1603610d33576040517f08c379a0000000000000000000000000000000000000000000000000000000008152600401610d2a90611b24565b60405180910390fd5b610d3e8383836112cf565b60008060008573ffffffffffffffffffffffffffffffffffffffff1673ffffffffffffffffffffffffffffffffffffffff16815260200190815260200160002054905081811015610dc4576040517f08c379a0000000000000000000000000000000000000000000000000000000008152600401610dbb90611bb6565b60405180910390fd5b8181036000808673ffffffffffffffffffffffffffffffffffffffff1673ffffffffffffffffffffffffffffffffffffffff16815260200190815260200160002081905550816000808573ffffffffffffffffffffffffffffffffffffffff1673ffffffffffffffffffffffffffffffffffffffff1681526020019081526020016000206000828254610e5791906116aa565b925050819055508273ffffffffffffffffffffffffffffffffffffffff168473ffffffffffffffffffffffffffffffffffffffff167fddf252ad1be2c89b69c2b068fc378daa952ba7f163c4a11628f55a4df523b3ef84604051610ebb91906114b2565b60405180910390a3610ece8484846112d4565b50505050565b600073ffffffffffffffffffffffffffffffffffffffff168273ffffffffffffffffffffffffffffffffffffffff1603610f43576040517f08c379a0000000000000000000000000000000000000000000000000000000008152600401610f3a90611c22565b60405180910390fd5b610f4f600083836112cf565b8060026000828254610f6191906116aa565b92505081905550806000808473ffffffffffffffffffffffffffffffffffffffff1673ffffffffffffffffffffffffffffffffffffffff1681526020019081526020016000206000828254610fb691906116aa565b925050819055508173ffffffffffffffffffffffffffffffffffffffff16600073ffffffffffffffffffffffffffffffffffffffff167fddf252ad1be2c89b69c2b068fc378daa952ba7f163c4a11628f55a4df523b3ef8360405161101b91906114b2565b60405180910390a361102f600083836112d4565b5050565b600073ffffffffffffffffffffffffffffffffffffffff168273ffffffffffffffffffffffffffffffffffffffff16036110a2576040517f08c379a000000000000000000000000000000000000000000000000000000000815260040161109990611cb4565b60405180910390fd5b6110ae826000836112cf565b60008060008473ffffffffffffffffffffffffffffffffffffffff1673ffffffffffffffffffffffffffffffffffffffff16815260200190815260200160002054905081811015611134576040517f08c379a000000000000000000000000000000000000000000000000000000000815260040161112b90611d46565b60405180910390fd5b8181036000808573ffffffffffffffffffffffffffffffffffffffff1673ffffffffffffffffffffffffffffffffffffffff16815260200190815260200160002081905550816002600082825461118b9190611d66565b92505081905550600073ffffffffffffffffffffffffffffffffffffffff168373ffffffffffffffffffffffffffffffffffffffff167fddf252ad1be2c89b69c2b068fc378daa952ba7f163c4a11628f55a4df523b3ef846040516111f091906114b2565b60405180910390a3611204836000846112d4565b505050565b6000600560009054906101000a900473ffffffffffffffffffffffffffffffffffffffff16905081600560006101000a81548173ffffffffffffffffffffffffffffffffffffffff021916908373ffffffffffffffffffffffffffffffffffffffff1602179055508173ffffffffffffffffffffffffffffffffffffffff168173ffffffffffffffffffffffffffffffffffffffff167f8be0079c531659141344cd1fd0a4f28419497f9722a3daafe3b4186f6b6457e060405160405180910390a35050565b505050565b505050565b600081519050919050565b600082825260208201905092915050565b60005b838110156113135780820151818401526020810190506112f8565b83811115611322576000848401525b50505050565b6000601f19601f8301169050919050565b6000611344826112d9565b61134e81856112e4565b935061135e8185602086016112f5565b61136781611328565b840191505092915050565b6000602082019050818103600083015261138c8184611339565b905092915050565b600080fd5b600073ffffffffffffffffffffffffffffffffffffffff82169050919050565b60006113c482611399565b9050919050565b6113d4816113b9565b81146113df57600080fd5b50565b6000813590506113f1816113cb565b92915050565b6000819050919050565b61140a816113f7565b811461141557600080fd5b50565b60008135905061142781611401565b92915050565b6000806040838503121561144457611443611394565b5b6000611452858286016113e2565b925050602061146385828601611418565b9150509250929050565b60008115159050919050565b6114828161146d565b82525050565b600060208201905061149d6000830184611479565b92915050565b6114ac816113f7565b82525050565b60006020820190506114c760008301846114a3565b92915050565b6000806000606084860312156114e6576114e5611394565b5b60006114f4868287016113e2565b9350506020611505868287016113e2565b925050604061151686828701611418565b9150509250925092565b600060ff82169050919050565b61153681611520565b82525050565b6000602082019050611551600083018461152d565b92915050565b60006020828403121561156d5761156c611394565b5b600061157b84828501611418565b91505092915050565b60006020828403121561159a57611599611394565b5b60006115a8848285016113e2565b91505092915050565b6115ba816113b9565b82525050565b60006020820190506115d560008301846115b1565b92915050565b600080604083850312156115f2576115f1611394565b5b6000611600858286016113e2565b9250506020611611858286016113e2565b9150509250929050565b7f4e487b7100000000000000000000000000000000000000000000000000000000600052602260045260246000fd5b6000600282049050600182168061166257607f821691505b6020821081036116755761167461161b565b5b50919050565b7f4e487b7100000000000000000000000000000000000000000000000000000000600052601160045260246000fd5b60006116b5826113f7565b91506116c0836113f7565b9250827fffffffffffffffffffffffffffffffffffffffffffffffffffffffffffffffff038211156116f5576116f461167b565b5b828201905092915050565b7f4f776e61626c653a2063616c6c6572206973206e6f7420746865206f776e6572600082015250565b60006117366020836112e4565b915061174182611700565b602082019050919050565b6000602082019050818103600083015261176581611729565b9050919050565b7f45524332303a2064656372656173656420616c6c6f77616e63652062656c6f7760008201527f207a65726f000000000000000000000000000000000000000000000000000000602082015250565b60006117c86025836112e4565b91506117d38261176c565b604082019050919050565b600060208201905081810360008301526117f7816117bb565b9050919050565b7f4f776e61626c653a206e6577206f776e657220697320746865207a65726f206160008201527f6464726573730000000000000000000000000000000000000000000000000000602082015250565b600061185a6026836112e4565b9150611865826117fe565b604082019050919050565b600060208201905081810360008301526118898161184d565b9050919050565b7f45524332303a20617070726f76652066726f6d20746865207a65726f2061646460008201527f7265737300000000000000000000000000000000000000000000000000000000602082015250565b60006118ec6024836112e4565b91506118f782611890565b604082019050919050565b6000602082019050818103600083015261191b816118df565b9050919050565b7f45524332303a20617070726f766520746f20746865207a65726f20616464726560008201527f7373000000000000000000000000000000000000000000000000000000000000602082015250565b600061197e6022836112e4565b915061198982611922565b604082019050919050565b600060208201905081810360008301526119ad81611971565b9050919050565b7f45524332303a20696e73756666696369656e7420616c6c6f77616e6365000000600082015250565b60006119ea601d836112e4565b91506119f5826119b4565b602082019050919050565b60006020820190508181036000830152611a19816119dd565b9050919050565b7f45524332303a207472616e736665722066726f6d20746865207a65726f20616460008201527f6472657373000000000000000000000000000000000000000000000000000000602082015250565b6000611a7c6025836112e4565b9150611a8782611a20565b604082019050919050565b60006020820190508181036000830152611aab81611a6f565b9050919050565b7f45524332303a207472616e7366657220746f20746865207a65726f206164647260008201527f6573730000000000000000000000000000000000000000000000000000000000602082015250565b6000611b0e6023836112e4565b9150611b1982611ab2565b604082019050919050565b60006020820190508181036000830152611b3d81611b01565b9050919050565b7f45524332303a207472616e7366657220616d6f756e742065786365656473206260008201527f616c616e63650000000000000000000000000000000000000000000000000000602082015250565b6000611ba06026836112e4565b9150611bab82611b44565b604082019050919050565b60006020820190508181036000830152611bcf81611b93565b9050919050565b7f45524332303a206d696e7420746f20746865207a65726f206164647265737300600082015250565b6000611c0c601f836112e4565b9150611c1782611bd6565b602082019050919050565b60006020820190508181036000830152611c3b81611bff565b9050919050565b7f45524332303a206275726e2066726f6d20746865207a65726f2061646472657360008201527f7300000000000000000000000000000000000000000000000000000000000000602082015250565b6000611c9e6021836112e4565b9150611ca982611c42565b604082019050919050565b60006020820190508181036000830152611ccd81611c91565b9050919050565b7f45524332303a206275726e20616d6f756e7420657863656564732062616c616e60008201527f6365000000000000000000000000000000000000000000000000000000000000602082015250565b6000611d306022836112e4565b9150611d3b82611cd4565b604082019050919050565b60006020820190508181036000830152611d5f81611d23565b9050919050565b6000611d71826113f7565b9150611d7c836113f7565b925082821015611d8f57611d8e61167b565b5b82820390509291505056fea2646970667358221220262ef95e2162e1341d73c845f96dacddb30a5e5c89a9a1d3ab7390e5c78408bc64736f6c634300080d0033",
  "immutableReferences": {},
  "source": "// SPDX-License-Identifier: MIT\npragma solidity >=0.4.22 <0.9.0;\n\nimport \"@openzeppelin/contracts/access/Ownable.sol\";\nimport \"./WishToken.sol\";\nimport \"./Exponential.sol\";\n\ncontract Comptroller is Ownable, Exponential {\n    WishToken public token;\n\n    uint256 public ethToTokenExchangeRate;\n\n    constructor(uint256 _exchangeRate) payable Ownable() {\n        ethToTokenExchangeRate = _exchangeRate; \n        token = new WishToken();\n        _mintToken(msg.sender, msg.value);\n    }\n\n\n    function purchase() public payable {\n        _mintToken(msg.sender, msg.value);\n    }\n\n    function withdraw() public {\n\n    }\n\n\n    function _mintToken(address user, uint256 amount) internal virtual {\n        require(amount > 0, \"must provider eth greater than 0\");\n        uint256 ethValue = mul_(amount, ethToTokenExchangeRate);\n\n        uint256 mintValue = mul_(ethValue, token.decimals());\n\n        token.mint(user, mintValue);\n    }\n\n\n    function getExchangeRate() public view returns (uint256) {\n        uint256 totalTokens = token.totalSupply();\n        address eoa = address(this);\n        uint256 balance = eoa.balance;\n\n        return div_(totalTokens, balance);\n    }\n}",
  "sourcePath": "/Users/jonah/SolidityProject/makewish-contract/contracts/Comptroller.sol",
  "compiler": {
    "name": "solc",
    "version": "0.8.13+commit.abaa5c0e.Emscripten.clang"
  },
  "schemaVersion": "3.4.7",
  "updatedAt": "2022-05-19T07:20:12.133Z",
  "devdoc": {
    "kind": "dev",
    "methods": {
      "owner()": {
        "details": "Returns the address of the current owner."
      },
      "renounceOwnership()": {
        "details": "Leaves the contract without owner. It will not be possible to call `onlyOwner` functions anymore. Can only be called by the current owner. NOTE: Renouncing ownership will leave the contract without an owner, thereby removing any functionality that is only available to the owner."
      },
      "transferOwnership(address)": {
        "details": "Transfers ownership of the contract to a new account (`newOwner`). Can only be called by the current owner."
      }
    },
    "version": 1
  },
  "userdoc": {
    "kind": "user",
    "methods": {},
    "version": 1
  }
}