{
  "contractName": "GoodLotterNFT",
  "abi": [
    {
      "inputs": [
        {
          "internalType": "contract ComptrollerInterface",
          "name": "_comptroller",
          "type": "address"
        },
        {
          "internalType": "contract IERC20",
          "name": "_token",
          "type": "address"
        },
        {
          "internalType": "uint32",
          "name": "_goodId",
          "type": "uint32"
        },
        {
          "internalType": "uint256",
          "name": "_goodValue",
          "type": "uint256"
        },
        {
          "internalType": "uint256",
          "name": "_maintenanceFee",
          "type": "uint256"
        },
        {
          "internalType": "uint256",
          "name": "_publishTime",
          "type": "uint256"
        },
        {
          "internalType": "uint256",
          "name": "_lockedTime",
          "type": "uint256"
        },
        {
          "internalType": "string",
          "name": "_goodHash",
          "type": "string"
        },
        {
          "internalType": "address",
          "name": "_nftAddress",
          "type": "address"
        },
        {
          "internalType": "uint256",
          "name": "_tokenId",
          "type": "uint256"
        }
      ],
      "stateMutability": "nonpayable",
      "type": "constructor"
    },
    {
      "anonymous": false,
      "inputs": [
        {
          "indexed": false,
          "internalType": "address",
          "name": "user",
          "type": "address"
        },
        {
          "indexed": false,
          "internalType": "uint256",
          "name": "amount",
          "type": "uint256"
        },
        {
          "indexed": false,
          "internalType": "uint32",
          "name": "goodId",
          "type": "uint32"
        }
      ],
      "name": "JoinSuccessful",
      "type": "event"
    },
    {
      "anonymous": false,
      "inputs": [
        {
          "indexed": false,
          "internalType": "address",
          "name": "user",
          "type": "address"
        },
        {
          "indexed": false,
          "internalType": "uint256",
          "name": "totalBalance",
          "type": "uint256"
        },
        {
          "indexed": false,
          "internalType": "uint256",
          "name": "priceValue",
          "type": "uint256"
        },
        {
          "indexed": false,
          "internalType": "uint256",
          "name": "mf",
          "type": "uint256"
        },
        {
          "indexed": false,
          "internalType": "uint256",
          "name": "burned",
          "type": "uint256"
        },
        {
          "indexed": false,
          "internalType": "uint256",
          "name": "paybackUnit",
          "type": "uint256"
        }
      ],
      "name": "LotteryComplete",
      "type": "event"
    },
    {
      "anonymous": false,
      "inputs": [
        {
          "indexed": true,
          "internalType": "address",
          "name": "previousOwner",
          "type": "address"
        },
        {
          "indexed": true,
          "internalType": "address",
          "name": "newOwner",
          "type": "address"
        }
      ],
      "name": "OwnershipTransferred",
      "type": "event"
    },
    {
      "anonymous": false,
      "inputs": [
        {
          "indexed": false,
          "internalType": "address",
          "name": "nftToken",
          "type": "address"
        },
        {
          "indexed": false,
          "internalType": "address",
          "name": "user",
          "type": "address"
        },
        {
          "indexed": false,
          "internalType": "uint256",
          "name": "token",
          "type": "uint256"
        }
      ],
      "name": "ReceiveToken",
      "type": "event"
    },
    {
      "inputs": [],
      "name": "checkCanJoin",
      "outputs": [
        {
          "internalType": "enum GoodInterface.Error",
          "name": "",
          "type": "uint8"
        }
      ],
      "stateMutability": "nonpayable",
      "type": "function"
    },
    {
      "inputs": [],
      "name": "getTickets",
      "outputs": [
        {
          "internalType": "address[]",
          "name": "",
          "type": "address[]"
        }
      ],
      "stateMutability": "view",
      "type": "function"
    },
    {
      "inputs": [],
      "name": "getTokenExchangeRate",
      "outputs": [
        {
          "internalType": "uint256",
          "name": "",
          "type": "uint256"
        }
      ],
      "stateMutability": "view",
      "type": "function"
    },
    {
      "inputs": [],
      "name": "getUserJoinRecords",
      "outputs": [
        {
          "components": [
            {
              "internalType": "address",
              "name": "user",
              "type": "address"
            },
            {
              "internalType": "uint256",
              "name": "startIndex",
              "type": "uint256"
            },
            {
              "internalType": "uint256",
              "name": "count",
              "type": "uint256"
            },
            {
              "internalType": "uint256",
              "name": "joinTime",
              "type": "uint256"
            },
            {
              "internalType": "uint256",
              "name": "joinBlockNum",
              "type": "uint256"
            }
          ],
          "internalType": "struct GoodInterface.UserJoinRecord[]",
          "name": "record",
          "type": "tuple[]"
        }
      ],
      "stateMutability": "view",
      "type": "function"
    },
    {
      "inputs": [],
      "name": "goodHash",
      "outputs": [
        {
          "internalType": "string",
          "name": "",
          "type": "string"
        }
      ],
      "stateMutability": "view",
      "type": "function"
    },
    {
      "inputs": [],
      "name": "goodId",
      "outputs": [
        {
          "internalType": "uint32",
          "name": "",
          "type": "uint32"
        }
      ],
      "stateMutability": "view",
      "type": "function"
    },
    {
      "inputs": [],
      "name": "goodValue",
      "outputs": [
        {
          "internalType": "uint256",
          "name": "",
          "type": "uint256"
        }
      ],
      "stateMutability": "view",
      "type": "function"
    },
    {
      "inputs": [],
      "name": "isGoodLottery",
      "outputs": [
        {
          "internalType": "bool",
          "name": "",
          "type": "bool"
        }
      ],
      "stateMutability": "view",
      "type": "function"
    },
    {
      "inputs": [
        {
          "internalType": "uint256",
          "name": "amount",
          "type": "uint256"
        }
      ],
      "name": "join",
      "outputs": [],
      "stateMutability": "nonpayable",
      "type": "function"
    },
    {
      "inputs": [
        {
          "internalType": "address",
          "name": "user",
          "type": "address"
        },
        {
          "internalType": "uint256",
          "name": "amount",
          "type": "uint256"
        }
      ],
      "name": "join",
      "outputs": [],
      "stateMutability": "nonpayable",
      "type": "function"
    },
    {
      "inputs": [],
      "name": "joinedUsers",
      "outputs": [
        {
          "internalType": "uint256",
          "name": "",
          "type": "uint256"
        }
      ],
      "stateMutability": "view",
      "type": "function"
    },
    {
      "inputs": [],
      "name": "lockedTime",
      "outputs": [
        {
          "internalType": "uint256",
          "name": "",
          "type": "uint256"
        }
      ],
      "stateMutability": "view",
      "type": "function"
    },
    {
      "inputs": [],
      "name": "maintenanceFee",
      "outputs": [
        {
          "internalType": "uint256",
          "name": "",
          "type": "uint256"
        }
      ],
      "stateMutability": "view",
      "type": "function"
    },
    {
      "inputs": [],
      "name": "nftToken",
      "outputs": [
        {
          "internalType": "contract IERC721",
          "name": "",
          "type": "address"
        }
      ],
      "stateMutability": "view",
      "type": "function"
    },
    {
      "inputs": [],
      "name": "owner",
      "outputs": [
        {
          "internalType": "address",
          "name": "",
          "type": "address"
        }
      ],
      "stateMutability": "view",
      "type": "function"
    },
    {
      "inputs": [],
      "name": "paybackFee",
      "outputs": [
        {
          "internalType": "uint256",
          "name": "",
          "type": "uint256"
        }
      ],
      "stateMutability": "view",
      "type": "function"
    },
    {
      "inputs": [],
      "name": "pickWinner",
      "outputs": [],
      "stateMutability": "nonpayable",
      "type": "function"
    },
    {
      "inputs": [],
      "name": "publishTime",
      "outputs": [
        {
          "internalType": "uint256",
          "name": "",
          "type": "uint256"
        }
      ],
      "stateMutability": "view",
      "type": "function"
    },
    {
      "inputs": [],
      "name": "renounceOwnership",
      "outputs": [],
      "stateMutability": "nonpayable",
      "type": "function"
    },
    {
      "inputs": [
        {
          "internalType": "uint256",
          "name": "_lockedTime",
          "type": "uint256"
        }
      ],
      "name": "setLockedTime",
      "outputs": [],
      "stateMutability": "nonpayable",
      "type": "function"
    },
    {
      "inputs": [],
      "name": "stage",
      "outputs": [
        {
          "internalType": "enum GoodInterface.Stage",
          "name": "",
          "type": "uint8"
        }
      ],
      "stateMutability": "view",
      "type": "function"
    },
    {
      "inputs": [
        {
          "internalType": "uint256",
          "name": "",
          "type": "uint256"
        }
      ],
      "name": "ticketNums",
      "outputs": [
        {
          "internalType": "uint256",
          "name": "",
          "type": "uint256"
        }
      ],
      "stateMutability": "view",
      "type": "function"
    },
    {
      "inputs": [
        {
          "internalType": "uint256",
          "name": "",
          "type": "uint256"
        }
      ],
      "name": "tickets",
      "outputs": [
        {
          "internalType": "address",
          "name": "",
          "type": "address"
        }
      ],
      "stateMutability": "view",
      "type": "function"
    },
    {
      "inputs": [],
      "name": "token",
      "outputs": [
        {
          "internalType": "contract IERC20",
          "name": "",
          "type": "address"
        }
      ],
      "stateMutability": "view",
      "type": "function"
    },
    {
      "inputs": [],
      "name": "tokenId",
      "outputs": [
        {
          "internalType": "uint256",
          "name": "",
          "type": "uint256"
        }
      ],
      "stateMutability": "view",
      "type": "function"
    },
    {
      "inputs": [],
      "name": "tokenOwner",
      "outputs": [
        {
          "internalType": "address",
          "name": "",
          "type": "address"
        }
      ],
      "stateMutability": "view",
      "type": "function"
    },
    {
      "inputs": [
        {
          "internalType": "address",
          "name": "newOwner",
          "type": "address"
        }
      ],
      "name": "transferOwnership",
      "outputs": [],
      "stateMutability": "nonpayable",
      "type": "function"
    },
    {
      "inputs": [
        {
          "internalType": "uint256",
          "name": "",
          "type": "uint256"
        }
      ],
      "name": "userJoinRecords",
      "outputs": [
        {
          "internalType": "address",
          "name": "user",
          "type": "address"
        },
        {
          "internalType": "uint256",
          "name": "startIndex",
          "type": "uint256"
        },
        {
          "internalType": "uint256",
          "name": "count",
          "type": "uint256"
        },
        {
          "internalType": "uint256",
          "name": "joinTime",
          "type": "uint256"
        },
        {
          "internalType": "uint256",
          "name": "joinBlockNum",
          "type": "uint256"
        }
      ],
      "stateMutability": "view",
      "type": "function"
    },
    {
      "inputs": [
        {
          "internalType": "address",
          "name": "",
          "type": "address"
        }
      ],
      "name": "userMapping",
      "outputs": [
        {
          "internalType": "address",
          "name": "user",
          "type": "address"
        },
        {
          "internalType": "uint256",
          "name": "count",
          "type": "uint256"
        },
        {
          "internalType": "bool",
          "name": "isJoined",
          "type": "bool"
        },
        {
          "internalType": "bool",
          "name": "isPaybacked",
          "type": "bool"
        },
        {
          "internalType": "uint256",
          "name": "joinTime",
          "type": "uint256"
        },
        {
          "internalType": "uint256",
          "name": "joinBlockNum",
          "type": "uint256"
        }
      ],
      "stateMutability": "view",
      "type": "function"
    },
    {
      "inputs": [],
      "name": "winner",
      "outputs": [
        {
          "internalType": "address",
          "name": "",
          "type": "address"
        }
      ],
      "stateMutability": "view",
      "type": "function"
    },
    {
      "inputs": [],
      "name": "winnerTime",
      "outputs": [
        {
          "internalType": "uint256",
          "name": "blockNum",
          "type": "uint256"
        },
        {
          "internalType": "uint256",
          "name": "blockTime",
          "type": "uint256"
        },
        {
          "internalType": "uint256",
          "name": "index",
          "type": "uint256"
        }
      ],
      "stateMutability": "view",
      "type": "function"
    },
    {
      "inputs": [],
      "name": "publishToMarket",
      "outputs": [],
      "stateMutability": "nonpayable",
      "type": "function"
    }
  ],
  "bytecode": "0x60806040526000600660006101000a81548160ff021916908360068111156200002d576200002c62000493565b5b02179055503480156200003f57600080fd5b5060405162004ad338038062004ad38339818101604052810190620000659190620007ca565b89898989898989896200008d620000816200013360201b60201c565b6200013b60201b60201c565b620000a588888888888888886200020160201b60201c565b505050505050505081601360006101000a81548173ffffffffffffffffffffffffffffffffffffffff021916908373ffffffffffffffffffffffffffffffffffffffff1602179055506001600660006101000a81548160ff0219169083600681111562000117576200011662000493565b5b0217905550806014819055505050505050505050505062000a5e565b600033905090565b6000601260009054906101000a900473ffffffffffffffffffffffffffffffffffffffff16905081601260006101000a81548173ffffffffffffffffffffffffffffffffffffffff021916908373ffffffffffffffffffffffffffffffffffffffff1602179055508173ffffffffffffffffffffffffffffffffffffffff168173ffffffffffffffffffffffffffffffffffffffff167f8be0079c531659141344cd1fd0a4f28419497f9722a3daafe3b4186f6b6457e060405160405180910390a35050565b6000600681111562000218576200021762000493565b5b600660009054906101000a900460ff1660068111156200023d576200023c62000493565b5b1462000280576040517f08c379a0000000000000000000000000000000000000000000000000000000008152600401620002779062000940565b60405180910390fd5b60008511801562000292575061271085105b620002d4576040517f08c379a0000000000000000000000000000000000000000000000000000000008152600401620002cb90620009d8565b60405180910390fd5b85600060146101000a81548163ffffffff021916908363ffffffff160217905550846001819055508260028190555081600381905550866000806101000a81548173ffffffffffffffffffffffffffffffffffffffff021916908373ffffffffffffffffffffffffffffffffffffffff16021790555087601160006101000a81548173ffffffffffffffffffffffffffffffffffffffff021916908373ffffffffffffffffffffffffffffffffffffffff1602179055506001600660006101000a81548160ff02191690836006811115620003b457620003b362000493565b5b0217905550836005819055508060049080519060200190620003d8929190620003e3565b505050505050505050565b828054620003f19062000a29565b90600052602060002090601f01602090048101928262000415576000855562000461565b82601f106200043057805160ff191683800117855562000461565b8280016001018555821562000461579182015b828111156200046057825182559160200191906001019062000443565b5b50905062000470919062000474565b5090565b5b808211156200048f57600081600090555060010162000475565b5090565b7f4e487b7100000000000000000000000000000000000000000000000000000000600052602160045260246000fd5b6000604051905090565b600080fd5b600080fd5b600073ffffffffffffffffffffffffffffffffffffffff82169050919050565b60006200050382620004d6565b9050919050565b60006200051782620004f6565b9050919050565b62000529816200050a565b81146200053557600080fd5b50565b60008151905062000549816200051e565b92915050565b60006200055c82620004f6565b9050919050565b6200056e816200054f565b81146200057a57600080fd5b50565b6000815190506200058e8162000563565b92915050565b600063ffffffff82169050919050565b620005af8162000594565b8114620005bb57600080fd5b50565b600081519050620005cf81620005a4565b92915050565b6000819050919050565b620005ea81620005d5565b8114620005f657600080fd5b50565b6000815190506200060a81620005df565b92915050565b600080fd5b600080fd5b6000601f19601f8301169050919050565b7f4e487b7100000000000000000000000000000000000000000000000000000000600052604160045260246000fd5b62000665826200061a565b810181811067ffffffffffffffff821117156200068757620006866200062b565b5b80604052505050565b60006200069c620004c2565b9050620006aa82826200065a565b919050565b600067ffffffffffffffff821115620006cd57620006cc6200062b565b5b620006d8826200061a565b9050602081019050919050565b60005b8381101562000705578082015181840152602081019050620006e8565b8381111562000715576000848401525b50505050565b6000620007326200072c84620006af565b62000690565b90508281526020810184848401111562000751576200075062000615565b5b6200075e848285620006e5565b509392505050565b600082601f8301126200077e576200077d62000610565b5b8151620007908482602086016200071b565b91505092915050565b620007a481620004f6565b8114620007b057600080fd5b50565b600081519050620007c48162000799565b92915050565b6000806000806000806000806000806101408b8d031215620007f157620007f0620004cc565b5b6000620008018d828e0162000538565b9a50506020620008148d828e016200057d565b9950506040620008278d828e01620005be565b98505060606200083a8d828e01620005f9565b97505060806200084d8d828e01620005f9565b96505060a0620008608d828e01620005f9565b95505060c0620008738d828e01620005f9565b94505060e08b015167ffffffffffffffff811115620008975762000896620004d1565b5b620008a58d828e0162000766565b935050610100620008b98d828e01620007b3565b925050610120620008cd8d828e01620005f9565b9150509295989b9194979a5092959850565b600082825260208201905092915050565b7f676f6f6420686164206265656e20696e697469616c697a65642e000000000000600082015250565b600062000928601a83620008df565b91506200093582620008f0565b602082019050919050565b600060208201905081810360008301526200095b8162000919565b9050919050565b7f676f6f64732076616c7565206d757374206265747765656e203120616e64203960008201527f3939390000000000000000000000000000000000000000000000000000000000602082015250565b6000620009c0602383620008df565b9150620009cd8262000962565b604082019050919050565b60006020820190508181036000830152620009f381620009b1565b9050919050565b7f4e487b7100000000000000000000000000000000000000000000000000000000600052602260045260246000fd5b6000600282049050600182168062000a4257607f821691505b60208210810362000a585762000a57620009fa565b5b50919050565b6140658062000a6e6000396000f3fe608060405234801561001057600080fd5b50600436106101f05760003560e01c806393a3ffe91161010f578063c379b4be116100a2578063dfbf53ae11610071578063dfbf53ae1461054e578063e467fa801461056c578063f2fde38b1461058a578063fc0c546a146105a6576101f0565b8063c379b4be146104d8578063d06fcba8146104f6578063df1dcaa914610514578063df4c0ab114610530576101f0565b8063a9135d17116100de578063a9135d1714610460578063c01d1c601461047e578063c040e6b81461049c578063c15e296b146104ba576101f0565b806393a3ffe9146103d257806394541fdb14610406578063a3e6761014610424578063a8b3820514610442576101f0565b80633d98fc17116101875780635d495aea116101565780635d495aea14610380578063715018a61461038a5780637676d235146103945780638da5cb5b146103b4576101f0565b80633d98fc17146102f65780633f0e9016146103145780634ed026221461033257806350b4471214610350576101f0565b806317d70f7c116101c357806317d70f7c1461026e5780631bbf17c51461028c5780632e40945e146102aa5780633b4da69f146102da576101f0565b806304660449146101f5578063049878f31461021357806306acd6371461022f578063118b953514610239575b600080fd5b6101fd6105c4565b60405161020a9190612a92565b60405180910390f35b61022d60048036038101906102289190612aed565b6105ca565b005b610237610643565b005b610253600480360381019061024e9190612b78565b61095d565b60405161026596959493929190612bcf565b60405180910390f35b6102766109d3565b6040516102839190612a92565b60405180910390f35b6102946109d9565b6040516102a19190612a92565b60405180910390f35b6102c460048036038101906102bf9190612aed565b6109df565b6040516102d19190612a92565b60405180910390f35b6102f460048036038101906102ef9190612c30565b610a03565b005b6102fe610a7d565b60405161030b9190612c70565b60405180910390f35b61031c610a82565b6040516103299190612dc0565b60405180910390f35b61033a610b5f565b6040516103479190612e91565b60405180910390f35b61036a60048036038101906103659190612aed565b610bf3565b6040516103779190612eb3565b60405180910390f35b610388610c32565b005b61039261128a565b005b61039c611312565b6040516103ab93929190612ece565b60405180910390f35b6103bc61132a565b6040516103c99190612eb3565b60405180910390f35b6103ec60048036038101906103e79190612aed565b611354565b6040516103fd959493929190612f05565b60405180910390f35b61040e6113ba565b60405161041b9190612fcf565b60405180910390f35b61042c611498565b6040516104399190612eb3565b60405180910390f35b61044a6114be565b6040516104579190612a92565b60405180910390f35b6104686114c4565b6040516104759190613083565b60405180910390f35b610486611552565b6040516104939190612a92565b60405180910390f35b6104a46115f5565b6040516104b191906130ed565b60405180910390f35b6104c2611608565b6040516104cf9190612a92565b60405180910390f35b6104e061160e565b6040516104ed9190612a92565b60405180910390f35b6104fe611614565b60405161050b9190613167565b60405180910390f35b61052e60048036038101906105299190612aed565b61163a565b005b6105386116c0565b60405161054591906131a1565b60405180910390f35b6105566116d6565b6040516105639190612eb3565b60405180910390f35b6105746116fc565b6040516105819190612a92565b60405180910390f35b6105a4600480360381019061059f9190612b78565b611702565b005b6105ae6117f9565b6040516105bb91906131dd565b60405180910390f35b60055481565b60006105d6338361181d565b9050600060028111156105ec576105eb612f58565b5b8160028111156105ff576105fe612f58565b5b1461063f576040517f08c379a000000000000000000000000000000000000000000000000000000000815260040161063690613244565b60405180910390fd5b5050565b3073ffffffffffffffffffffffffffffffffffffffff16601360009054906101000a900473ffffffffffffffffffffffffffffffffffffffff1673ffffffffffffffffffffffffffffffffffffffff1663081812fc6014546040518263ffffffff1660e01b81526004016106b79190612a92565b602060405180830381865afa1580156106d4573d6000803e3d6000fd5b505050506040513d601f19601f820116820180604052508101906106f89190613279565b73ffffffffffffffffffffffffffffffffffffffff161461071857600080fd5b6000601160009054906101000a900473ffffffffffffffffffffffffffffffffffffffff1673ffffffffffffffffffffffffffffffffffffffff16638da5cb5b6040518163ffffffff1660e01b8152600401602060405180830381865afa158015610787573d6000803e3d6000fd5b505050506040513d601f19601f820116820180604052508101906107ab9190613279565b90506107b681611702565b6000600167ffffffffffffffff8111156107d3576107d26132a6565b5b6040519080825280602002602001820160405280156108015781602001602082028036833780820191505090505b5090503081600081518110610819576108186132d5565b5b602002602001019073ffffffffffffffffffffffffffffffffffffffff16908173ffffffffffffffffffffffffffffffffffffffff16815250506000601160009054906101000a900473ffffffffffffffffffffffffffffffffffffffff1673ffffffffffffffffffffffffffffffffffffffff16637a284627836040518263ffffffff1660e01b81526004016108b09190612e91565b6000604051808303816000875af11580156108cf573d6000803e3d6000fd5b505050506040513d6000823e3d601f19601f820116820180604052508101906108f89190613432565b90506000816000815181106109105761090f6132d5565b5b602002602001015114610958576040517f08c379a000000000000000000000000000000000000000000000000000000000815260040161094f906134c7565b60405180910390fd5b505050565b60076020528060005260406000206000915090508060000160009054906101000a900473ffffffffffffffffffffffffffffffffffffffff16908060010154908060020160009054906101000a900460ff16908060020160019054906101000a900460ff16908060030154908060040154905086565b60145481565b600d5481565b600b81815481106109ef57600080fd5b906000526020600020016000915090505481565b6000610a0f838361181d565b905060006002811115610a2557610a24612f58565b5b816002811115610a3857610a37612f58565b5b14610a78576040517f08c379a0000000000000000000000000000000000000000000000000000000008152600401610a6f90613533565b60405180910390fd5b505050565b600181565b60606008805480602002602001604051908101604052809291908181526020016000905b82821015610b5657838290600052602060002090600502016040518060a00160405290816000820160009054906101000a900473ffffffffffffffffffffffffffffffffffffffff1673ffffffffffffffffffffffffffffffffffffffff1673ffffffffffffffffffffffffffffffffffffffff16815260200160018201548152602001600282015481526020016003820154815260200160048201548152505081526020019060010190610aa6565b50505050905090565b60606000600a805480602002602001604051908101604052809291908181526020018280548015610be557602002820191906000526020600020905b8160009054906101000a900473ffffffffffffffffffffffffffffffffffffffff1673ffffffffffffffffffffffffffffffffffffffff1681526020019060010190808311610b9b575b505050505090508091505090565b600a8181548110610c0357600080fd5b906000526020600020016000915054906101000a900473ffffffffffffffffffffffffffffffffffffffff1681565b600073ffffffffffffffffffffffffffffffffffffffff16601160009054906101000a900473ffffffffffffffffffffffffffffffffffffffff1673ffffffffffffffffffffffffffffffffffffffff1603610cc3576040517f08c379a0000000000000000000000000000000000000000000000000000000008152600401610cba9061359f565b60405180910390fd5b60056006811115610cd757610cd6612f58565b5b600660009054906101000a900460ff166006811115610cf957610cf8612f58565b5b14158015610d3a5750600680811115610d1557610d14612f58565b5b600660009054906101000a900460ff166006811115610d3757610d36612f58565b5b14155b610d79576040517f08c379a0000000000000000000000000000000000000000000000000000000008152600401610d709061360b565b60405180910390fd5b61012c600354610d89919061365a565b421015610dcb576040517f08c379a0000000000000000000000000000000000000000000000000000000008152600401610dc2906136fc565b60405180910390fd5b6000600a8054905003610e6e5760068060006101000a81548160ff02191690836006811115610dfd57610dfc612f58565b5b02179055507f2bd454aea220f47ef41df4dc4bfd0823d826b9fc69aa5f871369edd5086267cb600c60009054906101000a900473ffffffffffffffffffffffffffffffffffffffff16600154600080600080604051610e6196959493929190613757565b60405180910390a1611288565b6004600660006101000a81548160ff02191690836006811115610e9457610e93612f58565b5b02179055506000600a80549050610ea9611dee565b610eb391906137e7565b9050600a8181548110610ec957610ec86132d5565b5b9060005260206000200160009054906101000a900473ffffffffffffffffffffffffffffffffffffffff16600c60006101000a81548173ffffffffffffffffffffffffffffffffffffffff021916908373ffffffffffffffffffffffffffffffffffffffff160217905550601160009054906101000a900473ffffffffffffffffffffffffffffffffffffffff1673ffffffffffffffffffffffffffffffffffffffff166325281939306040518263ffffffff1660e01b8152600401610f8f9190612eb3565b6020604051808303816000875af1158015610fae573d6000803e3d6000fd5b505050506040513d601f19601f82011682018060405250810190610fd29190613818565b5060008060009054906101000a900473ffffffffffffffffffffffffffffffffffffffff1673ffffffffffffffffffffffffffffffffffffffff166370a08231306040518263ffffffff1660e01b815260040161102f9190612eb3565b602060405180830381865afa15801561104c573d6000803e3d6000fd5b505050506040513d601f19601f820116820180604052508101906110709190613818565b905060008060009054906101000a900473ffffffffffffffffffffffffffffffffffffffff1673ffffffffffffffffffffffffffffffffffffffff1663313ce5676040518163ffffffff1660e01b8152600401602060405180830381865afa1580156110e0573d6000803e3d6000fd5b505050506040513d601f19601f82011682018060405250810190611104919061387e565b600a61111091906139de565b9050600061112060015483611e24565b9050600080600061113084611e6e565b90506000600281111561114657611145612f58565b5b81600281111561115957611158612f58565b5b14611199576040517f08c379a000000000000000000000000000000000000000000000000000000000815260040161119090613a75565b60405180910390fd5b6111a1612012565b8093508194505050604051806060016040528043815260200142815260200188815250600e6000820151816000015560208201518160010155604082015181600201559050506005600660006101000a81548160ff0219169083600681111561120d5761120c612f58565b5b021790555081600d819055507f2bd454aea220f47ef41df4dc4bfd0823d826b9fc69aa5f871369edd5086267cb600c60009054906101000a900473ffffffffffffffffffffffffffffffffffffffff166001548886600d548760405161127896959493929190613a95565b60405180910390a1505050505050505b565b6112926127cc565b73ffffffffffffffffffffffffffffffffffffffff166112b061132a565b73ffffffffffffffffffffffffffffffffffffffff1614611306576040517f08c379a00000000000000000000000000000000000000000000000000000000081526004016112fd90613b42565b60405180910390fd5b61131060006127d4565b565b600e8060000154908060010154908060020154905083565b6000601260009054906101000a900473ffffffffffffffffffffffffffffffffffffffff16905090565b6008818154811061136457600080fd5b90600052602060002090600502016000915090508060000160009054906101000a900473ffffffffffffffffffffffffffffffffffffffff16908060010154908060020154908060030154908060040154905085565b600080429050600160068111156113d4576113d3612f58565b5b600660009054906101000a900460ff1660068111156113f6576113f5612f58565b5b1480156114105750603c60025461140d919061365a565b81115b801561141d575060035481105b1561144e576002600660006101000a81548160ff0219169083600681111561144857611447612f58565b5b02179055505b6002600681111561146257611461612f58565b5b600660009054906101000a900460ff16600681111561148457611483612f58565b5b14611493576002915050611495565b505b90565b601560009054906101000a900473ffffffffffffffffffffffffffffffffffffffff1681565b60035481565b600480546114d190613b91565b80601f01602080910402602001604051908101604052809291908181526020018280546114fd90613b91565b801561154a5780601f1061151f5761010080835404028352916020019161154a565b820191906000526020600020905b81548152906001019060200180831161152d57829003601f168201915b505050505081565b60008060009054906101000a900473ffffffffffffffffffffffffffffffffffffffff1673ffffffffffffffffffffffffffffffffffffffff1663313ce5676040518163ffffffff1660e01b8152600401602060405180830381865afa1580156115c0573d6000803e3d6000fd5b505050506040513d601f19601f820116820180604052508101906115e4919061387e565b600a6115f091906139de565b905090565b600660009054906101000a900460ff1681565b60095481565b60015481565b601360009054906101000a900473ffffffffffffffffffffffffffffffffffffffff1681565b6116426127cc565b73ffffffffffffffffffffffffffffffffffffffff1661166061132a565b73ffffffffffffffffffffffffffffffffffffffff16146116b6576040517f08c379a00000000000000000000000000000000000000000000000000000000081526004016116ad90613b42565b60405180910390fd5b8060038190555050565b600060149054906101000a900463ffffffff1681565b600c60009054906101000a900473ffffffffffffffffffffffffffffffffffffffff1681565b60025481565b61170a6127cc565b73ffffffffffffffffffffffffffffffffffffffff1661172861132a565b73ffffffffffffffffffffffffffffffffffffffff161461177e576040517f08c379a000000000000000000000000000000000000000000000000000000000815260040161177590613b42565b60405180910390fd5b600073ffffffffffffffffffffffffffffffffffffffff168173ffffffffffffffffffffffffffffffffffffffff16036117ed576040517f08c379a00000000000000000000000000000000000000000000000000000000081526004016117e490613c34565b60405180910390fd5b6117f6816127d4565b50565b60008054906101000a900473ffffffffffffffffffffffffffffffffffffffff1681565b6000806118286113ba565b90506000600281111561183e5761183d612f58565b5b81600281111561185157611850612f58565b5b14611891576040517f08c379a000000000000000000000000000000000000000000000000000000000815260040161188890613ca0565b60405180910390fd5b600083116118a3576001915050611de8565b60008060009054906101000a900473ffffffffffffffffffffffffffffffffffffffff1673ffffffffffffffffffffffffffffffffffffffff1663313ce5676040518163ffffffff1660e01b8152600401602060405180830381865afa158015611911573d6000803e3d6000fd5b505050506040513d601f19601f82011682018060405250810190611935919061387e565b600a61194191906139de565b905060008054906101000a900473ffffffffffffffffffffffffffffffffffffffff1673ffffffffffffffffffffffffffffffffffffffff166323b872dd863061198b8589611e24565b6040518463ffffffff1660e01b81526004016119a993929190613cc0565b6020604051808303816000875af11580156119c8573d6000803e3d6000fd5b505050506040513d601f19601f820116820180604052508101906119ec9190613d23565b5060005b84811015611a6e57600a869080600181540180825580915050600190039060005260206000200160009091909190916101000a81548173ffffffffffffffffffffffffffffffffffffffff021916908373ffffffffffffffffffffffffffffffffffffffff1602179055508080611a6690613d50565b9150506119f0565b50600760008673ffffffffffffffffffffffffffffffffffffffff1673ffffffffffffffffffffffffffffffffffffffff16815260200190815260200160002060020160009054906101000a900460ff16611c0d576040518060c001604052808673ffffffffffffffffffffffffffffffffffffffff1681526020016000815260200160011515815260200160001515815260200142815260200143815250600760008773ffffffffffffffffffffffffffffffffffffffff1673ffffffffffffffffffffffffffffffffffffffff16815260200190815260200160002060008201518160000160006101000a81548173ffffffffffffffffffffffffffffffffffffffff021916908373ffffffffffffffffffffffffffffffffffffffff1602179055506020820151816001015560408201518160020160006101000a81548160ff02191690831515021790555060608201518160020160016101000a81548160ff0219169083151502179055506080820151816003015560a0820151816004015590505060096000815480929190611c0790613d50565b91905055505b611c59600760008773ffffffffffffffffffffffffffffffffffffffff1673ffffffffffffffffffffffffffffffffffffffff168152602001908152602001600020600101548561289a565b600760008773ffffffffffffffffffffffffffffffffffffffff1673ffffffffffffffffffffffffffffffffffffffff1681526020019081526020016000206001018190555060086040518060a001604052808773ffffffffffffffffffffffffffffffffffffffff168152602001600187600a80549050611cdb9190613d98565b611ce59190613d98565b815260200186815260200142815260200143815250908060018154018082558091505060019003906000526020600020906005020160009091909190915060008201518160000160006101000a81548173ffffffffffffffffffffffffffffffffffffffff021916908373ffffffffffffffffffffffffffffffffffffffff1602179055506020820151816001015560408201518160020155606082015181600301556080820151816004015550507fd755b6433b8fc2eed90a53dff0d71bbe5f026d44a1e230fea6c1e1a262c41a218585600060149054906101000a900463ffffffff16604051611dd993929190613dcc565b60405180910390a16000925050505b92915050565b60004442600a604051602001611e0693929190613f42565b6040516020818303038152906040528051906020012060001c905090565b6000611e6683836040518060400160405280601781526020017f6d756c7469706c69636174696f6e206f766572666c6f770000000000000000008152506128e4565b905092915050565b60008060009054906101000a900473ffffffffffffffffffffffffffffffffffffffff1673ffffffffffffffffffffffffffffffffffffffff1663a9059cbb601560009054906101000a900473ffffffffffffffffffffffffffffffffffffffff16846040518363ffffffff1660e01b8152600401611eee929190613f7b565b6020604051808303816000875af1158015611f0d573d6000803e3d6000fd5b505050506040513d601f19601f82011682018060405250810190611f319190613d23565b50601360009054906101000a900473ffffffffffffffffffffffffffffffffffffffff1673ffffffffffffffffffffffffffffffffffffffff166323b872dd601560009054906101000a900473ffffffffffffffffffffffffffffffffffffffff16600c60009054906101000a900473ffffffffffffffffffffffffffffffffffffffff166014546040518463ffffffff1660e01b8152600401611fd793929190613cc0565b600060405180830381600087803b158015611ff157600080fd5b505af1158015612005573d6000803e3d6000fd5b5050505060009050919050565b60008060008060009054906101000a900473ffffffffffffffffffffffffffffffffffffffff1673ffffffffffffffffffffffffffffffffffffffff166370a08231306040518263ffffffff1660e01b81526004016120719190612eb3565b602060405180830381865afa15801561208e573d6000803e3d6000fd5b505050506040513d601f19601f820116820180604052508101906120b29190613818565b9050600081116120c95760008092509250506127c8565b60006120de6005546120d9611552565b611e24565b905080821161219b5760008054906101000a900473ffffffffffffffffffffffffffffffffffffffff1673ffffffffffffffffffffffffffffffffffffffff1663a9059cbb61212b61132a565b836040518363ffffffff1660e01b8152600401612149929190613f7b565b6020604051808303816000875af1158015612168573d6000803e3d6000fd5b505050506040513d601f19601f8201168201806040525081019061218c9190613d23565b508160009350935050506127c8565b600081836121a99190613d98565b9050600060076000600c60009054906101000a900473ffffffffffffffffffffffffffffffffffffffff1673ffffffffffffffffffffffffffffffffffffffff1673ffffffffffffffffffffffffffffffffffffffff16815260200190815260200160002060010154600a805490506122229190613d98565b905060008111156125ba576000612239838361296f565b905060005b600a80549050811015612467576000600a8281548110612261576122606132d5565b5b9060005260206000200160009054906101000a900473ffffffffffffffffffffffffffffffffffffffff169050600c60009054906101000a900473ffffffffffffffffffffffffffffffffffffffff1673ffffffffffffffffffffffffffffffffffffffff168173ffffffffffffffffffffffffffffffffffffffff16036122e95750612454565b6000600760008373ffffffffffffffffffffffffffffffffffffffff1673ffffffffffffffffffffffffffffffffffffffff16815260200190815260200160002090508060020160019054906101000a900460ff161561234a575050612454565b60008054906101000a900473ffffffffffffffffffffffffffffffffffffffff1673ffffffffffffffffffffffffffffffffffffffff1663a9059cbb600a858154811061239a576123996132d5565b5b9060005260206000200160009054906101000a900473ffffffffffffffffffffffffffffffffffffffff166123d3846001015488611e24565b6040518363ffffffff1660e01b81526004016123f0929190613f7b565b6020604051808303816000875af115801561240f573d6000803e3d6000fd5b505050506040513d601f19601f820116820180604052508101906124339190613d23565b5060018160020160016101000a81548160ff02191690831515021790555050505b808061245f90613d50565b91505061223e565b5060008054906101000a900473ffffffffffffffffffffffffffffffffffffffff1673ffffffffffffffffffffffffffffffffffffffff166370a08231306040518263ffffffff1660e01b81526004016124c19190612eb3565b602060405180830381865afa1580156124de573d6000803e3d6000fd5b505050506040513d601f19601f820116820180604052508101906125029190613818565b945060008054906101000a900473ffffffffffffffffffffffffffffffffffffffff1673ffffffffffffffffffffffffffffffffffffffff1663a9059cbb61254861132a565b876040518363ffffffff1660e01b8152600401612566929190613f7b565b6020604051808303816000875af1158015612585573d6000803e3d6000fd5b505050506040513d601f19601f820116820180604052508101906125a99190613d23565b5084819650965050505050506127c8565b60008054906101000a900473ffffffffffffffffffffffffffffffffffffffff1673ffffffffffffffffffffffffffffffffffffffff1663a9059cbb6125fe61132a565b856040518363ffffffff1660e01b815260040161261c929190613f7b565b6020604051808303816000875af115801561263b573d6000803e3d6000fd5b505050506040513d601f19601f8201168201806040525081019061265f9190613d23565b5060008054906101000a900473ffffffffffffffffffffffffffffffffffffffff1673ffffffffffffffffffffffffffffffffffffffff166370a08231306040518263ffffffff1660e01b81526004016126b99190612eb3565b602060405180830381865afa1580156126d6573d6000803e3d6000fd5b505050506040513d601f19601f820116820180604052508101906126fa9190613818565b935060008054906101000a900473ffffffffffffffffffffffffffffffffffffffff1673ffffffffffffffffffffffffffffffffffffffff1663a9059cbb600c60009054906101000a900473ffffffffffffffffffffffffffffffffffffffff16866040518363ffffffff1660e01b8152600401612779929190613f7b565b6020604051808303816000875af1158015612798573d6000803e3d6000fd5b505050506040513d601f19601f820116820180604052508101906127bc9190613d23565b50828495509550505050505b9091565b600033905090565b6000601260009054906101000a900473ffffffffffffffffffffffffffffffffffffffff16905081601260006101000a81548173ffffffffffffffffffffffffffffffffffffffff021916908373ffffffffffffffffffffffffffffffffffffffff1602179055508173ffffffffffffffffffffffffffffffffffffffff168173ffffffffffffffffffffffffffffffffffffffff167f8be0079c531659141344cd1fd0a4f28419497f9722a3daafe3b4186f6b6457e060405160405180910390a35050565b60006128dc83836040518060400160405280601181526020017f6164646974696f6e206f766572666c6f770000000000000000000000000000008152506129b9565b905092915050565b6000808414806128f45750600083145b156129025760009050612968565b600083856129109190613fa4565b905083858261291f9190613ffe565b148390612962576040517f08c379a00000000000000000000000000000000000000000000000000000000081526004016129599190613083565b60405180910390fd5b50809150505b9392505050565b60006129b183836040518060400160405280600e81526020017f646976696465206279207a65726f000000000000000000000000000000000000815250612a1c565b905092915050565b60008083856129c8919061365a565b9050848110158390612a10576040517f08c379a0000000000000000000000000000000000000000000000000000000008152600401612a079190613083565b60405180910390fd5b50809150509392505050565b60008083118290612a63576040517f08c379a0000000000000000000000000000000000000000000000000000000008152600401612a5a9190613083565b60405180910390fd5b508284612a709190613ffe565b90509392505050565b6000819050919050565b612a8c81612a79565b82525050565b6000602082019050612aa76000830184612a83565b92915050565b6000604051905090565b600080fd5b600080fd5b612aca81612a79565b8114612ad557600080fd5b50565b600081359050612ae781612ac1565b92915050565b600060208284031215612b0357612b02612ab7565b5b6000612b1184828501612ad8565b91505092915050565b600073ffffffffffffffffffffffffffffffffffffffff82169050919050565b6000612b4582612b1a565b9050919050565b612b5581612b3a565b8114612b6057600080fd5b50565b600081359050612b7281612b4c565b92915050565b600060208284031215612b8e57612b8d612ab7565b5b6000612b9c84828501612b63565b91505092915050565b612bae81612b3a565b82525050565b60008115159050919050565b612bc981612bb4565b82525050565b600060c082019050612be46000830189612ba5565b612bf16020830188612a83565b612bfe6040830187612bc0565b612c0b6060830186612bc0565b612c186080830185612a83565b612c2560a0830184612a83565b979650505050505050565b60008060408385031215612c4757612c46612ab7565b5b6000612c5585828601612b63565b9250506020612c6685828601612ad8565b9150509250929050565b6000602082019050612c856000830184612bc0565b92915050565b600081519050919050565b600082825260208201905092915050565b6000819050602082019050919050565b612cc081612b3a565b82525050565b612ccf81612a79565b82525050565b60a082016000820151612ceb6000850182612cb7565b506020820151612cfe6020850182612cc6565b506040820151612d116040850182612cc6565b506060820151612d246060850182612cc6565b506080820151612d376080850182612cc6565b50505050565b6000612d498383612cd5565b60a08301905092915050565b6000602082019050919050565b6000612d6d82612c8b565b612d778185612c96565b9350612d8283612ca7565b8060005b83811015612db3578151612d9a8882612d3d565b9750612da583612d55565b925050600181019050612d86565b5085935050505092915050565b60006020820190508181036000830152612dda8184612d62565b905092915050565b600081519050919050565b600082825260208201905092915050565b6000819050602082019050919050565b6000612e1a8383612cb7565b60208301905092915050565b6000602082019050919050565b6000612e3e82612de2565b612e488185612ded565b9350612e5383612dfe565b8060005b83811015612e84578151612e6b8882612e0e565b9750612e7683612e26565b925050600181019050612e57565b5085935050505092915050565b60006020820190508181036000830152612eab8184612e33565b905092915050565b6000602082019050612ec86000830184612ba5565b92915050565b6000606082019050612ee36000830186612a83565b612ef06020830185612a83565b612efd6040830184612a83565b949350505050565b600060a082019050612f1a6000830188612ba5565b612f276020830187612a83565b612f346040830186612a83565b612f416060830185612a83565b612f4e6080830184612a83565b9695505050505050565b7f4e487b7100000000000000000000000000000000000000000000000000000000600052602160045260246000fd5b60038110612f9857612f97612f58565b5b50565b6000819050612fa982612f87565b919050565b6000612fb982612f9b565b9050919050565b612fc981612fae565b82525050565b6000602082019050612fe46000830184612fc0565b92915050565b600081519050919050565b600082825260208201905092915050565b60005b83811015613024578082015181840152602081019050613009565b83811115613033576000848401525b50505050565b6000601f19601f8301169050919050565b600061305582612fea565b61305f8185612ff5565b935061306f818560208601613006565b61307881613039565b840191505092915050565b6000602082019050818103600083015261309d818461304a565b905092915050565b600781106130b6576130b5612f58565b5b50565b60008190506130c7826130a5565b919050565b60006130d7826130b9565b9050919050565b6130e7816130cc565b82525050565b600060208201905061310260008301846130de565b92915050565b6000819050919050565b600061312d61312861312384612b1a565b613108565b612b1a565b9050919050565b600061313f82613112565b9050919050565b600061315182613134565b9050919050565b61316181613146565b82525050565b600060208201905061317c6000830184613158565b92915050565b600063ffffffff82169050919050565b61319b81613182565b82525050565b60006020820190506131b66000830184613192565b92915050565b60006131c782613134565b9050919050565b6131d7816131bc565b82525050565b60006020820190506131f260008301846131ce565b92915050565b7f6a6f696e206661696c6564000000000000000000000000000000000000000000600082015250565b600061322e600b83612ff5565b9150613239826131f8565b602082019050919050565b6000602082019050818103600083015261325d81613221565b9050919050565b60008151905061327381612b4c565b92915050565b60006020828403121561328f5761328e612ab7565b5b600061329d84828501613264565b91505092915050565b7f4e487b7100000000000000000000000000000000000000000000000000000000600052604160045260246000fd5b7f4e487b7100000000000000000000000000000000000000000000000000000000600052603260045260246000fd5b600080fd5b61331282613039565b810181811067ffffffffffffffff82111715613331576133306132a6565b5b80604052505050565b6000613344612aad565b90506133508282613309565b919050565b600067ffffffffffffffff8211156133705761336f6132a6565b5b602082029050602081019050919050565b600080fd5b60008151905061339581612ac1565b92915050565b60006133ae6133a984613355565b61333a565b905080838252602082019050602084028301858111156133d1576133d0613381565b5b835b818110156133fa57806133e68882613386565b8452602084019350506020810190506133d3565b5050509392505050565b600082601f83011261341957613418613304565b5b815161342984826020860161339b565b91505092915050565b60006020828403121561344857613447612ab7565b5b600082015167ffffffffffffffff81111561346657613465612abc565b5b61347284828501613404565b91505092915050565b7f7075626c697368206661696c6564000000000000000000000000000000000000600082015250565b60006134b1600e83612ff5565b91506134bc8261347b565b602082019050919050565b600060208201905081810360008301526134e0816134a4565b9050919050565b7f6a6f696e206661696c6564200000000000000000000000000000000000000000600082015250565b600061351d600c83612ff5565b9150613528826134e7565b602082019050919050565b6000602082019050818103600083015261354c81613510565b9050919050565b7f636f6d7074726f6c6c6572206973206e6f7420656d7074790000000000000000600082015250565b6000613589601883612ff5565b915061359482613553565b602082019050919050565b600060208201905081810360008301526135b88161357c565b9050919050565b7f7069636b2077696e6e6572206861642066696e69736865640000000000000000600082015250565b60006135f5601883612ff5565b9150613600826135bf565b602082019050919050565b60006020820190508181036000830152613624816135e8565b9050919050565b7f4e487b7100000000000000000000000000000000000000000000000000000000600052601160045260246000fd5b600061366582612a79565b915061367083612a79565b9250827fffffffffffffffffffffffffffffffffffffffffffffffffffffffffffffffff038211156136a5576136a461362b565b5b828201905092915050565b7f63616e206e6f74207069636b2077696e6e657200000000000000000000000000600082015250565b60006136e6601383612ff5565b91506136f1826136b0565b602082019050919050565b60006020820190508181036000830152613715816136d9565b9050919050565b6000819050919050565b600061374161373c6137378461371c565b613108565b612a79565b9050919050565b61375181613726565b82525050565b600060c08201905061376c6000830189612ba5565b6137796020830188612a83565b6137866040830187613748565b6137936060830186613748565b6137a06080830185613748565b6137ad60a0830184613748565b979650505050505050565b7f4e487b7100000000000000000000000000000000000000000000000000000000600052601260045260246000fd5b60006137f282612a79565b91506137fd83612a79565b92508261380d5761380c6137b8565b5b828206905092915050565b60006020828403121561382e5761382d612ab7565b5b600061383c84828501613386565b91505092915050565b600060ff82169050919050565b61385b81613845565b811461386657600080fd5b50565b60008151905061387881613852565b92915050565b60006020828403121561389457613893612ab7565b5b60006138a284828501613869565b91505092915050565b60008160011c9050919050565b6000808291508390505b6001851115613902578086048111156138de576138dd61362b565b5b60018516156138ed5780820291505b80810290506138fb856138ab565b94506138c2565b94509492505050565b60008261391b57600190506139d7565b8161392957600090506139d7565b816001811461393f576002811461394957613978565b60019150506139d7565b60ff84111561395b5761395a61362b565b5b8360020a9150848211156139725761397161362b565b5b506139d7565b5060208310610133831016604e8410600b84101617156139ad5782820a9050838111156139a8576139a761362b565b5b6139d7565b6139ba84848460016138b8565b925090508184048111156139d1576139d061362b565b5b81810290505b9392505050565b60006139e982612a79565b91506139f483613845565b9250613a217fffffffffffffffffffffffffffffffffffffffffffffffffffffffffffffffff848461390b565b905092915050565b7f73656e6420746f2077696e6e6572206661696c65642e00000000000000000000600082015250565b6000613a5f601683612ff5565b9150613a6a82613a29565b602082019050919050565b60006020820190508181036000830152613a8e81613a52565b9050919050565b600060c082019050613aaa6000830189612ba5565b613ab76020830188612a83565b613ac46040830187612a83565b613ad16060830186612a83565b613ade6080830185612a83565b613aeb60a0830184612a83565b979650505050505050565b7f4f776e61626c653a2063616c6c6572206973206e6f7420746865206f776e6572600082015250565b6000613b2c602083612ff5565b9150613b3782613af6565b602082019050919050565b60006020820190508181036000830152613b5b81613b1f565b9050919050565b7f4e487b7100000000000000000000000000000000000000000000000000000000600052602260045260246000fd5b60006002820490506001821680613ba957607f821691505b602082108103613bbc57613bbb613b62565b5b50919050565b7f4f776e61626c653a206e6577206f776e657220697320746865207a65726f206160008201527f6464726573730000000000000000000000000000000000000000000000000000602082015250565b6000613c1e602683612ff5565b9150613c2982613bc2565b604082019050919050565b60006020820190508181036000830152613c4d81613c11565b9050919050565b7f73746167652076616c6964206661696c65640000000000000000000000000000600082015250565b6000613c8a601283612ff5565b9150613c9582613c54565b602082019050919050565b60006020820190508181036000830152613cb981613c7d565b9050919050565b6000606082019050613cd56000830186612ba5565b613ce26020830185612ba5565b613cef6040830184612a83565b949350505050565b613d0081612bb4565b8114613d0b57600080fd5b50565b600081519050613d1d81613cf7565b92915050565b600060208284031215613d3957613d38612ab7565b5b6000613d4784828501613d0e565b91505092915050565b6000613d5b82612a79565b91507fffffffffffffffffffffffffffffffffffffffffffffffffffffffffffffffff8203613d8d57613d8c61362b565b5b600182019050919050565b6000613da382612a79565b9150613dae83612a79565b925082821015613dc157613dc061362b565b5b828203905092915050565b6000606082019050613de16000830186612ba5565b613dee6020830185612a83565b613dfb6040830184613192565b949350505050565b6000819050919050565b613e1e613e1982612a79565b613e03565b82525050565b600081549050919050565b600081905092915050565b60008190508160005260206000209050919050565b613e5881612b3a565b82525050565b6000613e6a8383613e4f565b60208301905092915050565b60008160001c9050919050565b600073ffffffffffffffffffffffffffffffffffffffff82169050919050565b6000613eb6613eb183613e76565b613e83565b9050919050565b6000613ec98254613ea3565b9050919050565b6000600182019050919050565b6000613ee882613e24565b613ef28185613e2f565b9350613efd83613e3a565b8060005b83811015613f3557613f1282613ebd565b613f1c8882613e5e565b9750613f2783613ed0565b925050600181019050613f01565b5085935050505092915050565b6000613f4e8286613e0d565b602082019150613f5e8285613e0d565b602082019150613f6e8284613edd565b9150819050949350505050565b6000604082019050613f906000830185612ba5565b613f9d6020830184612a83565b9392505050565b6000613faf82612a79565b9150613fba83612a79565b9250817fffffffffffffffffffffffffffffffffffffffffffffffffffffffffffffffff0483118215151615613ff357613ff261362b565b5b828202905092915050565b600061400982612a79565b915061401483612a79565b925082614024576140236137b8565b5b82820490509291505056fea26469706673582212209579895d130f97bdfad2482877ca9f8b333b791613a0d61cf749751d7ec8d15964736f6c634300080d0033",
  "immutableReferences": {},
  "source": "// SPDX-License-Identifier: MIT\npragma solidity >=0.4.22 <0.9.0;\n\nimport \"./GoodLottery.sol\";\nimport \"@openzeppelin/contracts/token/ERC721/IERC721.sol\";\nimport \"@openzeppelin/contracts/token/ERC721/IERC721Receiver.sol\";\n\ncontract GoodLotterNFT is GoodLottery {\n    IERC721 public nftToken;\n    uint256 public tokenId;\n    address public tokenOwner;\n\n    event ReceiveToken(address nftToken, address user, uint token);\n\n   constructor(\n        ComptrollerInterface _comptroller,\n        IERC20 _token,\n        uint32 _goodId,\n        uint256 _goodValue,\n        uint256 _maintenanceFee,\n        uint256 _publishTime,\n        uint256 _lockedTime,\n        string memory _goodHash,\n        address _nftAddress,\n        uint256 _tokenId\n    ) GoodLottery(_comptroller, _token, _goodId, _goodValue, _maintenanceFee, _publishTime, _lockedTime, _goodHash) {\n        nftToken = IERC721(_nftAddress);\n        stage = Stage.INIT;\n        tokenId = _tokenId;\n    }\n\n    function publishToMarket() public {\n        require(nftToken.getApproved(tokenId) == address(this));\n        address marketOwner = comptroller.owner();\n        \n        transferOwnership(marketOwner);\n\n        address[] memory goods = new address[](1);\n        goods[0] = address(this);\n\n        uint[] memory resp = comptroller.publishGood(goods);\n        \n        require(resp[0] == 0, \"publish failed\");\n    }\n\n    function payToWinner(uint winnerValue) internal override returns (Error) {\n        token.transfer(tokenOwner, winnerValue);\n        nftToken.transferFrom(tokenOwner, winner, tokenId);\n        return Error.NO_ERROR;\n    }\n}",
  "sourcePath": "/Users/jonah/SolidityProject/makewish-contract/contracts/GoodLotteryNFT.sol",
  "compiler": {
    "name": "solc",
    "version": "0.8.13+commit.abaa5c0e.Emscripten.clang"
  },
  "schemaVersion": "3.4.7",
  "updatedAt": "2022-06-01T06:45:15.325Z",
  "devdoc": {
    "kind": "dev",
    "methods": {
      "owner()": {
        "details": "Returns the address of the current owner."
      },
      "renounceOwnership()": {
        "details": "Leaves the contract without owner. It will not be possible to call `onlyOwner` functions anymore. Can only be called by the current owner. NOTE: Renouncing ownership will leave the contract without an owner, thereby removing any functionality that is only available to the owner."
      },
      "transferOwnership(address)": {
        "details": "Transfers ownership of the contract to a new account (`newOwner`). Can only be called by the current owner."
      }
    },
    "version": 1
  },
  "userdoc": {
    "kind": "user",
    "methods": {},
    "version": 1
  }
}