{
  "contractName": "GoodLottery",
  "abi": [
    {
      "inputs": [
        {
          "internalType": "contract ComptrollerInterface",
          "name": "_comptroller",
          "type": "address"
        },
        {
          "internalType": "contract IERC20",
          "name": "_token",
          "type": "address"
        },
        {
          "internalType": "uint32",
          "name": "_goodId",
          "type": "uint32"
        },
        {
          "internalType": "uint256",
          "name": "_goodValue",
          "type": "uint256"
        },
        {
          "internalType": "uint256",
          "name": "_maintenanceFee",
          "type": "uint256"
        },
        {
          "internalType": "uint256",
          "name": "_publishTime",
          "type": "uint256"
        },
        {
          "internalType": "uint256",
          "name": "_lockedTime",
          "type": "uint256"
        },
        {
          "internalType": "string",
          "name": "_goodHash",
          "type": "string"
        }
      ],
      "stateMutability": "nonpayable",
      "type": "constructor"
    },
    {
      "anonymous": false,
      "inputs": [
        {
          "indexed": false,
          "internalType": "address",
          "name": "user",
          "type": "address"
        },
        {
          "indexed": false,
          "internalType": "uint256",
          "name": "amount",
          "type": "uint256"
        },
        {
          "indexed": false,
          "internalType": "uint32",
          "name": "goodId",
          "type": "uint32"
        }
      ],
      "name": "JoinSuccessful",
      "type": "event"
    },
    {
      "anonymous": false,
      "inputs": [
        {
          "indexed": false,
          "internalType": "address",
          "name": "user",
          "type": "address"
        },
        {
          "indexed": false,
          "internalType": "uint256",
          "name": "totalBalance",
          "type": "uint256"
        },
        {
          "indexed": false,
          "internalType": "uint256",
          "name": "priceValue",
          "type": "uint256"
        },
        {
          "indexed": false,
          "internalType": "uint256",
          "name": "mf",
          "type": "uint256"
        },
        {
          "indexed": false,
          "internalType": "uint256",
          "name": "burned",
          "type": "uint256"
        },
        {
          "indexed": false,
          "internalType": "uint256",
          "name": "paybackUnit",
          "type": "uint256"
        }
      ],
      "name": "LotteryComplete",
      "type": "event"
    },
    {
      "anonymous": false,
      "inputs": [
        {
          "indexed": true,
          "internalType": "address",
          "name": "previousOwner",
          "type": "address"
        },
        {
          "indexed": true,
          "internalType": "address",
          "name": "newOwner",
          "type": "address"
        }
      ],
      "name": "OwnershipTransferred",
      "type": "event"
    },
    {
      "inputs": [],
      "name": "goodHash",
      "outputs": [
        {
          "internalType": "string",
          "name": "",
          "type": "string"
        }
      ],
      "stateMutability": "view",
      "type": "function"
    },
    {
      "inputs": [],
      "name": "goodId",
      "outputs": [
        {
          "internalType": "uint32",
          "name": "",
          "type": "uint32"
        }
      ],
      "stateMutability": "view",
      "type": "function"
    },
    {
      "inputs": [],
      "name": "goodValue",
      "outputs": [
        {
          "internalType": "uint256",
          "name": "",
          "type": "uint256"
        }
      ],
      "stateMutability": "view",
      "type": "function"
    },
    {
      "inputs": [],
      "name": "isGoodLottery",
      "outputs": [
        {
          "internalType": "bool",
          "name": "",
          "type": "bool"
        }
      ],
      "stateMutability": "view",
      "type": "function"
    },
    {
      "inputs": [],
      "name": "lockedTime",
      "outputs": [
        {
          "internalType": "uint256",
          "name": "",
          "type": "uint256"
        }
      ],
      "stateMutability": "view",
      "type": "function"
    },
    {
      "inputs": [],
      "name": "maintenanceFee",
      "outputs": [
        {
          "internalType": "uint256",
          "name": "",
          "type": "uint256"
        }
      ],
      "stateMutability": "view",
      "type": "function"
    },
    {
      "inputs": [],
      "name": "owner",
      "outputs": [
        {
          "internalType": "address",
          "name": "",
          "type": "address"
        }
      ],
      "stateMutability": "view",
      "type": "function"
    },
    {
      "inputs": [],
      "name": "paybackFee",
      "outputs": [
        {
          "internalType": "uint256",
          "name": "",
          "type": "uint256"
        }
      ],
      "stateMutability": "view",
      "type": "function"
    },
    {
      "inputs": [],
      "name": "publishTime",
      "outputs": [
        {
          "internalType": "uint256",
          "name": "",
          "type": "uint256"
        }
      ],
      "stateMutability": "view",
      "type": "function"
    },
    {
      "inputs": [],
      "name": "renounceOwnership",
      "outputs": [],
      "stateMutability": "nonpayable",
      "type": "function"
    },
    {
      "inputs": [],
      "name": "stage",
      "outputs": [
        {
          "internalType": "enum GoodLottery.Stage",
          "name": "",
          "type": "uint8"
        }
      ],
      "stateMutability": "view",
      "type": "function"
    },
    {
      "inputs": [
        {
          "internalType": "uint256",
          "name": "",
          "type": "uint256"
        }
      ],
      "name": "ticketNums",
      "outputs": [
        {
          "internalType": "uint256",
          "name": "",
          "type": "uint256"
        }
      ],
      "stateMutability": "view",
      "type": "function"
    },
    {
      "inputs": [
        {
          "internalType": "uint256",
          "name": "",
          "type": "uint256"
        }
      ],
      "name": "tickets",
      "outputs": [
        {
          "internalType": "address",
          "name": "",
          "type": "address"
        }
      ],
      "stateMutability": "view",
      "type": "function"
    },
    {
      "inputs": [],
      "name": "token",
      "outputs": [
        {
          "internalType": "contract IERC20",
          "name": "",
          "type": "address"
        }
      ],
      "stateMutability": "view",
      "type": "function"
    },
    {
      "inputs": [
        {
          "internalType": "address",
          "name": "newOwner",
          "type": "address"
        }
      ],
      "name": "transferOwnership",
      "outputs": [],
      "stateMutability": "nonpayable",
      "type": "function"
    },
    {
      "inputs": [
        {
          "internalType": "uint256",
          "name": "",
          "type": "uint256"
        }
      ],
      "name": "userList",
      "outputs": [
        {
          "internalType": "address",
          "name": "",
          "type": "address"
        }
      ],
      "stateMutability": "view",
      "type": "function"
    },
    {
      "inputs": [
        {
          "internalType": "address",
          "name": "",
          "type": "address"
        }
      ],
      "name": "userMapping",
      "outputs": [
        {
          "internalType": "address",
          "name": "user",
          "type": "address"
        },
        {
          "internalType": "uint256",
          "name": "count",
          "type": "uint256"
        },
        {
          "internalType": "bool",
          "name": "isJoined",
          "type": "bool"
        },
        {
          "internalType": "uint256",
          "name": "joinTime",
          "type": "uint256"
        },
        {
          "internalType": "uint256",
          "name": "joinBlockNum",
          "type": "uint256"
        }
      ],
      "stateMutability": "view",
      "type": "function"
    },
    {
      "inputs": [],
      "name": "winner",
      "outputs": [
        {
          "internalType": "address",
          "name": "",
          "type": "address"
        }
      ],
      "stateMutability": "view",
      "type": "function"
    },
    {
      "inputs": [],
      "name": "winnerTime",
      "outputs": [
        {
          "internalType": "uint256",
          "name": "blockNum",
          "type": "uint256"
        },
        {
          "internalType": "uint256",
          "name": "blockTime",
          "type": "uint256"
        },
        {
          "internalType": "uint256",
          "name": "index",
          "type": "uint256"
        }
      ],
      "stateMutability": "view",
      "type": "function"
    },
    {
      "inputs": [
        {
          "internalType": "uint256",
          "name": "_lockedTime",
          "type": "uint256"
        }
      ],
      "name": "setLockedTime",
      "outputs": [],
      "stateMutability": "nonpayable",
      "type": "function"
    },
    {
      "inputs": [
        {
          "internalType": "uint256",
          "name": "amount",
          "type": "uint256"
        }
      ],
      "name": "join",
      "outputs": [],
      "stateMutability": "nonpayable",
      "type": "function"
    },
    {
      "inputs": [
        {
          "internalType": "address",
          "name": "user",
          "type": "address"
        },
        {
          "internalType": "uint256",
          "name": "amount",
          "type": "uint256"
        }
      ],
      "name": "join",
      "outputs": [],
      "stateMutability": "nonpayable",
      "type": "function"
    },
    {
      "inputs": [],
      "name": "pickWinner",
      "outputs": [],
      "stateMutability": "nonpayable",
      "type": "function"
    },
    {
      "inputs": [],
      "name": "getTokenExchangeRate",
      "outputs": [
        {
          "internalType": "uint256",
          "name": "",
          "type": "uint256"
        }
      ],
      "stateMutability": "view",
      "type": "function"
    },
    {
      "inputs": [],
      "name": "getUsers",
      "outputs": [
        {
          "internalType": "address[]",
          "name": "",
          "type": "address[]"
        }
      ],
      "stateMutability": "view",
      "type": "function"
    },
    {
      "inputs": [],
      "name": "getTickets",
      "outputs": [
        {
          "internalType": "address[]",
          "name": "",
          "type": "address[]"
        }
      ],
      "stateMutability": "view",
      "type": "function"
    }
  ],
  "bytecode": "0x60806040526000600560006101000a81548160ff021916908360068111156200002d576200002c6200040a565b5b02179055503480156200003f57600080fd5b5060405162003a8138038062003a81833981810160405281019062000065919062000710565b6200008562000079620000ab60201b60201c565b620000b360201b60201c565b6200009d88888888888888886200017760201b60201c565b505050505050505062000977565b600033905090565b60008060009054906101000a900473ffffffffffffffffffffffffffffffffffffffff169050816000806101000a81548173ffffffffffffffffffffffffffffffffffffffff021916908373ffffffffffffffffffffffffffffffffffffffff1602179055508173ffffffffffffffffffffffffffffffffffffffff168173ffffffffffffffffffffffffffffffffffffffff167f8be0079c531659141344cd1fd0a4f28419497f9722a3daafe3b4186f6b6457e060405160405180910390a35050565b600060068111156200018e576200018d6200040a565b5b600560009054906101000a900460ff166006811115620001b357620001b26200040a565b5b14620001f6576040517f08c379a0000000000000000000000000000000000000000000000000000000008152600401620001ed9062000859565b60405180910390fd5b60008511801562000208575061271085105b6200024a576040517f08c379a00000000000000000000000000000000000000000000000000000000081526004016200024190620008f1565b60405180910390fd5b85600160146101000a81548163ffffffff021916908363ffffffff16021790555084600281905550826003819055508160048190555086600160006101000a81548173ffffffffffffffffffffffffffffffffffffffff021916908373ffffffffffffffffffffffffffffffffffffffff16021790555087601060006101000a81548173ffffffffffffffffffffffffffffffffffffffff021916908373ffffffffffffffffffffffffffffffffffffffff1602179055506001600560006101000a81548160ff021916908360068111156200032b576200032a6200040a565b5b02179055508360068190555080601190805190602001906200034f9291906200035a565b505050505050505050565b828054620003689062000942565b90600052602060002090601f0160209004810192826200038c5760008555620003d8565b82601f10620003a757805160ff1916838001178555620003d8565b82800160010185558215620003d8579182015b82811115620003d7578251825591602001919060010190620003ba565b5b509050620003e79190620003eb565b5090565b5b8082111562000406576000816000905550600101620003ec565b5090565b7f4e487b7100000000000000000000000000000000000000000000000000000000600052602160045260246000fd5b6000604051905090565b600080fd5b600080fd5b600073ffffffffffffffffffffffffffffffffffffffff82169050919050565b60006200047a826200044d565b9050919050565b60006200048e826200046d565b9050919050565b620004a08162000481565b8114620004ac57600080fd5b50565b600081519050620004c08162000495565b92915050565b6000620004d3826200046d565b9050919050565b620004e581620004c6565b8114620004f157600080fd5b50565b6000815190506200050581620004da565b92915050565b600063ffffffff82169050919050565b62000526816200050b565b81146200053257600080fd5b50565b60008151905062000546816200051b565b92915050565b6000819050919050565b62000561816200054c565b81146200056d57600080fd5b50565b600081519050620005818162000556565b92915050565b600080fd5b600080fd5b6000601f19601f8301169050919050565b7f4e487b7100000000000000000000000000000000000000000000000000000000600052604160045260246000fd5b620005dc8262000591565b810181811067ffffffffffffffff82111715620005fe57620005fd620005a2565b5b80604052505050565b60006200061362000439565b9050620006218282620005d1565b919050565b600067ffffffffffffffff821115620006445762000643620005a2565b5b6200064f8262000591565b9050602081019050919050565b60005b838110156200067c5780820151818401526020810190506200065f565b838111156200068c576000848401525b50505050565b6000620006a9620006a38462000626565b62000607565b905082815260208101848484011115620006c857620006c76200058c565b5b620006d58482856200065c565b509392505050565b600082601f830112620006f557620006f462000587565b5b81516200070784826020860162000692565b91505092915050565b600080600080600080600080610100898b03121562000734576200073362000443565b5b6000620007448b828c01620004af565b9850506020620007578b828c01620004f4565b97505060406200076a8b828c0162000535565b96505060606200077d8b828c0162000570565b9550506080620007908b828c0162000570565b94505060a0620007a38b828c0162000570565b93505060c0620007b68b828c0162000570565b92505060e089015167ffffffffffffffff811115620007da57620007d962000448565b5b620007e88b828c01620006dd565b9150509295985092959890939650565b600082825260208201905092915050565b7f676f6f6420686164206265656e20696e697469616c697a65642e000000000000600082015250565b600062000841601a83620007f8565b91506200084e8262000809565b602082019050919050565b60006020820190508181036000830152620008748162000832565b9050919050565b7f676f6f64732076616c7565206d757374206265747765656e203120616e64203960008201527f3939390000000000000000000000000000000000000000000000000000000000602082015250565b6000620008d9602383620007f8565b9150620008e6826200087b565b604082019050919050565b600060208201905081810360008301526200090c81620008ca565b9050919050565b7f4e487b7100000000000000000000000000000000000000000000000000000000600052602260045260246000fd5b600060028204905060018216806200095b57607f821691505b60208210810362000971576200097062000913565b5b50919050565b6130fa80620009876000396000f3fe608060405234801561001057600080fd5b506004361061018d5760003560e01c80638da5cb5b116100de578063c379b4be11610097578063dfbf53ae11610071578063dfbf53ae14610446578063e467fa8014610464578063f2fde38b14610482578063fc0c546a1461049e5761018d565b8063c379b4be146103ee578063df1dcaa91461040c578063df4c0ab1146104285761018d565b80638da5cb5b146103285780639f4216e814610346578063a8b3820514610376578063a9135d1714610394578063c01d1c60146103b2578063c040e6b8146103d05761018d565b80633b4da69f1161014b57806350b447121161012557806350b44712146102c45780635d495aea146102f4578063715018a6146102fe5780637676d235146103085761018d565b80633b4da69f1461026c5780633d98fc17146102885780634ed02622146102a65761018d565b8062ce8e3e1461019257806304660449146101b0578063049878f3146101ce578063118b9535146101ea5780631bbf17c51461021e5780632e40945e1461023c575b600080fd5b61019a6104bc565b6040516101a791906121d8565b60405180910390f35b6101b8610550565b6040516101c59190612213565b60405180910390f35b6101e860048036038101906101e3919061225f565b610556565b005b61020460048036038101906101ff91906122b8565b6105cf565b60405161021595949392919061230f565b60405180910390f35b610226610632565b6040516102339190612213565b60405180910390f35b6102566004803603810190610251919061225f565b610638565b6040516102639190612213565b60405180910390f35b61028660048036038101906102819190612362565b61065c565b005b6102906106d6565b60405161029d91906123a2565b60405180910390f35b6102ae6106db565b6040516102bb91906121d8565b60405180910390f35b6102de60048036038101906102d9919061225f565b61076f565b6040516102eb91906123bd565b60405180910390f35b6102fc6107ae565b005b610306610e55565b005b610310610edd565b60405161031f939291906123d8565b60405180910390f35b610330610ef5565b60405161033d91906123bd565b60405180910390f35b610360600480360381019061035b919061225f565b610f1e565b60405161036d91906123bd565b60405180910390f35b61037e610f5d565b60405161038b9190612213565b60405180910390f35b61039c610f63565b6040516103a991906124a8565b60405180910390f35b6103ba610ff1565b6040516103c79190612213565b60405180910390f35b6103d8611095565b6040516103e59190612541565b60405180910390f35b6103f66110a8565b6040516104039190612213565b60405180910390f35b6104266004803603810190610421919061225f565b6110ae565b005b610430611134565b60405161043d919061257b565b60405180910390f35b61044e61114a565b60405161045b91906123bd565b60405180910390f35b61046c611170565b6040516104799190612213565b60405180910390f35b61049c600480360381019061049791906122b8565b611176565b005b6104a661126d565b6040516104b391906125f5565b60405180910390f35b60606000600780548060200260200160405190810160405280929190818152602001828054801561054257602002820191906000526020600020905b8160009054906101000a900473ffffffffffffffffffffffffffffffffffffffff1673ffffffffffffffffffffffffffffffffffffffff16815260200190600101908083116104f8575b505050505090508091505090565b60065481565b60006105623383611293565b905060006002811115610578576105776124ca565b5b81600281111561058b5761058a6124ca565b5b146105cb576040517f08c379a00000000000000000000000000000000000000000000000000000000081526004016105c29061265c565b60405180910390fd5b5050565b60086020528060005260406000206000915090508060000160009054906101000a900473ffffffffffffffffffffffffffffffffffffffff16908060010154908060020160009054906101000a900460ff16908060030154908060040154905085565b600f5481565b600a818154811061064857600080fd5b906000526020600020016000915090505481565b60006106688383611293565b90506000600281111561067e5761067d6124ca565b5b816002811115610691576106906124ca565b5b146106d1576040517f08c379a00000000000000000000000000000000000000000000000000000000081526004016106c89061265c565b60405180910390fd5b505050565b600181565b60606000600980548060200260200160405190810160405280929190818152602001828054801561076157602002820191906000526020600020905b8160009054906101000a900473ffffffffffffffffffffffffffffffffffffffff1673ffffffffffffffffffffffffffffffffffffffff1681526020019060010190808311610717575b505050505090508091505090565b6009818154811061077f57600080fd5b906000526020600020016000915054906101000a900473ffffffffffffffffffffffffffffffffffffffff1681565b600073ffffffffffffffffffffffffffffffffffffffff16601060009054906101000a900473ffffffffffffffffffffffffffffffffffffffff1673ffffffffffffffffffffffffffffffffffffffff160361083f576040517f08c379a0000000000000000000000000000000000000000000000000000000008152600401610836906126c8565b60405180910390fd5b60056006811115610853576108526124ca565b5b600560009054906101000a900460ff166006811115610875576108746124ca565b5b141580156108b65750600680811115610891576108906124ca565b5b600560009054906101000a900460ff1660068111156108b3576108b26124ca565b5b14155b6108f5576040517f08c379a00000000000000000000000000000000000000000000000000000000081526004016108ec90612734565b60405180910390fd5b6102586004546109059190612783565b421015610947576040517f08c379a000000000000000000000000000000000000000000000000000000000815260040161093e90612825565b60405180910390fd5b6000600980549050036109eb576006600560006101000a81548160ff0219169083600681111561097a576109796124ca565b5b02179055507f2bd454aea220f47ef41df4dc4bfd0823d826b9fc69aa5f871369edd5086267cb600b60009054906101000a900473ffffffffffffffffffffffffffffffffffffffff166002546000806000806040516109de96959493929190612880565b60405180910390a1610e53565b6004600560006101000a81548160ff02191690836006811115610a1157610a106124ca565b5b02179055506000600980549050610a26611823565b610a309190612910565b905060098181548110610a4657610a45612941565b5b9060005260206000200160009054906101000a900473ffffffffffffffffffffffffffffffffffffffff16600b60006101000a81548173ffffffffffffffffffffffffffffffffffffffff021916908373ffffffffffffffffffffffffffffffffffffffff160217905550601060009054906101000a900473ffffffffffffffffffffffffffffffffffffffff1673ffffffffffffffffffffffffffffffffffffffff166325281939306040518263ffffffff1660e01b8152600401610b0c91906123bd565b6020604051808303816000875af1158015610b2b573d6000803e3d6000fd5b505050506040513d601f19601f82011682018060405250810190610b4f9190612985565b506000600160009054906101000a900473ffffffffffffffffffffffffffffffffffffffff1673ffffffffffffffffffffffffffffffffffffffff166370a08231306040518263ffffffff1660e01b8152600401610bad91906123bd565b602060405180830381865afa158015610bca573d6000803e3d6000fd5b505050506040513d601f19601f82011682018060405250810190610bee9190612985565b90506000600160009054906101000a900473ffffffffffffffffffffffffffffffffffffffff1673ffffffffffffffffffffffffffffffffffffffff1663313ce5676040518163ffffffff1660e01b8152600401602060405180830381865afa158015610c5f573d6000803e3d6000fd5b505050506040513d601f19601f82011682018060405250810190610c8391906129eb565b600a610c8f9190612b4b565b90506000610c9f60025483611859565b9050600080600160009054906101000a900473ffffffffffffffffffffffffffffffffffffffff1673ffffffffffffffffffffffffffffffffffffffff1663a9059cbb600b60009054906101000a900473ffffffffffffffffffffffffffffffffffffffff16856040518363ffffffff1660e01b8152600401610d23929190612b96565b6020604051808303816000875af1158015610d42573d6000803e3d6000fd5b505050506040513d601f19601f82011682018060405250810190610d669190612beb565b50610d6f6118a3565b8092508193505050604051806060016040528043815260200142815260200187815250600c60008201518160000155602082015181600101556040820151816002015590505060058060006101000a81548160ff02191690836006811115610dda57610dd96124ca565b5b021790555080600f819055507f2bd454aea220f47ef41df4dc4bfd0823d826b9fc69aa5f871369edd5086267cb600b60009054906101000a900473ffffffffffffffffffffffffffffffffffffffff166002548785600086604051610e4496959493929190612c18565b60405180910390a15050505050505b565b610e5d611e3d565b73ffffffffffffffffffffffffffffffffffffffff16610e7b610ef5565b73ffffffffffffffffffffffffffffffffffffffff1614610ed1576040517f08c379a0000000000000000000000000000000000000000000000000000000008152600401610ec890612cc5565b60405180910390fd5b610edb6000611e45565b565b600c8060000154908060010154908060020154905083565b60008060009054906101000a900473ffffffffffffffffffffffffffffffffffffffff16905090565b60078181548110610f2e57600080fd5b906000526020600020016000915054906101000a900473ffffffffffffffffffffffffffffffffffffffff1681565b60045481565b60118054610f7090612d14565b80601f0160208091040260200160405190810160405280929190818152602001828054610f9c90612d14565b8015610fe95780601f10610fbe57610100808354040283529160200191610fe9565b820191906000526020600020905b815481529060010190602001808311610fcc57829003601f168201915b505050505081565b6000600160009054906101000a900473ffffffffffffffffffffffffffffffffffffffff1673ffffffffffffffffffffffffffffffffffffffff1663313ce5676040518163ffffffff1660e01b8152600401602060405180830381865afa158015611060573d6000803e3d6000fd5b505050506040513d601f19601f8201168201806040525081019061108491906129eb565b600a6110909190612b4b565b905090565b600560009054906101000a900460ff1681565b60025481565b6110b6611e3d565b73ffffffffffffffffffffffffffffffffffffffff166110d4610ef5565b73ffffffffffffffffffffffffffffffffffffffff161461112a576040517f08c379a000000000000000000000000000000000000000000000000000000000815260040161112190612cc5565b60405180910390fd5b8060048190555050565b600160149054906101000a900463ffffffff1681565b600b60009054906101000a900473ffffffffffffffffffffffffffffffffffffffff1681565b60035481565b61117e611e3d565b73ffffffffffffffffffffffffffffffffffffffff1661119c610ef5565b73ffffffffffffffffffffffffffffffffffffffff16146111f2576040517f08c379a00000000000000000000000000000000000000000000000000000000081526004016111e990612cc5565b60405180910390fd5b600073ffffffffffffffffffffffffffffffffffffffff168173ffffffffffffffffffffffffffffffffffffffff1603611261576040517f08c379a000000000000000000000000000000000000000000000000000000000815260040161125890612db7565b60405180910390fd5b61126a81611e45565b50565b600160009054906101000a900473ffffffffffffffffffffffffffffffffffffffff1681565b600080429050600160068111156112ad576112ac6124ca565b5b600560009054906101000a900460ff1660068111156112cf576112ce6124ca565b5b1480156112ea57506102586003546112e79190612783565b81115b80156112f7575060045481105b15611328576002600560006101000a81548160ff02191690836006811115611322576113216124ca565b5b02179055505b6002600681111561133c5761133b6124ca565b5b600560009054906101000a900460ff16600681111561135e5761135d6124ca565b5b1461136d57600291505061181d565b6000831161137f57600191505061181d565b6000600160009054906101000a900473ffffffffffffffffffffffffffffffffffffffff1673ffffffffffffffffffffffffffffffffffffffff1663313ce5676040518163ffffffff1660e01b8152600401602060405180830381865afa1580156113ee573d6000803e3d6000fd5b505050506040513d601f19601f8201168201806040525081019061141291906129eb565b600a61141e9190612b4b565b9050600160009054906101000a900473ffffffffffffffffffffffffffffffffffffffff1673ffffffffffffffffffffffffffffffffffffffff166323b872dd863061146a8589611859565b6040518463ffffffff1660e01b815260040161148893929190612dd7565b6020604051808303816000875af11580156114a7573d6000803e3d6000fd5b505050506040513d601f19601f820116820180604052508101906114cb9190612beb565b5060005b84811015611576576009869080600181540180825580915050600190039060005260206000200160009091909190916101000a81548173ffffffffffffffffffffffffffffffffffffffff021916908373ffffffffffffffffffffffffffffffffffffffff160217905550600a439080600181540180825580915050600190039060005260206000200160009091909190915055808061156e90612e0e565b9150506114cf565b50600860008673ffffffffffffffffffffffffffffffffffffffff1673ffffffffffffffffffffffffffffffffffffffff16815260200190815260200160002060020160009054906101000a900460ff16611737576040518060a001604052808673ffffffffffffffffffffffffffffffffffffffff1681526020016000815260200160011515815260200142815260200143815250600860008773ffffffffffffffffffffffffffffffffffffffff1673ffffffffffffffffffffffffffffffffffffffff16815260200190815260200160002060008201518160000160006101000a81548173ffffffffffffffffffffffffffffffffffffffff021916908373ffffffffffffffffffffffffffffffffffffffff1602179055506020820151816001015560408201518160020160006101000a81548160ff02191690831515021790555060608201518160030155608082015181600401559050506007859080600181540180825580915050600190039060005260206000200160009091909190916101000a81548173ffffffffffffffffffffffffffffffffffffffff021916908373ffffffffffffffffffffffffffffffffffffffff1602179055505b611783600860008773ffffffffffffffffffffffffffffffffffffffff1673ffffffffffffffffffffffffffffffffffffffff1681526020019081526020016000206001015485611f09565b600860008773ffffffffffffffffffffffffffffffffffffffff1673ffffffffffffffffffffffffffffffffffffffff168152602001908152602001600020600101819055507fd755b6433b8fc2eed90a53dff0d71bbe5f026d44a1e230fea6c1e1a262c41a218585600160149054906101000a900463ffffffff1660405161180e93929190612e56565b60405180910390a16000925050505b92915050565b60004442600960405160200161183b93929190612fcc565b6040516020818303038152906040528051906020012060001c905090565b600061189b83836040518060400160405280601781526020017f6d756c7469706c69636174696f6e206f766572666c6f77000000000000000000815250611f53565b905092915050565b6000806000600160009054906101000a900473ffffffffffffffffffffffffffffffffffffffff1673ffffffffffffffffffffffffffffffffffffffff166370a08231306040518263ffffffff1660e01b815260040161190391906123bd565b602060405180830381865afa158015611920573d6000803e3d6000fd5b505050506040513d601f19601f820116820180604052508101906119449190612985565b90506000811161195b576000809250925050611e39565b600061197060065461196b610ff1565b611859565b9050808211611a2f57600160009054906101000a900473ffffffffffffffffffffffffffffffffffffffff1673ffffffffffffffffffffffffffffffffffffffff1663a9059cbb6119bf610ef5565b836040518363ffffffff1660e01b81526004016119dd929190612b96565b6020604051808303816000875af11580156119fc573d6000803e3d6000fd5b505050506040513d601f19601f82011682018060405250810190611a209190612beb565b50806000935093505050611e39565b60008183611a3d9190613005565b9050600060086000600b60009054906101000a900473ffffffffffffffffffffffffffffffffffffffff1673ffffffffffffffffffffffffffffffffffffffff1673ffffffffffffffffffffffffffffffffffffffff16815260200190815260200160002060010154600980549050611ab69190613005565b90506000611ac48383611fde565b905060005b600780549050811015611ce657600b60009054906101000a900473ffffffffffffffffffffffffffffffffffffffff1673ffffffffffffffffffffffffffffffffffffffff1660078281548110611b2357611b22612941565b5b9060005260206000200160009054906101000a900473ffffffffffffffffffffffffffffffffffffffff1673ffffffffffffffffffffffffffffffffffffffff160315611cd357600160009054906101000a900473ffffffffffffffffffffffffffffffffffffffff1673ffffffffffffffffffffffffffffffffffffffff1663a9059cbb60078381548110611bbc57611bbb612941565b5b9060005260206000200160009054906101000a900473ffffffffffffffffffffffffffffffffffffffff16611c716008600060078781548110611c0257611c01612941565b5b9060005260206000200160009054906101000a900473ffffffffffffffffffffffffffffffffffffffff1673ffffffffffffffffffffffffffffffffffffffff1673ffffffffffffffffffffffffffffffffffffffff1681526020019081526020016000206001015486611859565b6040518363ffffffff1660e01b8152600401611c8e929190612b96565b6020604051808303816000875af1158015611cad573d6000803e3d6000fd5b505050506040513d601f19601f82011682018060405250810190611cd19190612beb565b505b8080611cde90612e0e565b915050611ac9565b50600160009054906101000a900473ffffffffffffffffffffffffffffffffffffffff1673ffffffffffffffffffffffffffffffffffffffff166370a08231306040518263ffffffff1660e01b8152600401611d4291906123bd565b602060405180830381865afa158015611d5f573d6000803e3d6000fd5b505050506040513d601f19601f82011682018060405250810190611d839190612985565b9450600160009054906101000a900473ffffffffffffffffffffffffffffffffffffffff1673ffffffffffffffffffffffffffffffffffffffff1663a9059cbb611dcb610ef5565b876040518363ffffffff1660e01b8152600401611de9929190612b96565b6020604051808303816000875af1158015611e08573d6000803e3d6000fd5b505050506040513d601f19601f82011682018060405250810190611e2c9190612beb565b5084819650965050505050505b9091565b600033905090565b60008060009054906101000a900473ffffffffffffffffffffffffffffffffffffffff169050816000806101000a81548173ffffffffffffffffffffffffffffffffffffffff021916908373ffffffffffffffffffffffffffffffffffffffff1602179055508173ffffffffffffffffffffffffffffffffffffffff168173ffffffffffffffffffffffffffffffffffffffff167f8be0079c531659141344cd1fd0a4f28419497f9722a3daafe3b4186f6b6457e060405160405180910390a35050565b6000611f4b83836040518060400160405280601181526020017f6164646974696f6e206f766572666c6f77000000000000000000000000000000815250612028565b905092915050565b600080841480611f635750600083145b15611f715760009050611fd7565b60008385611f7f9190613039565b9050838582611f8e9190613093565b148390611fd1576040517f08c379a0000000000000000000000000000000000000000000000000000000008152600401611fc891906124a8565b60405180910390fd5b50809150505b9392505050565b600061202083836040518060400160405280600e81526020017f646976696465206279207a65726f00000000000000000000000000000000000081525061208b565b905092915050565b60008083856120379190612783565b905084811015839061207f576040517f08c379a000000000000000000000000000000000000000000000000000000000815260040161207691906124a8565b60405180910390fd5b50809150509392505050565b600080831182906120d2576040517f08c379a00000000000000000000000000000000000000000000000000000000081526004016120c991906124a8565b60405180910390fd5b5082846120df9190613093565b90509392505050565b600081519050919050565b600082825260208201905092915050565b6000819050602082019050919050565b600073ffffffffffffffffffffffffffffffffffffffff82169050919050565b600061213f82612114565b9050919050565b61214f81612134565b82525050565b60006121618383612146565b60208301905092915050565b6000602082019050919050565b6000612185826120e8565b61218f81856120f3565b935061219a83612104565b8060005b838110156121cb5781516121b28882612155565b97506121bd8361216d565b92505060018101905061219e565b5085935050505092915050565b600060208201905081810360008301526121f2818461217a565b905092915050565b6000819050919050565b61220d816121fa565b82525050565b60006020820190506122286000830184612204565b92915050565b600080fd5b61223c816121fa565b811461224757600080fd5b50565b60008135905061225981612233565b92915050565b6000602082840312156122755761227461222e565b5b60006122838482850161224a565b91505092915050565b61229581612134565b81146122a057600080fd5b50565b6000813590506122b28161228c565b92915050565b6000602082840312156122ce576122cd61222e565b5b60006122dc848285016122a3565b91505092915050565b6122ee81612134565b82525050565b60008115159050919050565b612309816122f4565b82525050565b600060a08201905061232460008301886122e5565b6123316020830187612204565b61233e6040830186612300565b61234b6060830185612204565b6123586080830184612204565b9695505050505050565b600080604083850312156123795761237861222e565b5b6000612387858286016122a3565b92505060206123988582860161224a565b9150509250929050565b60006020820190506123b76000830184612300565b92915050565b60006020820190506123d260008301846122e5565b92915050565b60006060820190506123ed6000830186612204565b6123fa6020830185612204565b6124076040830184612204565b949350505050565b600081519050919050565b600082825260208201905092915050565b60005b8381101561244957808201518184015260208101905061242e565b83811115612458576000848401525b50505050565b6000601f19601f8301169050919050565b600061247a8261240f565b612484818561241a565b935061249481856020860161242b565b61249d8161245e565b840191505092915050565b600060208201905081810360008301526124c2818461246f565b905092915050565b7f4e487b7100000000000000000000000000000000000000000000000000000000600052602160045260246000fd5b6007811061250a576125096124ca565b5b50565b600081905061251b826124f9565b919050565b600061252b8261250d565b9050919050565b61253b81612520565b82525050565b60006020820190506125566000830184612532565b92915050565b600063ffffffff82169050919050565b6125758161255c565b82525050565b6000602082019050612590600083018461256c565b92915050565b6000819050919050565b60006125bb6125b66125b184612114565b612596565b612114565b9050919050565b60006125cd826125a0565b9050919050565b60006125df826125c2565b9050919050565b6125ef816125d4565b82525050565b600060208201905061260a60008301846125e6565b92915050565b7f6a6f696e206661696c6564000000000000000000000000000000000000000000600082015250565b6000612646600b8361241a565b915061265182612610565b602082019050919050565b6000602082019050818103600083015261267581612639565b9050919050565b7f636f6d7074726f6c6c6572206973206e6f7420656d7074790000000000000000600082015250565b60006126b260188361241a565b91506126bd8261267c565b602082019050919050565b600060208201905081810360008301526126e1816126a5565b9050919050565b7f7069636b2077696e6e6572206861642066696e69736865640000000000000000600082015250565b600061271e60188361241a565b9150612729826126e8565b602082019050919050565b6000602082019050818103600083015261274d81612711565b9050919050565b7f4e487b7100000000000000000000000000000000000000000000000000000000600052601160045260246000fd5b600061278e826121fa565b9150612799836121fa565b9250827fffffffffffffffffffffffffffffffffffffffffffffffffffffffffffffffff038211156127ce576127cd612754565b5b828201905092915050565b7f63616e206e6f74207069636b2077696e6e657200000000000000000000000000600082015250565b600061280f60138361241a565b915061281a826127d9565b602082019050919050565b6000602082019050818103600083015261283e81612802565b9050919050565b6000819050919050565b600061286a61286561286084612845565b612596565b6121fa565b9050919050565b61287a8161284f565b82525050565b600060c08201905061289560008301896122e5565b6128a26020830188612204565b6128af6040830187612871565b6128bc6060830186612871565b6128c96080830185612871565b6128d660a0830184612871565b979650505050505050565b7f4e487b7100000000000000000000000000000000000000000000000000000000600052601260045260246000fd5b600061291b826121fa565b9150612926836121fa565b925082612936576129356128e1565b5b828206905092915050565b7f4e487b7100000000000000000000000000000000000000000000000000000000600052603260045260246000fd5b60008151905061297f81612233565b92915050565b60006020828403121561299b5761299a61222e565b5b60006129a984828501612970565b91505092915050565b600060ff82169050919050565b6129c8816129b2565b81146129d357600080fd5b50565b6000815190506129e5816129bf565b92915050565b600060208284031215612a0157612a0061222e565b5b6000612a0f848285016129d6565b91505092915050565b60008160011c9050919050565b6000808291508390505b6001851115612a6f57808604811115612a4b57612a4a612754565b5b6001851615612a5a5780820291505b8081029050612a6885612a18565b9450612a2f565b94509492505050565b600082612a885760019050612b44565b81612a965760009050612b44565b8160018114612aac5760028114612ab657612ae5565b6001915050612b44565b60ff841115612ac857612ac7612754565b5b8360020a915084821115612adf57612ade612754565b5b50612b44565b5060208310610133831016604e8410600b8410161715612b1a5782820a905083811115612b1557612b14612754565b5b612b44565b612b278484846001612a25565b92509050818404811115612b3e57612b3d612754565b5b81810290505b9392505050565b6000612b56826121fa565b9150612b61836129b2565b9250612b8e7fffffffffffffffffffffffffffffffffffffffffffffffffffffffffffffffff8484612a78565b905092915050565b6000604082019050612bab60008301856122e5565b612bb86020830184612204565b9392505050565b612bc8816122f4565b8114612bd357600080fd5b50565b600081519050612be581612bbf565b92915050565b600060208284031215612c0157612c0061222e565b5b6000612c0f84828501612bd6565b91505092915050565b600060c082019050612c2d60008301896122e5565b612c3a6020830188612204565b612c476040830187612204565b612c546060830186612204565b612c616080830185612871565b612c6e60a0830184612204565b979650505050505050565b7f4f776e61626c653a2063616c6c6572206973206e6f7420746865206f776e6572600082015250565b6000612caf60208361241a565b9150612cba82612c79565b602082019050919050565b60006020820190508181036000830152612cde81612ca2565b9050919050565b7f4e487b7100000000000000000000000000000000000000000000000000000000600052602260045260246000fd5b60006002820490506001821680612d2c57607f821691505b602082108103612d3f57612d3e612ce5565b5b50919050565b7f4f776e61626c653a206e6577206f776e657220697320746865207a65726f206160008201527f6464726573730000000000000000000000000000000000000000000000000000602082015250565b6000612da160268361241a565b9150612dac82612d45565b604082019050919050565b60006020820190508181036000830152612dd081612d94565b9050919050565b6000606082019050612dec60008301866122e5565b612df960208301856122e5565b612e066040830184612204565b949350505050565b6000612e19826121fa565b91507fffffffffffffffffffffffffffffffffffffffffffffffffffffffffffffffff8203612e4b57612e4a612754565b5b600182019050919050565b6000606082019050612e6b60008301866122e5565b612e786020830185612204565b612e85604083018461256c565b949350505050565b6000819050919050565b612ea8612ea3826121fa565b612e8d565b82525050565b600081549050919050565b600081905092915050565b60008190508160005260206000209050919050565b612ee281612134565b82525050565b6000612ef48383612ed9565b60208301905092915050565b60008160001c9050919050565b600073ffffffffffffffffffffffffffffffffffffffff82169050919050565b6000612f40612f3b83612f00565b612f0d565b9050919050565b6000612f538254612f2d565b9050919050565b6000600182019050919050565b6000612f7282612eae565b612f7c8185612eb9565b9350612f8783612ec4565b8060005b83811015612fbf57612f9c82612f47565b612fa68882612ee8565b9750612fb183612f5a565b925050600181019050612f8b565b5085935050505092915050565b6000612fd88286612e97565b602082019150612fe88285612e97565b602082019150612ff88284612f67565b9150819050949350505050565b6000613010826121fa565b915061301b836121fa565b92508282101561302e5761302d612754565b5b828203905092915050565b6000613044826121fa565b915061304f836121fa565b9250817fffffffffffffffffffffffffffffffffffffffffffffffffffffffffffffffff048311821515161561308857613087612754565b5b828202905092915050565b600061309e826121fa565b91506130a9836121fa565b9250826130b9576130b86128e1565b5b82820490509291505056fea26469706673582212200555c3365e11ebf451f7e3b81b7ccdadbdcec7329b15add6b341f4253fb9e22464736f6c634300080d0033",
  "immutableReferences": {},
  "source": "// SPDX-License-Identifier: MIT\npragma solidity >=0.4.22 <0.9.0;\n\nimport \"@openzeppelin/contracts/access/Ownable.sol\";\nimport \"@openzeppelin/contracts/token/ERC20/IERC20.sol\";\nimport \"@openzeppelin/contracts/token/ERC20/extensions/IERC20Metadata.sol\";\n\nimport \"./Exponential.sol\";\nimport \"./ComptrollerInterface.sol\";\n\ncontract GoodLottery is Ownable, Exponential {\n    bool public constant isGoodLottery = true;\n\n    enum Error {\n        NO_ERROR,\n        INVALID_PARAMETER,\n        INVALID_STATUS\n    }\n\n    enum Stage {\n        NONE,\n        INIT,\n        CAN_JOIN,\n        LOCKED,\n        IN_PICK,\n        FINISHED,\n        FAILED\n    }\n\n    struct UserRecord {\n        address user;\n        uint256 count;\n        bool isJoined;\n        uint joinTime;\n        uint joinBlockNum;\n    }\n\n    struct WinnerTime {\n        uint blockNum;\n        uint blockTime;\n        uint index;\n    }\n\n    event JoinSuccessful(address user, uint256 amount, uint32 goodId);\n    event LotteryComplete(\n        address user,\n        uint256 totalBalance,\n        uint256 priceValue,\n        uint256 mf,\n        uint256 burned,\n        uint256 paybackUnit\n    );\n\n    IERC20 public token;\n    uint32 public goodId;\n    uint256 public goodValue;\n    uint256 public publishTime;\n    uint256 public lockedTime;\n    Stage public stage = Stage.NONE;\n\n    uint256 public maintenanceFee;\n\n    address[] public userList;\n    mapping(address => UserRecord) public userMapping;\n    address[] public tickets;\n    uint[] public ticketNums;\n\n    address public winner;\n    WinnerTime public winnerTime;\n    uint public paybackFee;\n\n    ComptrollerInterface comptroller;\n\n    string public goodHash;\n\n    constructor(\n        ComptrollerInterface _comptroller,\n        IERC20 _token,\n        uint32 _goodId,\n        uint256 _goodValue,\n        uint256 _maintenanceFee,\n        uint256 _publishTime,\n        uint256 _lockedTime,\n        string memory _goodHash\n    ) Ownable() {\n        initialize(\n            _comptroller,\n            _token,\n            _goodId,\n            _goodValue,\n            _maintenanceFee,\n            _publishTime,\n            _lockedTime,\n            _goodHash\n        );\n    }\n\n    function initialize(\n        ComptrollerInterface _comptroller,\n        IERC20 _token,\n        uint32 _goodId,\n        uint256 _goodValue,\n        uint256 _maintenanceFee,\n        uint256 _publishTime,\n        uint256 _lockedTime,\n        string memory _goodHash\n    ) internal {\n        require(stage == Stage.NONE, \"good had been initialized.\");\n        require(\n            _goodValue > 0 && _goodValue < 10000,\n            \"goods value must between 1 and 9999\"\n        );\n        goodId = _goodId;\n        goodValue = _goodValue;\n        publishTime = _publishTime;\n        lockedTime = _lockedTime;\n        token = _token;\n        comptroller = _comptroller;\n        stage = Stage.INIT;\n        maintenanceFee = _maintenanceFee;\n        goodHash = _goodHash;\n    }\n\n    function setLockedTime(uint256 _lockedTime) public onlyOwner {\n        lockedTime = _lockedTime;\n    }\n\n    function join(uint256 amount) public {\n        Error e = joinInternal(msg.sender, amount);\n        require(e == Error.NO_ERROR, \"join failed\");\n    }\n\n    function join(address user, uint256 amount) external {\n        Error e = joinInternal(user, amount);\n        require(e == Error.NO_ERROR, \"join failed\");\n    }\n\n    function joinInternal(address user, uint256 amount)\n        internal\n        returns (Error)\n    {\n        uint256 currentTime = block.timestamp;\n\n        if (\n            stage == Stage.INIT &&\n            currentTime > publishTime + 10 minutes &&\n            currentTime < lockedTime\n        ) {\n            stage = Stage.CAN_JOIN;\n        }\n\n        if (stage != Stage.CAN_JOIN) {\n            return Error.INVALID_STATUS;\n        }\n\n        if (amount <= 0) {\n            return Error.INVALID_PARAMETER;\n        }\n\n        uint256 decimal = 10**IERC20Metadata(address(token)).decimals();\n\n        token.transferFrom(user, address(this), mul_(decimal, amount));\n\n        for (uint256 i = 0; i < amount; i++) {\n            tickets.push(user);\n            ticketNums.push(block.number);\n        }\n\n        if (!userMapping[user].isJoined) {\n            userMapping[user] = UserRecord({\n                user: user,\n                count: 0,\n                isJoined: true, \n                joinTime: block.timestamp,\n                joinBlockNum: block.number\n            });\n            userList.push(user);\n        }\n\n        userMapping[user].count = add_(userMapping[user].count, amount);\n\n        emit JoinSuccessful(user, amount, goodId);\n\n        return Error.NO_ERROR;\n    }\n\n    function pickWinner() public {\n        require(address(comptroller) != address(0), \"comptroller is not empty\");\n        require(\n            stage != Stage.FINISHED && stage != Stage.FAILED,\n            \"pick winner had finished\"\n        );\n        require(\n            block.timestamp >= lockedTime + 10 minutes,\n            \"can not pick winner\"\n        );\n        if (tickets.length == 0) {\n            stage = Stage.FAILED;\n            emit LotteryComplete(winner, goodValue, 0, 0, 0, 0);\n            return;\n        }\n\n        stage = Stage.IN_PICK;\n\n        uint256 index = random() % tickets.length;\n\n        winner = tickets[index];\n\n        comptroller.pickWinnerAllowed(address(this));\n\n        uint256 balance = token.balanceOf(address(this));\n        uint256 decimal = 10**IERC20Metadata(address(token)).decimals();\n        uint256 winnerValue = mul_(goodValue, decimal);\n\n        uint256 mf = 0;\n        uint256 paybackUnit = 0;\n        token.transfer(winner, winnerValue);\n        (mf, paybackUnit) = paybackBalance();\n\n        winnerTime = WinnerTime({\n            blockNum: block.number,\n            blockTime: block.timestamp, \n            index: index\n            });\n\n        stage = Stage.FINISHED;\n        paybackFee = paybackUnit;\n\n        emit LotteryComplete(winner, goodValue, balance, mf, 0, paybackUnit);\n    }\n\n    function paybackBalance() internal returns (uint256, uint256) {\n        uint256 balance = token.balanceOf(address(this));\n        if (balance <= 0) {\n            return (0, 0);\n        }\n        uint256 mf = mul_(maintenanceFee, getTokenExchangeRate());\n        if (balance <= mf) {\n            token.transfer(owner(), mf);\n            return (mf, 0);\n        }\n\n        uint256 needPaybakcBalance = balance - mf;\n        uint256 winnerCount = tickets.length - userMapping[winner].count;\n        uint256 paybackUnit = div_(needPaybakcBalance, winnerCount);\n\n        for (uint256 i = 0; i < userList.length; i++) {\n            if (userList[i] == winner) {\n                continue;\n            }\n\n            token.transfer(\n                userList[i],\n                mul_(userMapping[userList[i]].count, paybackUnit)\n            );\n        }\n\n        balance = token.balanceOf(address(this));\n        token.transfer(owner(), balance);\n        return (balance, paybackUnit);\n    }\n\n    function random() internal view returns (uint256) {\n        return\n            uint256(\n                keccak256(\n                    abi.encodePacked(block.difficulty, block.timestamp, tickets)\n                )\n            );\n    }\n\n    function getTokenExchangeRate() public view returns (uint256) {\n        return 10**IERC20Metadata(address(token)).decimals();\n    }\n\n    function getUsers() public view returns (address[] memory) {\n        address[] memory us = userList;\n        return us;\n    }\n\n    function getTickets() public view returns (address[] memory) {\n        address[] memory tk = tickets;\n        return tk;\n    }\n\n}\n",
  "sourcePath": "/Users/jonah/SolidityProject/makewish-contract/contracts/GoodLottery.sol",
  "compiler": {
    "name": "solc",
    "version": "0.8.13+commit.abaa5c0e.Emscripten.clang"
  },
  "schemaVersion": "3.4.7",
  "updatedAt": "2022-05-24T10:39:17.229Z",
  "devdoc": {
    "kind": "dev",
    "methods": {
      "owner()": {
        "details": "Returns the address of the current owner."
      },
      "renounceOwnership()": {
        "details": "Leaves the contract without owner. It will not be possible to call `onlyOwner` functions anymore. Can only be called by the current owner. NOTE: Renouncing ownership will leave the contract without an owner, thereby removing any functionality that is only available to the owner."
      },
      "transferOwnership(address)": {
        "details": "Transfers ownership of the contract to a new account (`newOwner`). Can only be called by the current owner."
      }
    },
    "version": 1
  },
  "userdoc": {
    "kind": "user",
    "methods": {},
    "version": 1
  }
}