{
  "contractName": "GoodLotteryNFT",
  "abi": [
    {
      "inputs": [
        {
          "internalType": "contract ComptrollerInterface",
          "name": "_comptroller",
          "type": "address"
        },
        {
          "internalType": "contract IERC20",
          "name": "_token",
          "type": "address"
        },
        {
          "internalType": "uint32",
          "name": "_goodId",
          "type": "uint32"
        },
        {
          "internalType": "uint256",
          "name": "_goodValue",
          "type": "uint256"
        },
        {
          "internalType": "uint256",
          "name": "_maintenanceFee",
          "type": "uint256"
        },
        {
          "internalType": "uint256",
          "name": "_publishTime",
          "type": "uint256"
        },
        {
          "internalType": "uint256",
          "name": "_lockedTime",
          "type": "uint256"
        },
        {
          "internalType": "string",
          "name": "_goodHash",
          "type": "string"
        },
        {
          "internalType": "address",
          "name": "_nftAddress",
          "type": "address"
        },
        {
          "internalType": "uint256",
          "name": "_tokenId",
          "type": "uint256"
        },
        {
          "internalType": "address",
          "name": "_tokenOwner",
          "type": "address"
        }
      ],
      "stateMutability": "nonpayable",
      "type": "constructor"
    },
    {
      "anonymous": false,
      "inputs": [
        {
          "indexed": false,
          "internalType": "address",
          "name": "user",
          "type": "address"
        },
        {
          "indexed": false,
          "internalType": "uint256",
          "name": "amount",
          "type": "uint256"
        },
        {
          "indexed": false,
          "internalType": "uint32",
          "name": "goodId",
          "type": "uint32"
        }
      ],
      "name": "JoinSuccessful",
      "type": "event"
    },
    {
      "anonymous": false,
      "inputs": [
        {
          "indexed": false,
          "internalType": "address",
          "name": "user",
          "type": "address"
        },
        {
          "indexed": false,
          "internalType": "uint256",
          "name": "totalBalance",
          "type": "uint256"
        },
        {
          "indexed": false,
          "internalType": "uint256",
          "name": "priceValue",
          "type": "uint256"
        },
        {
          "indexed": false,
          "internalType": "uint256",
          "name": "mf",
          "type": "uint256"
        },
        {
          "indexed": false,
          "internalType": "uint256",
          "name": "burned",
          "type": "uint256"
        },
        {
          "indexed": false,
          "internalType": "uint256",
          "name": "paybackUnit",
          "type": "uint256"
        }
      ],
      "name": "LotteryComplete",
      "type": "event"
    },
    {
      "anonymous": false,
      "inputs": [
        {
          "indexed": true,
          "internalType": "address",
          "name": "previousOwner",
          "type": "address"
        },
        {
          "indexed": true,
          "internalType": "address",
          "name": "newOwner",
          "type": "address"
        }
      ],
      "name": "OwnershipTransferred",
      "type": "event"
    },
    {
      "anonymous": false,
      "inputs": [
        {
          "indexed": false,
          "internalType": "address",
          "name": "nftToken",
          "type": "address"
        },
        {
          "indexed": false,
          "internalType": "address",
          "name": "user",
          "type": "address"
        },
        {
          "indexed": false,
          "internalType": "uint256",
          "name": "token",
          "type": "uint256"
        }
      ],
      "name": "ReceiveToken",
      "type": "event"
    },
    {
      "inputs": [],
      "name": "checkCanJoin",
      "outputs": [
        {
          "internalType": "enum GoodInterface.Error",
          "name": "",
          "type": "uint8"
        }
      ],
      "stateMutability": "nonpayable",
      "type": "function"
    },
    {
      "inputs": [],
      "name": "getStage",
      "outputs": [
        {
          "internalType": "enum GoodInterface.Stage",
          "name": "",
          "type": "uint8"
        }
      ],
      "stateMutability": "view",
      "type": "function"
    },
    {
      "inputs": [],
      "name": "getTickets",
      "outputs": [
        {
          "internalType": "address[]",
          "name": "",
          "type": "address[]"
        }
      ],
      "stateMutability": "view",
      "type": "function"
    },
    {
      "inputs": [],
      "name": "getTokenExchangeRate",
      "outputs": [
        {
          "internalType": "uint256",
          "name": "",
          "type": "uint256"
        }
      ],
      "stateMutability": "view",
      "type": "function"
    },
    {
      "inputs": [
        {
          "internalType": "address",
          "name": "user",
          "type": "address"
        }
      ],
      "name": "getUserJoinRecordIndexs",
      "outputs": [
        {
          "internalType": "uint256[]",
          "name": "record",
          "type": "uint256[]"
        }
      ],
      "stateMutability": "view",
      "type": "function"
    },
    {
      "inputs": [],
      "name": "getUserJoinRecords",
      "outputs": [
        {
          "components": [
            {
              "internalType": "address",
              "name": "user",
              "type": "address"
            },
            {
              "internalType": "uint256",
              "name": "startIndex",
              "type": "uint256"
            },
            {
              "internalType": "uint256",
              "name": "count",
              "type": "uint256"
            },
            {
              "internalType": "uint256",
              "name": "joinTime",
              "type": "uint256"
            },
            {
              "internalType": "uint256",
              "name": "joinBlockNum",
              "type": "uint256"
            }
          ],
          "internalType": "struct GoodInterface.UserJoinRecord[]",
          "name": "record",
          "type": "tuple[]"
        }
      ],
      "stateMutability": "view",
      "type": "function"
    },
    {
      "inputs": [],
      "name": "goodHash",
      "outputs": [
        {
          "internalType": "string",
          "name": "",
          "type": "string"
        }
      ],
      "stateMutability": "view",
      "type": "function"
    },
    {
      "inputs": [],
      "name": "goodId",
      "outputs": [
        {
          "internalType": "uint32",
          "name": "",
          "type": "uint32"
        }
      ],
      "stateMutability": "view",
      "type": "function"
    },
    {
      "inputs": [],
      "name": "goodValue",
      "outputs": [
        {
          "internalType": "uint256",
          "name": "",
          "type": "uint256"
        }
      ],
      "stateMutability": "view",
      "type": "function"
    },
    {
      "inputs": [],
      "name": "isGoodLottery",
      "outputs": [
        {
          "internalType": "bool",
          "name": "",
          "type": "bool"
        }
      ],
      "stateMutability": "view",
      "type": "function"
    },
    {
      "inputs": [
        {
          "internalType": "uint256",
          "name": "amount",
          "type": "uint256"
        }
      ],
      "name": "join",
      "outputs": [],
      "stateMutability": "nonpayable",
      "type": "function"
    },
    {
      "inputs": [
        {
          "internalType": "address",
          "name": "user",
          "type": "address"
        },
        {
          "internalType": "uint256",
          "name": "amount",
          "type": "uint256"
        }
      ],
      "name": "join",
      "outputs": [],
      "stateMutability": "nonpayable",
      "type": "function"
    },
    {
      "inputs": [],
      "name": "joinedUsers",
      "outputs": [
        {
          "internalType": "uint256",
          "name": "",
          "type": "uint256"
        }
      ],
      "stateMutability": "view",
      "type": "function"
    },
    {
      "inputs": [],
      "name": "lockedTime",
      "outputs": [
        {
          "internalType": "uint256",
          "name": "",
          "type": "uint256"
        }
      ],
      "stateMutability": "view",
      "type": "function"
    },
    {
      "inputs": [],
      "name": "maintenanceFee",
      "outputs": [
        {
          "internalType": "uint256",
          "name": "",
          "type": "uint256"
        }
      ],
      "stateMutability": "view",
      "type": "function"
    },
    {
      "inputs": [],
      "name": "nftToken",
      "outputs": [
        {
          "internalType": "contract IERC721",
          "name": "",
          "type": "address"
        }
      ],
      "stateMutability": "view",
      "type": "function"
    },
    {
      "inputs": [],
      "name": "owner",
      "outputs": [
        {
          "internalType": "address",
          "name": "",
          "type": "address"
        }
      ],
      "stateMutability": "view",
      "type": "function"
    },
    {
      "inputs": [],
      "name": "paybackFee",
      "outputs": [
        {
          "internalType": "uint256",
          "name": "",
          "type": "uint256"
        }
      ],
      "stateMutability": "view",
      "type": "function"
    },
    {
      "inputs": [],
      "name": "pickWinner",
      "outputs": [],
      "stateMutability": "nonpayable",
      "type": "function"
    },
    {
      "inputs": [],
      "name": "pickWinnerUser",
      "outputs": [
        {
          "internalType": "address",
          "name": "",
          "type": "address"
        }
      ],
      "stateMutability": "view",
      "type": "function"
    },
    {
      "inputs": [],
      "name": "publishTime",
      "outputs": [
        {
          "internalType": "uint256",
          "name": "",
          "type": "uint256"
        }
      ],
      "stateMutability": "view",
      "type": "function"
    },
    {
      "inputs": [],
      "name": "renounceOwnership",
      "outputs": [],
      "stateMutability": "nonpayable",
      "type": "function"
    },
    {
      "inputs": [
        {
          "internalType": "uint256",
          "name": "_lockedTime",
          "type": "uint256"
        }
      ],
      "name": "setLockedTime",
      "outputs": [],
      "stateMutability": "nonpayable",
      "type": "function"
    },
    {
      "inputs": [
        {
          "internalType": "uint256",
          "name": "",
          "type": "uint256"
        }
      ],
      "name": "ticketNums",
      "outputs": [
        {
          "internalType": "uint256",
          "name": "",
          "type": "uint256"
        }
      ],
      "stateMutability": "view",
      "type": "function"
    },
    {
      "inputs": [
        {
          "internalType": "uint256",
          "name": "",
          "type": "uint256"
        }
      ],
      "name": "tickets",
      "outputs": [
        {
          "internalType": "address",
          "name": "",
          "type": "address"
        }
      ],
      "stateMutability": "view",
      "type": "function"
    },
    {
      "inputs": [],
      "name": "token",
      "outputs": [
        {
          "internalType": "contract IERC20",
          "name": "",
          "type": "address"
        }
      ],
      "stateMutability": "view",
      "type": "function"
    },
    {
      "inputs": [],
      "name": "tokenId",
      "outputs": [
        {
          "internalType": "uint256",
          "name": "",
          "type": "uint256"
        }
      ],
      "stateMutability": "view",
      "type": "function"
    },
    {
      "inputs": [],
      "name": "tokenOwner",
      "outputs": [
        {
          "internalType": "address",
          "name": "",
          "type": "address"
        }
      ],
      "stateMutability": "view",
      "type": "function"
    },
    {
      "inputs": [
        {
          "internalType": "address",
          "name": "newOwner",
          "type": "address"
        }
      ],
      "name": "transferOwnership",
      "outputs": [],
      "stateMutability": "nonpayable",
      "type": "function"
    },
    {
      "inputs": [
        {
          "internalType": "address",
          "name": "",
          "type": "address"
        },
        {
          "internalType": "uint256",
          "name": "",
          "type": "uint256"
        }
      ],
      "name": "userJoinRecordIndex",
      "outputs": [
        {
          "internalType": "uint256",
          "name": "",
          "type": "uint256"
        }
      ],
      "stateMutability": "view",
      "type": "function"
    },
    {
      "inputs": [
        {
          "internalType": "uint256",
          "name": "",
          "type": "uint256"
        }
      ],
      "name": "userJoinRecords",
      "outputs": [
        {
          "internalType": "address",
          "name": "user",
          "type": "address"
        },
        {
          "internalType": "uint256",
          "name": "startIndex",
          "type": "uint256"
        },
        {
          "internalType": "uint256",
          "name": "count",
          "type": "uint256"
        },
        {
          "internalType": "uint256",
          "name": "joinTime",
          "type": "uint256"
        },
        {
          "internalType": "uint256",
          "name": "joinBlockNum",
          "type": "uint256"
        }
      ],
      "stateMutability": "view",
      "type": "function"
    },
    {
      "inputs": [
        {
          "internalType": "address",
          "name": "",
          "type": "address"
        }
      ],
      "name": "userMapping",
      "outputs": [
        {
          "internalType": "address",
          "name": "user",
          "type": "address"
        },
        {
          "internalType": "uint256",
          "name": "count",
          "type": "uint256"
        },
        {
          "internalType": "bool",
          "name": "isJoined",
          "type": "bool"
        },
        {
          "internalType": "bool",
          "name": "isPaybacked",
          "type": "bool"
        },
        {
          "internalType": "uint256",
          "name": "joinTime",
          "type": "uint256"
        },
        {
          "internalType": "uint256",
          "name": "joinBlockNum",
          "type": "uint256"
        }
      ],
      "stateMutability": "view",
      "type": "function"
    },
    {
      "inputs": [],
      "name": "winner",
      "outputs": [
        {
          "internalType": "address",
          "name": "",
          "type": "address"
        }
      ],
      "stateMutability": "view",
      "type": "function"
    },
    {
      "inputs": [],
      "name": "winnerTime",
      "outputs": [
        {
          "internalType": "uint256",
          "name": "blockNum",
          "type": "uint256"
        },
        {
          "internalType": "uint256",
          "name": "blockTime",
          "type": "uint256"
        },
        {
          "internalType": "uint256",
          "name": "index",
          "type": "uint256"
        }
      ],
      "stateMutability": "view",
      "type": "function"
    },
    {
      "inputs": [],
      "name": "publishToMarket",
      "outputs": [],
      "stateMutability": "nonpayable",
      "type": "function"
    },
    {
      "inputs": [],
      "name": "isApproved",
      "outputs": [
        {
          "internalType": "bool",
          "name": "",
          "type": "bool"
        }
      ],
      "stateMutability": "view",
      "type": "function"
    },
    {
      "inputs": [],
      "name": "checkCanPickWinner",
      "outputs": [
        {
          "internalType": "bool",
          "name": "",
          "type": "bool"
        }
      ],
      "stateMutability": "view",
      "type": "function"
    }
  ],
  "bytecode": "0x608060405260006009556000601360146101000a81548160ff021916908360068111156200003257620000316200059d565b5b02179055503480156200004457600080fd5b50604051620050bd380380620050bd83398181016040528101906200006a9190620008d4565b8a8a8a8a8a8a8a8a6200009262000086620001bd60201b60201c565b620001c560201b60201c565b620000aa88888888888888886200028b60201b60201c565b505050505050505082601460006101000a81548173ffffffffffffffffffffffffffffffffffffffff021916908373ffffffffffffffffffffffffffffffffffffffff1602179055508160158190555080601660006101000a81548173ffffffffffffffffffffffffffffffffffffffff021916908373ffffffffffffffffffffffffffffffffffffffff1602179055508a73ffffffffffffffffffffffffffffffffffffffff1663b7c157cf82306040518363ffffffff1660e01b81526004016200017892919062000a11565b600060405180830381600087803b1580156200019357600080fd5b505af1158015620001a8573d6000803e3d6000fd5b50505050505050505050505050505062000c34565b600033905090565b6000601360009054906101000a900473ffffffffffffffffffffffffffffffffffffffff16905081601360006101000a81548173ffffffffffffffffffffffffffffffffffffffff021916908373ffffffffffffffffffffffffffffffffffffffff1602179055508173ffffffffffffffffffffffffffffffffffffffff168173ffffffffffffffffffffffffffffffffffffffff167f8be0079c531659141344cd1fd0a4f28419497f9722a3daafe3b4186f6b6457e060405160405180910390a35050565b60006006811115620002a257620002a16200059d565b5b601360149054906101000a900460ff166006811115620002c757620002c66200059d565b5b146200030a576040517f08c379a0000000000000000000000000000000000000000000000000000000008152600401620003019062000a9f565b60405180910390fd5b8773ffffffffffffffffffffffffffffffffffffffff1663f83c72dd600060149054906101000a900463ffffffff166040518263ffffffff1660e01b815260040162000357919062000ad2565b602060405180830381865afa15801562000375573d6000803e3d6000fd5b505050506040513d601f19601f820116820180604052508101906200039b919062000b2c565b15620003de576040517f08c379a0000000000000000000000000000000000000000000000000000000008152600401620003d59062000bae565b60405180910390fd5b85600060146101000a81548163ffffffff021916908363ffffffff160217905550846001819055508260028190555081600381905550866000806101000a81548173ffffffffffffffffffffffffffffffffffffffff021916908373ffffffffffffffffffffffffffffffffffffffff16021790555087601260006101000a81548173ffffffffffffffffffffffffffffffffffffffff021916908373ffffffffffffffffffffffffffffffffffffffff1602179055506001601360146101000a81548160ff02191690836006811115620004be57620004bd6200059d565b5b0217905550836005819055508060049080519060200190620004e2929190620004ed565b505050505050505050565b828054620004fb9062000bff565b90600052602060002090601f0160209004810192826200051f57600085556200056b565b82601f106200053a57805160ff19168380011785556200056b565b828001600101855582156200056b579182015b828111156200056a5782518255916020019190600101906200054d565b5b5090506200057a91906200057e565b5090565b5b80821115620005995760008160009055506001016200057f565b5090565b7f4e487b7100000000000000000000000000000000000000000000000000000000600052602160045260246000fd5b6000604051905090565b600080fd5b600080fd5b600073ffffffffffffffffffffffffffffffffffffffff82169050919050565b60006200060d82620005e0565b9050919050565b6000620006218262000600565b9050919050565b620006338162000614565b81146200063f57600080fd5b50565b600081519050620006538162000628565b92915050565b6000620006668262000600565b9050919050565b620006788162000659565b81146200068457600080fd5b50565b60008151905062000698816200066d565b92915050565b600063ffffffff82169050919050565b620006b9816200069e565b8114620006c557600080fd5b50565b600081519050620006d981620006ae565b92915050565b6000819050919050565b620006f481620006df565b81146200070057600080fd5b50565b6000815190506200071481620006e9565b92915050565b600080fd5b600080fd5b6000601f19601f8301169050919050565b7f4e487b7100000000000000000000000000000000000000000000000000000000600052604160045260246000fd5b6200076f8262000724565b810181811067ffffffffffffffff8211171562000791576200079062000735565b5b80604052505050565b6000620007a6620005cc565b9050620007b4828262000764565b919050565b600067ffffffffffffffff821115620007d757620007d662000735565b5b620007e28262000724565b9050602081019050919050565b60005b838110156200080f578082015181840152602081019050620007f2565b838111156200081f576000848401525b50505050565b60006200083c6200083684620007b9565b6200079a565b9050828152602081018484840111156200085b576200085a6200071f565b5b62000868848285620007ef565b509392505050565b600082601f8301126200088857620008876200071a565b5b81516200089a84826020860162000825565b91505092915050565b620008ae8162000600565b8114620008ba57600080fd5b50565b600081519050620008ce81620008a3565b92915050565b60008060008060008060008060008060006101608c8e031215620008fd57620008fc620005d6565b5b60006200090d8e828f0162000642565b9b50506020620009208e828f0162000687565b9a50506040620009338e828f01620006c8565b9950506060620009468e828f0162000703565b9850506080620009598e828f0162000703565b97505060a06200096c8e828f0162000703565b96505060c06200097f8e828f0162000703565b95505060e08c015167ffffffffffffffff811115620009a357620009a2620005db565b5b620009b18e828f0162000870565b945050610100620009c58e828f01620008bd565b935050610120620009d98e828f0162000703565b925050610140620009ed8e828f01620008bd565b9150509295989b509295989b9093969950565b62000a0b8162000600565b82525050565b600060408201905062000a28600083018562000a00565b62000a37602083018462000a00565b9392505050565b600082825260208201905092915050565b7f676f6f6420686164206265656e20696e697469616c697a65642e000000000000600082015250565b600062000a87601a8362000a3e565b915062000a948262000a4f565b602082019050919050565b6000602082019050818103600083015262000aba8162000a78565b9050919050565b62000acc816200069e565b82525050565b600060208201905062000ae9600083018462000ac1565b92915050565b60008115159050919050565b62000b068162000aef565b811462000b1257600080fd5b50565b60008151905062000b268162000afb565b92915050565b60006020828403121562000b455762000b44620005d6565b5b600062000b558482850162000b15565b91505092915050565b7f6475706c696361746520676f6f64496400000000000000000000000000000000600082015250565b600062000b9660108362000a3e565b915062000ba38262000b5e565b602082019050919050565b6000602082019050818103600083015262000bc98162000b87565b9050919050565b7f4e487b7100000000000000000000000000000000000000000000000000000000600052602260045260246000fd5b6000600282049050600182168062000c1857607f821691505b60208210810362000c2e5762000c2d62000bd0565b5b50919050565b6144798062000c446000396000f3fe608060405234801561001057600080fd5b50600436106102275760003560e01c806394541fdb11610130578063d06fcba8116100b8578063e467fa801161007c578063e467fa801461060f578063eecf801e1461062d578063f2fde38b1461065d578063fc0c546a14610679578063fcaa76641461069757610227565b8063d06fcba814610569578063d180b74414610587578063df1dcaa9146105b7578063df4c0ab1146105d3578063dfbf53ae146105f157610227565b8063a9135d17116100ff578063a9135d17146104d3578063ab388c96146104f1578063c01d1c601461050f578063c15e296b1461052d578063c379b4be1461054b57610227565b806394541fdb1461045b5780639619a5a914610479578063a3e6761014610497578063a8b38205146104b557610227565b80633d98fc17116101b35780635d495aea116101825780635d495aea146103d5578063715018a6146103df5780637676d235146103e95780638da5cb5b1461040957806393a3ffe91461042757610227565b80633d98fc171461034b5780633f0e9016146103695780634ed026221461038757806350b44712146103a557610227565b806317d70f7c116101fa57806317d70f7c146102a55780631bbf17c5146102c357806328f371aa146102e15780632e40945e146102ff5780633b4da69f1461032f57610227565b8063046604491461022c578063049878f31461024a57806306acd63714610266578063118b953514610270575b600080fd5b6102346106b5565b6040516102419190612d69565b60405180910390f35b610264600480360381019061025f9190612dc4565b6106bb565b005b61026e610734565b005b61028a60048036038101906102859190612e4f565b61098a565b60405161029c96959493929190612ea6565b60405180910390f35b6102ad610a00565b6040516102ba9190612d69565b60405180910390f35b6102cb610a06565b6040516102d89190612d69565b60405180910390f35b6102e9610a0c565b6040516102f69190612f07565b60405180910390f35b61031960048036038101906103149190612dc4565b610adf565b6040516103269190612d69565b60405180910390f35b61034960048036038101906103449190612f22565b610b03565b005b610353610b7d565b6040516103609190612f07565b60405180910390f35b610371610b82565b60405161037e9190613097565b60405180910390f35b61038f610c5f565b60405161039c9190613168565b60405180910390f35b6103bf60048036038101906103ba9190612dc4565b610cf3565b6040516103cc919061318a565b60405180910390f35b6103dd610d32565b005b6103e7611412565b005b6103f161149a565b604051610400939291906131a5565b60405180910390f35b6104116114b2565b60405161041e919061318a565b60405180910390f35b610441600480360381019061043c9190612dc4565b6114dc565b6040516104529594939291906131dc565b60405180910390f35b610463611542565b60405161047091906132a6565b60405180910390f35b610481611624565b60405161048e919061318a565b60405180910390f35b61049f61164a565b6040516104ac919061318a565b60405180910390f35b6104bd611670565b6040516104ca9190612d69565b60405180910390f35b6104db611676565b6040516104e8919061335a565b60405180910390f35b6104f9611704565b6040516105069190612f07565b60405180910390f35b610517611713565b6040516105249190612d69565b60405180910390f35b6105356117b6565b6040516105429190612d69565b60405180910390f35b6105536117bc565b6040516105609190612d69565b60405180910390f35b6105716117c2565b60405161057e91906133db565b60405180910390f35b6105a1600480360381019061059c9190612f22565b6117e8565b6040516105ae9190612d69565b60405180910390f35b6105d160048036038101906105cc9190612dc4565b611819565b005b6105db61189f565b6040516105e89190613415565b60405180910390f35b6105f96118b5565b604051610606919061318a565b60405180910390f35b6106176118db565b6040516106249190612d69565b60405180910390f35b61064760048036038101906106429190612e4f565b6118e1565b60405161065491906134df565b60405180910390f35b61067760048036038101906106729190612e4f565b611978565b005b610681611a6f565b60405161068e9190613522565b60405180910390f35b61069f611a93565b6040516106ac9190613585565b60405180910390f35b60055481565b60006106c73383611aaa565b9050600060028111156106dd576106dc61322f565b5b8160028111156106f0576106ef61322f565b5b14610730576040517f08c379a0000000000000000000000000000000000000000000000000000000008152600401610727906135ec565b60405180910390fd5b5050565b61073c610a0c565b61074557600080fd5b6000601260009054906101000a900473ffffffffffffffffffffffffffffffffffffffff1673ffffffffffffffffffffffffffffffffffffffff16638da5cb5b6040518163ffffffff1660e01b8152600401602060405180830381865afa1580156107b4573d6000803e3d6000fd5b505050506040513d601f19601f820116820180604052508101906107d89190613621565b90506107e381611978565b6000600167ffffffffffffffff811115610800576107ff61364e565b5b60405190808252806020026020018201604052801561082e5781602001602082028036833780820191505090505b50905030816000815181106108465761084561367d565b5b602002602001019073ffffffffffffffffffffffffffffffffffffffff16908173ffffffffffffffffffffffffffffffffffffffff16815250506000601260009054906101000a900473ffffffffffffffffffffffffffffffffffffffff1673ffffffffffffffffffffffffffffffffffffffff16637a284627836040518263ffffffff1660e01b81526004016108dd9190613168565b6000604051808303816000875af11580156108fc573d6000803e3d6000fd5b505050506040513d6000823e3d601f19601f8201168201806040525081019061092591906137da565b905060008160008151811061093d5761093c61367d565b5b602002602001015114610985576040517f08c379a000000000000000000000000000000000000000000000000000000000815260040161097c9061386f565b60405180910390fd5b505050565b60066020528060005260406000206000915090508060000160009054906101000a900473ffffffffffffffffffffffffffffffffffffffff16908060010154908060020160009054906101000a900460ff16908060020160019054906101000a900460ff16908060030154908060040154905086565b60155481565b600d5481565b60003073ffffffffffffffffffffffffffffffffffffffff16601460009054906101000a900473ffffffffffffffffffffffffffffffffffffffff1673ffffffffffffffffffffffffffffffffffffffff1663081812fc6015546040518263ffffffff1660e01b8152600401610a829190612d69565b602060405180830381865afa158015610a9f573d6000803e3d6000fd5b505050506040513d601f19601f82011682018060405250810190610ac39190613621565b73ffffffffffffffffffffffffffffffffffffffff1614905090565b600b8181548110610aef57600080fd5b906000526020600020016000915090505481565b6000610b0f8383611aaa565b905060006002811115610b2557610b2461322f565b5b816002811115610b3857610b3761322f565b5b14610b78576040517f08c379a0000000000000000000000000000000000000000000000000000000008152600401610b6f906138db565b60405180910390fd5b505050565b600181565b60606008805480602002602001604051908101604052809291908181526020016000905b82821015610c5657838290600052602060002090600502016040518060a00160405290816000820160009054906101000a900473ffffffffffffffffffffffffffffffffffffffff1673ffffffffffffffffffffffffffffffffffffffff1673ffffffffffffffffffffffffffffffffffffffff16815260200160018201548152602001600282015481526020016003820154815260200160048201548152505081526020019060010190610ba6565b50505050905090565b60606000600a805480602002602001604051908101604052809291908181526020018280548015610ce557602002820191906000526020600020905b8160009054906101000a900473ffffffffffffffffffffffffffffffffffffffff1673ffffffffffffffffffffffffffffffffffffffff1681526020019060010190808311610c9b575b505050505090508091505090565b600a8181548110610d0357600080fd5b906000526020600020016000915054906101000a900473ffffffffffffffffffffffffffffffffffffffff1681565b610d3a611704565b610d79576040517f08c379a0000000000000000000000000000000000000000000000000000000008152600401610d7090613947565b60405180910390fd5b600073ffffffffffffffffffffffffffffffffffffffff16601260009054906101000a900473ffffffffffffffffffffffffffffffffffffffff1673ffffffffffffffffffffffffffffffffffffffff1603610e0a576040517f08c379a0000000000000000000000000000000000000000000000000000000008152600401610e01906139b3565b60405180910390fd5b60056006811115610e1e57610e1d61322f565b5b601360149054906101000a900460ff166006811115610e4057610e3f61322f565b5b14158015610e815750600680811115610e5c57610e5b61322f565b5b601360149054906101000a900460ff166006811115610e7e57610e7d61322f565b5b14155b610ec0576040517f08c379a0000000000000000000000000000000000000000000000000000000008152600401610eb790613a1f565b60405180910390fd5b601e600354610ecf9190613a6e565b421015610f11576040517f08c379a0000000000000000000000000000000000000000000000000000000008152600401610f0890613b10565b60405180910390fd5b6000600a8054905003610fb5576006601360146101000a81548160ff02191690836006811115610f4457610f4361322f565b5b02179055507f2bd454aea220f47ef41df4dc4bfd0823d826b9fc69aa5f871369edd5086267cb600c60009054906101000a900473ffffffffffffffffffffffffffffffffffffffff16600154600080600080604051610fa896959493929190613b6b565b60405180910390a1611410565b6004601360146101000a81548160ff02191690836006811115610fdb57610fda61322f565b5b02179055506000600a80549050610ff06120da565b610ffa9190613bfb565b9050600a81815481106110105761100f61367d565b5b9060005260206000200160009054906101000a900473ffffffffffffffffffffffffffffffffffffffff16600c60006101000a81548173ffffffffffffffffffffffffffffffffffffffff021916908373ffffffffffffffffffffffffffffffffffffffff16021790555033601160006101000a81548173ffffffffffffffffffffffffffffffffffffffff021916908373ffffffffffffffffffffffffffffffffffffffff160217905550601260009054906101000a900473ffffffffffffffffffffffffffffffffffffffff1673ffffffffffffffffffffffffffffffffffffffff166325281939306040518263ffffffff1660e01b8152600401611117919061318a565b6020604051808303816000875af1158015611136573d6000803e3d6000fd5b505050506040513d601f19601f8201168201806040525081019061115a9190613c2c565b5060008060009054906101000a900473ffffffffffffffffffffffffffffffffffffffff1673ffffffffffffffffffffffffffffffffffffffff166370a08231306040518263ffffffff1660e01b81526004016111b7919061318a565b602060405180830381865afa1580156111d4573d6000803e3d6000fd5b505050506040513d601f19601f820116820180604052508101906111f89190613c2c565b905060008060009054906101000a900473ffffffffffffffffffffffffffffffffffffffff1673ffffffffffffffffffffffffffffffffffffffff1663313ce5676040518163ffffffff1660e01b8152600401602060405180830381865afa158015611268573d6000803e3d6000fd5b505050506040513d601f19601f8201168201806040525081019061128c9190613c92565b600a6112989190613df2565b905060006112a860015483612110565b905060008060006112b88461215a565b9050600060028111156112ce576112cd61322f565b5b8160028111156112e1576112e061322f565b5b14611321576040517f08c379a000000000000000000000000000000000000000000000000000000000815260040161131890613e89565b60405180910390fd5b6113296122fe565b8093508194505050604051806060016040528043815260200142815260200188815250600e6000820151816000015560208201518160010155604082015181600201559050506005601360146101000a81548160ff021916908360068111156113955761139461322f565b5b021790555081600d819055507f2bd454aea220f47ef41df4dc4bfd0823d826b9fc69aa5f871369edd5086267cb600c60009054906101000a900473ffffffffffffffffffffffffffffffffffffffff166001548886600d548760405161140096959493929190613ea9565b60405180910390a1505050505050505b565b61141a612aa3565b73ffffffffffffffffffffffffffffffffffffffff166114386114b2565b73ffffffffffffffffffffffffffffffffffffffff161461148e576040517f08c379a000000000000000000000000000000000000000000000000000000000815260040161148590613f56565b60405180910390fd5b6114986000612aab565b565b600e8060000154908060010154908060020154905083565b6000601360009054906101000a900473ffffffffffffffffffffffffffffffffffffffff16905090565b600881815481106114ec57600080fd5b90600052602060002090600502016000915090508060000160009054906101000a900473ffffffffffffffffffffffffffffffffffffffff16908060010154908060020154908060030154908060040154905085565b6000804290506001600681111561155c5761155b61322f565b5b601360149054906101000a900460ff16600681111561157e5761157d61322f565b5b1480156115985750603c6002546115959190613a6e565b81115b80156115a5575060035481105b156115d6576002601360146101000a81548160ff021916908360068111156115d0576115cf61322f565b5b02179055505b600260068111156115ea576115e961322f565b5b601360149054906101000a900460ff16600681111561160c5761160b61322f565b5b1461161b576002915050611621565b60009150505b90565b601160009054906101000a900473ffffffffffffffffffffffffffffffffffffffff1681565b601660009054906101000a900473ffffffffffffffffffffffffffffffffffffffff1681565b60035481565b6004805461168390613fa5565b80601f01602080910402602001604051908101604052809291908181526020018280546116af90613fa5565b80156116fc5780601f106116d1576101008083540402835291602001916116fc565b820191906000526020600020905b8154815290600101906020018083116116df57829003601f168201915b505050505081565b600061170e610a0c565b905090565b60008060009054906101000a900473ffffffffffffffffffffffffffffffffffffffff1673ffffffffffffffffffffffffffffffffffffffff1663313ce5676040518163ffffffff1660e01b8152600401602060405180830381865afa158015611781573d6000803e3d6000fd5b505050506040513d601f19601f820116820180604052508101906117a59190613c92565b600a6117b19190613df2565b905090565b60095481565b60015481565b601460009054906101000a900473ffffffffffffffffffffffffffffffffffffffff1681565b6007602052816000526040600020818154811061180457600080fd5b90600052602060002001600091509150505481565b611821612aa3565b73ffffffffffffffffffffffffffffffffffffffff1661183f6114b2565b73ffffffffffffffffffffffffffffffffffffffff1614611895576040517f08c379a000000000000000000000000000000000000000000000000000000000815260040161188c90613f56565b60405180910390fd5b8060038190555050565b600060149054906101000a900463ffffffff1681565b600c60009054906101000a900473ffffffffffffffffffffffffffffffffffffffff1681565b60025481565b6060600760008373ffffffffffffffffffffffffffffffffffffffff1673ffffffffffffffffffffffffffffffffffffffff16815260200190815260200160002080548060200260200160405190810160405280929190818152602001828054801561196c57602002820191906000526020600020905b815481526020019060010190808311611958575b50505050509050919050565b611980612aa3565b73ffffffffffffffffffffffffffffffffffffffff1661199e6114b2565b73ffffffffffffffffffffffffffffffffffffffff16146119f4576040517f08c379a00000000000000000000000000000000000000000000000000000000081526004016119eb90613f56565b60405180910390fd5b600073ffffffffffffffffffffffffffffffffffffffff168173ffffffffffffffffffffffffffffffffffffffff1603611a63576040517f08c379a0000000000000000000000000000000000000000000000000000000008152600401611a5a90614048565b60405180910390fd5b611a6c81612aab565b50565b60008054906101000a900473ffffffffffffffffffffffffffffffffffffffff1681565b6000601360149054906101000a900460ff16905090565b600080611ab5611542565b905060006002811115611acb57611aca61322f565b5b816002811115611ade57611add61322f565b5b14611b1e576040517f08c379a0000000000000000000000000000000000000000000000000000000008152600401611b15906140b4565b60405180910390fd5b60008311611b305760019150506120d4565b60008060009054906101000a900473ffffffffffffffffffffffffffffffffffffffff1673ffffffffffffffffffffffffffffffffffffffff1663313ce5676040518163ffffffff1660e01b8152600401602060405180830381865afa158015611b9e573d6000803e3d6000fd5b505050506040513d601f19601f82011682018060405250810190611bc29190613c92565b600a611bce9190613df2565b905060008054906101000a900473ffffffffffffffffffffffffffffffffffffffff1673ffffffffffffffffffffffffffffffffffffffff166323b872dd8630611c188589612110565b6040518463ffffffff1660e01b8152600401611c36939291906140d4565b6020604051808303816000875af1158015611c55573d6000803e3d6000fd5b505050506040513d601f19601f82011682018060405250810190611c799190614137565b5060005b84811015611cfb57600a869080600181540180825580915050600190039060005260206000200160009091909190916101000a81548173ffffffffffffffffffffffffffffffffffffffff021916908373ffffffffffffffffffffffffffffffffffffffff1602179055508080611cf390614164565b915050611c7d565b50600660008673ffffffffffffffffffffffffffffffffffffffff1673ffffffffffffffffffffffffffffffffffffffff16815260200190815260200160002060020160009054906101000a900460ff16611e9a576040518060c001604052808673ffffffffffffffffffffffffffffffffffffffff1681526020016000815260200160011515815260200160001515815260200142815260200143815250600660008773ffffffffffffffffffffffffffffffffffffffff1673ffffffffffffffffffffffffffffffffffffffff16815260200190815260200160002060008201518160000160006101000a81548173ffffffffffffffffffffffffffffffffffffffff021916908373ffffffffffffffffffffffffffffffffffffffff1602179055506020820151816001015560408201518160020160006101000a81548160ff02191690831515021790555060608201518160020160016101000a81548160ff0219169083151502179055506080820151816003015560a0820151816004015590505060096000815480929190611e9490614164565b91905055505b611ee6600660008773ffffffffffffffffffffffffffffffffffffffff1673ffffffffffffffffffffffffffffffffffffffff1681526020019081526020016000206001015485612b71565b600660008773ffffffffffffffffffffffffffffffffffffffff1673ffffffffffffffffffffffffffffffffffffffff16815260200190815260200160002060010181905550600760008673ffffffffffffffffffffffffffffffffffffffff1673ffffffffffffffffffffffffffffffffffffffff168152602001908152602001600020600880549050908060018154018082558091505060019003906000526020600020016000909190919091505560086040518060a001604052808773ffffffffffffffffffffffffffffffffffffffff16815260200186600a80549050611fd191906141ac565b815260200186815260200142815260200143815250908060018154018082558091505060019003906000526020600020906005020160009091909190915060008201518160000160006101000a81548173ffffffffffffffffffffffffffffffffffffffff021916908373ffffffffffffffffffffffffffffffffffffffff1602179055506020820151816001015560408201518160020155606082015181600301556080820151816004015550507fd755b6433b8fc2eed90a53dff0d71bbe5f026d44a1e230fea6c1e1a262c41a218585600060149054906101000a900463ffffffff166040516120c5939291906141e0565b60405180910390a16000925050505b92915050565b60004442600a6040516020016120f293929190614356565b6040516020818303038152906040528051906020012060001c905090565b600061215283836040518060400160405280601781526020017f6d756c7469706c69636174696f6e206f766572666c6f77000000000000000000815250612bbb565b905092915050565b60008060009054906101000a900473ffffffffffffffffffffffffffffffffffffffff1673ffffffffffffffffffffffffffffffffffffffff1663a9059cbb601660009054906101000a900473ffffffffffffffffffffffffffffffffffffffff16846040518363ffffffff1660e01b81526004016121da92919061438f565b6020604051808303816000875af11580156121f9573d6000803e3d6000fd5b505050506040513d601f19601f8201168201806040525081019061221d9190614137565b50601460009054906101000a900473ffffffffffffffffffffffffffffffffffffffff1673ffffffffffffffffffffffffffffffffffffffff166323b872dd601660009054906101000a900473ffffffffffffffffffffffffffffffffffffffff16600c60009054906101000a900473ffffffffffffffffffffffffffffffffffffffff166015546040518463ffffffff1660e01b81526004016122c3939291906140d4565b600060405180830381600087803b1580156122dd57600080fd5b505af11580156122f1573d6000803e3d6000fd5b5050505060009050919050565b60008060008060009054906101000a900473ffffffffffffffffffffffffffffffffffffffff1673ffffffffffffffffffffffffffffffffffffffff166370a08231306040518263ffffffff1660e01b815260040161235d919061318a565b602060405180830381865afa15801561237a573d6000803e3d6000fd5b505050506040513d601f19601f8201168201806040525081019061239e9190613c2c565b9050600081116123b5576000809250925050612a9f565b60006123ca6005546123c5611713565b612110565b90508082116124805760008054906101000a900473ffffffffffffffffffffffffffffffffffffffff1673ffffffffffffffffffffffffffffffffffffffff1663a9059cbb33836040518363ffffffff1660e01b815260040161242e92919061438f565b6020604051808303816000875af115801561244d573d6000803e3d6000fd5b505050506040513d601f19601f820116820180604052508101906124719190614137565b50816000935093505050612a9f565b6000818361248e91906141ac565b9050600060066000600c60009054906101000a900473ffffffffffffffffffffffffffffffffffffffff1673ffffffffffffffffffffffffffffffffffffffff1673ffffffffffffffffffffffffffffffffffffffff16815260200190815260200160002060010154600a8054905061250791906141ac565b9050600081111561289857600061251e8383612c46565b905060005b600a8054905081101561274c576000600a82815481106125465761254561367d565b5b9060005260206000200160009054906101000a900473ffffffffffffffffffffffffffffffffffffffff169050600c60009054906101000a900473ffffffffffffffffffffffffffffffffffffffff1673ffffffffffffffffffffffffffffffffffffffff168173ffffffffffffffffffffffffffffffffffffffff16036125ce5750612739565b6000600660008373ffffffffffffffffffffffffffffffffffffffff1673ffffffffffffffffffffffffffffffffffffffff16815260200190815260200160002090508060020160019054906101000a900460ff161561262f575050612739565b60008054906101000a900473ffffffffffffffffffffffffffffffffffffffff1673ffffffffffffffffffffffffffffffffffffffff1663a9059cbb600a858154811061267f5761267e61367d565b5b9060005260206000200160009054906101000a900473ffffffffffffffffffffffffffffffffffffffff166126b8846001015488612110565b6040518363ffffffff1660e01b81526004016126d592919061438f565b6020604051808303816000875af11580156126f4573d6000803e3d6000fd5b505050506040513d601f19601f820116820180604052508101906127189190614137565b5060018160020160016101000a81548160ff02191690831515021790555050505b808061274490614164565b915050612523565b5060008054906101000a900473ffffffffffffffffffffffffffffffffffffffff1673ffffffffffffffffffffffffffffffffffffffff166370a08231306040518263ffffffff1660e01b81526004016127a6919061318a565b602060405180830381865afa1580156127c3573d6000803e3d6000fd5b505050506040513d601f19601f820116820180604052508101906127e79190613c2c565b945060008054906101000a900473ffffffffffffffffffffffffffffffffffffffff1673ffffffffffffffffffffffffffffffffffffffff1663a9059cbb33876040518363ffffffff1660e01b815260040161284492919061438f565b6020604051808303816000875af1158015612863573d6000803e3d6000fd5b505050506040513d601f19601f820116820180604052508101906128879190614137565b508481965096505050505050612a9f565b60008054906101000a900473ffffffffffffffffffffffffffffffffffffffff1673ffffffffffffffffffffffffffffffffffffffff1663a9059cbb33856040518363ffffffff1660e01b81526004016128f392919061438f565b6020604051808303816000875af1158015612912573d6000803e3d6000fd5b505050506040513d601f19601f820116820180604052508101906129369190614137565b5060008054906101000a900473ffffffffffffffffffffffffffffffffffffffff1673ffffffffffffffffffffffffffffffffffffffff166370a08231306040518263ffffffff1660e01b8152600401612990919061318a565b602060405180830381865afa1580156129ad573d6000803e3d6000fd5b505050506040513d601f19601f820116820180604052508101906129d19190613c2c565b935060008054906101000a900473ffffffffffffffffffffffffffffffffffffffff1673ffffffffffffffffffffffffffffffffffffffff1663a9059cbb600c60009054906101000a900473ffffffffffffffffffffffffffffffffffffffff16866040518363ffffffff1660e01b8152600401612a5092919061438f565b6020604051808303816000875af1158015612a6f573d6000803e3d6000fd5b505050506040513d601f19601f82011682018060405250810190612a939190614137565b50828495509550505050505b9091565b600033905090565b6000601360009054906101000a900473ffffffffffffffffffffffffffffffffffffffff16905081601360006101000a81548173ffffffffffffffffffffffffffffffffffffffff021916908373ffffffffffffffffffffffffffffffffffffffff1602179055508173ffffffffffffffffffffffffffffffffffffffff168173ffffffffffffffffffffffffffffffffffffffff167f8be0079c531659141344cd1fd0a4f28419497f9722a3daafe3b4186f6b6457e060405160405180910390a35050565b6000612bb383836040518060400160405280601181526020017f6164646974696f6e206f766572666c6f77000000000000000000000000000000815250612c90565b905092915050565b600080841480612bcb5750600083145b15612bd95760009050612c3f565b60008385612be791906143b8565b9050838582612bf69190614412565b148390612c39576040517f08c379a0000000000000000000000000000000000000000000000000000000008152600401612c30919061335a565b60405180910390fd5b50809150505b9392505050565b6000612c8883836040518060400160405280600e81526020017f646976696465206279207a65726f000000000000000000000000000000000000815250612cf3565b905092915050565b6000808385612c9f9190613a6e565b9050848110158390612ce7576040517f08c379a0000000000000000000000000000000000000000000000000000000008152600401612cde919061335a565b60405180910390fd5b50809150509392505050565b60008083118290612d3a576040517f08c379a0000000000000000000000000000000000000000000000000000000008152600401612d31919061335a565b60405180910390fd5b508284612d479190614412565b90509392505050565b6000819050919050565b612d6381612d50565b82525050565b6000602082019050612d7e6000830184612d5a565b92915050565b6000604051905090565b600080fd5b600080fd5b612da181612d50565b8114612dac57600080fd5b50565b600081359050612dbe81612d98565b92915050565b600060208284031215612dda57612dd9612d8e565b5b6000612de884828501612daf565b91505092915050565b600073ffffffffffffffffffffffffffffffffffffffff82169050919050565b6000612e1c82612df1565b9050919050565b612e2c81612e11565b8114612e3757600080fd5b50565b600081359050612e4981612e23565b92915050565b600060208284031215612e6557612e64612d8e565b5b6000612e7384828501612e3a565b91505092915050565b612e8581612e11565b82525050565b60008115159050919050565b612ea081612e8b565b82525050565b600060c082019050612ebb6000830189612e7c565b612ec86020830188612d5a565b612ed56040830187612e97565b612ee26060830186612e97565b612eef6080830185612d5a565b612efc60a0830184612d5a565b979650505050505050565b6000602082019050612f1c6000830184612e97565b92915050565b60008060408385031215612f3957612f38612d8e565b5b6000612f4785828601612e3a565b9250506020612f5885828601612daf565b9150509250929050565b600081519050919050565b600082825260208201905092915050565b6000819050602082019050919050565b612f9781612e11565b82525050565b612fa681612d50565b82525050565b60a082016000820151612fc26000850182612f8e565b506020820151612fd56020850182612f9d565b506040820151612fe86040850182612f9d565b506060820151612ffb6060850182612f9d565b50608082015161300e6080850182612f9d565b50505050565b60006130208383612fac565b60a08301905092915050565b6000602082019050919050565b600061304482612f62565b61304e8185612f6d565b935061305983612f7e565b8060005b8381101561308a5781516130718882613014565b975061307c8361302c565b92505060018101905061305d565b5085935050505092915050565b600060208201905081810360008301526130b18184613039565b905092915050565b600081519050919050565b600082825260208201905092915050565b6000819050602082019050919050565b60006130f18383612f8e565b60208301905092915050565b6000602082019050919050565b6000613115826130b9565b61311f81856130c4565b935061312a836130d5565b8060005b8381101561315b57815161314288826130e5565b975061314d836130fd565b92505060018101905061312e565b5085935050505092915050565b60006020820190508181036000830152613182818461310a565b905092915050565b600060208201905061319f6000830184612e7c565b92915050565b60006060820190506131ba6000830186612d5a565b6131c76020830185612d5a565b6131d46040830184612d5a565b949350505050565b600060a0820190506131f16000830188612e7c565b6131fe6020830187612d5a565b61320b6040830186612d5a565b6132186060830185612d5a565b6132256080830184612d5a565b9695505050505050565b7f4e487b7100000000000000000000000000000000000000000000000000000000600052602160045260246000fd5b6003811061326f5761326e61322f565b5b50565b60008190506132808261325e565b919050565b600061329082613272565b9050919050565b6132a081613285565b82525050565b60006020820190506132bb6000830184613297565b92915050565b600081519050919050565b600082825260208201905092915050565b60005b838110156132fb5780820151818401526020810190506132e0565b8381111561330a576000848401525b50505050565b6000601f19601f8301169050919050565b600061332c826132c1565b61333681856132cc565b93506133468185602086016132dd565b61334f81613310565b840191505092915050565b600060208201905081810360008301526133748184613321565b905092915050565b6000819050919050565b60006133a161339c61339784612df1565b61337c565b612df1565b9050919050565b60006133b382613386565b9050919050565b60006133c5826133a8565b9050919050565b6133d5816133ba565b82525050565b60006020820190506133f060008301846133cc565b92915050565b600063ffffffff82169050919050565b61340f816133f6565b82525050565b600060208201905061342a6000830184613406565b92915050565b600081519050919050565b600082825260208201905092915050565b6000819050602082019050919050565b60006134688383612f9d565b60208301905092915050565b6000602082019050919050565b600061348c82613430565b613496818561343b565b93506134a18361344c565b8060005b838110156134d25781516134b9888261345c565b97506134c483613474565b9250506001810190506134a5565b5085935050505092915050565b600060208201905081810360008301526134f98184613481565b905092915050565b600061350c826133a8565b9050919050565b61351c81613501565b82525050565b60006020820190506135376000830184613513565b92915050565b6007811061354e5761354d61322f565b5b50565b600081905061355f8261353d565b919050565b600061356f82613551565b9050919050565b61357f81613564565b82525050565b600060208201905061359a6000830184613576565b92915050565b7f6a6f696e206661696c6564000000000000000000000000000000000000000000600082015250565b60006135d6600b836132cc565b91506135e1826135a0565b602082019050919050565b60006020820190508181036000830152613605816135c9565b9050919050565b60008151905061361b81612e23565b92915050565b60006020828403121561363757613636612d8e565b5b60006136458482850161360c565b91505092915050565b7f4e487b7100000000000000000000000000000000000000000000000000000000600052604160045260246000fd5b7f4e487b7100000000000000000000000000000000000000000000000000000000600052603260045260246000fd5b600080fd5b6136ba82613310565b810181811067ffffffffffffffff821117156136d9576136d861364e565b5b80604052505050565b60006136ec612d84565b90506136f882826136b1565b919050565b600067ffffffffffffffff8211156137185761371761364e565b5b602082029050602081019050919050565b600080fd5b60008151905061373d81612d98565b92915050565b6000613756613751846136fd565b6136e2565b9050808382526020820190506020840283018581111561377957613778613729565b5b835b818110156137a2578061378e888261372e565b84526020840193505060208101905061377b565b5050509392505050565b600082601f8301126137c1576137c06136ac565b5b81516137d1848260208601613743565b91505092915050565b6000602082840312156137f0576137ef612d8e565b5b600082015167ffffffffffffffff81111561380e5761380d612d93565b5b61381a848285016137ac565b91505092915050565b7f7075626c697368206661696c6564000000000000000000000000000000000000600082015250565b6000613859600e836132cc565b915061386482613823565b602082019050919050565b600060208201905081810360008301526138888161384c565b9050919050565b7f6a6f696e206661696c6564200000000000000000000000000000000000000000600082015250565b60006138c5600c836132cc565b91506138d08261388f565b602082019050919050565b600060208201905081810360008301526138f4816138b8565b9050919050565b7f63616e206e6f74207069636b0000000000000000000000000000000000000000600082015250565b6000613931600c836132cc565b915061393c826138fb565b602082019050919050565b6000602082019050818103600083015261396081613924565b9050919050565b7f636f6d7074726f6c6c6572206973206e6f7420656d7074790000000000000000600082015250565b600061399d6018836132cc565b91506139a882613967565b602082019050919050565b600060208201905081810360008301526139cc81613990565b9050919050565b7f7069636b2077696e6e6572206861642066696e69736865640000000000000000600082015250565b6000613a096018836132cc565b9150613a14826139d3565b602082019050919050565b60006020820190508181036000830152613a38816139fc565b9050919050565b7f4e487b7100000000000000000000000000000000000000000000000000000000600052601160045260246000fd5b6000613a7982612d50565b9150613a8483612d50565b9250827fffffffffffffffffffffffffffffffffffffffffffffffffffffffffffffffff03821115613ab957613ab8613a3f565b5b828201905092915050565b7f63616e206e6f74207069636b2077696e6e657200000000000000000000000000600082015250565b6000613afa6013836132cc565b9150613b0582613ac4565b602082019050919050565b60006020820190508181036000830152613b2981613aed565b9050919050565b6000819050919050565b6000613b55613b50613b4b84613b30565b61337c565b612d50565b9050919050565b613b6581613b3a565b82525050565b600060c082019050613b806000830189612e7c565b613b8d6020830188612d5a565b613b9a6040830187613b5c565b613ba76060830186613b5c565b613bb46080830185613b5c565b613bc160a0830184613b5c565b979650505050505050565b7f4e487b7100000000000000000000000000000000000000000000000000000000600052601260045260246000fd5b6000613c0682612d50565b9150613c1183612d50565b925082613c2157613c20613bcc565b5b828206905092915050565b600060208284031215613c4257613c41612d8e565b5b6000613c508482850161372e565b91505092915050565b600060ff82169050919050565b613c6f81613c59565b8114613c7a57600080fd5b50565b600081519050613c8c81613c66565b92915050565b600060208284031215613ca857613ca7612d8e565b5b6000613cb684828501613c7d565b91505092915050565b60008160011c9050919050565b6000808291508390505b6001851115613d1657808604811115613cf257613cf1613a3f565b5b6001851615613d015780820291505b8081029050613d0f85613cbf565b9450613cd6565b94509492505050565b600082613d2f5760019050613deb565b81613d3d5760009050613deb565b8160018114613d535760028114613d5d57613d8c565b6001915050613deb565b60ff841115613d6f57613d6e613a3f565b5b8360020a915084821115613d8657613d85613a3f565b5b50613deb565b5060208310610133831016604e8410600b8410161715613dc15782820a905083811115613dbc57613dbb613a3f565b5b613deb565b613dce8484846001613ccc565b92509050818404811115613de557613de4613a3f565b5b81810290505b9392505050565b6000613dfd82612d50565b9150613e0883613c59565b9250613e357fffffffffffffffffffffffffffffffffffffffffffffffffffffffffffffffff8484613d1f565b905092915050565b7f73656e6420746f2077696e6e6572206661696c65642e00000000000000000000600082015250565b6000613e736016836132cc565b9150613e7e82613e3d565b602082019050919050565b60006020820190508181036000830152613ea281613e66565b9050919050565b600060c082019050613ebe6000830189612e7c565b613ecb6020830188612d5a565b613ed86040830187612d5a565b613ee56060830186612d5a565b613ef26080830185612d5a565b613eff60a0830184612d5a565b979650505050505050565b7f4f776e61626c653a2063616c6c6572206973206e6f7420746865206f776e6572600082015250565b6000613f406020836132cc565b9150613f4b82613f0a565b602082019050919050565b60006020820190508181036000830152613f6f81613f33565b9050919050565b7f4e487b7100000000000000000000000000000000000000000000000000000000600052602260045260246000fd5b60006002820490506001821680613fbd57607f821691505b602082108103613fd057613fcf613f76565b5b50919050565b7f4f776e61626c653a206e6577206f776e657220697320746865207a65726f206160008201527f6464726573730000000000000000000000000000000000000000000000000000602082015250565b60006140326026836132cc565b915061403d82613fd6565b604082019050919050565b6000602082019050818103600083015261406181614025565b9050919050565b7f73746167652076616c6964206661696c65640000000000000000000000000000600082015250565b600061409e6012836132cc565b91506140a982614068565b602082019050919050565b600060208201905081810360008301526140cd81614091565b9050919050565b60006060820190506140e96000830186612e7c565b6140f66020830185612e7c565b6141036040830184612d5a565b949350505050565b61411481612e8b565b811461411f57600080fd5b50565b6000815190506141318161410b565b92915050565b60006020828403121561414d5761414c612d8e565b5b600061415b84828501614122565b91505092915050565b600061416f82612d50565b91507fffffffffffffffffffffffffffffffffffffffffffffffffffffffffffffffff82036141a1576141a0613a3f565b5b600182019050919050565b60006141b782612d50565b91506141c283612d50565b9250828210156141d5576141d4613a3f565b5b828203905092915050565b60006060820190506141f56000830186612e7c565b6142026020830185612d5a565b61420f6040830184613406565b949350505050565b6000819050919050565b61423261422d82612d50565b614217565b82525050565b600081549050919050565b600081905092915050565b60008190508160005260206000209050919050565b61426c81612e11565b82525050565b600061427e8383614263565b60208301905092915050565b60008160001c9050919050565b600073ffffffffffffffffffffffffffffffffffffffff82169050919050565b60006142ca6142c58361428a565b614297565b9050919050565b60006142dd82546142b7565b9050919050565b6000600182019050919050565b60006142fc82614238565b6143068185614243565b93506143118361424e565b8060005b8381101561434957614326826142d1565b6143308882614272565b975061433b836142e4565b925050600181019050614315565b5085935050505092915050565b60006143628286614221565b6020820191506143728285614221565b60208201915061438282846142f1565b9150819050949350505050565b60006040820190506143a46000830185612e7c565b6143b16020830184612d5a565b9392505050565b60006143c382612d50565b91506143ce83612d50565b9250817fffffffffffffffffffffffffffffffffffffffffffffffffffffffffffffffff048311821515161561440757614406613a3f565b5b828202905092915050565b600061441d82612d50565b915061442883612d50565b92508261443857614437613bcc565b5b82820490509291505056fea264697066735822122021e899f74336573567fccf3f77f903d9adde30bd772c0e29b1a0a44b049de8d064736f6c634300080d0033",
  "immutableReferences": {},
  "source": "// SPDX-License-Identifier: MIT\npragma solidity >=0.4.22 <0.9.0;\n\nimport \"./GoodLottery.sol\";\nimport \"@openzeppelin/contracts/token/ERC721/IERC721.sol\";\nimport \"@openzeppelin/contracts/token/ERC721/IERC721Receiver.sol\";\n\ncontract GoodLotteryNFT is GoodLottery {\n    IERC721 public nftToken;\n    uint256 public tokenId;\n    address public tokenOwner;\n\n    event ReceiveToken(address nftToken, address user, uint token);\n\n   constructor(\n        ComptrollerInterface _comptroller,\n        IERC20 _token,\n        uint32 _goodId,\n        uint256 _goodValue,\n        uint256 _maintenanceFee,\n        uint256 _publishTime,\n        uint256 _lockedTime,\n        string memory _goodHash,\n        address _nftAddress,\n        uint256 _tokenId,\n        address _tokenOwner\n    ) GoodLottery(_comptroller, _token, _goodId, _goodValue, _maintenanceFee, _publishTime, _lockedTime, _goodHash) {\n        nftToken = IERC721(_nftAddress);\n        tokenId = _tokenId;\n        tokenOwner = _tokenOwner;\n        _comptroller.addGood(_tokenOwner, address(this));\n    }\n\n    function publishToMarket() public {\n        require(isApproved());\n\n        address marketOwner = comptroller.owner();\n        \n        transferOwnership(marketOwner);\n\n        address[] memory goods = new address[](1);\n        goods[0] = address(this);\n\n        uint[] memory resp = comptroller.publishGood(goods);\n        \n        require(resp[0] == 0, \"publish failed\");\n    }\n\n    function payToWinner(uint winnerValue) internal override returns (Error) {\n        token.transfer(tokenOwner, winnerValue);\n        nftToken.transferFrom(tokenOwner, winner, tokenId);\n        return Error.NO_ERROR;\n    }\n\n    function isApproved() public view returns (bool) {\n        return nftToken.getApproved(tokenId) == address(this);   \n    }\n\n    function checkCanPickWinner() public view override returns (bool) {\n        return isApproved();\n    }\n\n}",
  "sourcePath": "/Users/jonah/SolidityProject/makewish-contract/contracts/GoodLotteryNFT.sol",
  "compiler": {
    "name": "solc",
    "version": "0.8.13+commit.abaa5c0e.Emscripten.clang"
  },
  "schemaVersion": "3.4.7",
  "updatedAt": "2022-06-02T03:56:10.479Z",
  "devdoc": {
    "kind": "dev",
    "methods": {
      "owner()": {
        "details": "Returns the address of the current owner."
      },
      "renounceOwnership()": {
        "details": "Leaves the contract without owner. It will not be possible to call `onlyOwner` functions anymore. Can only be called by the current owner. NOTE: Renouncing ownership will leave the contract without an owner, thereby removing any functionality that is only available to the owner."
      },
      "transferOwnership(address)": {
        "details": "Transfers ownership of the contract to a new account (`newOwner`). Can only be called by the current owner."
      }
    },
    "version": 1
  },
  "userdoc": {
    "kind": "user",
    "methods": {},
    "version": 1
  }
}