{
  "contractName": "GoodLottery",
  "abi": [
    {
      "inputs": [
        {
          "internalType": "contract ComptrollerInterface",
          "name": "_comptroller",
          "type": "address"
        },
        {
          "internalType": "contract IERC20",
          "name": "_token",
          "type": "address"
        },
        {
          "internalType": "uint32",
          "name": "_goodId",
          "type": "uint32"
        },
        {
          "internalType": "uint256",
          "name": "_goodValue",
          "type": "uint256"
        },
        {
          "internalType": "uint256",
          "name": "_maintenanceFee",
          "type": "uint256"
        },
        {
          "internalType": "uint256",
          "name": "_publishTime",
          "type": "uint256"
        },
        {
          "internalType": "uint256",
          "name": "_lockedTime",
          "type": "uint256"
        },
        {
          "internalType": "string",
          "name": "_goodHash",
          "type": "string"
        }
      ],
      "stateMutability": "nonpayable",
      "type": "constructor"
    },
    {
      "anonymous": false,
      "inputs": [
        {
          "indexed": false,
          "internalType": "address",
          "name": "user",
          "type": "address"
        },
        {
          "indexed": false,
          "internalType": "uint256",
          "name": "amount",
          "type": "uint256"
        },
        {
          "indexed": false,
          "internalType": "uint32",
          "name": "goodId",
          "type": "uint32"
        }
      ],
      "name": "JoinSuccessful",
      "type": "event"
    },
    {
      "anonymous": false,
      "inputs": [
        {
          "indexed": false,
          "internalType": "address",
          "name": "user",
          "type": "address"
        },
        {
          "indexed": false,
          "internalType": "uint256",
          "name": "totalBalance",
          "type": "uint256"
        },
        {
          "indexed": false,
          "internalType": "uint256",
          "name": "priceValue",
          "type": "uint256"
        },
        {
          "indexed": false,
          "internalType": "uint256",
          "name": "mf",
          "type": "uint256"
        },
        {
          "indexed": false,
          "internalType": "uint256",
          "name": "burned",
          "type": "uint256"
        },
        {
          "indexed": false,
          "internalType": "uint256",
          "name": "paybackUnit",
          "type": "uint256"
        }
      ],
      "name": "LotteryComplete",
      "type": "event"
    },
    {
      "anonymous": false,
      "inputs": [
        {
          "indexed": true,
          "internalType": "address",
          "name": "previousOwner",
          "type": "address"
        },
        {
          "indexed": true,
          "internalType": "address",
          "name": "newOwner",
          "type": "address"
        }
      ],
      "name": "OwnershipTransferred",
      "type": "event"
    },
    {
      "inputs": [],
      "name": "goodHash",
      "outputs": [
        {
          "internalType": "string",
          "name": "",
          "type": "string"
        }
      ],
      "stateMutability": "view",
      "type": "function"
    },
    {
      "inputs": [],
      "name": "goodId",
      "outputs": [
        {
          "internalType": "uint32",
          "name": "",
          "type": "uint32"
        }
      ],
      "stateMutability": "view",
      "type": "function"
    },
    {
      "inputs": [],
      "name": "goodValue",
      "outputs": [
        {
          "internalType": "uint256",
          "name": "",
          "type": "uint256"
        }
      ],
      "stateMutability": "view",
      "type": "function"
    },
    {
      "inputs": [],
      "name": "isGoodLottery",
      "outputs": [
        {
          "internalType": "bool",
          "name": "",
          "type": "bool"
        }
      ],
      "stateMutability": "view",
      "type": "function"
    },
    {
      "inputs": [],
      "name": "lockedTime",
      "outputs": [
        {
          "internalType": "uint256",
          "name": "",
          "type": "uint256"
        }
      ],
      "stateMutability": "view",
      "type": "function"
    },
    {
      "inputs": [],
      "name": "maintenanceFee",
      "outputs": [
        {
          "internalType": "uint256",
          "name": "",
          "type": "uint256"
        }
      ],
      "stateMutability": "view",
      "type": "function"
    },
    {
      "inputs": [],
      "name": "owner",
      "outputs": [
        {
          "internalType": "address",
          "name": "",
          "type": "address"
        }
      ],
      "stateMutability": "view",
      "type": "function"
    },
    {
      "inputs": [],
      "name": "paybackFee",
      "outputs": [
        {
          "internalType": "uint256",
          "name": "",
          "type": "uint256"
        }
      ],
      "stateMutability": "view",
      "type": "function"
    },
    {
      "inputs": [],
      "name": "publishTime",
      "outputs": [
        {
          "internalType": "uint256",
          "name": "",
          "type": "uint256"
        }
      ],
      "stateMutability": "view",
      "type": "function"
    },
    {
      "inputs": [],
      "name": "renounceOwnership",
      "outputs": [],
      "stateMutability": "nonpayable",
      "type": "function"
    },
    {
      "inputs": [],
      "name": "stage",
      "outputs": [
        {
          "internalType": "enum GoodLottery.Stage",
          "name": "",
          "type": "uint8"
        }
      ],
      "stateMutability": "view",
      "type": "function"
    },
    {
      "inputs": [
        {
          "internalType": "uint256",
          "name": "",
          "type": "uint256"
        }
      ],
      "name": "ticketNums",
      "outputs": [
        {
          "internalType": "uint256",
          "name": "",
          "type": "uint256"
        }
      ],
      "stateMutability": "view",
      "type": "function"
    },
    {
      "inputs": [
        {
          "internalType": "uint256",
          "name": "",
          "type": "uint256"
        }
      ],
      "name": "tickets",
      "outputs": [
        {
          "internalType": "address",
          "name": "",
          "type": "address"
        }
      ],
      "stateMutability": "view",
      "type": "function"
    },
    {
      "inputs": [],
      "name": "token",
      "outputs": [
        {
          "internalType": "contract IERC20",
          "name": "",
          "type": "address"
        }
      ],
      "stateMutability": "view",
      "type": "function"
    },
    {
      "inputs": [
        {
          "internalType": "address",
          "name": "newOwner",
          "type": "address"
        }
      ],
      "name": "transferOwnership",
      "outputs": [],
      "stateMutability": "nonpayable",
      "type": "function"
    },
    {
      "inputs": [
        {
          "internalType": "uint256",
          "name": "",
          "type": "uint256"
        }
      ],
      "name": "userList",
      "outputs": [
        {
          "internalType": "address",
          "name": "",
          "type": "address"
        }
      ],
      "stateMutability": "view",
      "type": "function"
    },
    {
      "inputs": [
        {
          "internalType": "address",
          "name": "",
          "type": "address"
        }
      ],
      "name": "userMapping",
      "outputs": [
        {
          "internalType": "address",
          "name": "user",
          "type": "address"
        },
        {
          "internalType": "uint256",
          "name": "count",
          "type": "uint256"
        },
        {
          "internalType": "bool",
          "name": "isJoined",
          "type": "bool"
        },
        {
          "internalType": "uint256",
          "name": "joinTime",
          "type": "uint256"
        },
        {
          "internalType": "uint256",
          "name": "joinBlockNum",
          "type": "uint256"
        }
      ],
      "stateMutability": "view",
      "type": "function"
    },
    {
      "inputs": [],
      "name": "winner",
      "outputs": [
        {
          "internalType": "address",
          "name": "",
          "type": "address"
        }
      ],
      "stateMutability": "view",
      "type": "function"
    },
    {
      "inputs": [],
      "name": "winnerTime",
      "outputs": [
        {
          "internalType": "uint256",
          "name": "blockNum",
          "type": "uint256"
        },
        {
          "internalType": "uint256",
          "name": "blockTime",
          "type": "uint256"
        },
        {
          "internalType": "uint256",
          "name": "index",
          "type": "uint256"
        }
      ],
      "stateMutability": "view",
      "type": "function"
    },
    {
      "inputs": [
        {
          "internalType": "uint256",
          "name": "_lockedTime",
          "type": "uint256"
        }
      ],
      "name": "setLockedTime",
      "outputs": [],
      "stateMutability": "nonpayable",
      "type": "function"
    },
    {
      "inputs": [
        {
          "internalType": "uint256",
          "name": "amount",
          "type": "uint256"
        }
      ],
      "name": "join",
      "outputs": [],
      "stateMutability": "nonpayable",
      "type": "function"
    },
    {
      "inputs": [
        {
          "internalType": "address",
          "name": "user",
          "type": "address"
        },
        {
          "internalType": "uint256",
          "name": "amount",
          "type": "uint256"
        }
      ],
      "name": "join",
      "outputs": [],
      "stateMutability": "nonpayable",
      "type": "function"
    },
    {
      "inputs": [],
      "name": "pickWinner",
      "outputs": [],
      "stateMutability": "nonpayable",
      "type": "function"
    },
    {
      "inputs": [],
      "name": "getTokenExchangeRate",
      "outputs": [
        {
          "internalType": "uint256",
          "name": "",
          "type": "uint256"
        }
      ],
      "stateMutability": "view",
      "type": "function"
    },
    {
      "inputs": [],
      "name": "getUsers",
      "outputs": [
        {
          "internalType": "address[]",
          "name": "",
          "type": "address[]"
        }
      ],
      "stateMutability": "view",
      "type": "function"
    },
    {
      "inputs": [],
      "name": "getTickets",
      "outputs": [
        {
          "internalType": "address[]",
          "name": "",
          "type": "address[]"
        }
      ],
      "stateMutability": "view",
      "type": "function"
    }
  ],
  "bytecode": "0x60806040526000600560006101000a81548160ff021916908360068111156200002d576200002c6200040a565b5b02179055503480156200003f57600080fd5b5060405162003d0d38038062003d0d833981810160405281019062000065919062000710565b6200008562000079620000ab60201b60201c565b620000b360201b60201c565b6200009d88888888888888886200017760201b60201c565b505050505050505062000977565b600033905090565b60008060009054906101000a900473ffffffffffffffffffffffffffffffffffffffff169050816000806101000a81548173ffffffffffffffffffffffffffffffffffffffff021916908373ffffffffffffffffffffffffffffffffffffffff1602179055508173ffffffffffffffffffffffffffffffffffffffff168173ffffffffffffffffffffffffffffffffffffffff167f8be0079c531659141344cd1fd0a4f28419497f9722a3daafe3b4186f6b6457e060405160405180910390a35050565b600060068111156200018e576200018d6200040a565b5b600560009054906101000a900460ff166006811115620001b357620001b26200040a565b5b14620001f6576040517f08c379a0000000000000000000000000000000000000000000000000000000008152600401620001ed9062000859565b60405180910390fd5b60008511801562000208575061271085105b6200024a576040517f08c379a00000000000000000000000000000000000000000000000000000000081526004016200024190620008f1565b60405180910390fd5b85600160146101000a81548163ffffffff021916908363ffffffff16021790555084600281905550826003819055508160048190555086600160006101000a81548173ffffffffffffffffffffffffffffffffffffffff021916908373ffffffffffffffffffffffffffffffffffffffff16021790555087601060006101000a81548173ffffffffffffffffffffffffffffffffffffffff021916908373ffffffffffffffffffffffffffffffffffffffff1602179055506001600560006101000a81548160ff021916908360068111156200032b576200032a6200040a565b5b02179055508360068190555080601190805190602001906200034f9291906200035a565b505050505050505050565b828054620003689062000942565b90600052602060002090601f0160209004810192826200038c5760008555620003d8565b82601f10620003a757805160ff1916838001178555620003d8565b82800160010185558215620003d8579182015b82811115620003d7578251825591602001919060010190620003ba565b5b509050620003e79190620003eb565b5090565b5b8082111562000406576000816000905550600101620003ec565b5090565b7f4e487b7100000000000000000000000000000000000000000000000000000000600052602160045260246000fd5b6000604051905090565b600080fd5b600080fd5b600073ffffffffffffffffffffffffffffffffffffffff82169050919050565b60006200047a826200044d565b9050919050565b60006200048e826200046d565b9050919050565b620004a08162000481565b8114620004ac57600080fd5b50565b600081519050620004c08162000495565b92915050565b6000620004d3826200046d565b9050919050565b620004e581620004c6565b8114620004f157600080fd5b50565b6000815190506200050581620004da565b92915050565b600063ffffffff82169050919050565b62000526816200050b565b81146200053257600080fd5b50565b60008151905062000546816200051b565b92915050565b6000819050919050565b62000561816200054c565b81146200056d57600080fd5b50565b600081519050620005818162000556565b92915050565b600080fd5b600080fd5b6000601f19601f8301169050919050565b7f4e487b7100000000000000000000000000000000000000000000000000000000600052604160045260246000fd5b620005dc8262000591565b810181811067ffffffffffffffff82111715620005fe57620005fd620005a2565b5b80604052505050565b60006200061362000439565b9050620006218282620005d1565b919050565b600067ffffffffffffffff821115620006445762000643620005a2565b5b6200064f8262000591565b9050602081019050919050565b60005b838110156200067c5780820151818401526020810190506200065f565b838111156200068c576000848401525b50505050565b6000620006a9620006a38462000626565b62000607565b905082815260208101848484011115620006c857620006c76200058c565b5b620006d58482856200065c565b509392505050565b600082601f830112620006f557620006f462000587565b5b81516200070784826020860162000692565b91505092915050565b600080600080600080600080610100898b03121562000734576200073362000443565b5b6000620007448b828c01620004af565b9850506020620007578b828c01620004f4565b97505060406200076a8b828c0162000535565b96505060606200077d8b828c0162000570565b9550506080620007908b828c0162000570565b94505060a0620007a38b828c0162000570565b93505060c0620007b68b828c0162000570565b92505060e089015167ffffffffffffffff811115620007da57620007d962000448565b5b620007e88b828c01620006dd565b9150509295985092959890939650565b600082825260208201905092915050565b7f676f6f6420686164206265656e20696e697469616c697a65642e000000000000600082015250565b600062000841601a83620007f8565b91506200084e8262000809565b602082019050919050565b60006020820190508181036000830152620008748162000832565b9050919050565b7f676f6f64732076616c7565206d757374206265747765656e203120616e64203960008201527f3939390000000000000000000000000000000000000000000000000000000000602082015250565b6000620008d9602383620007f8565b9150620008e6826200087b565b604082019050919050565b600060208201905081810360008301526200090c81620008ca565b9050919050565b7f4e487b7100000000000000000000000000000000000000000000000000000000600052602260045260246000fd5b600060028204905060018216806200095b57607f821691505b60208210810362000971576200097062000913565b5b50919050565b61338680620009876000396000f3fe608060405234801561001057600080fd5b506004361061018d5760003560e01c80638da5cb5b116100de578063c379b4be11610097578063dfbf53ae11610071578063dfbf53ae14610446578063e467fa8014610464578063f2fde38b14610482578063fc0c546a1461049e5761018d565b8063c379b4be146103ee578063df1dcaa91461040c578063df4c0ab1146104285761018d565b80638da5cb5b146103285780639f4216e814610346578063a8b3820514610376578063a9135d1714610394578063c01d1c60146103b2578063c040e6b8146103d05761018d565b80633b4da69f1161014b57806350b447121161012557806350b44712146102c45780635d495aea146102f4578063715018a6146102fe5780637676d235146103085761018d565b80633b4da69f1461026c5780633d98fc17146102885780634ed02622146102a65761018d565b8062ce8e3e1461019257806304660449146101b0578063049878f3146101ce578063118b9535146101ea5780631bbf17c51461021e5780632e40945e1461023c575b600080fd5b61019a6104bc565b6040516101a791906123f8565b60405180910390f35b6101b8610550565b6040516101c59190612433565b60405180910390f35b6101e860048036038101906101e3919061247f565b610556565b005b61020460048036038101906101ff91906124d8565b6105cf565b60405161021595949392919061252f565b60405180910390f35b610226610632565b6040516102339190612433565b60405180910390f35b6102566004803603810190610251919061247f565b610638565b6040516102639190612433565b60405180910390f35b61028660048036038101906102819190612582565b61065c565b005b6102906106d6565b60405161029d91906125c2565b60405180910390f35b6102ae6106db565b6040516102bb91906123f8565b60405180910390f35b6102de60048036038101906102d9919061247f565b61076f565b6040516102eb91906125dd565b60405180910390f35b6102fc6107ae565b005b610306610e55565b005b610310610edd565b60405161031f939291906125f8565b60405180910390f35b610330610ef5565b60405161033d91906125dd565b60405180910390f35b610360600480360381019061035b919061247f565b610f1e565b60405161036d91906125dd565b60405180910390f35b61037e610f5d565b60405161038b9190612433565b60405180910390f35b61039c610f63565b6040516103a991906126c8565b60405180910390f35b6103ba610ff1565b6040516103c79190612433565b60405180910390f35b6103d8611095565b6040516103e59190612761565b60405180910390f35b6103f66110a8565b6040516104039190612433565b60405180910390f35b6104266004803603810190610421919061247f565b6110ae565b005b610430611134565b60405161043d919061279b565b60405180910390f35b61044e61114a565b60405161045b91906125dd565b60405180910390f35b61046c611170565b6040516104799190612433565b60405180910390f35b61049c600480360381019061049791906124d8565b611176565b005b6104a661126d565b6040516104b39190612815565b60405180910390f35b60606000600780548060200260200160405190810160405280929190818152602001828054801561054257602002820191906000526020600020905b8160009054906101000a900473ffffffffffffffffffffffffffffffffffffffff1673ffffffffffffffffffffffffffffffffffffffff16815260200190600101908083116104f8575b505050505090508091505090565b60065481565b60006105623383611293565b905060006002811115610578576105776126ea565b5b81600281111561058b5761058a6126ea565b5b146105cb576040517f08c379a00000000000000000000000000000000000000000000000000000000081526004016105c29061287c565b60405180910390fd5b5050565b60086020528060005260406000206000915090508060000160009054906101000a900473ffffffffffffffffffffffffffffffffffffffff16908060010154908060020160009054906101000a900460ff16908060030154908060040154905085565b600f5481565b600a818154811061064857600080fd5b906000526020600020016000915090505481565b60006106688383611293565b90506000600281111561067e5761067d6126ea565b5b816002811115610691576106906126ea565b5b146106d1576040517f08c379a00000000000000000000000000000000000000000000000000000000081526004016106c8906128e8565b60405180910390fd5b505050565b600181565b60606000600980548060200260200160405190810160405280929190818152602001828054801561076157602002820191906000526020600020905b8160009054906101000a900473ffffffffffffffffffffffffffffffffffffffff1673ffffffffffffffffffffffffffffffffffffffff1681526020019060010190808311610717575b505050505090508091505090565b6009818154811061077f57600080fd5b906000526020600020016000915054906101000a900473ffffffffffffffffffffffffffffffffffffffff1681565b600073ffffffffffffffffffffffffffffffffffffffff16601060009054906101000a900473ffffffffffffffffffffffffffffffffffffffff1673ffffffffffffffffffffffffffffffffffffffff160361083f576040517f08c379a000000000000000000000000000000000000000000000000000000000815260040161083690612954565b60405180910390fd5b60056006811115610853576108526126ea565b5b600560009054906101000a900460ff166006811115610875576108746126ea565b5b141580156108b65750600680811115610891576108906126ea565b5b600560009054906101000a900460ff1660068111156108b3576108b26126ea565b5b14155b6108f5576040517f08c379a00000000000000000000000000000000000000000000000000000000081526004016108ec906129c0565b60405180910390fd5b6102586004546109059190612a0f565b421015610947576040517f08c379a000000000000000000000000000000000000000000000000000000000815260040161093e90612ab1565b60405180910390fd5b6000600980549050036109eb576006600560006101000a81548160ff0219169083600681111561097a576109796126ea565b5b02179055507f2bd454aea220f47ef41df4dc4bfd0823d826b9fc69aa5f871369edd5086267cb600b60009054906101000a900473ffffffffffffffffffffffffffffffffffffffff166002546000806000806040516109de96959493929190612b0c565b60405180910390a1610e53565b6004600560006101000a81548160ff02191690836006811115610a1157610a106126ea565b5b02179055506000600980549050610a26611822565b610a309190612b9c565b905060098181548110610a4657610a45612bcd565b5b9060005260206000200160009054906101000a900473ffffffffffffffffffffffffffffffffffffffff16600b60006101000a81548173ffffffffffffffffffffffffffffffffffffffff021916908373ffffffffffffffffffffffffffffffffffffffff160217905550601060009054906101000a900473ffffffffffffffffffffffffffffffffffffffff1673ffffffffffffffffffffffffffffffffffffffff166325281939306040518263ffffffff1660e01b8152600401610b0c91906125dd565b6020604051808303816000875af1158015610b2b573d6000803e3d6000fd5b505050506040513d601f19601f82011682018060405250810190610b4f9190612c11565b506000600160009054906101000a900473ffffffffffffffffffffffffffffffffffffffff1673ffffffffffffffffffffffffffffffffffffffff166370a08231306040518263ffffffff1660e01b8152600401610bad91906125dd565b602060405180830381865afa158015610bca573d6000803e3d6000fd5b505050506040513d601f19601f82011682018060405250810190610bee9190612c11565b90506000600160009054906101000a900473ffffffffffffffffffffffffffffffffffffffff1673ffffffffffffffffffffffffffffffffffffffff1663313ce5676040518163ffffffff1660e01b8152600401602060405180830381865afa158015610c5f573d6000803e3d6000fd5b505050506040513d601f19601f82011682018060405250810190610c839190612c77565b600a610c8f9190612dd7565b90506000610c9f60025483611858565b9050600080600160009054906101000a900473ffffffffffffffffffffffffffffffffffffffff1673ffffffffffffffffffffffffffffffffffffffff1663a9059cbb600b60009054906101000a900473ffffffffffffffffffffffffffffffffffffffff16856040518363ffffffff1660e01b8152600401610d23929190612e22565b6020604051808303816000875af1158015610d42573d6000803e3d6000fd5b505050506040513d601f19601f82011682018060405250810190610d669190612e77565b50610d6f6118a2565b8092508193505050604051806060016040528043815260200142815260200187815250600c60008201518160000155602082015181600101556040820151816002015590505060058060006101000a81548160ff02191690836006811115610dda57610dd96126ea565b5b021790555080600f819055507f2bd454aea220f47ef41df4dc4bfd0823d826b9fc69aa5f871369edd5086267cb600b60009054906101000a900473ffffffffffffffffffffffffffffffffffffffff166002548785600086604051610e4496959493929190612ea4565b60405180910390a15050505050505b565b610e5d61205d565b73ffffffffffffffffffffffffffffffffffffffff16610e7b610ef5565b73ffffffffffffffffffffffffffffffffffffffff1614610ed1576040517f08c379a0000000000000000000000000000000000000000000000000000000008152600401610ec890612f51565b60405180910390fd5b610edb6000612065565b565b600c8060000154908060010154908060020154905083565b60008060009054906101000a900473ffffffffffffffffffffffffffffffffffffffff16905090565b60078181548110610f2e57600080fd5b906000526020600020016000915054906101000a900473ffffffffffffffffffffffffffffffffffffffff1681565b60045481565b60118054610f7090612fa0565b80601f0160208091040260200160405190810160405280929190818152602001828054610f9c90612fa0565b8015610fe95780601f10610fbe57610100808354040283529160200191610fe9565b820191906000526020600020905b815481529060010190602001808311610fcc57829003601f168201915b505050505081565b6000600160009054906101000a900473ffffffffffffffffffffffffffffffffffffffff1673ffffffffffffffffffffffffffffffffffffffff1663313ce5676040518163ffffffff1660e01b8152600401602060405180830381865afa158015611060573d6000803e3d6000fd5b505050506040513d601f19601f820116820180604052508101906110849190612c77565b600a6110909190612dd7565b905090565b600560009054906101000a900460ff1681565b60025481565b6110b661205d565b73ffffffffffffffffffffffffffffffffffffffff166110d4610ef5565b73ffffffffffffffffffffffffffffffffffffffff161461112a576040517f08c379a000000000000000000000000000000000000000000000000000000000815260040161112190612f51565b60405180910390fd5b8060048190555050565b600160149054906101000a900463ffffffff1681565b600b60009054906101000a900473ffffffffffffffffffffffffffffffffffffffff1681565b60035481565b61117e61205d565b73ffffffffffffffffffffffffffffffffffffffff1661119c610ef5565b73ffffffffffffffffffffffffffffffffffffffff16146111f2576040517f08c379a00000000000000000000000000000000000000000000000000000000081526004016111e990612f51565b60405180910390fd5b600073ffffffffffffffffffffffffffffffffffffffff168173ffffffffffffffffffffffffffffffffffffffff1603611261576040517f08c379a000000000000000000000000000000000000000000000000000000000815260040161125890613043565b60405180910390fd5b61126a81612065565b50565b600160009054906101000a900473ffffffffffffffffffffffffffffffffffffffff1681565b600080429050600160068111156112ad576112ac6126ea565b5b600560009054906101000a900460ff1660068111156112cf576112ce6126ea565b5b1480156112e95750603c6003546112e69190612a0f565b81115b80156112f6575060045481105b15611327576002600560006101000a81548160ff02191690836006811115611321576113206126ea565b5b02179055505b6002600681111561133b5761133a6126ea565b5b600560009054906101000a900460ff16600681111561135d5761135c6126ea565b5b1461136c57600291505061181c565b6000831161137e57600191505061181c565b6000600160009054906101000a900473ffffffffffffffffffffffffffffffffffffffff1673ffffffffffffffffffffffffffffffffffffffff1663313ce5676040518163ffffffff1660e01b8152600401602060405180830381865afa1580156113ed573d6000803e3d6000fd5b505050506040513d601f19601f820116820180604052508101906114119190612c77565b600a61141d9190612dd7565b9050600160009054906101000a900473ffffffffffffffffffffffffffffffffffffffff1673ffffffffffffffffffffffffffffffffffffffff166323b872dd86306114698589611858565b6040518463ffffffff1660e01b815260040161148793929190613063565b6020604051808303816000875af11580156114a6573d6000803e3d6000fd5b505050506040513d601f19601f820116820180604052508101906114ca9190612e77565b5060005b84811015611575576009869080600181540180825580915050600190039060005260206000200160009091909190916101000a81548173ffffffffffffffffffffffffffffffffffffffff021916908373ffffffffffffffffffffffffffffffffffffffff160217905550600a439080600181540180825580915050600190039060005260206000200160009091909190915055808061156d9061309a565b9150506114ce565b50600860008673ffffffffffffffffffffffffffffffffffffffff1673ffffffffffffffffffffffffffffffffffffffff16815260200190815260200160002060020160009054906101000a900460ff16611736576040518060a001604052808673ffffffffffffffffffffffffffffffffffffffff1681526020016000815260200160011515815260200142815260200143815250600860008773ffffffffffffffffffffffffffffffffffffffff1673ffffffffffffffffffffffffffffffffffffffff16815260200190815260200160002060008201518160000160006101000a81548173ffffffffffffffffffffffffffffffffffffffff021916908373ffffffffffffffffffffffffffffffffffffffff1602179055506020820151816001015560408201518160020160006101000a81548160ff02191690831515021790555060608201518160030155608082015181600401559050506007859080600181540180825580915050600190039060005260206000200160009091909190916101000a81548173ffffffffffffffffffffffffffffffffffffffff021916908373ffffffffffffffffffffffffffffffffffffffff1602179055505b611782600860008773ffffffffffffffffffffffffffffffffffffffff1673ffffffffffffffffffffffffffffffffffffffff1681526020019081526020016000206001015485612129565b600860008773ffffffffffffffffffffffffffffffffffffffff1673ffffffffffffffffffffffffffffffffffffffff168152602001908152602001600020600101819055507fd755b6433b8fc2eed90a53dff0d71bbe5f026d44a1e230fea6c1e1a262c41a218585600160149054906101000a900463ffffffff1660405161180d939291906130e2565b60405180910390a16000925050505b92915050565b60004442600960405160200161183a93929190613258565b6040516020818303038152906040528051906020012060001c905090565b600061189a83836040518060400160405280601781526020017f6d756c7469706c69636174696f6e206f766572666c6f77000000000000000000815250612173565b905092915050565b6000806000600160009054906101000a900473ffffffffffffffffffffffffffffffffffffffff1673ffffffffffffffffffffffffffffffffffffffff166370a08231306040518263ffffffff1660e01b815260040161190291906125dd565b602060405180830381865afa15801561191f573d6000803e3d6000fd5b505050506040513d601f19601f820116820180604052508101906119439190612c11565b90506000811161195a576000809250925050612059565b600061196f60065461196a610ff1565b611858565b9050808211611a2e57600160009054906101000a900473ffffffffffffffffffffffffffffffffffffffff1673ffffffffffffffffffffffffffffffffffffffff1663a9059cbb6119be610ef5565b836040518363ffffffff1660e01b81526004016119dc929190612e22565b6020604051808303816000875af11580156119fb573d6000803e3d6000fd5b505050506040513d601f19601f82011682018060405250810190611a1f9190612e77565b50816000935093505050612059565b60008183611a3c9190613291565b9050600060086000600b60009054906101000a900473ffffffffffffffffffffffffffffffffffffffff1673ffffffffffffffffffffffffffffffffffffffff1673ffffffffffffffffffffffffffffffffffffffff16815260200190815260200160002060010154600980549050611ab59190613291565b90506000811115611e45576000611acc83836121fe565b905060005b600780549050811015611cee57600b60009054906101000a900473ffffffffffffffffffffffffffffffffffffffff1673ffffffffffffffffffffffffffffffffffffffff1660078281548110611b2b57611b2a612bcd565b5b9060005260206000200160009054906101000a900473ffffffffffffffffffffffffffffffffffffffff1673ffffffffffffffffffffffffffffffffffffffff160315611cdb57600160009054906101000a900473ffffffffffffffffffffffffffffffffffffffff1673ffffffffffffffffffffffffffffffffffffffff1663a9059cbb60078381548110611bc457611bc3612bcd565b5b9060005260206000200160009054906101000a900473ffffffffffffffffffffffffffffffffffffffff16611c796008600060078781548110611c0a57611c09612bcd565b5b9060005260206000200160009054906101000a900473ffffffffffffffffffffffffffffffffffffffff1673ffffffffffffffffffffffffffffffffffffffff1673ffffffffffffffffffffffffffffffffffffffff1681526020019081526020016000206001015486611858565b6040518363ffffffff1660e01b8152600401611c96929190612e22565b6020604051808303816000875af1158015611cb5573d6000803e3d6000fd5b505050506040513d601f19601f82011682018060405250810190611cd99190612e77565b505b8080611ce69061309a565b915050611ad1565b50600160009054906101000a900473ffffffffffffffffffffffffffffffffffffffff1673ffffffffffffffffffffffffffffffffffffffff166370a08231306040518263ffffffff1660e01b8152600401611d4a91906125dd565b602060405180830381865afa158015611d67573d6000803e3d6000fd5b505050506040513d601f19601f82011682018060405250810190611d8b9190612c11565b9450600160009054906101000a900473ffffffffffffffffffffffffffffffffffffffff1673ffffffffffffffffffffffffffffffffffffffff1663a9059cbb611dd3610ef5565b876040518363ffffffff1660e01b8152600401611df1929190612e22565b6020604051808303816000875af1158015611e10573d6000803e3d6000fd5b505050506040513d601f19601f82011682018060405250810190611e349190612e77565b508481965096505050505050612059565b600160009054906101000a900473ffffffffffffffffffffffffffffffffffffffff1673ffffffffffffffffffffffffffffffffffffffff1663a9059cbb611e8b610ef5565b856040518363ffffffff1660e01b8152600401611ea9929190612e22565b6020604051808303816000875af1158015611ec8573d6000803e3d6000fd5b505050506040513d601f19601f82011682018060405250810190611eec9190612e77565b50600160009054906101000a900473ffffffffffffffffffffffffffffffffffffffff1673ffffffffffffffffffffffffffffffffffffffff166370a08231306040518263ffffffff1660e01b8152600401611f4891906125dd565b602060405180830381865afa158015611f65573d6000803e3d6000fd5b505050506040513d601f19601f82011682018060405250810190611f899190612c11565b9350600160009054906101000a900473ffffffffffffffffffffffffffffffffffffffff1673ffffffffffffffffffffffffffffffffffffffff1663a9059cbb600b60009054906101000a900473ffffffffffffffffffffffffffffffffffffffff16866040518363ffffffff1660e01b815260040161200a929190612e22565b6020604051808303816000875af1158015612029573d6000803e3d6000fd5b505050506040513d601f19601f8201168201806040525081019061204d9190612e77565b50828495509550505050505b9091565b600033905090565b60008060009054906101000a900473ffffffffffffffffffffffffffffffffffffffff169050816000806101000a81548173ffffffffffffffffffffffffffffffffffffffff021916908373ffffffffffffffffffffffffffffffffffffffff1602179055508173ffffffffffffffffffffffffffffffffffffffff168173ffffffffffffffffffffffffffffffffffffffff167f8be0079c531659141344cd1fd0a4f28419497f9722a3daafe3b4186f6b6457e060405160405180910390a35050565b600061216b83836040518060400160405280601181526020017f6164646974696f6e206f766572666c6f77000000000000000000000000000000815250612248565b905092915050565b6000808414806121835750600083145b1561219157600090506121f7565b6000838561219f91906132c5565b90508385826121ae919061331f565b1483906121f1576040517f08c379a00000000000000000000000000000000000000000000000000000000081526004016121e891906126c8565b60405180910390fd5b50809150505b9392505050565b600061224083836040518060400160405280600e81526020017f646976696465206279207a65726f0000000000000000000000000000000000008152506122ab565b905092915050565b60008083856122579190612a0f565b905084811015839061229f576040517f08c379a000000000000000000000000000000000000000000000000000000000815260040161229691906126c8565b60405180910390fd5b50809150509392505050565b600080831182906122f2576040517f08c379a00000000000000000000000000000000000000000000000000000000081526004016122e991906126c8565b60405180910390fd5b5082846122ff919061331f565b90509392505050565b600081519050919050565b600082825260208201905092915050565b6000819050602082019050919050565b600073ffffffffffffffffffffffffffffffffffffffff82169050919050565b600061235f82612334565b9050919050565b61236f81612354565b82525050565b60006123818383612366565b60208301905092915050565b6000602082019050919050565b60006123a582612308565b6123af8185612313565b93506123ba83612324565b8060005b838110156123eb5781516123d28882612375565b97506123dd8361238d565b9250506001810190506123be565b5085935050505092915050565b60006020820190508181036000830152612412818461239a565b905092915050565b6000819050919050565b61242d8161241a565b82525050565b60006020820190506124486000830184612424565b92915050565b600080fd5b61245c8161241a565b811461246757600080fd5b50565b60008135905061247981612453565b92915050565b6000602082840312156124955761249461244e565b5b60006124a38482850161246a565b91505092915050565b6124b581612354565b81146124c057600080fd5b50565b6000813590506124d2816124ac565b92915050565b6000602082840312156124ee576124ed61244e565b5b60006124fc848285016124c3565b91505092915050565b61250e81612354565b82525050565b60008115159050919050565b61252981612514565b82525050565b600060a0820190506125446000830188612505565b6125516020830187612424565b61255e6040830186612520565b61256b6060830185612424565b6125786080830184612424565b9695505050505050565b600080604083850312156125995761259861244e565b5b60006125a7858286016124c3565b92505060206125b88582860161246a565b9150509250929050565b60006020820190506125d76000830184612520565b92915050565b60006020820190506125f26000830184612505565b92915050565b600060608201905061260d6000830186612424565b61261a6020830185612424565b6126276040830184612424565b949350505050565b600081519050919050565b600082825260208201905092915050565b60005b8381101561266957808201518184015260208101905061264e565b83811115612678576000848401525b50505050565b6000601f19601f8301169050919050565b600061269a8261262f565b6126a4818561263a565b93506126b481856020860161264b565b6126bd8161267e565b840191505092915050565b600060208201905081810360008301526126e2818461268f565b905092915050565b7f4e487b7100000000000000000000000000000000000000000000000000000000600052602160045260246000fd5b6007811061272a576127296126ea565b5b50565b600081905061273b82612719565b919050565b600061274b8261272d565b9050919050565b61275b81612740565b82525050565b60006020820190506127766000830184612752565b92915050565b600063ffffffff82169050919050565b6127958161277c565b82525050565b60006020820190506127b0600083018461278c565b92915050565b6000819050919050565b60006127db6127d66127d184612334565b6127b6565b612334565b9050919050565b60006127ed826127c0565b9050919050565b60006127ff826127e2565b9050919050565b61280f816127f4565b82525050565b600060208201905061282a6000830184612806565b92915050565b7f6a6f696e206661696c6564000000000000000000000000000000000000000000600082015250565b6000612866600b8361263a565b915061287182612830565b602082019050919050565b6000602082019050818103600083015261289581612859565b9050919050565b7f6a6f696e206661696c6564200000000000000000000000000000000000000000600082015250565b60006128d2600c8361263a565b91506128dd8261289c565b602082019050919050565b60006020820190508181036000830152612901816128c5565b9050919050565b7f636f6d7074726f6c6c6572206973206e6f7420656d7074790000000000000000600082015250565b600061293e60188361263a565b915061294982612908565b602082019050919050565b6000602082019050818103600083015261296d81612931565b9050919050565b7f7069636b2077696e6e6572206861642066696e69736865640000000000000000600082015250565b60006129aa60188361263a565b91506129b582612974565b602082019050919050565b600060208201905081810360008301526129d98161299d565b9050919050565b7f4e487b7100000000000000000000000000000000000000000000000000000000600052601160045260246000fd5b6000612a1a8261241a565b9150612a258361241a565b9250827fffffffffffffffffffffffffffffffffffffffffffffffffffffffffffffffff03821115612a5a57612a596129e0565b5b828201905092915050565b7f63616e206e6f74207069636b2077696e6e657200000000000000000000000000600082015250565b6000612a9b60138361263a565b9150612aa682612a65565b602082019050919050565b60006020820190508181036000830152612aca81612a8e565b9050919050565b6000819050919050565b6000612af6612af1612aec84612ad1565b6127b6565b61241a565b9050919050565b612b0681612adb565b82525050565b600060c082019050612b216000830189612505565b612b2e6020830188612424565b612b3b6040830187612afd565b612b486060830186612afd565b612b556080830185612afd565b612b6260a0830184612afd565b979650505050505050565b7f4e487b7100000000000000000000000000000000000000000000000000000000600052601260045260246000fd5b6000612ba78261241a565b9150612bb28361241a565b925082612bc257612bc1612b6d565b5b828206905092915050565b7f4e487b7100000000000000000000000000000000000000000000000000000000600052603260045260246000fd5b600081519050612c0b81612453565b92915050565b600060208284031215612c2757612c2661244e565b5b6000612c3584828501612bfc565b91505092915050565b600060ff82169050919050565b612c5481612c3e565b8114612c5f57600080fd5b50565b600081519050612c7181612c4b565b92915050565b600060208284031215612c8d57612c8c61244e565b5b6000612c9b84828501612c62565b91505092915050565b60008160011c9050919050565b6000808291508390505b6001851115612cfb57808604811115612cd757612cd66129e0565b5b6001851615612ce65780820291505b8081029050612cf485612ca4565b9450612cbb565b94509492505050565b600082612d145760019050612dd0565b81612d225760009050612dd0565b8160018114612d385760028114612d4257612d71565b6001915050612dd0565b60ff841115612d5457612d536129e0565b5b8360020a915084821115612d6b57612d6a6129e0565b5b50612dd0565b5060208310610133831016604e8410600b8410161715612da65782820a905083811115612da157612da06129e0565b5b612dd0565b612db38484846001612cb1565b92509050818404811115612dca57612dc96129e0565b5b81810290505b9392505050565b6000612de28261241a565b9150612ded83612c3e565b9250612e1a7fffffffffffffffffffffffffffffffffffffffffffffffffffffffffffffffff8484612d04565b905092915050565b6000604082019050612e376000830185612505565b612e446020830184612424565b9392505050565b612e5481612514565b8114612e5f57600080fd5b50565b600081519050612e7181612e4b565b92915050565b600060208284031215612e8d57612e8c61244e565b5b6000612e9b84828501612e62565b91505092915050565b600060c082019050612eb96000830189612505565b612ec66020830188612424565b612ed36040830187612424565b612ee06060830186612424565b612eed6080830185612afd565b612efa60a0830184612424565b979650505050505050565b7f4f776e61626c653a2063616c6c6572206973206e6f7420746865206f776e6572600082015250565b6000612f3b60208361263a565b9150612f4682612f05565b602082019050919050565b60006020820190508181036000830152612f6a81612f2e565b9050919050565b7f4e487b7100000000000000000000000000000000000000000000000000000000600052602260045260246000fd5b60006002820490506001821680612fb857607f821691505b602082108103612fcb57612fca612f71565b5b50919050565b7f4f776e61626c653a206e6577206f776e657220697320746865207a65726f206160008201527f6464726573730000000000000000000000000000000000000000000000000000602082015250565b600061302d60268361263a565b915061303882612fd1565b604082019050919050565b6000602082019050818103600083015261305c81613020565b9050919050565b60006060820190506130786000830186612505565b6130856020830185612505565b6130926040830184612424565b949350505050565b60006130a58261241a565b91507fffffffffffffffffffffffffffffffffffffffffffffffffffffffffffffffff82036130d7576130d66129e0565b5b600182019050919050565b60006060820190506130f76000830186612505565b6131046020830185612424565b613111604083018461278c565b949350505050565b6000819050919050565b61313461312f8261241a565b613119565b82525050565b600081549050919050565b600081905092915050565b60008190508160005260206000209050919050565b61316e81612354565b82525050565b60006131808383613165565b60208301905092915050565b60008160001c9050919050565b600073ffffffffffffffffffffffffffffffffffffffff82169050919050565b60006131cc6131c78361318c565b613199565b9050919050565b60006131df82546131b9565b9050919050565b6000600182019050919050565b60006131fe8261313a565b6132088185613145565b935061321383613150565b8060005b8381101561324b57613228826131d3565b6132328882613174565b975061323d836131e6565b925050600181019050613217565b5085935050505092915050565b60006132648286613123565b6020820191506132748285613123565b60208201915061328482846131f3565b9150819050949350505050565b600061329c8261241a565b91506132a78361241a565b9250828210156132ba576132b96129e0565b5b828203905092915050565b60006132d08261241a565b91506132db8361241a565b9250817fffffffffffffffffffffffffffffffffffffffffffffffffffffffffffffffff0483118215151615613314576133136129e0565b5b828202905092915050565b600061332a8261241a565b91506133358361241a565b92508261334557613344612b6d565b5b82820490509291505056fea26469706673582212205247861ec3559c2f677642c0ea9966165e588f2f154230acac2a6dbae38027c964736f6c634300080d0033",
  "immutableReferences": {},
  "source": "// SPDX-License-Identifier: MIT\npragma solidity >=0.4.22 <0.9.0;\n\nimport \"@openzeppelin/contracts/access/Ownable.sol\";\nimport \"@openzeppelin/contracts/token/ERC20/IERC20.sol\";\nimport \"@openzeppelin/contracts/token/ERC20/extensions/IERC20Metadata.sol\";\n\nimport \"./Exponential.sol\";\nimport \"./ComptrollerInterface.sol\";\n\ncontract GoodLottery is Ownable, Exponential {\n    bool public constant isGoodLottery = true;\n\n    enum Error {\n        NO_ERROR,\n        INVALID_PARAMETER,\n        INVALID_STATUS\n    }\n\n    enum Stage {\n        NONE,\n        INIT,\n        CAN_JOIN,\n        LOCKED,\n        IN_PICK,\n        FINISHED,\n        FAILED\n    }\n\n    struct UserRecord {\n        address user;\n        uint256 count;\n        bool isJoined;\n        uint joinTime;\n        uint joinBlockNum;\n    }\n\n    struct WinnerTime {\n        uint blockNum;\n        uint blockTime;\n        uint index;\n    }\n\n    event JoinSuccessful(address user, uint256 amount, uint32 goodId);\n    event LotteryComplete(\n        address user,\n        uint256 totalBalance,\n        uint256 priceValue,\n        uint256 mf,\n        uint256 burned,\n        uint256 paybackUnit\n    );\n\n    IERC20 public token;\n    uint32 public goodId;\n    uint256 public goodValue;\n    uint256 public publishTime;\n    uint256 public lockedTime;\n    Stage public stage = Stage.NONE;\n\n    uint256 public maintenanceFee;\n\n    address[] public userList;\n    mapping(address => UserRecord) public userMapping;\n    address[] public tickets;\n    uint[] public ticketNums;\n\n    address public winner;\n    WinnerTime public winnerTime;\n    uint public paybackFee;\n\n    ComptrollerInterface comptroller;\n\n    string public goodHash;\n\n    constructor(\n        ComptrollerInterface _comptroller,\n        IERC20 _token,\n        uint32 _goodId,\n        uint256 _goodValue,\n        uint256 _maintenanceFee,\n        uint256 _publishTime,\n        uint256 _lockedTime,\n        string memory _goodHash\n    ) Ownable() {\n        initialize(\n            _comptroller,\n            _token,\n            _goodId,\n            _goodValue,\n            _maintenanceFee,\n            _publishTime,\n            _lockedTime,\n            _goodHash\n        );\n    }\n\n    function initialize(\n        ComptrollerInterface _comptroller,\n        IERC20 _token,\n        uint32 _goodId,\n        uint256 _goodValue,\n        uint256 _maintenanceFee,\n        uint256 _publishTime,\n        uint256 _lockedTime,\n        string memory _goodHash\n    ) internal {\n        require(stage == Stage.NONE, \"good had been initialized.\");\n        require(\n            _goodValue > 0 && _goodValue < 10000,\n            \"goods value must between 1 and 9999\"\n        );\n        goodId = _goodId;\n        goodValue = _goodValue;\n        publishTime = _publishTime;\n        lockedTime = _lockedTime;\n        token = _token;\n        comptroller = _comptroller;\n        stage = Stage.INIT;\n        maintenanceFee = _maintenanceFee;\n        goodHash = _goodHash;\n    }\n\n    function setLockedTime(uint256 _lockedTime) public onlyOwner {\n        lockedTime = _lockedTime;\n    }\n\n    function join(uint256 amount) public {\n        Error e = joinInternal(msg.sender, amount);\n        require(e == Error.NO_ERROR, \"join failed\");\n    }\n\n    function join(address user, uint256 amount) external {\n        Error e = joinInternal(user, amount);\n        require(e == Error.NO_ERROR, \"join failed \");\n    }\n\n    function joinInternal(address user, uint256 amount)\n        internal\n        returns (Error)\n    {\n        uint256 currentTime = block.timestamp;\n\n        if (\n            stage == Stage.INIT &&\n            currentTime > publishTime + (1 minutes) &&\n            currentTime < lockedTime\n        ) {\n            stage = Stage.CAN_JOIN;\n        }\n\n        if (stage != Stage.CAN_JOIN) {\n            return Error.INVALID_STATUS;\n        }\n\n        if (amount <= 0) {\n            return Error.INVALID_PARAMETER;\n        }\n\n        uint256 decimal = 10**IERC20Metadata(address(token)).decimals();\n\n        token.transferFrom(user, address(this), mul_(decimal, amount));\n\n        for (uint256 i = 0; i < amount; i++) {\n            tickets.push(user);\n            ticketNums.push(block.number);\n        }\n\n        if (!userMapping[user].isJoined) {\n            userMapping[user] = UserRecord({\n                user: user,\n                count: 0,\n                isJoined: true, \n                joinTime: block.timestamp,\n                joinBlockNum: block.number\n            });\n            userList.push(user);\n        }\n\n        userMapping[user].count = add_(userMapping[user].count, amount);\n\n        emit JoinSuccessful(user, amount, goodId);\n\n        return Error.NO_ERROR;\n    }\n\n    function pickWinner() public {\n        require(address(comptroller) != address(0), \"comptroller is not empty\");\n        require(\n            stage != Stage.FINISHED && stage != Stage.FAILED,\n            \"pick winner had finished\"\n        );\n        require(\n            block.timestamp >= lockedTime + 10 minutes,\n            \"can not pick winner\"\n        );\n        if (tickets.length == 0) {\n            stage = Stage.FAILED;\n            emit LotteryComplete(winner, goodValue, 0, 0, 0, 0);\n            return;\n        }\n\n        stage = Stage.IN_PICK;\n\n        uint256 index = random() % tickets.length;\n\n        winner = tickets[index];\n\n        comptroller.pickWinnerAllowed(address(this));\n\n        uint256 balance = token.balanceOf(address(this));\n        uint256 decimal = 10**IERC20Metadata(address(token)).decimals();\n        uint256 winnerValue = mul_(goodValue, decimal);\n\n        uint256 mf = 0;\n        uint256 paybackUnit = 0;\n        token.transfer(winner, winnerValue);\n        (mf, paybackUnit) = paybackBalance();\n\n        winnerTime = WinnerTime({\n            blockNum: block.number,\n            blockTime: block.timestamp, \n            index: index\n            });\n\n        stage = Stage.FINISHED;\n        paybackFee = paybackUnit;\n\n        emit LotteryComplete(winner, goodValue, balance, mf, 0, paybackUnit);\n    }\n\n    function paybackBalance() internal returns (uint256, uint256) {\n        uint256 balance = token.balanceOf(address(this));\n        if (balance <= 0) {\n            return (0, 0);\n        }\n        uint256 mf = mul_(maintenanceFee, getTokenExchangeRate());\n        if (balance <= mf) {\n            token.transfer(owner(), mf);\n            return (balance, 0);\n        }\n\n        uint256 needPaybakcBalance = balance - mf;\n        uint256 winnerCount = tickets.length - userMapping[winner].count;\n        if(winnerCount > 0) {\n            uint paybackUnit = div_(needPaybakcBalance, winnerCount);\n\n            for (uint256 i = 0; i < userList.length; i++) {\n                if (userList[i] == winner) {\n                    continue;\n                }\n\n                token.transfer(\n                    userList[i],\n                    mul_(userMapping[userList[i]].count, paybackUnit)\n                );\n            }\n            balance = token.balanceOf(address(this));\n            token.transfer(owner(), balance);\n            return (balance, paybackUnit);\n        } else {\n            token.transfer(owner(), mf);\n            balance = token.balanceOf(address(this));\n            token.transfer(winner, balance);\n            return (mf, balance);\n        }\n\n    }\n\n    function random() internal view returns (uint256) {\n        return\n            uint256(\n                keccak256(\n                    abi.encodePacked(block.difficulty, block.timestamp, tickets)\n                )\n            );\n    }\n\n    function getTokenExchangeRate() public view returns (uint256) {\n        return 10**IERC20Metadata(address(token)).decimals();\n    }\n\n    function getUsers() public view returns (address[] memory) {\n        address[] memory us = userList;\n        return us;\n    }\n\n    function getTickets() public view returns (address[] memory) {\n        address[] memory tk = tickets;\n        return tk;\n    }\n\n}\n",
  "sourcePath": "/Users/jonah/SolidityProject/makewish-contract/contracts/GoodLottery.sol",
  "compiler": {
    "name": "solc",
    "version": "0.8.13+commit.abaa5c0e.Emscripten.clang"
  },
  "schemaVersion": "3.4.7",
  "updatedAt": "2022-05-25T11:34:46.062Z",
  "devdoc": {
    "kind": "dev",
    "methods": {
      "owner()": {
        "details": "Returns the address of the current owner."
      },
      "renounceOwnership()": {
        "details": "Leaves the contract without owner. It will not be possible to call `onlyOwner` functions anymore. Can only be called by the current owner. NOTE: Renouncing ownership will leave the contract without an owner, thereby removing any functionality that is only available to the owner."
      },
      "transferOwnership(address)": {
        "details": "Transfers ownership of the contract to a new account (`newOwner`). Can only be called by the current owner."
      }
    },
    "version": 1
  },
  "userdoc": {
    "kind": "user",
    "methods": {},
    "version": 1
  }
}