{
  "contractName": "GoodStorage",
  "abi": [
    {
      "anonymous": false,
      "inputs": [
        {
          "indexed": false,
          "internalType": "address",
          "name": "user",
          "type": "address"
        },
        {
          "indexed": false,
          "internalType": "uint256",
          "name": "amount",
          "type": "uint256"
        },
        {
          "indexed": false,
          "internalType": "uint32",
          "name": "goodId",
          "type": "uint32"
        }
      ],
      "name": "JoinSuccessful",
      "type": "event"
    },
    {
      "anonymous": false,
      "inputs": [
        {
          "indexed": false,
          "internalType": "address",
          "name": "user",
          "type": "address"
        },
        {
          "indexed": false,
          "internalType": "uint256",
          "name": "totalBalance",
          "type": "uint256"
        },
        {
          "indexed": false,
          "internalType": "uint256",
          "name": "priceValue",
          "type": "uint256"
        },
        {
          "indexed": false,
          "internalType": "uint256",
          "name": "mf",
          "type": "uint256"
        },
        {
          "indexed": false,
          "internalType": "uint256",
          "name": "burned",
          "type": "uint256"
        },
        {
          "indexed": false,
          "internalType": "uint256",
          "name": "paybackUnit",
          "type": "uint256"
        }
      ],
      "name": "LotteryComplete",
      "type": "event"
    },
    {
      "inputs": [],
      "name": "goodHash",
      "outputs": [
        {
          "internalType": "string",
          "name": "",
          "type": "string"
        }
      ],
      "stateMutability": "view",
      "type": "function"
    },
    {
      "inputs": [],
      "name": "goodId",
      "outputs": [
        {
          "internalType": "uint32",
          "name": "",
          "type": "uint32"
        }
      ],
      "stateMutability": "view",
      "type": "function"
    },
    {
      "inputs": [],
      "name": "goodValue",
      "outputs": [
        {
          "internalType": "uint256",
          "name": "",
          "type": "uint256"
        }
      ],
      "stateMutability": "view",
      "type": "function"
    },
    {
      "inputs": [],
      "name": "isGoodLottery",
      "outputs": [
        {
          "internalType": "bool",
          "name": "",
          "type": "bool"
        }
      ],
      "stateMutability": "view",
      "type": "function"
    },
    {
      "inputs": [],
      "name": "joinedUsers",
      "outputs": [
        {
          "internalType": "uint256",
          "name": "",
          "type": "uint256"
        }
      ],
      "stateMutability": "view",
      "type": "function"
    },
    {
      "inputs": [],
      "name": "lockedTime",
      "outputs": [
        {
          "internalType": "uint256",
          "name": "",
          "type": "uint256"
        }
      ],
      "stateMutability": "view",
      "type": "function"
    },
    {
      "inputs": [],
      "name": "maintenanceFee",
      "outputs": [
        {
          "internalType": "uint256",
          "name": "",
          "type": "uint256"
        }
      ],
      "stateMutability": "view",
      "type": "function"
    },
    {
      "inputs": [],
      "name": "paybackFee",
      "outputs": [
        {
          "internalType": "uint256",
          "name": "",
          "type": "uint256"
        }
      ],
      "stateMutability": "view",
      "type": "function"
    },
    {
      "inputs": [],
      "name": "publishTime",
      "outputs": [
        {
          "internalType": "uint256",
          "name": "",
          "type": "uint256"
        }
      ],
      "stateMutability": "view",
      "type": "function"
    },
    {
      "inputs": [
        {
          "internalType": "uint256",
          "name": "",
          "type": "uint256"
        }
      ],
      "name": "ticketNums",
      "outputs": [
        {
          "internalType": "uint256",
          "name": "",
          "type": "uint256"
        }
      ],
      "stateMutability": "view",
      "type": "function"
    },
    {
      "inputs": [
        {
          "internalType": "uint256",
          "name": "",
          "type": "uint256"
        }
      ],
      "name": "tickets",
      "outputs": [
        {
          "internalType": "address",
          "name": "",
          "type": "address"
        }
      ],
      "stateMutability": "view",
      "type": "function"
    },
    {
      "inputs": [],
      "name": "token",
      "outputs": [
        {
          "internalType": "contract IERC20",
          "name": "",
          "type": "address"
        }
      ],
      "stateMutability": "view",
      "type": "function"
    },
    {
      "inputs": [
        {
          "internalType": "address",
          "name": "",
          "type": "address"
        },
        {
          "internalType": "uint256",
          "name": "",
          "type": "uint256"
        }
      ],
      "name": "userJoinRecordIndex",
      "outputs": [
        {
          "internalType": "uint256",
          "name": "",
          "type": "uint256"
        }
      ],
      "stateMutability": "view",
      "type": "function"
    },
    {
      "inputs": [
        {
          "internalType": "uint256",
          "name": "",
          "type": "uint256"
        }
      ],
      "name": "userJoinRecords",
      "outputs": [
        {
          "internalType": "address",
          "name": "user",
          "type": "address"
        },
        {
          "internalType": "uint256",
          "name": "startIndex",
          "type": "uint256"
        },
        {
          "internalType": "uint256",
          "name": "count",
          "type": "uint256"
        },
        {
          "internalType": "uint256",
          "name": "joinTime",
          "type": "uint256"
        },
        {
          "internalType": "uint256",
          "name": "joinBlockNum",
          "type": "uint256"
        }
      ],
      "stateMutability": "view",
      "type": "function"
    },
    {
      "inputs": [
        {
          "internalType": "address",
          "name": "",
          "type": "address"
        }
      ],
      "name": "userMapping",
      "outputs": [
        {
          "internalType": "address",
          "name": "user",
          "type": "address"
        },
        {
          "internalType": "uint256",
          "name": "count",
          "type": "uint256"
        },
        {
          "internalType": "bool",
          "name": "isJoined",
          "type": "bool"
        },
        {
          "internalType": "bool",
          "name": "isPaybacked",
          "type": "bool"
        },
        {
          "internalType": "uint256",
          "name": "joinTime",
          "type": "uint256"
        },
        {
          "internalType": "uint256",
          "name": "joinBlockNum",
          "type": "uint256"
        }
      ],
      "stateMutability": "view",
      "type": "function"
    },
    {
      "inputs": [],
      "name": "winner",
      "outputs": [
        {
          "internalType": "address",
          "name": "",
          "type": "address"
        }
      ],
      "stateMutability": "view",
      "type": "function"
    },
    {
      "inputs": [],
      "name": "winnerTime",
      "outputs": [
        {
          "internalType": "uint256",
          "name": "blockNum",
          "type": "uint256"
        },
        {
          "internalType": "uint256",
          "name": "blockTime",
          "type": "uint256"
        },
        {
          "internalType": "uint256",
          "name": "index",
          "type": "uint256"
        }
      ],
      "stateMutability": "view",
      "type": "function"
    },
    {
      "inputs": [],
      "name": "getTokenExchangeRate",
      "outputs": [
        {
          "internalType": "uint256",
          "name": "",
          "type": "uint256"
        }
      ],
      "stateMutability": "view",
      "type": "function"
    },
    {
      "inputs": [],
      "name": "getTickets",
      "outputs": [
        {
          "internalType": "address[]",
          "name": "",
          "type": "address[]"
        }
      ],
      "stateMutability": "view",
      "type": "function"
    },
    {
      "inputs": [],
      "name": "getUserJoinRecords",
      "outputs": [
        {
          "components": [
            {
              "internalType": "address",
              "name": "user",
              "type": "address"
            },
            {
              "internalType": "uint256",
              "name": "startIndex",
              "type": "uint256"
            },
            {
              "internalType": "uint256",
              "name": "count",
              "type": "uint256"
            },
            {
              "internalType": "uint256",
              "name": "joinTime",
              "type": "uint256"
            },
            {
              "internalType": "uint256",
              "name": "joinBlockNum",
              "type": "uint256"
            }
          ],
          "internalType": "struct GoodInterface.UserJoinRecord[]",
          "name": "record",
          "type": "tuple[]"
        }
      ],
      "stateMutability": "view",
      "type": "function"
    },
    {
      "inputs": [
        {
          "internalType": "address",
          "name": "user",
          "type": "address"
        }
      ],
      "name": "getUserJoinRecordIndexs",
      "outputs": [
        {
          "internalType": "uint256[]",
          "name": "record",
          "type": "uint256[]"
        }
      ],
      "stateMutability": "view",
      "type": "function"
    }
  ],
  "bytecode": "0x6080604052600060095534801561001557600080fd5b5061132c806100256000396000f3fe608060405234801561001057600080fd5b50600436106101375760003560e01c8063a8b38205116100b8578063d180b7441161007c578063d180b74414610351578063df4c0ab114610381578063dfbf53ae1461039f578063e467fa80146103bd578063eecf801e146103db578063fc0c546a1461040b57610137565b8063a8b38205146102bb578063a9135d17146102d9578063c01d1c60146102f7578063c15e296b14610315578063c379b4be1461033357610137565b80633f0e9016116100ff5780633f0e9016146101fb5780634ed026221461021957806350b44712146102375780637676d2351461026757806393a3ffe91461028757610137565b8063046604491461013c578063118b95351461015a5780631bbf17c51461018f5780632e40945e146101ad5780633d98fc17146101dd575b600080fd5b610144610429565b604051610151919061098c565b60405180910390f35b610174600480360381019061016f9190610a0a565b61042f565b60405161018696959493929190610a61565b60405180910390f35b6101976104a5565b6040516101a4919061098c565b60405180910390f35b6101c760048036038101906101c29190610aee565b6104ab565b6040516101d4919061098c565b60405180910390f35b6101e56104cf565b6040516101f29190610b1b565b60405180910390f35b6102036104d4565b6040516102109190610c6b565b60405180910390f35b6102216105b1565b60405161022e9190610d3c565b60405180910390f35b610251600480360381019061024c9190610aee565b610645565b60405161025e9190610d5e565b60405180910390f35b61026f610684565b60405161027e93929190610d79565b60405180910390f35b6102a1600480360381019061029c9190610aee565b61069c565b6040516102b2959493929190610db0565b60405180910390f35b6102c3610702565b6040516102d0919061098c565b60405180910390f35b6102e1610708565b6040516102ee9190610e9c565b60405180910390f35b6102ff610796565b60405161030c919061098c565b60405180910390f35b61031d610839565b60405161032a919061098c565b60405180910390f35b61033b61083f565b604051610348919061098c565b60405180910390f35b61036b60048036038101906103669190610ebe565b610845565b604051610378919061098c565b60405180910390f35b610389610876565b6040516103969190610f1d565b60405180910390f35b6103a761088c565b6040516103b49190610d5e565b60405180910390f35b6103c56108b2565b6040516103d2919061098c565b60405180910390f35b6103f560048036038101906103f09190610a0a565b6108b8565b6040516104029190610fe7565b60405180910390f35b61041361094f565b6040516104209190611068565b60405180910390f35b60055481565b60066020528060005260406000206000915090508060000160009054906101000a900473ffffffffffffffffffffffffffffffffffffffff16908060010154908060020160009054906101000a900460ff16908060020160019054906101000a900460ff16908060030154908060040154905086565b600d5481565b600b81815481106104bb57600080fd5b906000526020600020016000915090505481565b600181565b60606008805480602002602001604051908101604052809291908181526020016000905b828210156105a857838290600052602060002090600502016040518060a00160405290816000820160009054906101000a900473ffffffffffffffffffffffffffffffffffffffff1673ffffffffffffffffffffffffffffffffffffffff1673ffffffffffffffffffffffffffffffffffffffff168152602001600182015481526020016002820154815260200160038201548152602001600482015481525050815260200190600101906104f8565b50505050905090565b60606000600a80548060200260200160405190810160405280929190818152602001828054801561063757602002820191906000526020600020905b8160009054906101000a900473ffffffffffffffffffffffffffffffffffffffff1673ffffffffffffffffffffffffffffffffffffffff16815260200190600101908083116105ed575b505050505090508091505090565b600a818154811061065557600080fd5b906000526020600020016000915054906101000a900473ffffffffffffffffffffffffffffffffffffffff1681565b600e8060000154908060010154908060020154905083565b600881815481106106ac57600080fd5b90600052602060002090600502016000915090508060000160009054906101000a900473ffffffffffffffffffffffffffffffffffffffff16908060010154908060020154908060030154908060040154905085565b60035481565b60048054610715906110b2565b80601f0160208091040260200160405190810160405280929190818152602001828054610741906110b2565b801561078e5780601f106107635761010080835404028352916020019161078e565b820191906000526020600020905b81548152906001019060200180831161077157829003601f168201915b505050505081565b60008060009054906101000a900473ffffffffffffffffffffffffffffffffffffffff1673ffffffffffffffffffffffffffffffffffffffff1663313ce5676040518163ffffffff1660e01b8152600401602060405180830381865afa158015610804573d6000803e3d6000fd5b505050506040513d601f19601f82011682018060405250810190610828919061111c565b600a61083491906112ab565b905090565b60095481565b60015481565b6007602052816000526040600020818154811061086157600080fd5b90600052602060002001600091509150505481565b600060149054906101000a900463ffffffff1681565b600c60009054906101000a900473ffffffffffffffffffffffffffffffffffffffff1681565b60025481565b6060600760008373ffffffffffffffffffffffffffffffffffffffff1673ffffffffffffffffffffffffffffffffffffffff16815260200190815260200160002080548060200260200160405190810160405280929190818152602001828054801561094357602002820191906000526020600020905b81548152602001906001019080831161092f575b50505050509050919050565b60008054906101000a900473ffffffffffffffffffffffffffffffffffffffff1681565b6000819050919050565b61098681610973565b82525050565b60006020820190506109a1600083018461097d565b92915050565b600080fd5b600073ffffffffffffffffffffffffffffffffffffffff82169050919050565b60006109d7826109ac565b9050919050565b6109e7816109cc565b81146109f257600080fd5b50565b600081359050610a04816109de565b92915050565b600060208284031215610a2057610a1f6109a7565b5b6000610a2e848285016109f5565b91505092915050565b610a40816109cc565b82525050565b60008115159050919050565b610a5b81610a46565b82525050565b600060c082019050610a766000830189610a37565b610a83602083018861097d565b610a906040830187610a52565b610a9d6060830186610a52565b610aaa608083018561097d565b610ab760a083018461097d565b979650505050505050565b610acb81610973565b8114610ad657600080fd5b50565b600081359050610ae881610ac2565b92915050565b600060208284031215610b0457610b036109a7565b5b6000610b1284828501610ad9565b91505092915050565b6000602082019050610b306000830184610a52565b92915050565b600081519050919050565b600082825260208201905092915050565b6000819050602082019050919050565b610b6b816109cc565b82525050565b610b7a81610973565b82525050565b60a082016000820151610b966000850182610b62565b506020820151610ba96020850182610b71565b506040820151610bbc6040850182610b71565b506060820151610bcf6060850182610b71565b506080820151610be26080850182610b71565b50505050565b6000610bf48383610b80565b60a08301905092915050565b6000602082019050919050565b6000610c1882610b36565b610c228185610b41565b9350610c2d83610b52565b8060005b83811015610c5e578151610c458882610be8565b9750610c5083610c00565b925050600181019050610c31565b5085935050505092915050565b60006020820190508181036000830152610c858184610c0d565b905092915050565b600081519050919050565b600082825260208201905092915050565b6000819050602082019050919050565b6000610cc58383610b62565b60208301905092915050565b6000602082019050919050565b6000610ce982610c8d565b610cf38185610c98565b9350610cfe83610ca9565b8060005b83811015610d2f578151610d168882610cb9565b9750610d2183610cd1565b925050600181019050610d02565b5085935050505092915050565b60006020820190508181036000830152610d568184610cde565b905092915050565b6000602082019050610d736000830184610a37565b92915050565b6000606082019050610d8e600083018661097d565b610d9b602083018561097d565b610da8604083018461097d565b949350505050565b600060a082019050610dc56000830188610a37565b610dd2602083018761097d565b610ddf604083018661097d565b610dec606083018561097d565b610df9608083018461097d565b9695505050505050565b600081519050919050565b600082825260208201905092915050565b60005b83811015610e3d578082015181840152602081019050610e22565b83811115610e4c576000848401525b50505050565b6000601f19601f8301169050919050565b6000610e6e82610e03565b610e788185610e0e565b9350610e88818560208601610e1f565b610e9181610e52565b840191505092915050565b60006020820190508181036000830152610eb68184610e63565b905092915050565b60008060408385031215610ed557610ed46109a7565b5b6000610ee3858286016109f5565b9250506020610ef485828601610ad9565b9150509250929050565b600063ffffffff82169050919050565b610f1781610efe565b82525050565b6000602082019050610f326000830184610f0e565b92915050565b600081519050919050565b600082825260208201905092915050565b6000819050602082019050919050565b6000610f708383610b71565b60208301905092915050565b6000602082019050919050565b6000610f9482610f38565b610f9e8185610f43565b9350610fa983610f54565b8060005b83811015610fda578151610fc18882610f64565b9750610fcc83610f7c565b925050600181019050610fad565b5085935050505092915050565b600060208201905081810360008301526110018184610f89565b905092915050565b6000819050919050565b600061102e611029611024846109ac565b611009565b6109ac565b9050919050565b600061104082611013565b9050919050565b600061105282611035565b9050919050565b61106281611047565b82525050565b600060208201905061107d6000830184611059565b92915050565b7f4e487b7100000000000000000000000000000000000000000000000000000000600052602260045260246000fd5b600060028204905060018216806110ca57607f821691505b6020821081036110dd576110dc611083565b5b50919050565b600060ff82169050919050565b6110f9816110e3565b811461110457600080fd5b50565b600081519050611116816110f0565b92915050565b600060208284031215611132576111316109a7565b5b600061114084828501611107565b91505092915050565b7f4e487b7100000000000000000000000000000000000000000000000000000000600052601160045260246000fd5b60008160011c9050919050565b6000808291508390505b60018511156111cf578086048111156111ab576111aa611149565b5b60018516156111ba5780820291505b80810290506111c885611178565b945061118f565b94509492505050565b6000826111e857600190506112a4565b816111f657600090506112a4565b816001811461120c576002811461121657611245565b60019150506112a4565b60ff84111561122857611227611149565b5b8360020a91508482111561123f5761123e611149565b5b506112a4565b5060208310610133831016604e8410600b841016171561127a5782820a90508381111561127557611274611149565b5b6112a4565b6112878484846001611185565b9250905081840481111561129e5761129d611149565b5b81810290505b9392505050565b60006112b682610973565b91506112c1836110e3565b92506112ee7fffffffffffffffffffffffffffffffffffffffffffffffffffffffffffffffff84846111d8565b90509291505056fea264697066735822122092a0a7ee2ad77001e1db3b71a5355e88886537ea4ba5c749be0cd858b77b946764736f6c634300080d0033",
  "immutableReferences": {},
  "source": "// SPDX-License-Identifier: MIT\npragma solidity >=0.4.22 <0.9.0;\n\nimport \"@openzeppelin/contracts/token/ERC20/IERC20.sol\";\nimport \"@openzeppelin/contracts/access/Ownable.sol\";\nimport \"@openzeppelin/contracts/token/ERC20/extensions/IERC20Metadata.sol\";\nimport \"./ComptrollerInterface.sol\";\n\ninterface GoodInterface {\n    enum Error {\n        NO_ERROR,\n        INVALID_PARAMETER,\n        INVALID_STATUS\n    }\n\n    enum Stage {\n        NONE,\n        INIT,\n        CAN_JOIN,\n        LOCKED,\n        IN_PICK,\n        FINISHED,\n        FAILED\n    }\n\n    struct UserRecord {\n        address user;\n        uint256 count;\n        bool isJoined;\n        bool isPaybacked;\n        uint joinTime;\n        uint joinBlockNum;\n    }\n\n    struct UserJoinRecord {\n        address user;\n        uint startIndex;\n        uint256 count;\n        uint joinTime;\n        uint joinBlockNum;\n    }\n\n    struct WinnerTime {\n        uint blockNum;\n        uint blockTime;\n        uint index;\n    }\n\n    event JoinSuccessful(address user, uint256 amount, uint32 goodId);\n    event LotteryComplete(\n        address user,\n        uint256 totalBalance,\n        uint256 priceValue,\n        uint256 mf,\n        uint256 burned,\n        uint256 paybackUnit\n    );\n}\n\ncontract GoodStorage is GoodInterface {\n    bool public constant isGoodLottery = true;\n\n    IERC20 public token;\n    uint32 public goodId;\n    uint256 public goodValue;\n    uint256 public publishTime;\n    uint256 public lockedTime;\n    string public goodHash;\n    uint256 public maintenanceFee;\n\n\n    mapping(address => UserRecord) public userMapping;\n\n    mapping(address => uint[]) public userJoinRecordIndex;\n    \n    UserJoinRecord[] public userJoinRecords;\n\n    uint public joinedUsers = 0;\n\n    address[] public tickets;\n    uint[] public ticketNums;\n\n    address public winner;\n    uint public paybackFee;\n    WinnerTime public winnerTime;\n\n    ComptrollerInterface comptroller;\n\n\n    function getTokenExchangeRate() public view returns (uint256) {\n        return 10**IERC20Metadata(address(token)).decimals();\n    }\n\n    function getTickets() public view returns (address[] memory) {\n        address[] memory tk = tickets;\n        return tk;\n    }\n\n    function getUserJoinRecords() public view returns (UserJoinRecord[] memory record) {\n        return userJoinRecords;\n    }\n\n    function getUserJoinRecordIndexs(address user) public view returns (uint[] memory record) {\n        return userJoinRecordIndex[user];\n    }\n\n}",
  "sourcePath": "/Users/jonah/SolidityProject/makewish-contract/contracts/GoodInterface.sol",
  "compiler": {
    "name": "solc",
    "version": "0.8.13+commit.abaa5c0e.Emscripten.clang"
  },
  "schemaVersion": "3.4.7",
  "updatedAt": "2022-06-01T15:40:01.933Z",
  "devdoc": {
    "kind": "dev",
    "methods": {},
    "version": 1
  },
  "userdoc": {
    "kind": "user",
    "methods": {},
    "version": 1
  }
}