{
  "contractName": "GoodLottery",
  "abi": [
    {
      "inputs": [
        {
          "internalType": "contract ComptrollerInterface",
          "name": "_comptroller",
          "type": "address"
        },
        {
          "internalType": "contract IERC20",
          "name": "_token",
          "type": "address"
        },
        {
          "internalType": "uint32",
          "name": "_goodId",
          "type": "uint32"
        },
        {
          "internalType": "uint256",
          "name": "_goodValue",
          "type": "uint256"
        },
        {
          "internalType": "uint256",
          "name": "_maintenanceFee",
          "type": "uint256"
        },
        {
          "internalType": "uint256",
          "name": "_publishTime",
          "type": "uint256"
        },
        {
          "internalType": "uint256",
          "name": "_lockedTime",
          "type": "uint256"
        },
        {
          "internalType": "string",
          "name": "_goodHash",
          "type": "string"
        }
      ],
      "stateMutability": "nonpayable",
      "type": "constructor"
    },
    {
      "anonymous": false,
      "inputs": [
        {
          "indexed": false,
          "internalType": "address",
          "name": "user",
          "type": "address"
        },
        {
          "indexed": false,
          "internalType": "uint256",
          "name": "amount",
          "type": "uint256"
        },
        {
          "indexed": false,
          "internalType": "uint32",
          "name": "goodId",
          "type": "uint32"
        }
      ],
      "name": "JoinSuccessful",
      "type": "event"
    },
    {
      "anonymous": false,
      "inputs": [
        {
          "indexed": false,
          "internalType": "address",
          "name": "user",
          "type": "address"
        },
        {
          "indexed": false,
          "internalType": "uint256",
          "name": "totalBalance",
          "type": "uint256"
        },
        {
          "indexed": false,
          "internalType": "uint256",
          "name": "priceValue",
          "type": "uint256"
        },
        {
          "indexed": false,
          "internalType": "uint256",
          "name": "mf",
          "type": "uint256"
        },
        {
          "indexed": false,
          "internalType": "uint256",
          "name": "burned",
          "type": "uint256"
        },
        {
          "indexed": false,
          "internalType": "uint256",
          "name": "paybackUnit",
          "type": "uint256"
        }
      ],
      "name": "LotteryComplete",
      "type": "event"
    },
    {
      "anonymous": false,
      "inputs": [
        {
          "indexed": true,
          "internalType": "address",
          "name": "previousOwner",
          "type": "address"
        },
        {
          "indexed": true,
          "internalType": "address",
          "name": "newOwner",
          "type": "address"
        }
      ],
      "name": "OwnershipTransferred",
      "type": "event"
    },
    {
      "inputs": [],
      "name": "getTickets",
      "outputs": [
        {
          "internalType": "address[]",
          "name": "",
          "type": "address[]"
        }
      ],
      "stateMutability": "view",
      "type": "function"
    },
    {
      "inputs": [],
      "name": "getTokenExchangeRate",
      "outputs": [
        {
          "internalType": "uint256",
          "name": "",
          "type": "uint256"
        }
      ],
      "stateMutability": "view",
      "type": "function"
    },
    {
      "inputs": [
        {
          "internalType": "address",
          "name": "user",
          "type": "address"
        }
      ],
      "name": "getUserJoinRecordIndexs",
      "outputs": [
        {
          "internalType": "uint256[]",
          "name": "record",
          "type": "uint256[]"
        }
      ],
      "stateMutability": "view",
      "type": "function"
    },
    {
      "inputs": [],
      "name": "getUserJoinRecords",
      "outputs": [
        {
          "components": [
            {
              "internalType": "address",
              "name": "user",
              "type": "address"
            },
            {
              "internalType": "uint256",
              "name": "startIndex",
              "type": "uint256"
            },
            {
              "internalType": "uint256",
              "name": "count",
              "type": "uint256"
            },
            {
              "internalType": "uint256",
              "name": "joinTime",
              "type": "uint256"
            },
            {
              "internalType": "uint256",
              "name": "joinBlockNum",
              "type": "uint256"
            }
          ],
          "internalType": "struct GoodInterface.UserJoinRecord[]",
          "name": "record",
          "type": "tuple[]"
        }
      ],
      "stateMutability": "view",
      "type": "function"
    },
    {
      "inputs": [],
      "name": "goodHash",
      "outputs": [
        {
          "internalType": "string",
          "name": "",
          "type": "string"
        }
      ],
      "stateMutability": "view",
      "type": "function"
    },
    {
      "inputs": [],
      "name": "goodId",
      "outputs": [
        {
          "internalType": "uint32",
          "name": "",
          "type": "uint32"
        }
      ],
      "stateMutability": "view",
      "type": "function"
    },
    {
      "inputs": [],
      "name": "goodValue",
      "outputs": [
        {
          "internalType": "uint256",
          "name": "",
          "type": "uint256"
        }
      ],
      "stateMutability": "view",
      "type": "function"
    },
    {
      "inputs": [],
      "name": "isGoodLottery",
      "outputs": [
        {
          "internalType": "bool",
          "name": "",
          "type": "bool"
        }
      ],
      "stateMutability": "view",
      "type": "function"
    },
    {
      "inputs": [],
      "name": "joinedUsers",
      "outputs": [
        {
          "internalType": "uint256",
          "name": "",
          "type": "uint256"
        }
      ],
      "stateMutability": "view",
      "type": "function"
    },
    {
      "inputs": [],
      "name": "lockedTime",
      "outputs": [
        {
          "internalType": "uint256",
          "name": "",
          "type": "uint256"
        }
      ],
      "stateMutability": "view",
      "type": "function"
    },
    {
      "inputs": [],
      "name": "maintenanceFee",
      "outputs": [
        {
          "internalType": "uint256",
          "name": "",
          "type": "uint256"
        }
      ],
      "stateMutability": "view",
      "type": "function"
    },
    {
      "inputs": [],
      "name": "owner",
      "outputs": [
        {
          "internalType": "address",
          "name": "",
          "type": "address"
        }
      ],
      "stateMutability": "view",
      "type": "function"
    },
    {
      "inputs": [],
      "name": "paybackFee",
      "outputs": [
        {
          "internalType": "uint256",
          "name": "",
          "type": "uint256"
        }
      ],
      "stateMutability": "view",
      "type": "function"
    },
    {
      "inputs": [],
      "name": "pickWinnerUser",
      "outputs": [
        {
          "internalType": "address",
          "name": "",
          "type": "address"
        }
      ],
      "stateMutability": "view",
      "type": "function"
    },
    {
      "inputs": [],
      "name": "publishTime",
      "outputs": [
        {
          "internalType": "uint256",
          "name": "",
          "type": "uint256"
        }
      ],
      "stateMutability": "view",
      "type": "function"
    },
    {
      "inputs": [],
      "name": "renounceOwnership",
      "outputs": [],
      "stateMutability": "nonpayable",
      "type": "function"
    },
    {
      "inputs": [
        {
          "internalType": "uint256",
          "name": "",
          "type": "uint256"
        }
      ],
      "name": "ticketNums",
      "outputs": [
        {
          "internalType": "uint256",
          "name": "",
          "type": "uint256"
        }
      ],
      "stateMutability": "view",
      "type": "function"
    },
    {
      "inputs": [
        {
          "internalType": "uint256",
          "name": "",
          "type": "uint256"
        }
      ],
      "name": "tickets",
      "outputs": [
        {
          "internalType": "address",
          "name": "",
          "type": "address"
        }
      ],
      "stateMutability": "view",
      "type": "function"
    },
    {
      "inputs": [],
      "name": "token",
      "outputs": [
        {
          "internalType": "contract IERC20",
          "name": "",
          "type": "address"
        }
      ],
      "stateMutability": "view",
      "type": "function"
    },
    {
      "inputs": [
        {
          "internalType": "address",
          "name": "newOwner",
          "type": "address"
        }
      ],
      "name": "transferOwnership",
      "outputs": [],
      "stateMutability": "nonpayable",
      "type": "function"
    },
    {
      "inputs": [
        {
          "internalType": "address",
          "name": "",
          "type": "address"
        },
        {
          "internalType": "uint256",
          "name": "",
          "type": "uint256"
        }
      ],
      "name": "userJoinRecordIndex",
      "outputs": [
        {
          "internalType": "uint256",
          "name": "",
          "type": "uint256"
        }
      ],
      "stateMutability": "view",
      "type": "function"
    },
    {
      "inputs": [
        {
          "internalType": "uint256",
          "name": "",
          "type": "uint256"
        }
      ],
      "name": "userJoinRecords",
      "outputs": [
        {
          "internalType": "address",
          "name": "user",
          "type": "address"
        },
        {
          "internalType": "uint256",
          "name": "startIndex",
          "type": "uint256"
        },
        {
          "internalType": "uint256",
          "name": "count",
          "type": "uint256"
        },
        {
          "internalType": "uint256",
          "name": "joinTime",
          "type": "uint256"
        },
        {
          "internalType": "uint256",
          "name": "joinBlockNum",
          "type": "uint256"
        }
      ],
      "stateMutability": "view",
      "type": "function"
    },
    {
      "inputs": [
        {
          "internalType": "address",
          "name": "",
          "type": "address"
        }
      ],
      "name": "userMapping",
      "outputs": [
        {
          "internalType": "address",
          "name": "user",
          "type": "address"
        },
        {
          "internalType": "uint256",
          "name": "count",
          "type": "uint256"
        },
        {
          "internalType": "bool",
          "name": "isJoined",
          "type": "bool"
        },
        {
          "internalType": "bool",
          "name": "isPaybacked",
          "type": "bool"
        },
        {
          "internalType": "uint256",
          "name": "joinTime",
          "type": "uint256"
        },
        {
          "internalType": "uint256",
          "name": "joinBlockNum",
          "type": "uint256"
        }
      ],
      "stateMutability": "view",
      "type": "function"
    },
    {
      "inputs": [],
      "name": "winner",
      "outputs": [
        {
          "internalType": "address",
          "name": "",
          "type": "address"
        }
      ],
      "stateMutability": "view",
      "type": "function"
    },
    {
      "inputs": [],
      "name": "winnerTime",
      "outputs": [
        {
          "internalType": "uint256",
          "name": "blockNum",
          "type": "uint256"
        },
        {
          "internalType": "uint256",
          "name": "blockTime",
          "type": "uint256"
        },
        {
          "internalType": "uint256",
          "name": "index",
          "type": "uint256"
        }
      ],
      "stateMutability": "view",
      "type": "function"
    },
    {
      "inputs": [
        {
          "internalType": "uint256",
          "name": "_lockedTime",
          "type": "uint256"
        }
      ],
      "name": "setLockedTime",
      "outputs": [],
      "stateMutability": "nonpayable",
      "type": "function"
    },
    {
      "inputs": [
        {
          "internalType": "uint256",
          "name": "amount",
          "type": "uint256"
        }
      ],
      "name": "join",
      "outputs": [],
      "stateMutability": "nonpayable",
      "type": "function"
    },
    {
      "inputs": [
        {
          "internalType": "address",
          "name": "user",
          "type": "address"
        },
        {
          "internalType": "uint256",
          "name": "amount",
          "type": "uint256"
        }
      ],
      "name": "join",
      "outputs": [],
      "stateMutability": "nonpayable",
      "type": "function"
    },
    {
      "inputs": [],
      "name": "pickWinner",
      "outputs": [],
      "stateMutability": "nonpayable",
      "type": "function"
    },
    {
      "inputs": [],
      "name": "checkCanJoin",
      "outputs": [
        {
          "internalType": "enum GoodInterface.Error",
          "name": "",
          "type": "uint8"
        }
      ],
      "stateMutability": "nonpayable",
      "type": "function"
    },
    {
      "inputs": [],
      "name": "checkCanPickWinner",
      "outputs": [
        {
          "internalType": "bool",
          "name": "",
          "type": "bool"
        }
      ],
      "stateMutability": "view",
      "type": "function"
    },
    {
      "inputs": [],
      "name": "getStage",
      "outputs": [
        {
          "internalType": "enum GoodInterface.Stage",
          "name": "",
          "type": "uint8"
        }
      ],
      "stateMutability": "view",
      "type": "function"
    }
  ],
  "bytecode": "0x608060405260006009556000601360146101000a81548160ff0219169083600681111562000032576200003162000490565b5b02179055503480156200004457600080fd5b50604051620047623803806200476283398181016040528101906200006a919062000796565b6200008a6200007e620000b060201b60201c565b620000b860201b60201c565b620000a288888888888888886200017e60201b60201c565b505050505050505062000a74565b600033905090565b6000601360009054906101000a900473ffffffffffffffffffffffffffffffffffffffff16905081601360006101000a81548173ffffffffffffffffffffffffffffffffffffffff021916908373ffffffffffffffffffffffffffffffffffffffff1602179055508173ffffffffffffffffffffffffffffffffffffffff168173ffffffffffffffffffffffffffffffffffffffff167f8be0079c531659141344cd1fd0a4f28419497f9722a3daafe3b4186f6b6457e060405160405180910390a35050565b6000600681111562000195576200019462000490565b5b601360149054906101000a900460ff166006811115620001ba57620001b962000490565b5b14620001fd576040517f08c379a0000000000000000000000000000000000000000000000000000000008152600401620001f490620008df565b60405180910390fd5b8773ffffffffffffffffffffffffffffffffffffffff1663f83c72dd600060149054906101000a900463ffffffff166040518263ffffffff1660e01b81526004016200024a919062000912565b602060405180830381865afa15801562000268573d6000803e3d6000fd5b505050506040513d601f19601f820116820180604052508101906200028e91906200096c565b15620002d1576040517f08c379a0000000000000000000000000000000000000000000000000000000008152600401620002c890620009ee565b60405180910390fd5b85600060146101000a81548163ffffffff021916908363ffffffff160217905550846001819055508260028190555081600381905550866000806101000a81548173ffffffffffffffffffffffffffffffffffffffff021916908373ffffffffffffffffffffffffffffffffffffffff16021790555087601260006101000a81548173ffffffffffffffffffffffffffffffffffffffff021916908373ffffffffffffffffffffffffffffffffffffffff1602179055506001601360146101000a81548160ff02191690836006811115620003b157620003b062000490565b5b0217905550836005819055508060049080519060200190620003d5929190620003e0565b505050505050505050565b828054620003ee9062000a3f565b90600052602060002090601f0160209004810192826200041257600085556200045e565b82601f106200042d57805160ff19168380011785556200045e565b828001600101855582156200045e579182015b828111156200045d57825182559160200191906001019062000440565b5b5090506200046d919062000471565b5090565b5b808211156200048c57600081600090555060010162000472565b5090565b7f4e487b7100000000000000000000000000000000000000000000000000000000600052602160045260246000fd5b6000604051905090565b600080fd5b600080fd5b600073ffffffffffffffffffffffffffffffffffffffff82169050919050565b60006200050082620004d3565b9050919050565b60006200051482620004f3565b9050919050565b620005268162000507565b81146200053257600080fd5b50565b60008151905062000546816200051b565b92915050565b60006200055982620004f3565b9050919050565b6200056b816200054c565b81146200057757600080fd5b50565b6000815190506200058b8162000560565b92915050565b600063ffffffff82169050919050565b620005ac8162000591565b8114620005b857600080fd5b50565b600081519050620005cc81620005a1565b92915050565b6000819050919050565b620005e781620005d2565b8114620005f357600080fd5b50565b6000815190506200060781620005dc565b92915050565b600080fd5b600080fd5b6000601f19601f8301169050919050565b7f4e487b7100000000000000000000000000000000000000000000000000000000600052604160045260246000fd5b620006628262000617565b810181811067ffffffffffffffff8211171562000684576200068362000628565b5b80604052505050565b600062000699620004bf565b9050620006a7828262000657565b919050565b600067ffffffffffffffff821115620006ca57620006c962000628565b5b620006d58262000617565b9050602081019050919050565b60005b8381101562000702578082015181840152602081019050620006e5565b8381111562000712576000848401525b50505050565b60006200072f6200072984620006ac565b6200068d565b9050828152602081018484840111156200074e576200074d62000612565b5b6200075b848285620006e2565b509392505050565b600082601f8301126200077b576200077a6200060d565b5b81516200078d84826020860162000718565b91505092915050565b600080600080600080600080610100898b031215620007ba57620007b9620004c9565b5b6000620007ca8b828c0162000535565b9850506020620007dd8b828c016200057a565b9750506040620007f08b828c01620005bb565b9650506060620008038b828c01620005f6565b9550506080620008168b828c01620005f6565b94505060a0620008298b828c01620005f6565b93505060c06200083c8b828c01620005f6565b92505060e089015167ffffffffffffffff81111562000860576200085f620004ce565b5b6200086e8b828c0162000763565b9150509295985092959890939650565b600082825260208201905092915050565b7f676f6f6420686164206265656e20696e697469616c697a65642e000000000000600082015250565b6000620008c7601a836200087e565b9150620008d4826200088f565b602082019050919050565b60006020820190508181036000830152620008fa81620008b8565b9050919050565b6200090c8162000591565b82525050565b600060208201905062000929600083018462000901565b92915050565b60008115159050919050565b62000946816200092f565b81146200095257600080fd5b50565b60008151905062000966816200093b565b92915050565b600060208284031215620009855762000984620004c9565b5b6000620009958482850162000955565b91505092915050565b7f6475706c696361746520676f6f64496400000000000000000000000000000000600082015250565b6000620009d66010836200087e565b9150620009e3826200099e565b602082019050919050565b6000602082019050818103600083015262000a0981620009c7565b9050919050565b7f4e487b7100000000000000000000000000000000000000000000000000000000600052602260045260246000fd5b6000600282049050600182168062000a5857607f821691505b60208210810362000a6e5762000a6d62000a10565b5b50919050565b613cde8062000a846000396000f3fe608060405234801561001057600080fd5b50600436106101f05760003560e01c80639619a5a91161010f578063df1dcaa9116100a2578063eecf801e11610071578063eecf801e14610574578063f2fde38b146105a4578063fc0c546a146105c0578063fcaa7664146105de576101f0565b8063df1dcaa9146104fe578063df4c0ab11461051a578063dfbf53ae14610538578063e467fa8014610556576101f0565b8063c01d1c60116100de578063c01d1c6014610474578063c15e296b14610492578063c379b4be146104b0578063d180b744146104ce576101f0565b80639619a5a9146103fc578063a8b382051461041a578063a9135d1714610438578063ab388c9614610456576101f0565b80634ed02622116101875780637676d235116101565780637676d2351461036c5780638da5cb5b1461038c57806393a3ffe9146103aa57806394541fdb146103de576101f0565b80634ed026221461030a57806350b44712146103285780635d495aea14610358578063715018a614610362576101f0565b80632e40945e116101c35780632e40945e146102825780633b4da69f146102b25780633d98fc17146102ce5780633f0e9016146102ec576101f0565b806304660449146101f5578063049878f314610213578063118b95351461022f5780631bbf17c514610264575b600080fd5b6101fd6105fc565b60405161020a9190612858565b60405180910390f35b61022d600480360381019061022891906128a4565b610602565b005b6102496004803603810190610244919061292f565b61067b565b60405161025b96959493929190612986565b60405180910390f35b61026c6106f1565b6040516102799190612858565b60405180910390f35b61029c600480360381019061029791906128a4565b6106f7565b6040516102a99190612858565b60405180910390f35b6102cc60048036038101906102c791906129e7565b61071b565b005b6102d6610795565b6040516102e39190612a27565b60405180910390f35b6102f461079a565b6040516103019190612b77565b60405180910390f35b610312610877565b60405161031f9190612c48565b60405180910390f35b610342600480360381019061033d91906128a4565b61090b565b60405161034f9190612c6a565b60405180910390f35b61036061094a565b005b61036a61102a565b005b6103746110b2565b60405161038393929190612c85565b60405180910390f35b6103946110ca565b6040516103a19190612c6a565b60405180910390f35b6103c460048036038101906103bf91906128a4565b6110f4565b6040516103d5959493929190612cbc565b60405180910390f35b6103e661115a565b6040516103f39190612d86565b60405180910390f35b61040461123c565b6040516104119190612c6a565b60405180910390f35b610422611262565b60405161042f9190612858565b60405180910390f35b610440611268565b60405161044d9190612e3a565b60405180910390f35b61045e6112f6565b60405161046b9190612a27565b60405180910390f35b61047c6112ff565b6040516104899190612858565b60405180910390f35b61049a6113a2565b6040516104a79190612858565b60405180910390f35b6104b86113a8565b6040516104c59190612858565b60405180910390f35b6104e860048036038101906104e391906129e7565b6113ae565b6040516104f59190612858565b60405180910390f35b610518600480360381019061051391906128a4565b6113df565b005b610522611465565b60405161052f9190612e7b565b60405180910390f35b61054061147b565b60405161054d9190612c6a565b60405180910390f35b61055e6114a1565b60405161056b9190612858565b60405180910390f35b61058e6004803603810190610589919061292f565b6114a7565b60405161059b9190612f45565b60405180910390f35b6105be60048036038101906105b9919061292f565b61153e565b005b6105c8611635565b6040516105d59190612fc6565b60405180910390f35b6105e6611659565b6040516105f39190613029565b60405180910390f35b60055481565b600061060e3383611670565b90506000600281111561062457610623612d0f565b5b81600281111561063757610636612d0f565b5b14610677576040517f08c379a000000000000000000000000000000000000000000000000000000000815260040161066e90613090565b60405180910390fd5b5050565b60066020528060005260406000206000915090508060000160009054906101000a900473ffffffffffffffffffffffffffffffffffffffff16908060010154908060020160009054906101000a900460ff16908060020160019054906101000a900460ff16908060030154908060040154905086565b600d5481565b600b818154811061070757600080fd5b906000526020600020016000915090505481565b60006107278383611670565b90506000600281111561073d5761073c612d0f565b5b8160028111156107505761074f612d0f565b5b14610790576040517f08c379a0000000000000000000000000000000000000000000000000000000008152600401610787906130fc565b60405180910390fd5b505050565b600181565b60606008805480602002602001604051908101604052809291908181526020016000905b8282101561086e57838290600052602060002090600502016040518060a00160405290816000820160009054906101000a900473ffffffffffffffffffffffffffffffffffffffff1673ffffffffffffffffffffffffffffffffffffffff1673ffffffffffffffffffffffffffffffffffffffff168152602001600182015481526020016002820154815260200160038201548152602001600482015481525050815260200190600101906107be565b50505050905090565b60606000600a8054806020026020016040519081016040528092919081815260200182805480156108fd57602002820191906000526020600020905b8160009054906101000a900473ffffffffffffffffffffffffffffffffffffffff1673ffffffffffffffffffffffffffffffffffffffff16815260200190600101908083116108b3575b505050505090508091505090565b600a818154811061091b57600080fd5b906000526020600020016000915054906101000a900473ffffffffffffffffffffffffffffffffffffffff1681565b6109526112f6565b610991576040517f08c379a000000000000000000000000000000000000000000000000000000000815260040161098890613168565b60405180910390fd5b600073ffffffffffffffffffffffffffffffffffffffff16601260009054906101000a900473ffffffffffffffffffffffffffffffffffffffff1673ffffffffffffffffffffffffffffffffffffffff1603610a22576040517f08c379a0000000000000000000000000000000000000000000000000000000008152600401610a19906131d4565b60405180910390fd5b60056006811115610a3657610a35612d0f565b5b601360149054906101000a900460ff166006811115610a5857610a57612d0f565b5b14158015610a995750600680811115610a7457610a73612d0f565b5b601360149054906101000a900460ff166006811115610a9657610a95612d0f565b5b14155b610ad8576040517f08c379a0000000000000000000000000000000000000000000000000000000008152600401610acf90613240565b60405180910390fd5b601e600354610ae7919061328f565b421015610b29576040517f08c379a0000000000000000000000000000000000000000000000000000000008152600401610b2090613331565b60405180910390fd5b6000600a8054905003610bcd576006601360146101000a81548160ff02191690836006811115610b5c57610b5b612d0f565b5b02179055507f2bd454aea220f47ef41df4dc4bfd0823d826b9fc69aa5f871369edd5086267cb600c60009054906101000a900473ffffffffffffffffffffffffffffffffffffffff16600154600080600080604051610bc09695949392919061338c565b60405180910390a1611028565b6004601360146101000a81548160ff02191690836006811115610bf357610bf2612d0f565b5b02179055506000600a80549050610c08611ca0565b610c12919061341c565b9050600a8181548110610c2857610c2761344d565b5b9060005260206000200160009054906101000a900473ffffffffffffffffffffffffffffffffffffffff16600c60006101000a81548173ffffffffffffffffffffffffffffffffffffffff021916908373ffffffffffffffffffffffffffffffffffffffff16021790555033601160006101000a81548173ffffffffffffffffffffffffffffffffffffffff021916908373ffffffffffffffffffffffffffffffffffffffff160217905550601260009054906101000a900473ffffffffffffffffffffffffffffffffffffffff1673ffffffffffffffffffffffffffffffffffffffff166325281939306040518263ffffffff1660e01b8152600401610d2f9190612c6a565b6020604051808303816000875af1158015610d4e573d6000803e3d6000fd5b505050506040513d601f19601f82011682018060405250810190610d729190613491565b5060008060009054906101000a900473ffffffffffffffffffffffffffffffffffffffff1673ffffffffffffffffffffffffffffffffffffffff166370a08231306040518263ffffffff1660e01b8152600401610dcf9190612c6a565b602060405180830381865afa158015610dec573d6000803e3d6000fd5b505050506040513d601f19601f82011682018060405250810190610e109190613491565b905060008060009054906101000a900473ffffffffffffffffffffffffffffffffffffffff1673ffffffffffffffffffffffffffffffffffffffff1663313ce5676040518163ffffffff1660e01b8152600401602060405180830381865afa158015610e80573d6000803e3d6000fd5b505050506040513d601f19601f82011682018060405250810190610ea491906134f7565b600a610eb09190613657565b90506000610ec060015483611cd6565b90506000806000610ed084611d20565b905060006002811115610ee657610ee5612d0f565b5b816002811115610ef957610ef8612d0f565b5b14610f39576040517f08c379a0000000000000000000000000000000000000000000000000000000008152600401610f30906136ee565b60405180910390fd5b610f41611ded565b8093508194505050604051806060016040528043815260200142815260200188815250600e6000820151816000015560208201518160010155604082015181600201559050506005601360146101000a81548160ff02191690836006811115610fad57610fac612d0f565b5b021790555081600d819055507f2bd454aea220f47ef41df4dc4bfd0823d826b9fc69aa5f871369edd5086267cb600c60009054906101000a900473ffffffffffffffffffffffffffffffffffffffff166001548886600d54876040516110189695949392919061370e565b60405180910390a1505050505050505b565b611032612592565b73ffffffffffffffffffffffffffffffffffffffff166110506110ca565b73ffffffffffffffffffffffffffffffffffffffff16146110a6576040517f08c379a000000000000000000000000000000000000000000000000000000000815260040161109d906137bb565b60405180910390fd5b6110b0600061259a565b565b600e8060000154908060010154908060020154905083565b6000601360009054906101000a900473ffffffffffffffffffffffffffffffffffffffff16905090565b6008818154811061110457600080fd5b90600052602060002090600502016000915090508060000160009054906101000a900473ffffffffffffffffffffffffffffffffffffffff16908060010154908060020154908060030154908060040154905085565b6000804290506001600681111561117457611173612d0f565b5b601360149054906101000a900460ff16600681111561119657611195612d0f565b5b1480156111b05750603c6002546111ad919061328f565b81115b80156111bd575060035481105b156111ee576002601360146101000a81548160ff021916908360068111156111e8576111e7612d0f565b5b02179055505b6002600681111561120257611201612d0f565b5b601360149054906101000a900460ff16600681111561122457611223612d0f565b5b14611233576002915050611239565b60009150505b90565b601160009054906101000a900473ffffffffffffffffffffffffffffffffffffffff1681565b60035481565b600480546112759061380a565b80601f01602080910402602001604051908101604052809291908181526020018280546112a19061380a565b80156112ee5780601f106112c3576101008083540402835291602001916112ee565b820191906000526020600020905b8154815290600101906020018083116112d157829003601f168201915b505050505081565b60006001905090565b60008060009054906101000a900473ffffffffffffffffffffffffffffffffffffffff1673ffffffffffffffffffffffffffffffffffffffff1663313ce5676040518163ffffffff1660e01b8152600401602060405180830381865afa15801561136d573d6000803e3d6000fd5b505050506040513d601f19601f8201168201806040525081019061139191906134f7565b600a61139d9190613657565b905090565b60095481565b60015481565b600760205281600052604060002081815481106113ca57600080fd5b90600052602060002001600091509150505481565b6113e7612592565b73ffffffffffffffffffffffffffffffffffffffff166114056110ca565b73ffffffffffffffffffffffffffffffffffffffff161461145b576040517f08c379a0000000000000000000000000000000000000000000000000000000008152600401611452906137bb565b60405180910390fd5b8060038190555050565b600060149054906101000a900463ffffffff1681565b600c60009054906101000a900473ffffffffffffffffffffffffffffffffffffffff1681565b60025481565b6060600760008373ffffffffffffffffffffffffffffffffffffffff1673ffffffffffffffffffffffffffffffffffffffff16815260200190815260200160002080548060200260200160405190810160405280929190818152602001828054801561153257602002820191906000526020600020905b81548152602001906001019080831161151e575b50505050509050919050565b611546612592565b73ffffffffffffffffffffffffffffffffffffffff166115646110ca565b73ffffffffffffffffffffffffffffffffffffffff16146115ba576040517f08c379a00000000000000000000000000000000000000000000000000000000081526004016115b1906137bb565b60405180910390fd5b600073ffffffffffffffffffffffffffffffffffffffff168173ffffffffffffffffffffffffffffffffffffffff1603611629576040517f08c379a0000000000000000000000000000000000000000000000000000000008152600401611620906138ad565b60405180910390fd5b6116328161259a565b50565b60008054906101000a900473ffffffffffffffffffffffffffffffffffffffff1681565b6000601360149054906101000a900460ff16905090565b60008061167b61115a565b90506000600281111561169157611690612d0f565b5b8160028111156116a4576116a3612d0f565b5b146116e4576040517f08c379a00000000000000000000000000000000000000000000000000000000081526004016116db90613919565b60405180910390fd5b600083116116f6576001915050611c9a565b60008060009054906101000a900473ffffffffffffffffffffffffffffffffffffffff1673ffffffffffffffffffffffffffffffffffffffff1663313ce5676040518163ffffffff1660e01b8152600401602060405180830381865afa158015611764573d6000803e3d6000fd5b505050506040513d601f19601f8201168201806040525081019061178891906134f7565b600a6117949190613657565b905060008054906101000a900473ffffffffffffffffffffffffffffffffffffffff1673ffffffffffffffffffffffffffffffffffffffff166323b872dd86306117de8589611cd6565b6040518463ffffffff1660e01b81526004016117fc93929190613939565b6020604051808303816000875af115801561181b573d6000803e3d6000fd5b505050506040513d601f19601f8201168201806040525081019061183f919061399c565b5060005b848110156118c157600a869080600181540180825580915050600190039060005260206000200160009091909190916101000a81548173ffffffffffffffffffffffffffffffffffffffff021916908373ffffffffffffffffffffffffffffffffffffffff16021790555080806118b9906139c9565b915050611843565b50600660008673ffffffffffffffffffffffffffffffffffffffff1673ffffffffffffffffffffffffffffffffffffffff16815260200190815260200160002060020160009054906101000a900460ff16611a60576040518060c001604052808673ffffffffffffffffffffffffffffffffffffffff1681526020016000815260200160011515815260200160001515815260200142815260200143815250600660008773ffffffffffffffffffffffffffffffffffffffff1673ffffffffffffffffffffffffffffffffffffffff16815260200190815260200160002060008201518160000160006101000a81548173ffffffffffffffffffffffffffffffffffffffff021916908373ffffffffffffffffffffffffffffffffffffffff1602179055506020820151816001015560408201518160020160006101000a81548160ff02191690831515021790555060608201518160020160016101000a81548160ff0219169083151502179055506080820151816003015560a0820151816004015590505060096000815480929190611a5a906139c9565b91905055505b611aac600660008773ffffffffffffffffffffffffffffffffffffffff1673ffffffffffffffffffffffffffffffffffffffff1681526020019081526020016000206001015485612660565b600660008773ffffffffffffffffffffffffffffffffffffffff1673ffffffffffffffffffffffffffffffffffffffff16815260200190815260200160002060010181905550600760008673ffffffffffffffffffffffffffffffffffffffff1673ffffffffffffffffffffffffffffffffffffffff168152602001908152602001600020600880549050908060018154018082558091505060019003906000526020600020016000909190919091505560086040518060a001604052808773ffffffffffffffffffffffffffffffffffffffff16815260200186600a80549050611b979190613a11565b815260200186815260200142815260200143815250908060018154018082558091505060019003906000526020600020906005020160009091909190915060008201518160000160006101000a81548173ffffffffffffffffffffffffffffffffffffffff021916908373ffffffffffffffffffffffffffffffffffffffff1602179055506020820151816001015560408201518160020155606082015181600301556080820151816004015550507fd755b6433b8fc2eed90a53dff0d71bbe5f026d44a1e230fea6c1e1a262c41a218585600060149054906101000a900463ffffffff16604051611c8b93929190613a45565b60405180910390a16000925050505b92915050565b60004442600a604051602001611cb893929190613bbb565b6040516020818303038152906040528051906020012060001c905090565b6000611d1883836040518060400160405280601781526020017f6d756c7469706c69636174696f6e206f766572666c6f770000000000000000008152506126aa565b905092915050565b60008060009054906101000a900473ffffffffffffffffffffffffffffffffffffffff1673ffffffffffffffffffffffffffffffffffffffff1663a9059cbb600c60009054906101000a900473ffffffffffffffffffffffffffffffffffffffff16846040518363ffffffff1660e01b8152600401611da0929190613bf4565b6020604051808303816000875af1158015611dbf573d6000803e3d6000fd5b505050506040513d601f19601f82011682018060405250810190611de3919061399c565b5060009050919050565b60008060008060009054906101000a900473ffffffffffffffffffffffffffffffffffffffff1673ffffffffffffffffffffffffffffffffffffffff166370a08231306040518263ffffffff1660e01b8152600401611e4c9190612c6a565b602060405180830381865afa158015611e69573d6000803e3d6000fd5b505050506040513d601f19601f82011682018060405250810190611e8d9190613491565b905060008111611ea457600080925092505061258e565b6000611eb9600554611eb46112ff565b611cd6565b9050808211611f6f5760008054906101000a900473ffffffffffffffffffffffffffffffffffffffff1673ffffffffffffffffffffffffffffffffffffffff1663a9059cbb33836040518363ffffffff1660e01b8152600401611f1d929190613bf4565b6020604051808303816000875af1158015611f3c573d6000803e3d6000fd5b505050506040513d601f19601f82011682018060405250810190611f60919061399c565b5081600093509350505061258e565b60008183611f7d9190613a11565b9050600060066000600c60009054906101000a900473ffffffffffffffffffffffffffffffffffffffff1673ffffffffffffffffffffffffffffffffffffffff1673ffffffffffffffffffffffffffffffffffffffff16815260200190815260200160002060010154600a80549050611ff69190613a11565b9050600081111561238757600061200d8383612735565b905060005b600a8054905081101561223b576000600a82815481106120355761203461344d565b5b9060005260206000200160009054906101000a900473ffffffffffffffffffffffffffffffffffffffff169050600c60009054906101000a900473ffffffffffffffffffffffffffffffffffffffff1673ffffffffffffffffffffffffffffffffffffffff168173ffffffffffffffffffffffffffffffffffffffff16036120bd5750612228565b6000600660008373ffffffffffffffffffffffffffffffffffffffff1673ffffffffffffffffffffffffffffffffffffffff16815260200190815260200160002090508060020160019054906101000a900460ff161561211e575050612228565b60008054906101000a900473ffffffffffffffffffffffffffffffffffffffff1673ffffffffffffffffffffffffffffffffffffffff1663a9059cbb600a858154811061216e5761216d61344d565b5b9060005260206000200160009054906101000a900473ffffffffffffffffffffffffffffffffffffffff166121a7846001015488611cd6565b6040518363ffffffff1660e01b81526004016121c4929190613bf4565b6020604051808303816000875af11580156121e3573d6000803e3d6000fd5b505050506040513d601f19601f82011682018060405250810190612207919061399c565b5060018160020160016101000a81548160ff02191690831515021790555050505b8080612233906139c9565b915050612012565b5060008054906101000a900473ffffffffffffffffffffffffffffffffffffffff1673ffffffffffffffffffffffffffffffffffffffff166370a08231306040518263ffffffff1660e01b81526004016122959190612c6a565b602060405180830381865afa1580156122b2573d6000803e3d6000fd5b505050506040513d601f19601f820116820180604052508101906122d69190613491565b945060008054906101000a900473ffffffffffffffffffffffffffffffffffffffff1673ffffffffffffffffffffffffffffffffffffffff1663a9059cbb33876040518363ffffffff1660e01b8152600401612333929190613bf4565b6020604051808303816000875af1158015612352573d6000803e3d6000fd5b505050506040513d601f19601f82011682018060405250810190612376919061399c565b50848196509650505050505061258e565b60008054906101000a900473ffffffffffffffffffffffffffffffffffffffff1673ffffffffffffffffffffffffffffffffffffffff1663a9059cbb33856040518363ffffffff1660e01b81526004016123e2929190613bf4565b6020604051808303816000875af1158015612401573d6000803e3d6000fd5b505050506040513d601f19601f82011682018060405250810190612425919061399c565b5060008054906101000a900473ffffffffffffffffffffffffffffffffffffffff1673ffffffffffffffffffffffffffffffffffffffff166370a08231306040518263ffffffff1660e01b815260040161247f9190612c6a565b602060405180830381865afa15801561249c573d6000803e3d6000fd5b505050506040513d601f19601f820116820180604052508101906124c09190613491565b935060008054906101000a900473ffffffffffffffffffffffffffffffffffffffff1673ffffffffffffffffffffffffffffffffffffffff1663a9059cbb600c60009054906101000a900473ffffffffffffffffffffffffffffffffffffffff16866040518363ffffffff1660e01b815260040161253f929190613bf4565b6020604051808303816000875af115801561255e573d6000803e3d6000fd5b505050506040513d601f19601f82011682018060405250810190612582919061399c565b50828495509550505050505b9091565b600033905090565b6000601360009054906101000a900473ffffffffffffffffffffffffffffffffffffffff16905081601360006101000a81548173ffffffffffffffffffffffffffffffffffffffff021916908373ffffffffffffffffffffffffffffffffffffffff1602179055508173ffffffffffffffffffffffffffffffffffffffff168173ffffffffffffffffffffffffffffffffffffffff167f8be0079c531659141344cd1fd0a4f28419497f9722a3daafe3b4186f6b6457e060405160405180910390a35050565b60006126a283836040518060400160405280601181526020017f6164646974696f6e206f766572666c6f7700000000000000000000000000000081525061277f565b905092915050565b6000808414806126ba5750600083145b156126c8576000905061272e565b600083856126d69190613c1d565b90508385826126e59190613c77565b148390612728576040517f08c379a000000000000000000000000000000000000000000000000000000000815260040161271f9190612e3a565b60405180910390fd5b50809150505b9392505050565b600061277783836040518060400160405280600e81526020017f646976696465206279207a65726f0000000000000000000000000000000000008152506127e2565b905092915050565b600080838561278e919061328f565b90508481101583906127d6576040517f08c379a00000000000000000000000000000000000000000000000000000000081526004016127cd9190612e3a565b60405180910390fd5b50809150509392505050565b60008083118290612829576040517f08c379a00000000000000000000000000000000000000000000000000000000081526004016128209190612e3a565b60405180910390fd5b5082846128369190613c77565b90509392505050565b6000819050919050565b6128528161283f565b82525050565b600060208201905061286d6000830184612849565b92915050565b600080fd5b6128818161283f565b811461288c57600080fd5b50565b60008135905061289e81612878565b92915050565b6000602082840312156128ba576128b9612873565b5b60006128c88482850161288f565b91505092915050565b600073ffffffffffffffffffffffffffffffffffffffff82169050919050565b60006128fc826128d1565b9050919050565b61290c816128f1565b811461291757600080fd5b50565b60008135905061292981612903565b92915050565b60006020828403121561294557612944612873565b5b60006129538482850161291a565b91505092915050565b612965816128f1565b82525050565b60008115159050919050565b6129808161296b565b82525050565b600060c08201905061299b600083018961295c565b6129a86020830188612849565b6129b56040830187612977565b6129c26060830186612977565b6129cf6080830185612849565b6129dc60a0830184612849565b979650505050505050565b600080604083850312156129fe576129fd612873565b5b6000612a0c8582860161291a565b9250506020612a1d8582860161288f565b9150509250929050565b6000602082019050612a3c6000830184612977565b92915050565b600081519050919050565b600082825260208201905092915050565b6000819050602082019050919050565b612a77816128f1565b82525050565b612a868161283f565b82525050565b60a082016000820151612aa26000850182612a6e565b506020820151612ab56020850182612a7d565b506040820151612ac86040850182612a7d565b506060820151612adb6060850182612a7d565b506080820151612aee6080850182612a7d565b50505050565b6000612b008383612a8c565b60a08301905092915050565b6000602082019050919050565b6000612b2482612a42565b612b2e8185612a4d565b9350612b3983612a5e565b8060005b83811015612b6a578151612b518882612af4565b9750612b5c83612b0c565b925050600181019050612b3d565b5085935050505092915050565b60006020820190508181036000830152612b918184612b19565b905092915050565b600081519050919050565b600082825260208201905092915050565b6000819050602082019050919050565b6000612bd18383612a6e565b60208301905092915050565b6000602082019050919050565b6000612bf582612b99565b612bff8185612ba4565b9350612c0a83612bb5565b8060005b83811015612c3b578151612c228882612bc5565b9750612c2d83612bdd565b925050600181019050612c0e565b5085935050505092915050565b60006020820190508181036000830152612c628184612bea565b905092915050565b6000602082019050612c7f600083018461295c565b92915050565b6000606082019050612c9a6000830186612849565b612ca76020830185612849565b612cb46040830184612849565b949350505050565b600060a082019050612cd1600083018861295c565b612cde6020830187612849565b612ceb6040830186612849565b612cf86060830185612849565b612d056080830184612849565b9695505050505050565b7f4e487b7100000000000000000000000000000000000000000000000000000000600052602160045260246000fd5b60038110612d4f57612d4e612d0f565b5b50565b6000819050612d6082612d3e565b919050565b6000612d7082612d52565b9050919050565b612d8081612d65565b82525050565b6000602082019050612d9b6000830184612d77565b92915050565b600081519050919050565b600082825260208201905092915050565b60005b83811015612ddb578082015181840152602081019050612dc0565b83811115612dea576000848401525b50505050565b6000601f19601f8301169050919050565b6000612e0c82612da1565b612e168185612dac565b9350612e26818560208601612dbd565b612e2f81612df0565b840191505092915050565b60006020820190508181036000830152612e548184612e01565b905092915050565b600063ffffffff82169050919050565b612e7581612e5c565b82525050565b6000602082019050612e906000830184612e6c565b92915050565b600081519050919050565b600082825260208201905092915050565b6000819050602082019050919050565b6000612ece8383612a7d565b60208301905092915050565b6000602082019050919050565b6000612ef282612e96565b612efc8185612ea1565b9350612f0783612eb2565b8060005b83811015612f38578151612f1f8882612ec2565b9750612f2a83612eda565b925050600181019050612f0b565b5085935050505092915050565b60006020820190508181036000830152612f5f8184612ee7565b905092915050565b6000819050919050565b6000612f8c612f87612f82846128d1565b612f67565b6128d1565b9050919050565b6000612f9e82612f71565b9050919050565b6000612fb082612f93565b9050919050565b612fc081612fa5565b82525050565b6000602082019050612fdb6000830184612fb7565b92915050565b60078110612ff257612ff1612d0f565b5b50565b600081905061300382612fe1565b919050565b600061301382612ff5565b9050919050565b61302381613008565b82525050565b600060208201905061303e600083018461301a565b92915050565b7f6a6f696e206661696c6564000000000000000000000000000000000000000000600082015250565b600061307a600b83612dac565b915061308582613044565b602082019050919050565b600060208201905081810360008301526130a98161306d565b9050919050565b7f6a6f696e206661696c6564200000000000000000000000000000000000000000600082015250565b60006130e6600c83612dac565b91506130f1826130b0565b602082019050919050565b60006020820190508181036000830152613115816130d9565b9050919050565b7f63616e206e6f74207069636b0000000000000000000000000000000000000000600082015250565b6000613152600c83612dac565b915061315d8261311c565b602082019050919050565b6000602082019050818103600083015261318181613145565b9050919050565b7f636f6d7074726f6c6c6572206973206e6f7420656d7074790000000000000000600082015250565b60006131be601883612dac565b91506131c982613188565b602082019050919050565b600060208201905081810360008301526131ed816131b1565b9050919050565b7f7069636b2077696e6e6572206861642066696e69736865640000000000000000600082015250565b600061322a601883612dac565b9150613235826131f4565b602082019050919050565b600060208201905081810360008301526132598161321d565b9050919050565b7f4e487b7100000000000000000000000000000000000000000000000000000000600052601160045260246000fd5b600061329a8261283f565b91506132a58361283f565b9250827fffffffffffffffffffffffffffffffffffffffffffffffffffffffffffffffff038211156132da576132d9613260565b5b828201905092915050565b7f63616e206e6f74207069636b2077696e6e657200000000000000000000000000600082015250565b600061331b601383612dac565b9150613326826132e5565b602082019050919050565b6000602082019050818103600083015261334a8161330e565b9050919050565b6000819050919050565b600061337661337161336c84613351565b612f67565b61283f565b9050919050565b6133868161335b565b82525050565b600060c0820190506133a1600083018961295c565b6133ae6020830188612849565b6133bb604083018761337d565b6133c8606083018661337d565b6133d5608083018561337d565b6133e260a083018461337d565b979650505050505050565b7f4e487b7100000000000000000000000000000000000000000000000000000000600052601260045260246000fd5b60006134278261283f565b91506134328361283f565b925082613442576134416133ed565b5b828206905092915050565b7f4e487b7100000000000000000000000000000000000000000000000000000000600052603260045260246000fd5b60008151905061348b81612878565b92915050565b6000602082840312156134a7576134a6612873565b5b60006134b58482850161347c565b91505092915050565b600060ff82169050919050565b6134d4816134be565b81146134df57600080fd5b50565b6000815190506134f1816134cb565b92915050565b60006020828403121561350d5761350c612873565b5b600061351b848285016134e2565b91505092915050565b60008160011c9050919050565b6000808291508390505b600185111561357b5780860481111561355757613556613260565b5b60018516156135665780820291505b808102905061357485613524565b945061353b565b94509492505050565b6000826135945760019050613650565b816135a25760009050613650565b81600181146135b857600281146135c2576135f1565b6001915050613650565b60ff8411156135d4576135d3613260565b5b8360020a9150848211156135eb576135ea613260565b5b50613650565b5060208310610133831016604e8410600b84101617156136265782820a90508381111561362157613620613260565b5b613650565b6136338484846001613531565b9250905081840481111561364a57613649613260565b5b81810290505b9392505050565b60006136628261283f565b915061366d836134be565b925061369a7fffffffffffffffffffffffffffffffffffffffffffffffffffffffffffffffff8484613584565b905092915050565b7f73656e6420746f2077696e6e6572206661696c65642e00000000000000000000600082015250565b60006136d8601683612dac565b91506136e3826136a2565b602082019050919050565b60006020820190508181036000830152613707816136cb565b9050919050565b600060c082019050613723600083018961295c565b6137306020830188612849565b61373d6040830187612849565b61374a6060830186612849565b6137576080830185612849565b61376460a0830184612849565b979650505050505050565b7f4f776e61626c653a2063616c6c6572206973206e6f7420746865206f776e6572600082015250565b60006137a5602083612dac565b91506137b08261376f565b602082019050919050565b600060208201905081810360008301526137d481613798565b9050919050565b7f4e487b7100000000000000000000000000000000000000000000000000000000600052602260045260246000fd5b6000600282049050600182168061382257607f821691505b602082108103613835576138346137db565b5b50919050565b7f4f776e61626c653a206e6577206f776e657220697320746865207a65726f206160008201527f6464726573730000000000000000000000000000000000000000000000000000602082015250565b6000613897602683612dac565b91506138a28261383b565b604082019050919050565b600060208201905081810360008301526138c68161388a565b9050919050565b7f73746167652076616c6964206661696c65640000000000000000000000000000600082015250565b6000613903601283612dac565b915061390e826138cd565b602082019050919050565b60006020820190508181036000830152613932816138f6565b9050919050565b600060608201905061394e600083018661295c565b61395b602083018561295c565b6139686040830184612849565b949350505050565b6139798161296b565b811461398457600080fd5b50565b60008151905061399681613970565b92915050565b6000602082840312156139b2576139b1612873565b5b60006139c084828501613987565b91505092915050565b60006139d48261283f565b91507fffffffffffffffffffffffffffffffffffffffffffffffffffffffffffffffff8203613a0657613a05613260565b5b600182019050919050565b6000613a1c8261283f565b9150613a278361283f565b925082821015613a3a57613a39613260565b5b828203905092915050565b6000606082019050613a5a600083018661295c565b613a676020830185612849565b613a746040830184612e6c565b949350505050565b6000819050919050565b613a97613a928261283f565b613a7c565b82525050565b600081549050919050565b600081905092915050565b60008190508160005260206000209050919050565b613ad1816128f1565b82525050565b6000613ae38383613ac8565b60208301905092915050565b60008160001c9050919050565b600073ffffffffffffffffffffffffffffffffffffffff82169050919050565b6000613b2f613b2a83613aef565b613afc565b9050919050565b6000613b428254613b1c565b9050919050565b6000600182019050919050565b6000613b6182613a9d565b613b6b8185613aa8565b9350613b7683613ab3565b8060005b83811015613bae57613b8b82613b36565b613b958882613ad7565b9750613ba083613b49565b925050600181019050613b7a565b5085935050505092915050565b6000613bc78286613a86565b602082019150613bd78285613a86565b602082019150613be78284613b56565b9150819050949350505050565b6000604082019050613c09600083018561295c565b613c166020830184612849565b9392505050565b6000613c288261283f565b9150613c338361283f565b9250817fffffffffffffffffffffffffffffffffffffffffffffffffffffffffffffffff0483118215151615613c6c57613c6b613260565b5b828202905092915050565b6000613c828261283f565b9150613c8d8361283f565b925082613c9d57613c9c6133ed565b5b82820490509291505056fea26469706673582212208f1fbaf4c8d7325048f0fa575e0b0a1ca81eae2479b034f1fd0a26f110f3cd4864736f6c634300080d0033",
  "immutableReferences": {},
  "source": "// SPDX-License-Identifier: MIT\npragma solidity >=0.4.22 <0.9.0;\n\nimport \"@openzeppelin/contracts/access/Ownable.sol\";\nimport \"@openzeppelin/contracts/token/ERC20/IERC20.sol\";\nimport \"@openzeppelin/contracts/token/ERC20/extensions/IERC20Metadata.sol\";\n\nimport \"./Exponential.sol\";\nimport \"./ComptrollerInterface.sol\";\nimport \"./GoodInterface.sol\";\n\ncontract GoodLottery is GoodStorage, Ownable, Exponential {\n\n\n    Stage private stage = Stage.NONE;\n\n    constructor(\n        ComptrollerInterface _comptroller,\n        IERC20 _token,\n        uint32 _goodId,\n        uint256 _goodValue,\n        uint256 _maintenanceFee,\n        uint256 _publishTime,\n        uint256 _lockedTime,\n        string memory _goodHash\n    ) Ownable() {\n        initialize(\n            _comptroller,\n            _token,\n            _goodId,\n            _goodValue,\n            _maintenanceFee,\n            _publishTime,\n            _lockedTime,\n            _goodHash\n        );\n    }\n\n    function initialize(\n        ComptrollerInterface _comptroller,\n        IERC20 _token,\n        uint32 _goodId,\n        uint256 _goodValue,\n        uint256 _maintenanceFee,\n        uint256 _publishTime,\n        uint256 _lockedTime,\n        string memory _goodHash\n    ) internal {\n        require(stage == Stage.NONE, \"good had been initialized.\");\n        require(!_comptroller.isDuplicateGoodId(goodId), \"duplicate goodId\");\n\n        goodId = _goodId;\n        goodValue = _goodValue;\n        publishTime = _publishTime;\n        lockedTime = _lockedTime;\n        token = _token;\n        comptroller = _comptroller;\n        stage = Stage.INIT;\n        maintenanceFee = _maintenanceFee;\n        goodHash = _goodHash;\n    }\n\n    function setLockedTime(uint256 _lockedTime) public onlyOwner {\n        lockedTime = _lockedTime;\n    }\n\n    function join(uint256 amount) public {\n        Error e = joinInternal(msg.sender, amount);\n        require(e == Error.NO_ERROR, \"join failed\");\n    }\n\n    function join(address user, uint256 amount) external {\n        Error e = joinInternal(user, amount);\n        require(e == Error.NO_ERROR, \"join failed \");\n    }\n\n    function joinInternal(address user, uint256 amount)\n        internal\n        returns (Error)\n    {\n        \n        Error err = checkCanJoin();\n\n        if(err != Error.NO_ERROR) {\n            revert(\"stage valid failed\");\n        }\n\n        if (amount <= 0) {\n            return Error.INVALID_PARAMETER;\n        }\n\n        uint256 decimal = 10**IERC20Metadata(address(token)).decimals();\n\n        token.transferFrom(user, address(this), mul_(decimal, amount));\n\n        for (uint256 i = 0; i < amount; i++) {\n            tickets.push(user);\n        }\n\n        if (!userMapping[user].isJoined) {\n            userMapping[user] = UserRecord({\n                user: user,\n                count: 0,\n                isJoined: true, \n                isPaybacked: false,\n                joinTime: block.timestamp,\n                joinBlockNum: block.number\n            });\n            joinedUsers ++;\n        }\n\n        userMapping[user].count = add_(userMapping[user].count, amount);\n\n        userJoinRecordIndex[user].push(userJoinRecords.length);\n\n        userJoinRecords.push(UserJoinRecord({\n                user: user,\n                startIndex: tickets.length - amount,\n                count: amount,\n                joinTime: block.timestamp,\n                joinBlockNum: block.number\n            }));\n\n        emit JoinSuccessful(user, amount, goodId);\n\n        return Error.NO_ERROR;\n    }\n\n    function pickWinner() public {\n        require(checkCanPickWinner(), \"can not pick\");\n        require(address(comptroller) != address(0), \"comptroller is not empty\");\n        require(\n            stage != Stage.FINISHED && stage != Stage.FAILED,\n            \"pick winner had finished\"\n        );\n        require(\n            block.timestamp >= lockedTime + 30 seconds,\n            \"can not pick winner\"\n        );\n        if (tickets.length == 0) {\n            stage = Stage.FAILED;\n            emit LotteryComplete(winner, goodValue, 0, 0, 0, 0);\n            return;\n        }\n\n        stage = Stage.IN_PICK;\n\n        uint256 index = random() % tickets.length;\n\n        winner = tickets[index];\n        pickWinnerUser = msg.sender;\n\n        comptroller.pickWinnerAllowed(address(this));\n\n        uint256 balance = token.balanceOf(address(this));\n        uint256 decimal = 10**IERC20Metadata(address(token)).decimals();\n        uint256 winnerValue = mul_(goodValue, decimal);\n\n        uint256 mf = 0;\n        uint256 paybackUnit = 0;\n        Error resp = payToWinner(winnerValue);\n\n        if(resp != Error.NO_ERROR) {\n            revert(\"send to winner failed.\");\n        }\n\n        (mf, paybackUnit) = paybackBalance();\n\n        winnerTime = WinnerTime({\n            blockNum: block.number,\n            blockTime: block.timestamp, \n            index: index\n            });\n\n        stage = Stage.FINISHED;\n        paybackFee = paybackUnit;\n\n        emit LotteryComplete(winner, goodValue, balance, mf, paybackFee, paybackUnit);\n    }\n\n    function paybackBalance() internal returns (uint256, uint256) {\n        uint256 balance = token.balanceOf(address(this));\n        if (balance <= 0) {\n            return (0, 0);\n        }\n        uint256 mf = mul_(maintenanceFee, getTokenExchangeRate());\n        if (balance <= mf) {\n            token.transfer(msg.sender, mf);\n            return (balance, 0);\n        }\n\n        uint256 needPaybakcBalance = balance - mf;\n        uint256 winnerCount = tickets.length - userMapping[winner].count;\n        if(winnerCount > 0) {\n            uint paybackUnit = div_(needPaybakcBalance, winnerCount);\n\n            for (uint256 i = 0; i < tickets.length; i++) {\n                address u = tickets[i];\n                if (u == winner) {\n                    continue;\n                }\n                UserRecord storage record = userMapping[u];\n                if(record.isPaybacked) {\n                    continue;\n                }\n\n                token.transfer(\n                    tickets[i],\n                    mul_(record.count, paybackUnit)\n                );\n                record.isPaybacked = true;\n            }\n\n            balance = token.balanceOf(address(this));\n            token.transfer(msg.sender, balance);\n            return (balance, paybackUnit);\n        } else {\n            token.transfer(msg.sender, mf);\n            balance = token.balanceOf(address(this));\n            token.transfer(winner, balance);\n            return (mf, balance);\n        }\n\n    }\n\n    function random() internal view returns (uint256) {\n        return\n            uint256(\n                keccak256(\n                    abi.encodePacked(block.difficulty, block.timestamp, tickets)\n                )\n            );\n    }\n\n\n    function checkCanJoin() public virtual returns (Error) {\n        uint256 currentTime = block.timestamp;\n\n        if (\n            stage == Stage.INIT &&\n            currentTime > publishTime + (1 minutes) &&\n            currentTime < lockedTime\n        ) {\n            stage = Stage.CAN_JOIN;\n        }\n\n        if (stage != Stage.CAN_JOIN) {\n            return Error.INVALID_STATUS;\n        }\n\n        return Error.NO_ERROR;\n    }\n\n    function checkCanPickWinner() public view virtual returns (bool) {\n        return true;\n    }\n\n    function payToWinner(uint winnerValue) internal virtual returns (Error) {\n        token.transfer(winner, winnerValue);\n        return Error.NO_ERROR;\n    }\n\n    function getStage() public view returns (Stage) {\n        return stage;\n    }\n}\n",
  "sourcePath": "/Users/jonah/SolidityProject/makewish-contract/contracts/GoodLottery.sol",
  "compiler": {
    "name": "solc",
    "version": "0.8.13+commit.abaa5c0e.Emscripten.clang"
  },
  "schemaVersion": "3.4.7",
  "updatedAt": "2022-06-02T03:56:10.467Z",
  "devdoc": {
    "kind": "dev",
    "methods": {
      "owner()": {
        "details": "Returns the address of the current owner."
      },
      "renounceOwnership()": {
        "details": "Leaves the contract without owner. It will not be possible to call `onlyOwner` functions anymore. Can only be called by the current owner. NOTE: Renouncing ownership will leave the contract without an owner, thereby removing any functionality that is only available to the owner."
      },
      "transferOwnership(address)": {
        "details": "Transfers ownership of the contract to a new account (`newOwner`). Can only be called by the current owner."
      }
    },
    "version": 1
  },
  "userdoc": {
    "kind": "user",
    "methods": {},
    "version": 1
  }
}