{
  "contractName": "GoodLottery",
  "abi": [
    {
      "inputs": [
        {
          "internalType": "contract ComptrollerInterface",
          "name": "_comptroller",
          "type": "address"
        },
        {
          "internalType": "contract IERC20",
          "name": "_token",
          "type": "address"
        },
        {
          "internalType": "uint32",
          "name": "_goodId",
          "type": "uint32"
        },
        {
          "internalType": "uint256",
          "name": "_goodValue",
          "type": "uint256"
        },
        {
          "internalType": "uint256",
          "name": "_maintenanceFee",
          "type": "uint256"
        },
        {
          "internalType": "uint256",
          "name": "_publishTime",
          "type": "uint256"
        },
        {
          "internalType": "uint256",
          "name": "_lockedTime",
          "type": "uint256"
        },
        {
          "internalType": "string",
          "name": "_goodHash",
          "type": "string"
        }
      ],
      "stateMutability": "nonpayable",
      "type": "constructor"
    },
    {
      "anonymous": false,
      "inputs": [
        {
          "indexed": false,
          "internalType": "address",
          "name": "user",
          "type": "address"
        },
        {
          "indexed": false,
          "internalType": "uint256",
          "name": "amount",
          "type": "uint256"
        },
        {
          "indexed": false,
          "internalType": "uint32",
          "name": "goodId",
          "type": "uint32"
        }
      ],
      "name": "JoinSuccessful",
      "type": "event"
    },
    {
      "anonymous": false,
      "inputs": [
        {
          "indexed": false,
          "internalType": "address",
          "name": "user",
          "type": "address"
        },
        {
          "indexed": false,
          "internalType": "uint256",
          "name": "totalBalance",
          "type": "uint256"
        },
        {
          "indexed": false,
          "internalType": "uint256",
          "name": "priceValue",
          "type": "uint256"
        },
        {
          "indexed": false,
          "internalType": "uint256",
          "name": "mf",
          "type": "uint256"
        },
        {
          "indexed": false,
          "internalType": "uint256",
          "name": "burned",
          "type": "uint256"
        },
        {
          "indexed": false,
          "internalType": "uint256",
          "name": "paybackUnit",
          "type": "uint256"
        }
      ],
      "name": "LotteryComplete",
      "type": "event"
    },
    {
      "anonymous": false,
      "inputs": [
        {
          "indexed": true,
          "internalType": "address",
          "name": "previousOwner",
          "type": "address"
        },
        {
          "indexed": true,
          "internalType": "address",
          "name": "newOwner",
          "type": "address"
        }
      ],
      "name": "OwnershipTransferred",
      "type": "event"
    },
    {
      "inputs": [],
      "name": "getTickets",
      "outputs": [
        {
          "internalType": "address[]",
          "name": "",
          "type": "address[]"
        }
      ],
      "stateMutability": "view",
      "type": "function"
    },
    {
      "inputs": [],
      "name": "getTokenExchangeRate",
      "outputs": [
        {
          "internalType": "uint256",
          "name": "",
          "type": "uint256"
        }
      ],
      "stateMutability": "view",
      "type": "function"
    },
    {
      "inputs": [
        {
          "internalType": "address",
          "name": "user",
          "type": "address"
        }
      ],
      "name": "getUserJoinRecordIndexs",
      "outputs": [
        {
          "internalType": "uint256[]",
          "name": "record",
          "type": "uint256[]"
        }
      ],
      "stateMutability": "view",
      "type": "function"
    },
    {
      "inputs": [],
      "name": "getUserJoinRecords",
      "outputs": [
        {
          "components": [
            {
              "internalType": "address",
              "name": "user",
              "type": "address"
            },
            {
              "internalType": "uint256",
              "name": "startIndex",
              "type": "uint256"
            },
            {
              "internalType": "uint256",
              "name": "count",
              "type": "uint256"
            },
            {
              "internalType": "uint256",
              "name": "joinTime",
              "type": "uint256"
            },
            {
              "internalType": "uint256",
              "name": "joinBlockNum",
              "type": "uint256"
            }
          ],
          "internalType": "struct GoodInterface.UserJoinRecord[]",
          "name": "record",
          "type": "tuple[]"
        }
      ],
      "stateMutability": "view",
      "type": "function"
    },
    {
      "inputs": [],
      "name": "goodHash",
      "outputs": [
        {
          "internalType": "string",
          "name": "",
          "type": "string"
        }
      ],
      "stateMutability": "view",
      "type": "function"
    },
    {
      "inputs": [],
      "name": "goodId",
      "outputs": [
        {
          "internalType": "uint32",
          "name": "",
          "type": "uint32"
        }
      ],
      "stateMutability": "view",
      "type": "function"
    },
    {
      "inputs": [],
      "name": "goodValue",
      "outputs": [
        {
          "internalType": "uint256",
          "name": "",
          "type": "uint256"
        }
      ],
      "stateMutability": "view",
      "type": "function"
    },
    {
      "inputs": [],
      "name": "isGoodLottery",
      "outputs": [
        {
          "internalType": "bool",
          "name": "",
          "type": "bool"
        }
      ],
      "stateMutability": "view",
      "type": "function"
    },
    {
      "inputs": [],
      "name": "joinedUsers",
      "outputs": [
        {
          "internalType": "uint256",
          "name": "",
          "type": "uint256"
        }
      ],
      "stateMutability": "view",
      "type": "function"
    },
    {
      "inputs": [],
      "name": "lockedTime",
      "outputs": [
        {
          "internalType": "uint256",
          "name": "",
          "type": "uint256"
        }
      ],
      "stateMutability": "view",
      "type": "function"
    },
    {
      "inputs": [],
      "name": "maintenanceFee",
      "outputs": [
        {
          "internalType": "uint256",
          "name": "",
          "type": "uint256"
        }
      ],
      "stateMutability": "view",
      "type": "function"
    },
    {
      "inputs": [],
      "name": "owner",
      "outputs": [
        {
          "internalType": "address",
          "name": "",
          "type": "address"
        }
      ],
      "stateMutability": "view",
      "type": "function"
    },
    {
      "inputs": [],
      "name": "paybackFee",
      "outputs": [
        {
          "internalType": "uint256",
          "name": "",
          "type": "uint256"
        }
      ],
      "stateMutability": "view",
      "type": "function"
    },
    {
      "inputs": [],
      "name": "publishTime",
      "outputs": [
        {
          "internalType": "uint256",
          "name": "",
          "type": "uint256"
        }
      ],
      "stateMutability": "view",
      "type": "function"
    },
    {
      "inputs": [],
      "name": "renounceOwnership",
      "outputs": [],
      "stateMutability": "nonpayable",
      "type": "function"
    },
    {
      "inputs": [
        {
          "internalType": "uint256",
          "name": "",
          "type": "uint256"
        }
      ],
      "name": "ticketNums",
      "outputs": [
        {
          "internalType": "uint256",
          "name": "",
          "type": "uint256"
        }
      ],
      "stateMutability": "view",
      "type": "function"
    },
    {
      "inputs": [
        {
          "internalType": "uint256",
          "name": "",
          "type": "uint256"
        }
      ],
      "name": "tickets",
      "outputs": [
        {
          "internalType": "address",
          "name": "",
          "type": "address"
        }
      ],
      "stateMutability": "view",
      "type": "function"
    },
    {
      "inputs": [],
      "name": "token",
      "outputs": [
        {
          "internalType": "contract IERC20",
          "name": "",
          "type": "address"
        }
      ],
      "stateMutability": "view",
      "type": "function"
    },
    {
      "inputs": [
        {
          "internalType": "address",
          "name": "newOwner",
          "type": "address"
        }
      ],
      "name": "transferOwnership",
      "outputs": [],
      "stateMutability": "nonpayable",
      "type": "function"
    },
    {
      "inputs": [
        {
          "internalType": "address",
          "name": "",
          "type": "address"
        },
        {
          "internalType": "uint256",
          "name": "",
          "type": "uint256"
        }
      ],
      "name": "userJoinRecordIndex",
      "outputs": [
        {
          "internalType": "uint256",
          "name": "",
          "type": "uint256"
        }
      ],
      "stateMutability": "view",
      "type": "function"
    },
    {
      "inputs": [
        {
          "internalType": "uint256",
          "name": "",
          "type": "uint256"
        }
      ],
      "name": "userJoinRecords",
      "outputs": [
        {
          "internalType": "address",
          "name": "user",
          "type": "address"
        },
        {
          "internalType": "uint256",
          "name": "startIndex",
          "type": "uint256"
        },
        {
          "internalType": "uint256",
          "name": "count",
          "type": "uint256"
        },
        {
          "internalType": "uint256",
          "name": "joinTime",
          "type": "uint256"
        },
        {
          "internalType": "uint256",
          "name": "joinBlockNum",
          "type": "uint256"
        }
      ],
      "stateMutability": "view",
      "type": "function"
    },
    {
      "inputs": [
        {
          "internalType": "address",
          "name": "",
          "type": "address"
        }
      ],
      "name": "userMapping",
      "outputs": [
        {
          "internalType": "address",
          "name": "user",
          "type": "address"
        },
        {
          "internalType": "uint256",
          "name": "count",
          "type": "uint256"
        },
        {
          "internalType": "bool",
          "name": "isJoined",
          "type": "bool"
        },
        {
          "internalType": "bool",
          "name": "isPaybacked",
          "type": "bool"
        },
        {
          "internalType": "uint256",
          "name": "joinTime",
          "type": "uint256"
        },
        {
          "internalType": "uint256",
          "name": "joinBlockNum",
          "type": "uint256"
        }
      ],
      "stateMutability": "view",
      "type": "function"
    },
    {
      "inputs": [],
      "name": "winner",
      "outputs": [
        {
          "internalType": "address",
          "name": "",
          "type": "address"
        }
      ],
      "stateMutability": "view",
      "type": "function"
    },
    {
      "inputs": [],
      "name": "winnerTime",
      "outputs": [
        {
          "internalType": "uint256",
          "name": "blockNum",
          "type": "uint256"
        },
        {
          "internalType": "uint256",
          "name": "blockTime",
          "type": "uint256"
        },
        {
          "internalType": "uint256",
          "name": "index",
          "type": "uint256"
        }
      ],
      "stateMutability": "view",
      "type": "function"
    },
    {
      "inputs": [
        {
          "internalType": "uint256",
          "name": "_lockedTime",
          "type": "uint256"
        }
      ],
      "name": "setLockedTime",
      "outputs": [],
      "stateMutability": "nonpayable",
      "type": "function"
    },
    {
      "inputs": [
        {
          "internalType": "uint256",
          "name": "amount",
          "type": "uint256"
        }
      ],
      "name": "join",
      "outputs": [],
      "stateMutability": "nonpayable",
      "type": "function"
    },
    {
      "inputs": [
        {
          "internalType": "address",
          "name": "user",
          "type": "address"
        },
        {
          "internalType": "uint256",
          "name": "amount",
          "type": "uint256"
        }
      ],
      "name": "join",
      "outputs": [],
      "stateMutability": "nonpayable",
      "type": "function"
    },
    {
      "inputs": [],
      "name": "pickWinner",
      "outputs": [],
      "stateMutability": "nonpayable",
      "type": "function"
    },
    {
      "inputs": [],
      "name": "checkCanJoin",
      "outputs": [
        {
          "internalType": "enum GoodInterface.Error",
          "name": "",
          "type": "uint8"
        }
      ],
      "stateMutability": "nonpayable",
      "type": "function"
    },
    {
      "inputs": [],
      "name": "checkCanPickWinner",
      "outputs": [
        {
          "internalType": "bool",
          "name": "",
          "type": "bool"
        }
      ],
      "stateMutability": "view",
      "type": "function"
    },
    {
      "inputs": [],
      "name": "getStage",
      "outputs": [
        {
          "internalType": "enum GoodInterface.Stage",
          "name": "",
          "type": "uint8"
        }
      ],
      "stateMutability": "view",
      "type": "function"
    }
  ],
  "bytecode": "0x608060405260006009556000601260146101000a81548160ff0219169083600681111562000032576200003162000490565b5b02179055503480156200004457600080fd5b50604051620046e8380380620046e883398181016040528101906200006a919062000796565b6200008a6200007e620000b060201b60201c565b620000b860201b60201c565b620000a288888888888888886200017e60201b60201c565b505050505050505062000a74565b600033905090565b6000601260009054906101000a900473ffffffffffffffffffffffffffffffffffffffff16905081601260006101000a81548173ffffffffffffffffffffffffffffffffffffffff021916908373ffffffffffffffffffffffffffffffffffffffff1602179055508173ffffffffffffffffffffffffffffffffffffffff168173ffffffffffffffffffffffffffffffffffffffff167f8be0079c531659141344cd1fd0a4f28419497f9722a3daafe3b4186f6b6457e060405160405180910390a35050565b6000600681111562000195576200019462000490565b5b601260149054906101000a900460ff166006811115620001ba57620001b962000490565b5b14620001fd576040517f08c379a0000000000000000000000000000000000000000000000000000000008152600401620001f490620008df565b60405180910390fd5b8773ffffffffffffffffffffffffffffffffffffffff1663f83c72dd600060149054906101000a900463ffffffff166040518263ffffffff1660e01b81526004016200024a919062000912565b602060405180830381865afa15801562000268573d6000803e3d6000fd5b505050506040513d601f19601f820116820180604052508101906200028e91906200096c565b15620002d1576040517f08c379a0000000000000000000000000000000000000000000000000000000008152600401620002c890620009ee565b60405180910390fd5b85600060146101000a81548163ffffffff021916908363ffffffff160217905550846001819055508260028190555081600381905550866000806101000a81548173ffffffffffffffffffffffffffffffffffffffff021916908373ffffffffffffffffffffffffffffffffffffffff16021790555087601160006101000a81548173ffffffffffffffffffffffffffffffffffffffff021916908373ffffffffffffffffffffffffffffffffffffffff1602179055506001601260146101000a81548160ff02191690836006811115620003b157620003b062000490565b5b0217905550836005819055508060049080519060200190620003d5929190620003e0565b505050505050505050565b828054620003ee9062000a3f565b90600052602060002090601f0160209004810192826200041257600085556200045e565b82601f106200042d57805160ff19168380011785556200045e565b828001600101855582156200045e579182015b828111156200045d57825182559160200191906001019062000440565b5b5090506200046d919062000471565b5090565b5b808211156200048c57600081600090555060010162000472565b5090565b7f4e487b7100000000000000000000000000000000000000000000000000000000600052602160045260246000fd5b6000604051905090565b600080fd5b600080fd5b600073ffffffffffffffffffffffffffffffffffffffff82169050919050565b60006200050082620004d3565b9050919050565b60006200051482620004f3565b9050919050565b620005268162000507565b81146200053257600080fd5b50565b60008151905062000546816200051b565b92915050565b60006200055982620004f3565b9050919050565b6200056b816200054c565b81146200057757600080fd5b50565b6000815190506200058b8162000560565b92915050565b600063ffffffff82169050919050565b620005ac8162000591565b8114620005b857600080fd5b50565b600081519050620005cc81620005a1565b92915050565b6000819050919050565b620005e781620005d2565b8114620005f357600080fd5b50565b6000815190506200060781620005dc565b92915050565b600080fd5b600080fd5b6000601f19601f8301169050919050565b7f4e487b7100000000000000000000000000000000000000000000000000000000600052604160045260246000fd5b620006628262000617565b810181811067ffffffffffffffff8211171562000684576200068362000628565b5b80604052505050565b600062000699620004bf565b9050620006a7828262000657565b919050565b600067ffffffffffffffff821115620006ca57620006c962000628565b5b620006d58262000617565b9050602081019050919050565b60005b8381101562000702578082015181840152602081019050620006e5565b8381111562000712576000848401525b50505050565b60006200072f6200072984620006ac565b6200068d565b9050828152602081018484840111156200074e576200074d62000612565b5b6200075b848285620006e2565b509392505050565b600082601f8301126200077b576200077a6200060d565b5b81516200078d84826020860162000718565b91505092915050565b600080600080600080600080610100898b031215620007ba57620007b9620004c9565b5b6000620007ca8b828c0162000535565b9850506020620007dd8b828c016200057a565b9750506040620007f08b828c01620005bb565b9650506060620008038b828c01620005f6565b9550506080620008168b828c01620005f6565b94505060a0620008298b828c01620005f6565b93505060c06200083c8b828c01620005f6565b92505060e089015167ffffffffffffffff81111562000860576200085f620004ce565b5b6200086e8b828c0162000763565b9150509295985092959890939650565b600082825260208201905092915050565b7f676f6f6420686164206265656e20696e697469616c697a65642e000000000000600082015250565b6000620008c7601a836200087e565b9150620008d4826200088f565b602082019050919050565b60006020820190508181036000830152620008fa81620008b8565b9050919050565b6200090c8162000591565b82525050565b600060208201905062000929600083018462000901565b92915050565b60008115159050919050565b62000946816200092f565b81146200095257600080fd5b50565b60008151905062000966816200093b565b92915050565b600060208284031215620009855762000984620004c9565b5b6000620009958482850162000955565b91505092915050565b7f6475706c696361746520676f6f64496400000000000000000000000000000000600082015250565b6000620009d66010836200087e565b9150620009e3826200099e565b602082019050919050565b6000602082019050818103600083015262000a0981620009c7565b9050919050565b7f4e487b7100000000000000000000000000000000000000000000000000000000600052602260045260246000fd5b6000600282049050600182168062000a5857607f821691505b60208210810362000a6e5762000a6d62000a10565b5b50919050565b613c648062000a846000396000f3fe608060405234801561001057600080fd5b50600436106101e55760003560e01c806394541fdb1161010f578063df1dcaa9116100a2578063eecf801e11610071578063eecf801e1461054b578063f2fde38b1461057b578063fc0c546a14610597578063fcaa7664146105b5576101e5565b8063df1dcaa9146104d5578063df4c0ab1146104f1578063dfbf53ae1461050f578063e467fa801461052d576101e5565b8063c01d1c60116100de578063c01d1c601461044b578063c15e296b14610469578063c379b4be14610487578063d180b744146104a5576101e5565b806394541fdb146103d3578063a8b38205146103f1578063a9135d171461040f578063ab388c961461042d576101e5565b80633f0e901611610187578063715018a611610156578063715018a6146103575780637676d235146103615780638da5cb5b1461038157806393a3ffe91461039f576101e5565b80633f0e9016146102e15780634ed02622146102ff57806350b447121461031d5780635d495aea1461034d576101e5565b80631bbf17c5116101c35780631bbf17c5146102595780632e40945e146102775780633b4da69f146102a75780633d98fc17146102c3576101e5565b806304660449146101ea578063049878f314610208578063118b953514610224575b600080fd5b6101f26105d3565b6040516101ff91906127de565b60405180910390f35b610222600480360381019061021d919061282a565b6105d9565b005b61023e600480360381019061023991906128b5565b610652565b6040516102509695949392919061290c565b60405180910390f35b6102616106c8565b60405161026e91906127de565b60405180910390f35b610291600480360381019061028c919061282a565b6106ce565b60405161029e91906127de565b60405180910390f35b6102c160048036038101906102bc919061296d565b6106f2565b005b6102cb61076c565b6040516102d891906129ad565b60405180910390f35b6102e9610771565b6040516102f69190612afd565b60405180910390f35b61030761084e565b6040516103149190612bce565b60405180910390f35b6103376004803603810190610332919061282a565b6108e2565b6040516103449190612bf0565b60405180910390f35b610355610921565b005b61035f610fc1565b005b610369611049565b60405161037893929190612c0b565b60405180910390f35b610389611061565b6040516103969190612bf0565b60405180910390f35b6103b960048036038101906103b4919061282a565b61108b565b6040516103ca959493929190612c42565b60405180910390f35b6103db6110f1565b6040516103e89190612d0c565b60405180910390f35b6103f96111d3565b60405161040691906127de565b60405180910390f35b6104176111d9565b6040516104249190612dc0565b60405180910390f35b610435611267565b60405161044291906129ad565b60405180910390f35b610453611270565b60405161046091906127de565b60405180910390f35b610471611313565b60405161047e91906127de565b60405180910390f35b61048f611319565b60405161049c91906127de565b60405180910390f35b6104bf60048036038101906104ba919061296d565b61131f565b6040516104cc91906127de565b60405180910390f35b6104ef60048036038101906104ea919061282a565b611350565b005b6104f96113d6565b6040516105069190612e01565b60405180910390f35b6105176113ec565b6040516105249190612bf0565b60405180910390f35b610535611412565b60405161054291906127de565b60405180910390f35b610565600480360381019061056091906128b5565b611418565b6040516105729190612ecb565b60405180910390f35b610595600480360381019061059091906128b5565b6114af565b005b61059f6115a6565b6040516105ac9190612f4c565b60405180910390f35b6105bd6115ca565b6040516105ca9190612faf565b60405180910390f35b60055481565b60006105e533836115e1565b9050600060028111156105fb576105fa612c95565b5b81600281111561060e5761060d612c95565b5b1461064e576040517f08c379a000000000000000000000000000000000000000000000000000000000815260040161064590613016565b60405180910390fd5b5050565b60066020528060005260406000206000915090508060000160009054906101000a900473ffffffffffffffffffffffffffffffffffffffff16908060010154908060020160009054906101000a900460ff16908060020160019054906101000a900460ff16908060030154908060040154905086565b600d5481565b600b81815481106106de57600080fd5b906000526020600020016000915090505481565b60006106fe83836115e1565b90506000600281111561071457610713612c95565b5b81600281111561072757610726612c95565b5b14610767576040517f08c379a000000000000000000000000000000000000000000000000000000000815260040161075e90613082565b60405180910390fd5b505050565b600181565b60606008805480602002602001604051908101604052809291908181526020016000905b8282101561084557838290600052602060002090600502016040518060a00160405290816000820160009054906101000a900473ffffffffffffffffffffffffffffffffffffffff1673ffffffffffffffffffffffffffffffffffffffff1673ffffffffffffffffffffffffffffffffffffffff16815260200160018201548152602001600282015481526020016003820154815260200160048201548152505081526020019060010190610795565b50505050905090565b60606000600a8054806020026020016040519081016040528092919081815260200182805480156108d457602002820191906000526020600020905b8160009054906101000a900473ffffffffffffffffffffffffffffffffffffffff1673ffffffffffffffffffffffffffffffffffffffff168152602001906001019080831161088a575b505050505090508091505090565b600a81815481106108f257600080fd5b906000526020600020016000915054906101000a900473ffffffffffffffffffffffffffffffffffffffff1681565b610929611267565b610968576040517f08c379a000000000000000000000000000000000000000000000000000000000815260040161095f906130ee565b60405180910390fd5b600073ffffffffffffffffffffffffffffffffffffffff16601160009054906101000a900473ffffffffffffffffffffffffffffffffffffffff1673ffffffffffffffffffffffffffffffffffffffff16036109f9576040517f08c379a00000000000000000000000000000000000000000000000000000000081526004016109f09061315a565b60405180910390fd5b60056006811115610a0d57610a0c612c95565b5b601260149054906101000a900460ff166006811115610a2f57610a2e612c95565b5b14158015610a705750600680811115610a4b57610a4a612c95565b5b601260149054906101000a900460ff166006811115610a6d57610a6c612c95565b5b14155b610aaf576040517f08c379a0000000000000000000000000000000000000000000000000000000008152600401610aa6906131c6565b60405180910390fd5b61012c600354610abf9190613215565b421015610b01576040517f08c379a0000000000000000000000000000000000000000000000000000000008152600401610af8906132b7565b60405180910390fd5b6000600a8054905003610ba5576006601260146101000a81548160ff02191690836006811115610b3457610b33612c95565b5b02179055507f2bd454aea220f47ef41df4dc4bfd0823d826b9fc69aa5f871369edd5086267cb600c60009054906101000a900473ffffffffffffffffffffffffffffffffffffffff16600154600080600080604051610b9896959493929190613312565b60405180910390a1610fbf565b6004601260146101000a81548160ff02191690836006811115610bcb57610bca612c95565b5b02179055506000600a80549050610be0611c11565b610bea91906133a2565b9050600a8181548110610c0057610bff6133d3565b5b9060005260206000200160009054906101000a900473ffffffffffffffffffffffffffffffffffffffff16600c60006101000a81548173ffffffffffffffffffffffffffffffffffffffff021916908373ffffffffffffffffffffffffffffffffffffffff160217905550601160009054906101000a900473ffffffffffffffffffffffffffffffffffffffff1673ffffffffffffffffffffffffffffffffffffffff166325281939306040518263ffffffff1660e01b8152600401610cc69190612bf0565b6020604051808303816000875af1158015610ce5573d6000803e3d6000fd5b505050506040513d601f19601f82011682018060405250810190610d099190613417565b5060008060009054906101000a900473ffffffffffffffffffffffffffffffffffffffff1673ffffffffffffffffffffffffffffffffffffffff166370a08231306040518263ffffffff1660e01b8152600401610d669190612bf0565b602060405180830381865afa158015610d83573d6000803e3d6000fd5b505050506040513d601f19601f82011682018060405250810190610da79190613417565b905060008060009054906101000a900473ffffffffffffffffffffffffffffffffffffffff1673ffffffffffffffffffffffffffffffffffffffff1663313ce5676040518163ffffffff1660e01b8152600401602060405180830381865afa158015610e17573d6000803e3d6000fd5b505050506040513d601f19601f82011682018060405250810190610e3b919061347d565b600a610e4791906135dd565b90506000610e5760015483611c47565b90506000806000610e6784611c91565b905060006002811115610e7d57610e7c612c95565b5b816002811115610e9057610e8f612c95565b5b14610ed0576040517f08c379a0000000000000000000000000000000000000000000000000000000008152600401610ec790613674565b60405180910390fd5b610ed8611d5e565b8093508194505050604051806060016040528043815260200142815260200188815250600e6000820151816000015560208201518160010155604082015181600201559050506005601260146101000a81548160ff02191690836006811115610f4457610f43612c95565b5b021790555081600d819055507f2bd454aea220f47ef41df4dc4bfd0823d826b9fc69aa5f871369edd5086267cb600c60009054906101000a900473ffffffffffffffffffffffffffffffffffffffff166001548886600d5487604051610faf96959493929190613694565b60405180910390a1505050505050505b565b610fc9612518565b73ffffffffffffffffffffffffffffffffffffffff16610fe7611061565b73ffffffffffffffffffffffffffffffffffffffff161461103d576040517f08c379a000000000000000000000000000000000000000000000000000000000815260040161103490613741565b60405180910390fd5b6110476000612520565b565b600e8060000154908060010154908060020154905083565b6000601260009054906101000a900473ffffffffffffffffffffffffffffffffffffffff16905090565b6008818154811061109b57600080fd5b90600052602060002090600502016000915090508060000160009054906101000a900473ffffffffffffffffffffffffffffffffffffffff16908060010154908060020154908060030154908060040154905085565b6000804290506001600681111561110b5761110a612c95565b5b601260149054906101000a900460ff16600681111561112d5761112c612c95565b5b1480156111475750603c6002546111449190613215565b81115b8015611154575060035481105b15611185576002601260146101000a81548160ff0219169083600681111561117f5761117e612c95565b5b02179055505b6002600681111561119957611198612c95565b5b601260149054906101000a900460ff1660068111156111bb576111ba612c95565b5b146111ca5760029150506111d0565b60009150505b90565b60035481565b600480546111e690613790565b80601f016020809104026020016040519081016040528092919081815260200182805461121290613790565b801561125f5780601f106112345761010080835404028352916020019161125f565b820191906000526020600020905b81548152906001019060200180831161124257829003601f168201915b505050505081565b60006001905090565b60008060009054906101000a900473ffffffffffffffffffffffffffffffffffffffff1673ffffffffffffffffffffffffffffffffffffffff1663313ce5676040518163ffffffff1660e01b8152600401602060405180830381865afa1580156112de573d6000803e3d6000fd5b505050506040513d601f19601f82011682018060405250810190611302919061347d565b600a61130e91906135dd565b905090565b60095481565b60015481565b6007602052816000526040600020818154811061133b57600080fd5b90600052602060002001600091509150505481565b611358612518565b73ffffffffffffffffffffffffffffffffffffffff16611376611061565b73ffffffffffffffffffffffffffffffffffffffff16146113cc576040517f08c379a00000000000000000000000000000000000000000000000000000000081526004016113c390613741565b60405180910390fd5b8060038190555050565b600060149054906101000a900463ffffffff1681565b600c60009054906101000a900473ffffffffffffffffffffffffffffffffffffffff1681565b60025481565b6060600760008373ffffffffffffffffffffffffffffffffffffffff1673ffffffffffffffffffffffffffffffffffffffff1681526020019081526020016000208054806020026020016040519081016040528092919081815260200182805480156114a357602002820191906000526020600020905b81548152602001906001019080831161148f575b50505050509050919050565b6114b7612518565b73ffffffffffffffffffffffffffffffffffffffff166114d5611061565b73ffffffffffffffffffffffffffffffffffffffff161461152b576040517f08c379a000000000000000000000000000000000000000000000000000000000815260040161152290613741565b60405180910390fd5b600073ffffffffffffffffffffffffffffffffffffffff168173ffffffffffffffffffffffffffffffffffffffff160361159a576040517f08c379a000000000000000000000000000000000000000000000000000000000815260040161159190613833565b60405180910390fd5b6115a381612520565b50565b60008054906101000a900473ffffffffffffffffffffffffffffffffffffffff1681565b6000601260149054906101000a900460ff16905090565b6000806115ec6110f1565b90506000600281111561160257611601612c95565b5b81600281111561161557611614612c95565b5b14611655576040517f08c379a000000000000000000000000000000000000000000000000000000000815260040161164c9061389f565b60405180910390fd5b60008311611667576001915050611c0b565b60008060009054906101000a900473ffffffffffffffffffffffffffffffffffffffff1673ffffffffffffffffffffffffffffffffffffffff1663313ce5676040518163ffffffff1660e01b8152600401602060405180830381865afa1580156116d5573d6000803e3d6000fd5b505050506040513d601f19601f820116820180604052508101906116f9919061347d565b600a61170591906135dd565b905060008054906101000a900473ffffffffffffffffffffffffffffffffffffffff1673ffffffffffffffffffffffffffffffffffffffff166323b872dd863061174f8589611c47565b6040518463ffffffff1660e01b815260040161176d939291906138bf565b6020604051808303816000875af115801561178c573d6000803e3d6000fd5b505050506040513d601f19601f820116820180604052508101906117b09190613922565b5060005b8481101561183257600a869080600181540180825580915050600190039060005260206000200160009091909190916101000a81548173ffffffffffffffffffffffffffffffffffffffff021916908373ffffffffffffffffffffffffffffffffffffffff160217905550808061182a9061394f565b9150506117b4565b50600660008673ffffffffffffffffffffffffffffffffffffffff1673ffffffffffffffffffffffffffffffffffffffff16815260200190815260200160002060020160009054906101000a900460ff166119d1576040518060c001604052808673ffffffffffffffffffffffffffffffffffffffff1681526020016000815260200160011515815260200160001515815260200142815260200143815250600660008773ffffffffffffffffffffffffffffffffffffffff1673ffffffffffffffffffffffffffffffffffffffff16815260200190815260200160002060008201518160000160006101000a81548173ffffffffffffffffffffffffffffffffffffffff021916908373ffffffffffffffffffffffffffffffffffffffff1602179055506020820151816001015560408201518160020160006101000a81548160ff02191690831515021790555060608201518160020160016101000a81548160ff0219169083151502179055506080820151816003015560a08201518160040155905050600960008154809291906119cb9061394f565b91905055505b611a1d600660008773ffffffffffffffffffffffffffffffffffffffff1673ffffffffffffffffffffffffffffffffffffffff16815260200190815260200160002060010154856125e6565b600660008773ffffffffffffffffffffffffffffffffffffffff1673ffffffffffffffffffffffffffffffffffffffff16815260200190815260200160002060010181905550600760008673ffffffffffffffffffffffffffffffffffffffff1673ffffffffffffffffffffffffffffffffffffffff168152602001908152602001600020600880549050908060018154018082558091505060019003906000526020600020016000909190919091505560086040518060a001604052808773ffffffffffffffffffffffffffffffffffffffff16815260200186600a80549050611b089190613997565b815260200186815260200142815260200143815250908060018154018082558091505060019003906000526020600020906005020160009091909190915060008201518160000160006101000a81548173ffffffffffffffffffffffffffffffffffffffff021916908373ffffffffffffffffffffffffffffffffffffffff1602179055506020820151816001015560408201518160020155606082015181600301556080820151816004015550507fd755b6433b8fc2eed90a53dff0d71bbe5f026d44a1e230fea6c1e1a262c41a218585600060149054906101000a900463ffffffff16604051611bfc939291906139cb565b60405180910390a16000925050505b92915050565b60004442600a604051602001611c2993929190613b41565b6040516020818303038152906040528051906020012060001c905090565b6000611c8983836040518060400160405280601781526020017f6d756c7469706c69636174696f6e206f766572666c6f77000000000000000000815250612630565b905092915050565b60008060009054906101000a900473ffffffffffffffffffffffffffffffffffffffff1673ffffffffffffffffffffffffffffffffffffffff1663a9059cbb600c60009054906101000a900473ffffffffffffffffffffffffffffffffffffffff16846040518363ffffffff1660e01b8152600401611d11929190613b7a565b6020604051808303816000875af1158015611d30573d6000803e3d6000fd5b505050506040513d601f19601f82011682018060405250810190611d549190613922565b5060009050919050565b60008060008060009054906101000a900473ffffffffffffffffffffffffffffffffffffffff1673ffffffffffffffffffffffffffffffffffffffff166370a08231306040518263ffffffff1660e01b8152600401611dbd9190612bf0565b602060405180830381865afa158015611dda573d6000803e3d6000fd5b505050506040513d601f19601f82011682018060405250810190611dfe9190613417565b905060008111611e15576000809250925050612514565b6000611e2a600554611e25611270565b611c47565b9050808211611ee75760008054906101000a900473ffffffffffffffffffffffffffffffffffffffff1673ffffffffffffffffffffffffffffffffffffffff1663a9059cbb611e77611061565b836040518363ffffffff1660e01b8152600401611e95929190613b7a565b6020604051808303816000875af1158015611eb4573d6000803e3d6000fd5b505050506040513d601f19601f82011682018060405250810190611ed89190613922565b50816000935093505050612514565b60008183611ef59190613997565b9050600060066000600c60009054906101000a900473ffffffffffffffffffffffffffffffffffffffff1673ffffffffffffffffffffffffffffffffffffffff1673ffffffffffffffffffffffffffffffffffffffff16815260200190815260200160002060010154600a80549050611f6e9190613997565b90506000811115612306576000611f8583836126bb565b905060005b600a805490508110156121b3576000600a8281548110611fad57611fac6133d3565b5b9060005260206000200160009054906101000a900473ffffffffffffffffffffffffffffffffffffffff169050600c60009054906101000a900473ffffffffffffffffffffffffffffffffffffffff1673ffffffffffffffffffffffffffffffffffffffff168173ffffffffffffffffffffffffffffffffffffffff160361203557506121a0565b6000600660008373ffffffffffffffffffffffffffffffffffffffff1673ffffffffffffffffffffffffffffffffffffffff16815260200190815260200160002090508060020160019054906101000a900460ff16156120965750506121a0565b60008054906101000a900473ffffffffffffffffffffffffffffffffffffffff1673ffffffffffffffffffffffffffffffffffffffff1663a9059cbb600a85815481106120e6576120e56133d3565b5b9060005260206000200160009054906101000a900473ffffffffffffffffffffffffffffffffffffffff1661211f846001015488611c47565b6040518363ffffffff1660e01b815260040161213c929190613b7a565b6020604051808303816000875af115801561215b573d6000803e3d6000fd5b505050506040513d601f19601f8201168201806040525081019061217f9190613922565b5060018160020160016101000a81548160ff02191690831515021790555050505b80806121ab9061394f565b915050611f8a565b5060008054906101000a900473ffffffffffffffffffffffffffffffffffffffff1673ffffffffffffffffffffffffffffffffffffffff166370a08231306040518263ffffffff1660e01b815260040161220d9190612bf0565b602060405180830381865afa15801561222a573d6000803e3d6000fd5b505050506040513d601f19601f8201168201806040525081019061224e9190613417565b945060008054906101000a900473ffffffffffffffffffffffffffffffffffffffff1673ffffffffffffffffffffffffffffffffffffffff1663a9059cbb612294611061565b876040518363ffffffff1660e01b81526004016122b2929190613b7a565b6020604051808303816000875af11580156122d1573d6000803e3d6000fd5b505050506040513d601f19601f820116820180604052508101906122f59190613922565b508481965096505050505050612514565b60008054906101000a900473ffffffffffffffffffffffffffffffffffffffff1673ffffffffffffffffffffffffffffffffffffffff1663a9059cbb61234a611061565b856040518363ffffffff1660e01b8152600401612368929190613b7a565b6020604051808303816000875af1158015612387573d6000803e3d6000fd5b505050506040513d601f19601f820116820180604052508101906123ab9190613922565b5060008054906101000a900473ffffffffffffffffffffffffffffffffffffffff1673ffffffffffffffffffffffffffffffffffffffff166370a08231306040518263ffffffff1660e01b81526004016124059190612bf0565b602060405180830381865afa158015612422573d6000803e3d6000fd5b505050506040513d601f19601f820116820180604052508101906124469190613417565b935060008054906101000a900473ffffffffffffffffffffffffffffffffffffffff1673ffffffffffffffffffffffffffffffffffffffff1663a9059cbb600c60009054906101000a900473ffffffffffffffffffffffffffffffffffffffff16866040518363ffffffff1660e01b81526004016124c5929190613b7a565b6020604051808303816000875af11580156124e4573d6000803e3d6000fd5b505050506040513d601f19601f820116820180604052508101906125089190613922565b50828495509550505050505b9091565b600033905090565b6000601260009054906101000a900473ffffffffffffffffffffffffffffffffffffffff16905081601260006101000a81548173ffffffffffffffffffffffffffffffffffffffff021916908373ffffffffffffffffffffffffffffffffffffffff1602179055508173ffffffffffffffffffffffffffffffffffffffff168173ffffffffffffffffffffffffffffffffffffffff167f8be0079c531659141344cd1fd0a4f28419497f9722a3daafe3b4186f6b6457e060405160405180910390a35050565b600061262883836040518060400160405280601181526020017f6164646974696f6e206f766572666c6f77000000000000000000000000000000815250612705565b905092915050565b6000808414806126405750600083145b1561264e57600090506126b4565b6000838561265c9190613ba3565b905083858261266b9190613bfd565b1483906126ae576040517f08c379a00000000000000000000000000000000000000000000000000000000081526004016126a59190612dc0565b60405180910390fd5b50809150505b9392505050565b60006126fd83836040518060400160405280600e81526020017f646976696465206279207a65726f000000000000000000000000000000000000815250612768565b905092915050565b60008083856127149190613215565b905084811015839061275c576040517f08c379a00000000000000000000000000000000000000000000000000000000081526004016127539190612dc0565b60405180910390fd5b50809150509392505050565b600080831182906127af576040517f08c379a00000000000000000000000000000000000000000000000000000000081526004016127a69190612dc0565b60405180910390fd5b5082846127bc9190613bfd565b90509392505050565b6000819050919050565b6127d8816127c5565b82525050565b60006020820190506127f360008301846127cf565b92915050565b600080fd5b612807816127c5565b811461281257600080fd5b50565b600081359050612824816127fe565b92915050565b6000602082840312156128405761283f6127f9565b5b600061284e84828501612815565b91505092915050565b600073ffffffffffffffffffffffffffffffffffffffff82169050919050565b600061288282612857565b9050919050565b61289281612877565b811461289d57600080fd5b50565b6000813590506128af81612889565b92915050565b6000602082840312156128cb576128ca6127f9565b5b60006128d9848285016128a0565b91505092915050565b6128eb81612877565b82525050565b60008115159050919050565b612906816128f1565b82525050565b600060c08201905061292160008301896128e2565b61292e60208301886127cf565b61293b60408301876128fd565b61294860608301866128fd565b61295560808301856127cf565b61296260a08301846127cf565b979650505050505050565b60008060408385031215612984576129836127f9565b5b6000612992858286016128a0565b92505060206129a385828601612815565b9150509250929050565b60006020820190506129c260008301846128fd565b92915050565b600081519050919050565b600082825260208201905092915050565b6000819050602082019050919050565b6129fd81612877565b82525050565b612a0c816127c5565b82525050565b60a082016000820151612a2860008501826129f4565b506020820151612a3b6020850182612a03565b506040820151612a4e6040850182612a03565b506060820151612a616060850182612a03565b506080820151612a746080850182612a03565b50505050565b6000612a868383612a12565b60a08301905092915050565b6000602082019050919050565b6000612aaa826129c8565b612ab481856129d3565b9350612abf836129e4565b8060005b83811015612af0578151612ad78882612a7a565b9750612ae283612a92565b925050600181019050612ac3565b5085935050505092915050565b60006020820190508181036000830152612b178184612a9f565b905092915050565b600081519050919050565b600082825260208201905092915050565b6000819050602082019050919050565b6000612b5783836129f4565b60208301905092915050565b6000602082019050919050565b6000612b7b82612b1f565b612b858185612b2a565b9350612b9083612b3b565b8060005b83811015612bc1578151612ba88882612b4b565b9750612bb383612b63565b925050600181019050612b94565b5085935050505092915050565b60006020820190508181036000830152612be88184612b70565b905092915050565b6000602082019050612c0560008301846128e2565b92915050565b6000606082019050612c2060008301866127cf565b612c2d60208301856127cf565b612c3a60408301846127cf565b949350505050565b600060a082019050612c5760008301886128e2565b612c6460208301876127cf565b612c7160408301866127cf565b612c7e60608301856127cf565b612c8b60808301846127cf565b9695505050505050565b7f4e487b7100000000000000000000000000000000000000000000000000000000600052602160045260246000fd5b60038110612cd557612cd4612c95565b5b50565b6000819050612ce682612cc4565b919050565b6000612cf682612cd8565b9050919050565b612d0681612ceb565b82525050565b6000602082019050612d216000830184612cfd565b92915050565b600081519050919050565b600082825260208201905092915050565b60005b83811015612d61578082015181840152602081019050612d46565b83811115612d70576000848401525b50505050565b6000601f19601f8301169050919050565b6000612d9282612d27565b612d9c8185612d32565b9350612dac818560208601612d43565b612db581612d76565b840191505092915050565b60006020820190508181036000830152612dda8184612d87565b905092915050565b600063ffffffff82169050919050565b612dfb81612de2565b82525050565b6000602082019050612e166000830184612df2565b92915050565b600081519050919050565b600082825260208201905092915050565b6000819050602082019050919050565b6000612e548383612a03565b60208301905092915050565b6000602082019050919050565b6000612e7882612e1c565b612e828185612e27565b9350612e8d83612e38565b8060005b83811015612ebe578151612ea58882612e48565b9750612eb083612e60565b925050600181019050612e91565b5085935050505092915050565b60006020820190508181036000830152612ee58184612e6d565b905092915050565b6000819050919050565b6000612f12612f0d612f0884612857565b612eed565b612857565b9050919050565b6000612f2482612ef7565b9050919050565b6000612f3682612f19565b9050919050565b612f4681612f2b565b82525050565b6000602082019050612f616000830184612f3d565b92915050565b60078110612f7857612f77612c95565b5b50565b6000819050612f8982612f67565b919050565b6000612f9982612f7b565b9050919050565b612fa981612f8e565b82525050565b6000602082019050612fc46000830184612fa0565b92915050565b7f6a6f696e206661696c6564000000000000000000000000000000000000000000600082015250565b6000613000600b83612d32565b915061300b82612fca565b602082019050919050565b6000602082019050818103600083015261302f81612ff3565b9050919050565b7f6a6f696e206661696c6564200000000000000000000000000000000000000000600082015250565b600061306c600c83612d32565b915061307782613036565b602082019050919050565b6000602082019050818103600083015261309b8161305f565b9050919050565b7f63616e206e6f74207069636b0000000000000000000000000000000000000000600082015250565b60006130d8600c83612d32565b91506130e3826130a2565b602082019050919050565b60006020820190508181036000830152613107816130cb565b9050919050565b7f636f6d7074726f6c6c6572206973206e6f7420656d7074790000000000000000600082015250565b6000613144601883612d32565b915061314f8261310e565b602082019050919050565b6000602082019050818103600083015261317381613137565b9050919050565b7f7069636b2077696e6e6572206861642066696e69736865640000000000000000600082015250565b60006131b0601883612d32565b91506131bb8261317a565b602082019050919050565b600060208201905081810360008301526131df816131a3565b9050919050565b7f4e487b7100000000000000000000000000000000000000000000000000000000600052601160045260246000fd5b6000613220826127c5565b915061322b836127c5565b9250827fffffffffffffffffffffffffffffffffffffffffffffffffffffffffffffffff038211156132605761325f6131e6565b5b828201905092915050565b7f63616e206e6f74207069636b2077696e6e657200000000000000000000000000600082015250565b60006132a1601383612d32565b91506132ac8261326b565b602082019050919050565b600060208201905081810360008301526132d081613294565b9050919050565b6000819050919050565b60006132fc6132f76132f2846132d7565b612eed565b6127c5565b9050919050565b61330c816132e1565b82525050565b600060c08201905061332760008301896128e2565b61333460208301886127cf565b6133416040830187613303565b61334e6060830186613303565b61335b6080830185613303565b61336860a0830184613303565b979650505050505050565b7f4e487b7100000000000000000000000000000000000000000000000000000000600052601260045260246000fd5b60006133ad826127c5565b91506133b8836127c5565b9250826133c8576133c7613373565b5b828206905092915050565b7f4e487b7100000000000000000000000000000000000000000000000000000000600052603260045260246000fd5b600081519050613411816127fe565b92915050565b60006020828403121561342d5761342c6127f9565b5b600061343b84828501613402565b91505092915050565b600060ff82169050919050565b61345a81613444565b811461346557600080fd5b50565b60008151905061347781613451565b92915050565b600060208284031215613493576134926127f9565b5b60006134a184828501613468565b91505092915050565b60008160011c9050919050565b6000808291508390505b6001851115613501578086048111156134dd576134dc6131e6565b5b60018516156134ec5780820291505b80810290506134fa856134aa565b94506134c1565b94509492505050565b60008261351a57600190506135d6565b8161352857600090506135d6565b816001811461353e576002811461354857613577565b60019150506135d6565b60ff84111561355a576135596131e6565b5b8360020a915084821115613571576135706131e6565b5b506135d6565b5060208310610133831016604e8410600b84101617156135ac5782820a9050838111156135a7576135a66131e6565b5b6135d6565b6135b984848460016134b7565b925090508184048111156135d0576135cf6131e6565b5b81810290505b9392505050565b60006135e8826127c5565b91506135f383613444565b92506136207fffffffffffffffffffffffffffffffffffffffffffffffffffffffffffffffff848461350a565b905092915050565b7f73656e6420746f2077696e6e6572206661696c65642e00000000000000000000600082015250565b600061365e601683612d32565b915061366982613628565b602082019050919050565b6000602082019050818103600083015261368d81613651565b9050919050565b600060c0820190506136a960008301896128e2565b6136b660208301886127cf565b6136c360408301876127cf565b6136d060608301866127cf565b6136dd60808301856127cf565b6136ea60a08301846127cf565b979650505050505050565b7f4f776e61626c653a2063616c6c6572206973206e6f7420746865206f776e6572600082015250565b600061372b602083612d32565b9150613736826136f5565b602082019050919050565b6000602082019050818103600083015261375a8161371e565b9050919050565b7f4e487b7100000000000000000000000000000000000000000000000000000000600052602260045260246000fd5b600060028204905060018216806137a857607f821691505b6020821081036137bb576137ba613761565b5b50919050565b7f4f776e61626c653a206e6577206f776e657220697320746865207a65726f206160008201527f6464726573730000000000000000000000000000000000000000000000000000602082015250565b600061381d602683612d32565b9150613828826137c1565b604082019050919050565b6000602082019050818103600083015261384c81613810565b9050919050565b7f73746167652076616c6964206661696c65640000000000000000000000000000600082015250565b6000613889601283612d32565b915061389482613853565b602082019050919050565b600060208201905081810360008301526138b88161387c565b9050919050565b60006060820190506138d460008301866128e2565b6138e160208301856128e2565b6138ee60408301846127cf565b949350505050565b6138ff816128f1565b811461390a57600080fd5b50565b60008151905061391c816138f6565b92915050565b600060208284031215613938576139376127f9565b5b60006139468482850161390d565b91505092915050565b600061395a826127c5565b91507fffffffffffffffffffffffffffffffffffffffffffffffffffffffffffffffff820361398c5761398b6131e6565b5b600182019050919050565b60006139a2826127c5565b91506139ad836127c5565b9250828210156139c0576139bf6131e6565b5b828203905092915050565b60006060820190506139e060008301866128e2565b6139ed60208301856127cf565b6139fa6040830184612df2565b949350505050565b6000819050919050565b613a1d613a18826127c5565b613a02565b82525050565b600081549050919050565b600081905092915050565b60008190508160005260206000209050919050565b613a5781612877565b82525050565b6000613a698383613a4e565b60208301905092915050565b60008160001c9050919050565b600073ffffffffffffffffffffffffffffffffffffffff82169050919050565b6000613ab5613ab083613a75565b613a82565b9050919050565b6000613ac88254613aa2565b9050919050565b6000600182019050919050565b6000613ae782613a23565b613af18185613a2e565b9350613afc83613a39565b8060005b83811015613b3457613b1182613abc565b613b1b8882613a5d565b9750613b2683613acf565b925050600181019050613b00565b5085935050505092915050565b6000613b4d8286613a0c565b602082019150613b5d8285613a0c565b602082019150613b6d8284613adc565b9150819050949350505050565b6000604082019050613b8f60008301856128e2565b613b9c60208301846127cf565b9392505050565b6000613bae826127c5565b9150613bb9836127c5565b9250817fffffffffffffffffffffffffffffffffffffffffffffffffffffffffffffffff0483118215151615613bf257613bf16131e6565b5b828202905092915050565b6000613c08826127c5565b9150613c13836127c5565b925082613c2357613c22613373565b5b82820490509291505056fea26469706673582212203b4899dd47b6566225268e431ee4a767f803ca741a6c66d9ef63f2e7e62f6b5164736f6c634300080d0033",
  "immutableReferences": {},
  "source": "// SPDX-License-Identifier: MIT\npragma solidity >=0.4.22 <0.9.0;\n\nimport \"@openzeppelin/contracts/access/Ownable.sol\";\nimport \"@openzeppelin/contracts/token/ERC20/IERC20.sol\";\nimport \"@openzeppelin/contracts/token/ERC20/extensions/IERC20Metadata.sol\";\n\nimport \"./Exponential.sol\";\nimport \"./ComptrollerInterface.sol\";\nimport \"./GoodInterface.sol\";\n\ncontract GoodLottery is GoodStorage, Ownable, Exponential {\n\n\n    Stage private stage = Stage.NONE;\n\n    constructor(\n        ComptrollerInterface _comptroller,\n        IERC20 _token,\n        uint32 _goodId,\n        uint256 _goodValue,\n        uint256 _maintenanceFee,\n        uint256 _publishTime,\n        uint256 _lockedTime,\n        string memory _goodHash\n    ) Ownable() {\n        initialize(\n            _comptroller,\n            _token,\n            _goodId,\n            _goodValue,\n            _maintenanceFee,\n            _publishTime,\n            _lockedTime,\n            _goodHash\n        );\n    }\n\n    function initialize(\n        ComptrollerInterface _comptroller,\n        IERC20 _token,\n        uint32 _goodId,\n        uint256 _goodValue,\n        uint256 _maintenanceFee,\n        uint256 _publishTime,\n        uint256 _lockedTime,\n        string memory _goodHash\n    ) internal {\n        require(stage == Stage.NONE, \"good had been initialized.\");\n        require(!_comptroller.isDuplicateGoodId(goodId), \"duplicate goodId\");\n\n        goodId = _goodId;\n        goodValue = _goodValue;\n        publishTime = _publishTime;\n        lockedTime = _lockedTime;\n        token = _token;\n        comptroller = _comptroller;\n        stage = Stage.INIT;\n        maintenanceFee = _maintenanceFee;\n        goodHash = _goodHash;\n    }\n\n    function setLockedTime(uint256 _lockedTime) public onlyOwner {\n        lockedTime = _lockedTime;\n    }\n\n    function join(uint256 amount) public {\n        Error e = joinInternal(msg.sender, amount);\n        require(e == Error.NO_ERROR, \"join failed\");\n    }\n\n    function join(address user, uint256 amount) external {\n        Error e = joinInternal(user, amount);\n        require(e == Error.NO_ERROR, \"join failed \");\n    }\n\n    function joinInternal(address user, uint256 amount)\n        internal\n        returns (Error)\n    {\n        \n        Error err = checkCanJoin();\n\n        if(err != Error.NO_ERROR) {\n            revert(\"stage valid failed\");\n        }\n\n        if (amount <= 0) {\n            return Error.INVALID_PARAMETER;\n        }\n\n        uint256 decimal = 10**IERC20Metadata(address(token)).decimals();\n\n        token.transferFrom(user, address(this), mul_(decimal, amount));\n\n        for (uint256 i = 0; i < amount; i++) {\n            tickets.push(user);\n        }\n\n        if (!userMapping[user].isJoined) {\n            userMapping[user] = UserRecord({\n                user: user,\n                count: 0,\n                isJoined: true, \n                isPaybacked: false,\n                joinTime: block.timestamp,\n                joinBlockNum: block.number\n            });\n            joinedUsers ++;\n        }\n\n        userMapping[user].count = add_(userMapping[user].count, amount);\n\n        userJoinRecordIndex[user].push(userJoinRecords.length);\n\n        userJoinRecords.push(UserJoinRecord({\n                user: user,\n                startIndex: tickets.length - amount,\n                count: amount,\n                joinTime: block.timestamp,\n                joinBlockNum: block.number\n            }));\n\n        emit JoinSuccessful(user, amount, goodId);\n\n        return Error.NO_ERROR;\n    }\n\n    function pickWinner() public {\n        require(checkCanPickWinner(), \"can not pick\");\n        require(address(comptroller) != address(0), \"comptroller is not empty\");\n        require(\n            stage != Stage.FINISHED && stage != Stage.FAILED,\n            \"pick winner had finished\"\n        );\n        require(\n            block.timestamp >= lockedTime + 5 minutes,\n            \"can not pick winner\"\n        );\n        if (tickets.length == 0) {\n            stage = Stage.FAILED;\n            emit LotteryComplete(winner, goodValue, 0, 0, 0, 0);\n            return;\n        }\n\n        stage = Stage.IN_PICK;\n\n        uint256 index = random() % tickets.length;\n\n        winner = tickets[index];\n\n        comptroller.pickWinnerAllowed(address(this));\n\n        uint256 balance = token.balanceOf(address(this));\n        uint256 decimal = 10**IERC20Metadata(address(token)).decimals();\n        uint256 winnerValue = mul_(goodValue, decimal);\n\n        uint256 mf = 0;\n        uint256 paybackUnit = 0;\n        Error resp = payToWinner(winnerValue);\n\n        if(resp != Error.NO_ERROR) {\n            revert(\"send to winner failed.\");\n        }\n\n        (mf, paybackUnit) = paybackBalance();\n\n        winnerTime = WinnerTime({\n            blockNum: block.number,\n            blockTime: block.timestamp, \n            index: index\n            });\n\n        stage = Stage.FINISHED;\n        paybackFee = paybackUnit;\n\n        emit LotteryComplete(winner, goodValue, balance, mf, paybackFee, paybackUnit);\n    }\n\n    function paybackBalance() internal returns (uint256, uint256) {\n        uint256 balance = token.balanceOf(address(this));\n        if (balance <= 0) {\n            return (0, 0);\n        }\n        uint256 mf = mul_(maintenanceFee, getTokenExchangeRate());\n        if (balance <= mf) {\n            token.transfer(owner(), mf);\n            return (balance, 0);\n        }\n\n        uint256 needPaybakcBalance = balance - mf;\n        uint256 winnerCount = tickets.length - userMapping[winner].count;\n        if(winnerCount > 0) {\n            uint paybackUnit = div_(needPaybakcBalance, winnerCount);\n\n            for (uint256 i = 0; i < tickets.length; i++) {\n                address u = tickets[i];\n                if (u == winner) {\n                    continue;\n                }\n                UserRecord storage record = userMapping[u];\n                if(record.isPaybacked) {\n                    continue;\n                }\n\n                token.transfer(\n                    tickets[i],\n                    mul_(record.count, paybackUnit)\n                );\n                record.isPaybacked = true;\n            }\n\n            balance = token.balanceOf(address(this));\n            token.transfer(owner(), balance);\n            return (balance, paybackUnit);\n        } else {\n            token.transfer(owner(), mf);\n            balance = token.balanceOf(address(this));\n            token.transfer(winner, balance);\n            return (mf, balance);\n        }\n\n    }\n\n    function random() internal view returns (uint256) {\n        return\n            uint256(\n                keccak256(\n                    abi.encodePacked(block.difficulty, block.timestamp, tickets)\n                )\n            );\n    }\n\n\n    function checkCanJoin() public virtual returns (Error) {\n        uint256 currentTime = block.timestamp;\n\n        if (\n            stage == Stage.INIT &&\n            currentTime > publishTime + (1 minutes) &&\n            currentTime < lockedTime\n        ) {\n            stage = Stage.CAN_JOIN;\n        }\n\n        if (stage != Stage.CAN_JOIN) {\n            return Error.INVALID_STATUS;\n        }\n\n        return Error.NO_ERROR;\n    }\n\n    function checkCanPickWinner() public view virtual returns (bool) {\n        return true;\n    }\n\n    function payToWinner(uint winnerValue) internal virtual returns (Error) {\n        token.transfer(winner, winnerValue);\n        return Error.NO_ERROR;\n    }\n\n    function getStage() public view returns (Stage) {\n        return stage;\n    }\n}\n",
  "sourcePath": "/Users/jonah/SolidityProject/makewish-contract/contracts/GoodLottery.sol",
  "compiler": {
    "name": "solc",
    "version": "0.8.13+commit.abaa5c0e.Emscripten.clang"
  },
  "schemaVersion": "3.4.7",
  "updatedAt": "2022-06-01T15:40:01.940Z",
  "devdoc": {
    "kind": "dev",
    "methods": {
      "owner()": {
        "details": "Returns the address of the current owner."
      },
      "renounceOwnership()": {
        "details": "Leaves the contract without owner. It will not be possible to call `onlyOwner` functions anymore. Can only be called by the current owner. NOTE: Renouncing ownership will leave the contract without an owner, thereby removing any functionality that is only available to the owner."
      },
      "transferOwnership(address)": {
        "details": "Transfers ownership of the contract to a new account (`newOwner`). Can only be called by the current owner."
      }
    },
    "version": 1
  },
  "userdoc": {
    "kind": "user",
    "methods": {},
    "version": 1
  }
}