{
  "contractName": "WishApi",
  "abi": [
    {
      "inputs": [
        {
          "internalType": "contract Comptroller",
          "name": "_comptroller",
          "type": "address"
        }
      ],
      "stateMutability": "nonpayable",
      "type": "constructor"
    },
    {
      "inputs": [],
      "name": "getGoodsLength",
      "outputs": [
        {
          "internalType": "uint256",
          "name": "len",
          "type": "uint256"
        }
      ],
      "stateMutability": "view",
      "type": "function"
    },
    {
      "inputs": [
        {
          "internalType": "uint256",
          "name": "index",
          "type": "uint256"
        }
      ],
      "name": "getGoodInfo",
      "outputs": [
        {
          "components": [
            {
              "internalType": "uint256",
              "name": "goodId",
              "type": "uint256"
            },
            {
              "internalType": "uint256",
              "name": "goodValue",
              "type": "uint256"
            },
            {
              "internalType": "uint256",
              "name": "publishTime",
              "type": "uint256"
            },
            {
              "internalType": "uint256",
              "name": "lockedTime",
              "type": "uint256"
            },
            {
              "internalType": "uint256",
              "name": "maintenanceFee",
              "type": "uint256"
            },
            {
              "internalType": "uint256",
              "name": "joinedUsers",
              "type": "uint256"
            },
            {
              "internalType": "uint256",
              "name": "ticketCounts",
              "type": "uint256"
            },
            {
              "internalType": "uint256",
              "name": "balance",
              "type": "uint256"
            },
            {
              "internalType": "address",
              "name": "winner",
              "type": "address"
            },
            {
              "internalType": "string",
              "name": "goodHash",
              "type": "string"
            },
            {
              "internalType": "uint256",
              "name": "stage",
              "type": "uint256"
            },
            {
              "internalType": "uint256",
              "name": "paybackFee",
              "type": "uint256"
            },
            {
              "internalType": "uint256",
              "name": "winnerTime",
              "type": "uint256"
            },
            {
              "internalType": "uint256",
              "name": "winnerBlock",
              "type": "uint256"
            },
            {
              "internalType": "uint256",
              "name": "winnerIndex",
              "type": "uint256"
            }
          ],
          "internalType": "struct WishApi.GoodInfo",
          "name": "good",
          "type": "tuple"
        }
      ],
      "stateMutability": "view",
      "type": "function"
    },
    {
      "inputs": [
        {
          "internalType": "uint256",
          "name": "index",
          "type": "uint256"
        },
        {
          "internalType": "address",
          "name": "user",
          "type": "address"
        }
      ],
      "name": "getUserTickets",
      "outputs": [
        {
          "internalType": "uint256[]",
          "name": "",
          "type": "uint256[]"
        }
      ],
      "stateMutability": "view",
      "type": "function"
    },
    {
      "inputs": [
        {
          "internalType": "uint256",
          "name": "index",
          "type": "uint256"
        },
        {
          "internalType": "uint256",
          "name": "num",
          "type": "uint256"
        }
      ],
      "name": "getUserRecord",
      "outputs": [
        {
          "components": [
            {
              "internalType": "address",
              "name": "user",
              "type": "address"
            },
            {
              "internalType": "uint256",
              "name": "count",
              "type": "uint256"
            },
            {
              "internalType": "bool",
              "name": "joined",
              "type": "bool"
            },
            {
              "internalType": "uint256",
              "name": "joinTime",
              "type": "uint256"
            },
            {
              "internalType": "uint256",
              "name": "joinBlockNum",
              "type": "uint256"
            }
          ],
          "internalType": "struct WishApi.UserJoinRecord",
          "name": "record",
          "type": "tuple"
        }
      ],
      "stateMutability": "view",
      "type": "function"
    },
    {
      "inputs": [
        {
          "internalType": "address",
          "name": "user",
          "type": "address"
        }
      ],
      "name": "getUserHistory",
      "outputs": [
        {
          "components": [
            {
              "internalType": "address",
              "name": "user",
              "type": "address"
            },
            {
              "internalType": "uint256",
              "name": "count",
              "type": "uint256"
            },
            {
              "internalType": "bool",
              "name": "joined",
              "type": "bool"
            },
            {
              "internalType": "uint256",
              "name": "joinTime",
              "type": "uint256"
            },
            {
              "internalType": "uint256",
              "name": "joinBlockNum",
              "type": "uint256"
            }
          ],
          "internalType": "struct WishApi.UserJoinRecord[]",
          "name": "record",
          "type": "tuple[]"
        }
      ],
      "stateMutability": "view",
      "type": "function"
    }
  ],
  "bytecode": "0x60806040523480156200001157600080fd5b50604051620022d7380380620022d78339818101604052810190620000379190620000fc565b806000806101000a81548173ffffffffffffffffffffffffffffffffffffffff021916908373ffffffffffffffffffffffffffffffffffffffff160217905550506200012e565b600080fd5b600073ffffffffffffffffffffffffffffffffffffffff82169050919050565b6000620000b08262000083565b9050919050565b6000620000c482620000a3565b9050919050565b620000d681620000b7565b8114620000e257600080fd5b50565b600081519050620000f681620000cb565b92915050565b6000602082840312156200011557620001146200007e565b5b60006200012584828501620000e5565b91505092915050565b612199806200013e6000396000f3fe608060405234801561001057600080fd5b50600436106100575760003560e01c80633a6841381461005c5780634fb3d3b11461008c578063c62c1c6f146100bc578063d1db4c87146100ec578063e7a7f65c1461010a575b600080fd5b610076600480360381019061007191906113d0565b61013a565b6040516100839190611629565b60405180910390f35b6100a660048036038101906100a19190611677565b6109df565b6040516100b391906117d6565b60405180910390f35b6100d660048036038101906100d191906117f8565b610c14565b6040516100e391906118a0565b60405180910390f35b6100f4610e96565b60405161010191906118ca565b60405180910390f35b610124600480360381019061011f91906118e5565b610f33565b60405161013191906119d4565b60405180910390f35b6101426112b3565b60008060009054906101000a900473ffffffffffffffffffffffffffffffffffffffff1673ffffffffffffffffffffffffffffffffffffffff16639b44f9406040518163ffffffff1660e01b8152600401600060405180830381865afa1580156101b0573d6000803e3d6000fd5b505050506040513d6000823e3d601f19601f820116820180604052508101906101d99190611b7c565b9050805183106101e957506109da565b8083815181106101fc576101fb611bc5565b5b602002602001015173ffffffffffffffffffffffffffffffffffffffff1663df4c0ab16040518163ffffffff1660e01b8152600401602060405180830381865afa15801561024e573d6000803e3d6000fd5b505050506040513d601f19601f820116820180604052508101906102729190611c30565b63ffffffff1682600001818152505080838151811061029457610293611bc5565b5b602002602001015173ffffffffffffffffffffffffffffffffffffffff1663c379b4be6040518163ffffffff1660e01b8152600401602060405180830381865afa1580156102e6573d6000803e3d6000fd5b505050506040513d601f19601f8201168201806040525081019061030a9190611c72565b82602001818152505080838151811061032657610325611bc5565b5b602002602001015173ffffffffffffffffffffffffffffffffffffffff1663e467fa806040518163ffffffff1660e01b8152600401602060405180830381865afa158015610378573d6000803e3d6000fd5b505050506040513d601f19601f8201168201806040525081019061039c9190611c72565b8260400181815250508083815181106103b8576103b7611bc5565b5b602002602001015173ffffffffffffffffffffffffffffffffffffffff1663a8b382056040518163ffffffff1660e01b8152600401602060405180830381865afa15801561040a573d6000803e3d6000fd5b505050506040513d601f19601f8201168201806040525081019061042e9190611c72565b82606001818152505080838151811061044a57610449611bc5565b5b602002602001015173ffffffffffffffffffffffffffffffffffffffff1663046604496040518163ffffffff1660e01b8152600401602060405180830381865afa15801561049c573d6000803e3d6000fd5b505050506040513d601f19601f820116820180604052508101906104c09190611c72565b8260800181815250508083815181106104dc576104db611bc5565b5b602002602001015173ffffffffffffffffffffffffffffffffffffffff1662ce8e3e6040518163ffffffff1660e01b8152600401600060405180830381865afa15801561052d573d6000803e3d6000fd5b505050506040513d6000823e3d601f19601f820116820180604052508101906105569190611d77565b518260a001818152505080838151811061057357610572611bc5565b5b602002602001015173ffffffffffffffffffffffffffffffffffffffff16634ed026226040518163ffffffff1660e01b8152600401600060405180830381865afa1580156105c5573d6000803e3d6000fd5b505050506040513d6000823e3d601f19601f820116820180604052508101906105ee9190611d77565b518260c001818152505060008054906101000a900473ffffffffffffffffffffffffffffffffffffffff1673ffffffffffffffffffffffffffffffffffffffff1663fc0c546a6040518163ffffffff1660e01b8152600401602060405180830381865afa158015610663573d6000803e3d6000fd5b505050506040513d601f19601f820116820180604052508101906106879190611dfe565b73ffffffffffffffffffffffffffffffffffffffff166370a082318285815181106106b5576106b4611bc5565b5b60200260200101516040518263ffffffff1660e01b81526004016106d99190611e3a565b602060405180830381865afa1580156106f6573d6000803e3d6000fd5b505050506040513d601f19601f8201168201806040525081019061071a9190611c72565b8260e001818152505080838151811061073657610735611bc5565b5b602002602001015173ffffffffffffffffffffffffffffffffffffffff1663dfbf53ae6040518163ffffffff1660e01b8152600401602060405180830381865afa158015610788573d6000803e3d6000fd5b505050506040513d601f19601f820116820180604052508101906107ac9190611e55565b82610100019073ffffffffffffffffffffffffffffffffffffffff16908173ffffffffffffffffffffffffffffffffffffffff16815250508083815181106107f7576107f6611bc5565b5b602002602001015173ffffffffffffffffffffffffffffffffffffffff1663a9135d176040518163ffffffff1660e01b8152600401600060405180830381865afa158015610849573d6000803e3d6000fd5b505050506040513d6000823e3d601f19601f820116820180604052508101906108729190611f28565b82610120018190525080838151811061088e5761088d611bc5565b5b602002602001015173ffffffffffffffffffffffffffffffffffffffff1663c040e6b86040518163ffffffff1660e01b8152600401602060405180830381865afa1580156108e0573d6000803e3d6000fd5b505050506040513d601f19601f820116820180604052508101906109049190611f96565b600681111561091657610915611fc3565b5b82610140018181525050600080600083868151811061093857610937611bc5565b5b602002602001015173ffffffffffffffffffffffffffffffffffffffff16637676d2356040518163ffffffff1660e01b8152600401606060405180830381865afa15801561098a573d6000803e3d6000fd5b505050506040513d601f19601f820116820180604052508101906109ae9190611ff2565b925092509250818561018001818152505082856101a001818152505080856101c0018181525050505050505b919050565b606060008060009054906101000a900473ffffffffffffffffffffffffffffffffffffffff1673ffffffffffffffffffffffffffffffffffffffff16639b44f9406040518163ffffffff1660e01b8152600401600060405180830381865afa158015610a4f573d6000803e3d6000fd5b505050506040513d6000823e3d601f19601f82011682018060405250810190610a789190611b7c565b9050805167ffffffffffffffff811115610a9557610a946119fb565b5b604051908082528060200260200182016040528015610ace57816020015b610abb61133f565b815260200190600190039081610ab35790505b5091506000805b8251811015610c0c576000806000806000878681518110610af957610af8611bc5565b5b602002602001015173ffffffffffffffffffffffffffffffffffffffff1663118b95358b6040518263ffffffff1660e01b8152600401610b399190611e3a565b60a060405180830381865afa158015610b56573d6000803e3d6000fd5b505050506040513d601f19601f82011682018060405250810190610b7a9190612071565b94509450945094509450828015610b915750600084115b15610bf4576040518060a001604052808673ffffffffffffffffffffffffffffffffffffffff168152602001858152602001841515815260200183815260200182815250898881518110610be857610be7611bc5565b5b60200260200101819052505b50505050508080610c049061211b565b915050610ad5565b505050919050565b610c1c61133f565b60008060009054906101000a900473ffffffffffffffffffffffffffffffffffffffff1673ffffffffffffffffffffffffffffffffffffffff16639b44f9406040518163ffffffff1660e01b8152600401600060405180830381865afa158015610c8a573d6000803e3d6000fd5b505050506040513d6000823e3d601f19601f82011682018060405250810190610cb39190611b7c565b905080518410610cc35750610e90565b6000818581518110610cd857610cd7611bc5565b5b6020026020010151905060008173ffffffffffffffffffffffffffffffffffffffff16639f4216e8866040518263ffffffff1660e01b8152600401610d1d91906118ca565b602060405180830381865afa158015610d3a573d6000803e3d6000fd5b505050506040513d601f19601f82011682018060405250810190610d5e9190611e55565b9050600073ffffffffffffffffffffffffffffffffffffffff168173ffffffffffffffffffffffffffffffffffffffff1614610e8c5760008060008060008673ffffffffffffffffffffffffffffffffffffffff1663118b9535876040518263ffffffff1660e01b8152600401610dd59190611e3a565b60a060405180830381865afa158015610df2573d6000803e3d6000fd5b505050506040513d601f19601f82011682018060405250810190610e169190612071565b9450945094509450945084896000019073ffffffffffffffffffffffffffffffffffffffff16908173ffffffffffffffffffffffffffffffffffffffff16815250508389602001818152505082896040019015159081151581525050818960600181815250508089608001818152505050505050505b5050505b92915050565b60008060009054906101000a900473ffffffffffffffffffffffffffffffffffffffff1673ffffffffffffffffffffffffffffffffffffffff16639b44f9406040518163ffffffff1660e01b8152600401600060405180830381865afa158015610f04573d6000803e3d6000fd5b505050506040513d6000823e3d601f19601f82011682018060405250810190610f2d9190611b7c565b51905090565b606060008060009054906101000a900473ffffffffffffffffffffffffffffffffffffffff1673ffffffffffffffffffffffffffffffffffffffff16639b44f9406040518163ffffffff1660e01b8152600401600060405180830381865afa158015610fa3573d6000803e3d6000fd5b505050506040513d6000823e3d601f19601f82011682018060405250810190610fcc9190611b7c565b90508051841061102857600067ffffffffffffffff811115610ff157610ff06119fb565b5b60405190808252806020026020018201604052801561101f5781602001602082028036833780820191505090505b509150506112ad565b600081858151811061103d5761103c611bc5565b5b6020026020010151905060008060008060008573ffffffffffffffffffffffffffffffffffffffff1663118b95358a6040518263ffffffff1660e01b81526004016110889190611e3a565b60a060405180830381865afa1580156110a5573d6000803e3d6000fd5b505050506040513d601f19601f820116820180604052508101906110c99190612071565b945094509450945094508215806110e05750600084145b1561113d57600067ffffffffffffffff811115611100576110ff6119fb565b5b60405190808252806020026020018201604052801561112e5781602001602082028036833780820191505090505b509750505050505050506112ad565b60008673ffffffffffffffffffffffffffffffffffffffff16634ed026226040518163ffffffff1660e01b8152600401600060405180830381865afa15801561118a573d6000803e3d6000fd5b505050506040513d6000823e3d601f19601f820116820180604052508101906111b39190611d77565b905060008567ffffffffffffffff8111156111d1576111d06119fb565b5b6040519080825280602002602001820160405280156111ff5781602001602082028036833780820191505090505b5090506000805b835181101561129e578c73ffffffffffffffffffffffffffffffffffffffff1684828151811061123957611238611bc5565b5b602002602001015173ffffffffffffffffffffffffffffffffffffffff160361128b57808383815181106112705761126f611bc5565b5b60200260200101818152505081806112879061211b565b9250505b80806112969061211b565b915050611206565b50819a50505050505050505050505b92915050565b604051806101e001604052806000815260200160008152602001600081526020016000815260200160008152602001600081526020016000815260200160008152602001600073ffffffffffffffffffffffffffffffffffffffff1681526020016060815260200160008152602001600081526020016000815260200160008152602001600081525090565b6040518060a00160405280600073ffffffffffffffffffffffffffffffffffffffff1681526020016000815260200160001515815260200160008152602001600081525090565b6000604051905090565b600080fd5b600080fd5b6000819050919050565b6113ad8161139a565b81146113b857600080fd5b50565b6000813590506113ca816113a4565b92915050565b6000602082840312156113e6576113e5611390565b5b60006113f4848285016113bb565b91505092915050565b6114068161139a565b82525050565b600073ffffffffffffffffffffffffffffffffffffffff82169050919050565b60006114378261140c565b9050919050565b6114478161142c565b82525050565b600081519050919050565b600082825260208201905092915050565b60005b8381101561148757808201518184015260208101905061146c565b83811115611496576000848401525b50505050565b6000601f19601f8301169050919050565b60006114b88261144d565b6114c28185611458565b93506114d2818560208601611469565b6114db8161149c565b840191505092915050565b60006101e0830160008301516114ff60008601826113fd565b50602083015161151260208601826113fd565b50604083015161152560408601826113fd565b50606083015161153860608601826113fd565b50608083015161154b60808601826113fd565b5060a083015161155e60a08601826113fd565b5060c083015161157160c08601826113fd565b5060e083015161158460e08601826113fd565b5061010083015161159961010086018261143e565b506101208301518482036101208601526115b382826114ad565b9150506101408301516115ca6101408601826113fd565b506101608301516115df6101608601826113fd565b506101808301516115f46101808601826113fd565b506101a08301516116096101a08601826113fd565b506101c083015161161e6101c08601826113fd565b508091505092915050565b6000602082019050818103600083015261164381846114e6565b905092915050565b6116548161142c565b811461165f57600080fd5b50565b6000813590506116718161164b565b92915050565b60006020828403121561168d5761168c611390565b5b600061169b84828501611662565b91505092915050565b600081519050919050565b600082825260208201905092915050565b6000819050602082019050919050565b60008115159050919050565b6116e5816116d0565b82525050565b60a082016000820151611701600085018261143e565b50602082015161171460208501826113fd565b50604082015161172760408501826116dc565b50606082015161173a60608501826113fd565b50608082015161174d60808501826113fd565b50505050565b600061175f83836116eb565b60a08301905092915050565b6000602082019050919050565b6000611783826116a4565b61178d81856116af565b9350611798836116c0565b8060005b838110156117c95781516117b08882611753565b97506117bb8361176b565b92505060018101905061179c565b5085935050505092915050565b600060208201905081810360008301526117f08184611778565b905092915050565b6000806040838503121561180f5761180e611390565b5b600061181d858286016113bb565b925050602061182e858286016113bb565b9150509250929050565b60a08201600082015161184e600085018261143e565b50602082015161186160208501826113fd565b50604082015161187460408501826116dc565b50606082015161188760608501826113fd565b50608082015161189a60808501826113fd565b50505050565b600060a0820190506118b56000830184611838565b92915050565b6118c48161139a565b82525050565b60006020820190506118df60008301846118bb565b92915050565b600080604083850312156118fc576118fb611390565b5b600061190a858286016113bb565b925050602061191b85828601611662565b9150509250929050565b600081519050919050565b600082825260208201905092915050565b6000819050602082019050919050565b600061195d83836113fd565b60208301905092915050565b6000602082019050919050565b600061198182611925565b61198b8185611930565b935061199683611941565b8060005b838110156119c75781516119ae8882611951565b97506119b983611969565b92505060018101905061199a565b5085935050505092915050565b600060208201905081810360008301526119ee8184611976565b905092915050565b600080fd5b7f4e487b7100000000000000000000000000000000000000000000000000000000600052604160045260246000fd5b611a338261149c565b810181811067ffffffffffffffff82111715611a5257611a516119fb565b5b80604052505050565b6000611a65611386565b9050611a718282611a2a565b919050565b600067ffffffffffffffff821115611a9157611a906119fb565b5b602082029050602081019050919050565b600080fd5b6000611ab28261142c565b9050919050565b611ac281611aa7565b8114611acd57600080fd5b50565b600081519050611adf81611ab9565b92915050565b6000611af8611af384611a76565b611a5b565b90508083825260208201905060208402830185811115611b1b57611b1a611aa2565b5b835b81811015611b445780611b308882611ad0565b845260208401935050602081019050611b1d565b5050509392505050565b600082601f830112611b6357611b626119f6565b5b8151611b73848260208601611ae5565b91505092915050565b600060208284031215611b9257611b91611390565b5b600082015167ffffffffffffffff811115611bb057611baf611395565b5b611bbc84828501611b4e565b91505092915050565b7f4e487b7100000000000000000000000000000000000000000000000000000000600052603260045260246000fd5b600063ffffffff82169050919050565b611c0d81611bf4565b8114611c1857600080fd5b50565b600081519050611c2a81611c04565b92915050565b600060208284031215611c4657611c45611390565b5b6000611c5484828501611c1b565b91505092915050565b600081519050611c6c816113a4565b92915050565b600060208284031215611c8857611c87611390565b5b6000611c9684828501611c5d565b91505092915050565b600067ffffffffffffffff821115611cba57611cb96119fb565b5b602082029050602081019050919050565b600081519050611cda8161164b565b92915050565b6000611cf3611cee84611c9f565b611a5b565b90508083825260208201905060208402830185811115611d1657611d15611aa2565b5b835b81811015611d3f5780611d2b8882611ccb565b845260208401935050602081019050611d18565b5050509392505050565b600082601f830112611d5e57611d5d6119f6565b5b8151611d6e848260208601611ce0565b91505092915050565b600060208284031215611d8d57611d8c611390565b5b600082015167ffffffffffffffff811115611dab57611daa611395565b5b611db784828501611d49565b91505092915050565b6000611dcb8261142c565b9050919050565b611ddb81611dc0565b8114611de657600080fd5b50565b600081519050611df881611dd2565b92915050565b600060208284031215611e1457611e13611390565b5b6000611e2284828501611de9565b91505092915050565b611e348161142c565b82525050565b6000602082019050611e4f6000830184611e2b565b92915050565b600060208284031215611e6b57611e6a611390565b5b6000611e7984828501611ccb565b91505092915050565b600080fd5b600067ffffffffffffffff821115611ea257611ea16119fb565b5b611eab8261149c565b9050602081019050919050565b6000611ecb611ec684611e87565b611a5b565b905082815260208101848484011115611ee757611ee6611e82565b5b611ef2848285611469565b509392505050565b600082601f830112611f0f57611f0e6119f6565b5b8151611f1f848260208601611eb8565b91505092915050565b600060208284031215611f3e57611f3d611390565b5b600082015167ffffffffffffffff811115611f5c57611f5b611395565b5b611f6884828501611efa565b91505092915050565b60078110611f7e57600080fd5b50565b600081519050611f9081611f71565b92915050565b600060208284031215611fac57611fab611390565b5b6000611fba84828501611f81565b91505092915050565b7f4e487b7100000000000000000000000000000000000000000000000000000000600052602160045260246000fd5b60008060006060848603121561200b5761200a611390565b5b600061201986828701611c5d565b935050602061202a86828701611c5d565b925050604061203b86828701611c5d565b9150509250925092565b61204e816116d0565b811461205957600080fd5b50565b60008151905061206b81612045565b92915050565b600080600080600060a0868803121561208d5761208c611390565b5b600061209b88828901611ccb565b95505060206120ac88828901611c5d565b94505060406120bd8882890161205c565b93505060606120ce88828901611c5d565b92505060806120df88828901611c5d565b9150509295509295909350565b7f4e487b7100000000000000000000000000000000000000000000000000000000600052601160045260246000fd5b60006121268261139a565b91507fffffffffffffffffffffffffffffffffffffffffffffffffffffffffffffffff8203612158576121576120ec565b5b60018201905091905056fea26469706673582212204e0c6f16cdd931e8d9a74109644d2a493928fb9799ffaaa7b3fb6a8af39de7e764736f6c634300080d0033",
  "immutableReferences": {},
  "source": "// SPDX-License-Identifier: MIT\npragma solidity >=0.4.22 <0.9.0;\n\nimport \"./Comptroller.sol\";\nimport \"./GoodLottery.sol\";\n\ncontract WishApi {\n    Comptroller comptroller;\n\n    struct GoodInfo {\n        uint goodId;\n        uint goodValue;\n        uint256 publishTime;\n        uint256 lockedTime;\n        uint256 maintenanceFee;\n        uint256 joinedUsers;\n        uint ticketCounts;\n        uint balance;\n        address winner;\n        string goodHash;\n        uint stage;\n        uint paybackFee;\n\n        uint winnerTime;\n        uint winnerBlock;\n        uint winnerIndex;\n    }\n\n    struct UserJoinRecord {\n         address user;\n         uint count; \n         bool joined; \n         uint joinTime;\n         uint joinBlockNum;\n    }\n\n    constructor(Comptroller _comptroller) {\n        comptroller = _comptroller;\n    }\n\n    function getGoodsLength() public view returns (uint len) {\n        return comptroller.getGoods().length;\n    }\n\n\n    function getGoodInfo(uint index) public view returns (GoodInfo memory good) {\n        GoodLottery[] memory goodContracts = comptroller.getGoods(); \n        if(index >= goodContracts.length) return good;\n\n        good.goodId = goodContracts[index].goodId();\n        good.goodValue = goodContracts[index].goodValue();\n        good.publishTime = goodContracts[index].publishTime();\n        good.lockedTime = goodContracts[index].lockedTime();\n        good.maintenanceFee = goodContracts[index].maintenanceFee();\n        good.joinedUsers = goodContracts[index].getUsers().length;\n        good.ticketCounts = goodContracts[index].getTickets().length;\n        good.balance = comptroller.token().balanceOf(address(goodContracts[index]));\n        good.winner = goodContracts[index].winner();\n        good.goodHash = goodContracts[index].goodHash();\n        good.stage = uint(goodContracts[index].stage());\n        (uint winnerBlock, uint winnerTime, uint tickIndex) = goodContracts[index].winnerTime();\n        good.winnerTime = winnerTime;\n        good.winnerBlock = winnerBlock;\n        good.winnerIndex = tickIndex;\n        \n        return good;\n    }\n\n    function getUserTickets(uint index, address user) public view returns (uint[] memory) {\n        GoodLottery[] memory goodContracts = comptroller.getGoods(); \n        if(index >= goodContracts.length) return new uint[](0); \n        GoodLottery good = goodContracts[index];\n        (address u, uint count, bool joined, uint joinTime, uint joinBlockNum) = good.userMapping(user);\n        if (!joined || count == 0) {\n            return new uint[](0);\n        }\n\n        address[] memory tickets = good.getTickets();\n        uint[] memory ticketIds = new uint[](count);\n\n        uint j = 0;\n        for (uint256 i = 0; i < tickets.length; i++) {\n            if(tickets[i] == user) {\n                ticketIds[j] = i;\n                j ++;\n            }\n        }\n        return ticketIds;\n    }\n\n    function getUserRecord(uint index, uint num) public view returns (UserJoinRecord memory record) {\n        GoodLottery[] memory goodContracts = comptroller.getGoods(); \n        if(index >= goodContracts.length) return record; \n        GoodLottery good = goodContracts[index];\n        address addr = good.userList(num);\n        if(addr != address(0)) {\n          (address user, uint count, bool joined, uint joinTime, uint joinBlockNum) = good.userMapping(addr);\n          record.user = user;\n          record.count = count;\n          record.joined = joined;\n          record.joinTime = joinTime;\n          record.joinBlockNum = joinBlockNum;\n        }\n\n        return record;\n    }\n\n\n    function getUserHistory(address user) public view returns (UserJoinRecord[] memory record) {\n         GoodLottery[] memory goodContracts = comptroller.getGoods(); \n\n         record = new UserJoinRecord[](goodContracts.length);\n         uint j = 0;\n         for (uint256 i = 0; i < goodContracts.length; i++) {\n              (address user, uint count, bool joined, uint joinTime, uint joinBlockNum) = goodContracts[i].userMapping(user);\n              if(joined && count > 0) {\n                record[j] = UserJoinRecord(user, count, joined, joinTime, joinBlockNum);\n              }\n             \n         }\n         return record;\n    }\n\n}",
  "sourcePath": "/Users/jonah/SolidityProject/makewish-contract/contracts/WishApi.sol",
  "compiler": {
    "name": "solc",
    "version": "0.8.13+commit.abaa5c0e.Emscripten.clang"
  },
  "schemaVersion": "3.4.7",
  "updatedAt": "2022-05-24T13:09:11.538Z",
  "devdoc": {
    "kind": "dev",
    "methods": {},
    "version": 1
  },
  "userdoc": {
    "kind": "user",
    "methods": {},
    "version": 1
  }
}