{
  "contractName": "WishProxy",
  "abi": [
    {
      "inputs": [
        {
          "internalType": "address payable",
          "name": "_comptroller",
          "type": "address"
        }
      ],
      "stateMutability": "nonpayable",
      "type": "constructor"
    },
    {
      "inputs": [
        {
          "internalType": "address",
          "name": "",
          "type": "address"
        },
        {
          "internalType": "uint256",
          "name": "",
          "type": "uint256"
        }
      ],
      "name": "userGoods",
      "outputs": [
        {
          "internalType": "address",
          "name": "",
          "type": "address"
        }
      ],
      "stateMutability": "view",
      "type": "function"
    },
    {
      "inputs": [
        {
          "internalType": "address",
          "name": "user",
          "type": "address"
        },
        {
          "internalType": "address",
          "name": "good",
          "type": "address"
        }
      ],
      "name": "addGoods",
      "outputs": [],
      "stateMutability": "nonpayable",
      "type": "function"
    },
    {
      "inputs": [
        {
          "internalType": "address",
          "name": "account",
          "type": "address"
        }
      ],
      "name": "getUserPublishedGoods",
      "outputs": [
        {
          "components": [
            {
              "internalType": "bool",
              "name": "isList",
              "type": "bool"
            },
            {
              "internalType": "uint32",
              "name": "goodId",
              "type": "uint32"
            },
            {
              "internalType": "uint256",
              "name": "goodValue",
              "type": "uint256"
            },
            {
              "internalType": "uint256",
              "name": "maintenanceFee",
              "type": "uint256"
            },
            {
              "internalType": "uint256",
              "name": "publishTime",
              "type": "uint256"
            },
            {
              "internalType": "uint256",
              "name": "lockedTime",
              "type": "uint256"
            },
            {
              "internalType": "string",
              "name": "goodHash",
              "type": "string"
            },
            {
              "internalType": "address",
              "name": "nftAddress",
              "type": "address"
            },
            {
              "internalType": "uint256",
              "name": "tokenId",
              "type": "uint256"
            },
            {
              "internalType": "uint256",
              "name": "status",
              "type": "uint256"
            },
            {
              "internalType": "address",
              "name": "nft",
              "type": "address"
            }
          ],
          "internalType": "struct WishProxy.UserPublishedGood[]",
          "name": "",
          "type": "tuple[]"
        }
      ],
      "stateMutability": "view",
      "type": "function"
    }
  ],
  "bytecode": "0x60806040523480156200001157600080fd5b5060405162001296380380620012968339818101604052810190620000379190620000e8565b806000806101000a81548173ffffffffffffffffffffffffffffffffffffffff021916908373ffffffffffffffffffffffffffffffffffffffff160217905550506200011a565b600080fd5b600073ffffffffffffffffffffffffffffffffffffffff82169050919050565b6000620000b08262000083565b9050919050565b620000c281620000a3565b8114620000ce57600080fd5b50565b600081519050620000e281620000b7565b92915050565b6000602082840312156200010157620001006200007e565b5b60006200011184828501620000d1565b91505092915050565b61116c806200012a6000396000f3fe608060405234801561001057600080fd5b50600436106100415760003560e01c806351a3caa7146100465780636d0380f3146100625780637e9540c714610092575b600080fd5b610060600480360381019061005b91906109b9565b6100c2565b005b61007c600480360381019061007791906109f9565b610166565b6040516100899190610cd2565b60405180910390f35b6100ac60048036038101906100a79190610d20565b61086b565b6040516100b99190610d6f565b60405180910390f35b600160008373ffffffffffffffffffffffffffffffffffffffff1673ffffffffffffffffffffffffffffffffffffffff168152602001908152602001600020819080600181540180825580915050600190039060005260206000200160009091909190916101000a81548173ffffffffffffffffffffffffffffffffffffffff021916908373ffffffffffffffffffffffffffffffffffffffff1602179055505050565b60606000600160008473ffffffffffffffffffffffffffffffffffffffff1673ffffffffffffffffffffffffffffffffffffffff16815260200190815260200160002080548060200260200160405190810160405280929190818152602001828054801561022957602002820191906000526020600020905b8160009054906101000a900473ffffffffffffffffffffffffffffffffffffffff1673ffffffffffffffffffffffffffffffffffffffff16815260200190600101908083116101df575b505050505090506000815167ffffffffffffffff81111561024d5761024c610d8a565b5b60405190808252806020026020018201604052801561028657816020015b6102736108b9565b81526020019060019003908161026b5790505b50905060005b82518110156108605760008382815181106102aa576102a9610db9565b5b6020026020010151905060006040518061016001604052806001151581526020018373ffffffffffffffffffffffffffffffffffffffff1663df4c0ab16040518163ffffffff1660e01b8152600401602060405180830381865afa158015610316573d6000803e3d6000fd5b505050506040513d601f19601f8201168201806040525081019061033a9190610e14565b63ffffffff1681526020018373ffffffffffffffffffffffffffffffffffffffff1663c379b4be6040518163ffffffff1660e01b8152600401602060405180830381865afa158015610390573d6000803e3d6000fd5b505050506040513d601f19601f820116820180604052508101906103b49190610e56565b81526020018373ffffffffffffffffffffffffffffffffffffffff1663046604496040518163ffffffff1660e01b8152600401602060405180830381865afa158015610404573d6000803e3d6000fd5b505050506040513d601f19601f820116820180604052508101906104289190610e56565b81526020018373ffffffffffffffffffffffffffffffffffffffff1663e467fa806040518163ffffffff1660e01b8152600401602060405180830381865afa158015610478573d6000803e3d6000fd5b505050506040513d601f19601f8201168201806040525081019061049c9190610e56565b81526020018373ffffffffffffffffffffffffffffffffffffffff1663a8b382056040518163ffffffff1660e01b8152600401602060405180830381865afa1580156104ec573d6000803e3d6000fd5b505050506040513d601f19601f820116820180604052508101906105109190610e56565b81526020018373ffffffffffffffffffffffffffffffffffffffff1663a9135d176040518163ffffffff1660e01b8152600401600060405180830381865afa158015610560573d6000803e3d6000fd5b505050506040513d6000823e3d601f19601f820116820180604052508101906105899190610f7a565b81526020018373ffffffffffffffffffffffffffffffffffffffff1663d06fcba86040518163ffffffff1660e01b8152600401602060405180830381865afa1580156105d9573d6000803e3d6000fd5b505050506040513d601f19601f820116820180604052508101906105fd9190611001565b73ffffffffffffffffffffffffffffffffffffffff1681526020018373ffffffffffffffffffffffffffffffffffffffff166317d70f7c6040518163ffffffff1660e01b8152600401602060405180830381865afa158015610663573d6000803e3d6000fd5b505050506040513d601f19601f820116820180604052508101906106879190610e56565b8152602001600081526020018685815181106106a6576106a5610db9565b5b602002602001015173ffffffffffffffffffffffffffffffffffffffff16815250905060008054906101000a900473ffffffffffffffffffffffffffffffffffffffff1673ffffffffffffffffffffffffffffffffffffffff16632e3d4819826020015187868151811061071d5761071c610db9565b5b60200260200101516040518363ffffffff1660e01b815260040161074292919061103d565b602060405180830381865afa15801561075f573d6000803e3d6000fd5b505050506040513d601f19601f820116820180604052508101906107839190611092565b156107995760018161012001818152505061082c565b8173ffffffffffffffffffffffffffffffffffffffff166328f371aa6040518163ffffffff1660e01b8152600401602060405180830381865afa1580156107e4573d6000803e3d6000fd5b505050506040513d601f19601f820116820180604052508101906108089190611092565b1561081e5760028161012001818152505061082b565b6003816101200181815250505b5b808484815181106108405761083f610db9565b5b602002602001018190525050508080610858906110ee565b91505061028c565b508092505050919050565b6001602052816000526040600020818154811061088757600080fd5b906000526020600020016000915091509054906101000a900473ffffffffffffffffffffffffffffffffffffffff1681565b604051806101600160405280600015158152602001600063ffffffff1681526020016000815260200160008152602001600081526020016000815260200160608152602001600073ffffffffffffffffffffffffffffffffffffffff1681526020016000815260200160008152602001600073ffffffffffffffffffffffffffffffffffffffff1681525090565b6000604051905090565b600080fd5b600080fd5b600073ffffffffffffffffffffffffffffffffffffffff82169050919050565b60006109868261095b565b9050919050565b6109968161097b565b81146109a157600080fd5b50565b6000813590506109b38161098d565b92915050565b600080604083850312156109d0576109cf610951565b5b60006109de858286016109a4565b92505060206109ef858286016109a4565b9150509250929050565b600060208284031215610a0f57610a0e610951565b5b6000610a1d848285016109a4565b91505092915050565b600081519050919050565b600082825260208201905092915050565b6000819050602082019050919050565b60008115159050919050565b610a6781610a52565b82525050565b600063ffffffff82169050919050565b610a8681610a6d565b82525050565b6000819050919050565b610a9f81610a8c565b82525050565b600081519050919050565b600082825260208201905092915050565b60005b83811015610adf578082015181840152602081019050610ac4565b83811115610aee576000848401525b50505050565b6000601f19601f8301169050919050565b6000610b1082610aa5565b610b1a8185610ab0565b9350610b2a818560208601610ac1565b610b3381610af4565b840191505092915050565b610b478161097b565b82525050565b600061016083016000830151610b666000860182610a5e565b506020830151610b796020860182610a7d565b506040830151610b8c6040860182610a96565b506060830151610b9f6060860182610a96565b506080830151610bb26080860182610a96565b5060a0830151610bc560a0860182610a96565b5060c083015184820360c0860152610bdd8282610b05565b91505060e0830151610bf260e0860182610b3e565b50610100830151610c07610100860182610a96565b50610120830151610c1c610120860182610a96565b50610140830151610c31610140860182610b3e565b508091505092915050565b6000610c488383610b4d565b905092915050565b6000602082019050919050565b6000610c6882610a26565b610c728185610a31565b935083602082028501610c8485610a42565b8060005b85811015610cc05784840389528151610ca18582610c3c565b9450610cac83610c50565b925060208a01995050600181019050610c88565b50829750879550505050505092915050565b60006020820190508181036000830152610cec8184610c5d565b905092915050565b610cfd81610a8c565b8114610d0857600080fd5b50565b600081359050610d1a81610cf4565b92915050565b60008060408385031215610d3757610d36610951565b5b6000610d45858286016109a4565b9250506020610d5685828601610d0b565b9150509250929050565b610d698161097b565b82525050565b6000602082019050610d846000830184610d60565b92915050565b7f4e487b7100000000000000000000000000000000000000000000000000000000600052604160045260246000fd5b7f4e487b7100000000000000000000000000000000000000000000000000000000600052603260045260246000fd5b610df181610a6d565b8114610dfc57600080fd5b50565b600081519050610e0e81610de8565b92915050565b600060208284031215610e2a57610e29610951565b5b6000610e3884828501610dff565b91505092915050565b600081519050610e5081610cf4565b92915050565b600060208284031215610e6c57610e6b610951565b5b6000610e7a84828501610e41565b91505092915050565b600080fd5b600080fd5b610e9682610af4565b810181811067ffffffffffffffff82111715610eb557610eb4610d8a565b5b80604052505050565b6000610ec8610947565b9050610ed48282610e8d565b919050565b600067ffffffffffffffff821115610ef457610ef3610d8a565b5b610efd82610af4565b9050602081019050919050565b6000610f1d610f1884610ed9565b610ebe565b905082815260208101848484011115610f3957610f38610e88565b5b610f44848285610ac1565b509392505050565b600082601f830112610f6157610f60610e83565b5b8151610f71848260208601610f0a565b91505092915050565b600060208284031215610f9057610f8f610951565b5b600082015167ffffffffffffffff811115610fae57610fad610956565b5b610fba84828501610f4c565b91505092915050565b6000610fce8261097b565b9050919050565b610fde81610fc3565b8114610fe957600080fd5b50565b600081519050610ffb81610fd5565b92915050565b60006020828403121561101757611016610951565b5b600061102584828501610fec565b91505092915050565b61103781610a6d565b82525050565b6000604082019050611052600083018561102e565b61105f6020830184610d60565b9392505050565b61106f81610a52565b811461107a57600080fd5b50565b60008151905061108c81611066565b92915050565b6000602082840312156110a8576110a7610951565b5b60006110b68482850161107d565b91505092915050565b7f4e487b7100000000000000000000000000000000000000000000000000000000600052601160045260246000fd5b60006110f982610a8c565b91507fffffffffffffffffffffffffffffffffffffffffffffffffffffffffffffffff820361112b5761112a6110bf565b5b60018201905091905056fea2646970667358221220828b24ee186983ad95b015fb5072936eef072d5c9d0e04a7702e0173bd93e8e264736f6c634300080d0033",
  "immutableReferences": {},
  "source": "// SPDX-License-Identifier: MIT\npragma solidity >=0.4.22 <0.9.0;\n\nimport \"./Comptroller.sol\";\nimport \"./GoodLottery.sol\";\nimport \"./GoodInterface.sol\";\nimport \"./WishToken.sol\";\nimport \"./GoodLotteryNFT.sol\";\n\ncontract WishProxy {\n    Comptroller comptroller;\n\n    struct UserPublishedGood {\n        bool isList;\n        uint32 goodId;\n        uint256 goodValue;\n        uint256 maintenanceFee;\n        uint256 publishTime;\n        uint256 lockedTime;\n        string goodHash;\n        address nftAddress;\n        uint256 tokenId;\n        uint256 status;\n        address nft;\n    }\n\n    mapping(address => address[]) public userGoods;\n\n\n    constructor(address payable _comptroller) {\n        comptroller = Comptroller(_comptroller);\n    }\n\n    function addGoods(address user, address good) public {\n        userGoods[user].push(good);\n    }\n\n    function getUserPublishedGoods(address account)\n        public\n        view\n        returns (UserPublishedGood[] memory)\n    {\n        address[] memory goods = userGoods[account];\n\n        UserPublishedGood[] memory records = new UserPublishedGood[](\n            goods.length\n        );\n\n        for (uint256 i = 0; i < goods.length; i++) {\n            GoodLotteryNFT nft = GoodLotteryNFT(goods[i]);\n            UserPublishedGood memory record = UserPublishedGood({\n                isList: true,\n                goodId: nft.goodId(),\n                goodValue: nft.goodValue(),\n                maintenanceFee: nft.maintenanceFee(),\n                publishTime: nft.publishTime(),\n                lockedTime: nft.lockedTime(),\n                goodHash: nft.goodHash(),\n                nftAddress: address(nft.nftToken()),\n                tokenId: nft.tokenId(),\n                status: 0,\n                nft: goods[i]\n            });\n            if (comptroller.goodIsList(record.goodId, goods[i])) {\n                record.status = 1;\n            } else if (nft.isApproved()) {\n                record.status = 2;\n            } else {\n                record.status = 3;\n            }\n\n            records[i] = record;\n        }\n        return records;\n    }\n}\n",
  "sourcePath": "/Users/jonah/SolidityProject/makewish-contract/contracts/WishProxy.sol",
  "compiler": {
    "name": "solc",
    "version": "0.8.13+commit.abaa5c0e.Emscripten.clang"
  },
  "schemaVersion": "3.4.7",
  "updatedAt": "2022-06-01T12:18:28.169Z",
  "devdoc": {
    "kind": "dev",
    "methods": {},
    "version": 1
  },
  "userdoc": {
    "kind": "user",
    "methods": {},
    "version": 1
  }
}