{
  "contractName": "WishApi",
  "abi": [
    {
      "inputs": [
        {
          "internalType": "contract Comptroller",
          "name": "_comptroller",
          "type": "address"
        }
      ],
      "stateMutability": "nonpayable",
      "type": "constructor"
    },
    {
      "inputs": [],
      "name": "getGoodsLength",
      "outputs": [
        {
          "internalType": "uint256",
          "name": "len",
          "type": "uint256"
        }
      ],
      "stateMutability": "view",
      "type": "function"
    },
    {
      "inputs": [
        {
          "internalType": "uint256",
          "name": "index",
          "type": "uint256"
        }
      ],
      "name": "getGoodInfo",
      "outputs": [
        {
          "components": [
            {
              "internalType": "uint256",
              "name": "goodId",
              "type": "uint256"
            },
            {
              "internalType": "uint256",
              "name": "goodValue",
              "type": "uint256"
            },
            {
              "internalType": "uint256",
              "name": "publishTime",
              "type": "uint256"
            },
            {
              "internalType": "uint256",
              "name": "lockedTime",
              "type": "uint256"
            },
            {
              "internalType": "uint256",
              "name": "maintenanceFee",
              "type": "uint256"
            },
            {
              "internalType": "uint256",
              "name": "joinedUsers",
              "type": "uint256"
            },
            {
              "internalType": "uint256",
              "name": "ticketCounts",
              "type": "uint256"
            },
            {
              "internalType": "uint256",
              "name": "balance",
              "type": "uint256"
            },
            {
              "internalType": "address",
              "name": "winner",
              "type": "address"
            },
            {
              "internalType": "string",
              "name": "goodHash",
              "type": "string"
            },
            {
              "internalType": "uint256",
              "name": "stage",
              "type": "uint256"
            },
            {
              "internalType": "uint256",
              "name": "paybackFee",
              "type": "uint256"
            },
            {
              "internalType": "uint256",
              "name": "winnerTime",
              "type": "uint256"
            },
            {
              "internalType": "uint256",
              "name": "winnerBlock",
              "type": "uint256"
            },
            {
              "internalType": "uint256",
              "name": "winnerIndex",
              "type": "uint256"
            }
          ],
          "internalType": "struct WishApi.GoodInfo",
          "name": "good",
          "type": "tuple"
        }
      ],
      "stateMutability": "view",
      "type": "function"
    },
    {
      "inputs": [
        {
          "internalType": "uint256",
          "name": "index",
          "type": "uint256"
        },
        {
          "internalType": "address",
          "name": "user",
          "type": "address"
        }
      ],
      "name": "getUserTickets",
      "outputs": [
        {
          "internalType": "uint256[]",
          "name": "",
          "type": "uint256[]"
        }
      ],
      "stateMutability": "view",
      "type": "function"
    },
    {
      "inputs": [
        {
          "internalType": "contract GoodLottery",
          "name": "good",
          "type": "address"
        },
        {
          "internalType": "address",
          "name": "addr",
          "type": "address"
        }
      ],
      "name": "getUserRecord",
      "outputs": [
        {
          "components": [
            {
              "internalType": "uint256",
              "name": "goodIndex",
              "type": "uint256"
            },
            {
              "internalType": "uint256",
              "name": "goodId",
              "type": "uint256"
            },
            {
              "internalType": "address",
              "name": "user",
              "type": "address"
            },
            {
              "internalType": "uint256",
              "name": "count",
              "type": "uint256"
            },
            {
              "internalType": "bool",
              "name": "joined",
              "type": "bool"
            },
            {
              "internalType": "uint256",
              "name": "joinTime",
              "type": "uint256"
            },
            {
              "internalType": "uint256",
              "name": "joinBlockNum",
              "type": "uint256"
            },
            {
              "internalType": "bool",
              "name": "isWinner",
              "type": "bool"
            }
          ],
          "internalType": "struct WishApi.UserJoinRecord",
          "name": "record",
          "type": "tuple"
        }
      ],
      "stateMutability": "view",
      "type": "function"
    },
    {
      "inputs": [
        {
          "internalType": "uint256",
          "name": "index",
          "type": "uint256"
        },
        {
          "internalType": "uint256",
          "name": "num",
          "type": "uint256"
        }
      ],
      "name": "getUserRecord",
      "outputs": [
        {
          "components": [
            {
              "internalType": "uint256",
              "name": "goodIndex",
              "type": "uint256"
            },
            {
              "internalType": "uint256",
              "name": "goodId",
              "type": "uint256"
            },
            {
              "internalType": "address",
              "name": "user",
              "type": "address"
            },
            {
              "internalType": "uint256",
              "name": "count",
              "type": "uint256"
            },
            {
              "internalType": "bool",
              "name": "joined",
              "type": "bool"
            },
            {
              "internalType": "uint256",
              "name": "joinTime",
              "type": "uint256"
            },
            {
              "internalType": "uint256",
              "name": "joinBlockNum",
              "type": "uint256"
            },
            {
              "internalType": "bool",
              "name": "isWinner",
              "type": "bool"
            }
          ],
          "internalType": "struct WishApi.UserJoinRecord",
          "name": "record",
          "type": "tuple"
        }
      ],
      "stateMutability": "view",
      "type": "function"
    },
    {
      "inputs": [],
      "name": "getWinnerHistory",
      "outputs": [
        {
          "components": [
            {
              "internalType": "uint256",
              "name": "goodId",
              "type": "uint256"
            },
            {
              "internalType": "address",
              "name": "user",
              "type": "address"
            },
            {
              "internalType": "uint256",
              "name": "count",
              "type": "uint256"
            },
            {
              "internalType": "bool",
              "name": "joined",
              "type": "bool"
            },
            {
              "internalType": "uint256",
              "name": "joinTime",
              "type": "uint256"
            },
            {
              "internalType": "uint256",
              "name": "joinBlockNum",
              "type": "uint256"
            },
            {
              "internalType": "bool",
              "name": "isWinner",
              "type": "bool"
            },
            {
              "internalType": "uint256",
              "name": "goodValue",
              "type": "uint256"
            },
            {
              "internalType": "uint256",
              "name": "blockNum",
              "type": "uint256"
            },
            {
              "internalType": "uint256",
              "name": "blockTime",
              "type": "uint256"
            },
            {
              "internalType": "uint256",
              "name": "index",
              "type": "uint256"
            }
          ],
          "internalType": "struct WishApi.WinnerHistory[]",
          "name": "",
          "type": "tuple[]"
        }
      ],
      "stateMutability": "view",
      "type": "function"
    },
    {
      "inputs": [
        {
          "internalType": "address",
          "name": "user",
          "type": "address"
        }
      ],
      "name": "getUserHistory",
      "outputs": [
        {
          "components": [
            {
              "internalType": "uint256",
              "name": "goodIndex",
              "type": "uint256"
            },
            {
              "internalType": "uint256",
              "name": "goodId",
              "type": "uint256"
            },
            {
              "internalType": "address",
              "name": "user",
              "type": "address"
            },
            {
              "internalType": "uint256",
              "name": "count",
              "type": "uint256"
            },
            {
              "internalType": "bool",
              "name": "joined",
              "type": "bool"
            },
            {
              "internalType": "uint256",
              "name": "joinTime",
              "type": "uint256"
            },
            {
              "internalType": "uint256",
              "name": "joinBlockNum",
              "type": "uint256"
            },
            {
              "internalType": "bool",
              "name": "isWinner",
              "type": "bool"
            }
          ],
          "internalType": "struct WishApi.UserJoinRecord[]",
          "name": "record",
          "type": "tuple[]"
        }
      ],
      "stateMutability": "view",
      "type": "function"
    }
  ],
  "bytecode": "0x60806040523480156200001157600080fd5b5060405162002d4038038062002d408339818101604052810190620000379190620000fc565b806000806101000a81548173ffffffffffffffffffffffffffffffffffffffff021916908373ffffffffffffffffffffffffffffffffffffffff160217905550506200012e565b600080fd5b600073ffffffffffffffffffffffffffffffffffffffff82169050919050565b6000620000b08262000083565b9050919050565b6000620000c482620000a3565b9050919050565b620000d681620000b7565b8114620000e257600080fd5b50565b600081519050620000f681620000cb565b92915050565b6000602082840312156200011557620001146200007e565b5b60006200012584828501620000e5565b91505092915050565b612c02806200013e6000396000f3fe608060405234801561001057600080fd5b506004361061007d5760003560e01c8063536031081161005b5780635360310814610100578063c62c1c6f14610130578063d1db4c8714610160578063e7a7f65c1461017e5761007d565b80633580404b146100825780633a684138146100a05780634fb3d3b1146100d0575b600080fd5b61008a6101ae565b6040516100979190611d43565b60405180910390f35b6100ba60048036038101906100b59190611da5565b610627565b6040516100c79190611fae565b60405180910390f35b6100ea60048036038101906100e59190611ffc565b610ecc565b6040516100f7919061217b565b60405180910390f35b61011a600480360381019061011591906121db565b611268565b60405161012791906122bd565b60405180910390f35b61014a600480360381019061014591906122d9565b611420565b60405161015791906122bd565b60405180910390f35b6101686115c1565b6040516101759190612328565b60405180910390f35b61019860048036038101906101939190612343565b61165e565b6040516101a59190612432565b60405180910390f35b606060008060009054906101000a900473ffffffffffffffffffffffffffffffffffffffff1673ffffffffffffffffffffffffffffffffffffffff16639b44f9406040518163ffffffff1660e01b8152600401600060405180830381865afa15801561021e573d6000803e3d6000fd5b505050506040513d6000823e3d601f19601f8201168201806040525081019061024791906125b1565b905060008151116102af57600067ffffffffffffffff81111561026d5761026c612459565b5b6040519080825280602002602001820160405280156102a657816020015b6102936119de565b81526020019060019003908161028b5790505b50915050610624565b6000815167ffffffffffffffff8111156102cc576102cb612459565b5b60405190808252806020026020018201604052801561030557816020015b6102f26119de565b8152602001906001900390816102ea5790505b5090506000808351905060005b845181101561061b576000856001838561032c9190612629565b6103369190612629565b815181106103475761034661265d565b5b60200260200101519050600073ffffffffffffffffffffffffffffffffffffffff168173ffffffffffffffffffffffffffffffffffffffff1663dfbf53ae6040518163ffffffff1660e01b8152600401602060405180830381865afa1580156103b4573d6000803e3d6000fd5b505050506040513d601f19601f820116820180604052508101906103d891906126a1565b73ffffffffffffffffffffffffffffffffffffffff16146106075760008060008373ffffffffffffffffffffffffffffffffffffffff16637676d2356040518163ffffffff1660e01b8152600401606060405180830381865afa158015610443573d6000803e3d6000fd5b505050506040513d601f19601f8201168201806040525081019061046791906126e3565b92509250925060006104e7858673ffffffffffffffffffffffffffffffffffffffff1663dfbf53ae6040518163ffffffff1660e01b8152600401602060405180830381865afa1580156104be573d6000803e3d6000fd5b505050506040513d601f19601f820116820180604052508101906104e291906126a1565b611268565b905060405180610160016040528082602001518152602001826040015173ffffffffffffffffffffffffffffffffffffffff168152602001826060015181526020018260800151151581526020018260a0015181526020018260c0015181526020016001151581526020018673ffffffffffffffffffffffffffffffffffffffff1663c379b4be6040518163ffffffff1660e01b8152600401602060405180830381865afa15801561059d573d6000803e3d6000fd5b505050506040513d601f19601f820116820180604052508101906105c19190612736565b8152602001858152602001848152602001838152508989815181106105e9576105e861265d565b5b602002602001018190525087806105ff90612763565b985050505050505b50808061061390612763565b915050610312565b50829450505050505b90565b61062f611a52565b60008060009054906101000a900473ffffffffffffffffffffffffffffffffffffffff1673ffffffffffffffffffffffffffffffffffffffff16639b44f9406040518163ffffffff1660e01b8152600401600060405180830381865afa15801561069d573d6000803e3d6000fd5b505050506040513d6000823e3d601f19601f820116820180604052508101906106c691906125b1565b9050805183106106d65750610ec7565b8083815181106106e9576106e861265d565b5b602002602001015173ffffffffffffffffffffffffffffffffffffffff1663df4c0ab16040518163ffffffff1660e01b8152600401602060405180830381865afa15801561073b573d6000803e3d6000fd5b505050506040513d601f19601f8201168201806040525081019061075f91906127e7565b63ffffffff168260000181815250508083815181106107815761078061265d565b5b602002602001015173ffffffffffffffffffffffffffffffffffffffff1663c379b4be6040518163ffffffff1660e01b8152600401602060405180830381865afa1580156107d3573d6000803e3d6000fd5b505050506040513d601f19601f820116820180604052508101906107f79190612736565b8260200181815250508083815181106108135761081261265d565b5b602002602001015173ffffffffffffffffffffffffffffffffffffffff1663e467fa806040518163ffffffff1660e01b8152600401602060405180830381865afa158015610865573d6000803e3d6000fd5b505050506040513d601f19601f820116820180604052508101906108899190612736565b8260400181815250508083815181106108a5576108a461265d565b5b602002602001015173ffffffffffffffffffffffffffffffffffffffff1663a8b382056040518163ffffffff1660e01b8152600401602060405180830381865afa1580156108f7573d6000803e3d6000fd5b505050506040513d601f19601f8201168201806040525081019061091b9190612736565b8260600181815250508083815181106109375761093661265d565b5b602002602001015173ffffffffffffffffffffffffffffffffffffffff1663046604496040518163ffffffff1660e01b8152600401602060405180830381865afa158015610989573d6000803e3d6000fd5b505050506040513d601f19601f820116820180604052508101906109ad9190612736565b8260800181815250508083815181106109c9576109c861265d565b5b602002602001015173ffffffffffffffffffffffffffffffffffffffff1662ce8e3e6040518163ffffffff1660e01b8152600401600060405180830381865afa158015610a1a573d6000803e3d6000fd5b505050506040513d6000823e3d601f19601f82011682018060405250810190610a4391906128d7565b518260a0018181525050808381518110610a6057610a5f61265d565b5b602002602001015173ffffffffffffffffffffffffffffffffffffffff16634ed026226040518163ffffffff1660e01b8152600401600060405180830381865afa158015610ab2573d6000803e3d6000fd5b505050506040513d6000823e3d601f19601f82011682018060405250810190610adb91906128d7565b518260c001818152505060008054906101000a900473ffffffffffffffffffffffffffffffffffffffff1673ffffffffffffffffffffffffffffffffffffffff1663fc0c546a6040518163ffffffff1660e01b8152600401602060405180830381865afa158015610b50573d6000803e3d6000fd5b505050506040513d601f19601f82011682018060405250810190610b74919061295e565b73ffffffffffffffffffffffffffffffffffffffff166370a08231828581518110610ba257610ba161265d565b5b60200260200101516040518263ffffffff1660e01b8152600401610bc6919061299a565b602060405180830381865afa158015610be3573d6000803e3d6000fd5b505050506040513d601f19601f82011682018060405250810190610c079190612736565b8260e0018181525050808381518110610c2357610c2261265d565b5b602002602001015173ffffffffffffffffffffffffffffffffffffffff1663dfbf53ae6040518163ffffffff1660e01b8152600401602060405180830381865afa158015610c75573d6000803e3d6000fd5b505050506040513d601f19601f82011682018060405250810190610c9991906126a1565b82610100019073ffffffffffffffffffffffffffffffffffffffff16908173ffffffffffffffffffffffffffffffffffffffff1681525050808381518110610ce457610ce361265d565b5b602002602001015173ffffffffffffffffffffffffffffffffffffffff1663a9135d176040518163ffffffff1660e01b8152600401600060405180830381865afa158015610d36573d6000803e3d6000fd5b505050506040513d6000823e3d601f19601f82011682018060405250810190610d5f9190612a5b565b826101200181905250808381518110610d7b57610d7a61265d565b5b602002602001015173ffffffffffffffffffffffffffffffffffffffff1663c040e6b86040518163ffffffff1660e01b8152600401602060405180830381865afa158015610dcd573d6000803e3d6000fd5b505050506040513d601f19601f82011682018060405250810190610df19190612ac9565b6006811115610e0357610e02612af6565b5b826101400181815250506000806000838681518110610e2557610e2461265d565b5b602002602001015173ffffffffffffffffffffffffffffffffffffffff16637676d2356040518163ffffffff1660e01b8152600401606060405180830381865afa158015610e77573d6000803e3d6000fd5b505050506040513d601f19601f82011682018060405250810190610e9b91906126e3565b925092509250818561018001818152505082856101a001818152505080856101c0018181525050505050505b919050565b606060008060009054906101000a900473ffffffffffffffffffffffffffffffffffffffff1673ffffffffffffffffffffffffffffffffffffffff16639b44f9406040518163ffffffff1660e01b8152600401600060405180830381865afa158015610f3c573d6000803e3d6000fd5b505050506040513d6000823e3d601f19601f82011682018060405250810190610f6591906125b1565b9050805167ffffffffffffffff811115610f8257610f81612459565b5b604051908082528060200260200182016040528015610fbb57816020015b610fa8611ade565b815260200190600190039081610fa05790505b5091506000805b8251811015611260576000806000806000878681518110610fe657610fe561265d565b5b602002602001015173ffffffffffffffffffffffffffffffffffffffff1663118b95358b6040518263ffffffff1660e01b8152600401611026919061299a565b60a060405180830381865afa158015611043573d6000803e3d6000fd5b505050506040513d601f19601f820116820180604052508101906110679190612b51565b9450945094509450945082801561107e5750600084115b15611248576040518061010001604052808781526020018988815181106110a8576110a761265d565b5b602002602001015173ffffffffffffffffffffffffffffffffffffffff1663df4c0ab16040518163ffffffff1660e01b8152600401602060405180830381865afa1580156110fa573d6000803e3d6000fd5b505050506040513d601f19601f8201168201806040525081019061111e91906127e7565b63ffffffff1681526020018673ffffffffffffffffffffffffffffffffffffffff16815260200185815260200184151581526020018381526020018281526020018673ffffffffffffffffffffffffffffffffffffffff168a89815181106111895761118861265d565b5b602002602001015173ffffffffffffffffffffffffffffffffffffffff1663dfbf53ae6040518163ffffffff1660e01b8152600401602060405180830381865afa1580156111db573d6000803e3d6000fd5b505050506040513d601f19601f820116820180604052508101906111ff91906126a1565b73ffffffffffffffffffffffffffffffffffffffff1614151581525089888151811061122e5761122d61265d565b5b6020026020010181905250868061124490612763565b9750505b5050505050808061125890612763565b915050610fc2565b505050919050565b611270611ade565b600073ffffffffffffffffffffffffffffffffffffffff168273ffffffffffffffffffffffffffffffffffffffff161461141a5760008060008060008773ffffffffffffffffffffffffffffffffffffffff1663118b9535886040518263ffffffff1660e01b81526004016112e5919061299a565b60a060405180830381865afa158015611302573d6000803e3d6000fd5b505050506040513d601f19601f820116820180604052508101906113269190612b51565b945094509450945094508773ffffffffffffffffffffffffffffffffffffffff1663df4c0ab16040518163ffffffff1660e01b8152600401602060405180830381865afa15801561137b573d6000803e3d6000fd5b505050506040513d601f19601f8201168201806040525081019061139f91906127e7565b63ffffffff1686602001818152505084866040019073ffffffffffffffffffffffffffffffffffffffff16908173ffffffffffffffffffffffffffffffffffffffff16815250508386606001818152505082866080019015159081151581525050818660a0018181525050808660c001818152505050505050505b92915050565b611428611ade565b60008060009054906101000a900473ffffffffffffffffffffffffffffffffffffffff1673ffffffffffffffffffffffffffffffffffffffff16639b44f9406040518163ffffffff1660e01b8152600401600060405180830381865afa158015611496573d6000803e3d6000fd5b505050506040513d6000823e3d601f19601f820116820180604052508101906114bf91906125b1565b9050805184106114cf57506115bb565b60008185815181106114e4576114e361265d565b5b6020026020010151905060008173ffffffffffffffffffffffffffffffffffffffff16639f4216e8866040518263ffffffff1660e01b81526004016115299190612328565b602060405180830381865afa158015611546573d6000803e3d6000fd5b505050506040513d601f19601f8201168201806040525081019061156a91906126a1565b9050600073ffffffffffffffffffffffffffffffffffffffff168173ffffffffffffffffffffffffffffffffffffffff16146115b7576115aa8282611268565b9350858460000181815250505b5050505b92915050565b60008060009054906101000a900473ffffffffffffffffffffffffffffffffffffffff1673ffffffffffffffffffffffffffffffffffffffff16639b44f9406040518163ffffffff1660e01b8152600401600060405180830381865afa15801561162f573d6000803e3d6000fd5b505050506040513d6000823e3d601f19601f8201168201806040525081019061165891906125b1565b51905090565b606060008060009054906101000a900473ffffffffffffffffffffffffffffffffffffffff1673ffffffffffffffffffffffffffffffffffffffff16639b44f9406040518163ffffffff1660e01b8152600401600060405180830381865afa1580156116ce573d6000803e3d6000fd5b505050506040513d6000823e3d601f19601f820116820180604052508101906116f791906125b1565b90508051841061175357600067ffffffffffffffff81111561171c5761171b612459565b5b60405190808252806020026020018201604052801561174a5781602001602082028036833780820191505090505b509150506119d8565b60008185815181106117685761176761265d565b5b6020026020010151905060008060008060008573ffffffffffffffffffffffffffffffffffffffff1663118b95358a6040518263ffffffff1660e01b81526004016117b3919061299a565b60a060405180830381865afa1580156117d0573d6000803e3d6000fd5b505050506040513d601f19601f820116820180604052508101906117f49190612b51565b9450945094509450945082158061180b5750600084145b1561186857600067ffffffffffffffff81111561182b5761182a612459565b5b6040519080825280602002602001820160405280156118595781602001602082028036833780820191505090505b509750505050505050506119d8565b60008673ffffffffffffffffffffffffffffffffffffffff16634ed026226040518163ffffffff1660e01b8152600401600060405180830381865afa1580156118b5573d6000803e3d6000fd5b505050506040513d6000823e3d601f19601f820116820180604052508101906118de91906128d7565b905060008567ffffffffffffffff8111156118fc576118fb612459565b5b60405190808252806020026020018201604052801561192a5781602001602082028036833780820191505090505b5090506000805b83518110156119c9578c73ffffffffffffffffffffffffffffffffffffffff168482815181106119645761196361265d565b5b602002602001015173ffffffffffffffffffffffffffffffffffffffff16036119b6578083838151811061199b5761199a61265d565b5b60200260200101818152505081806119b290612763565b9250505b80806119c190612763565b915050611931565b50819a50505050505050505050505b92915050565b60405180610160016040528060008152602001600073ffffffffffffffffffffffffffffffffffffffff168152602001600081526020016000151581526020016000815260200160008152602001600015158152602001600081526020016000815260200160008152602001600081525090565b604051806101e001604052806000815260200160008152602001600081526020016000815260200160008152602001600081526020016000815260200160008152602001600073ffffffffffffffffffffffffffffffffffffffff1681526020016060815260200160008152602001600081526020016000815260200160008152602001600081525090565b6040518061010001604052806000815260200160008152602001600073ffffffffffffffffffffffffffffffffffffffff1681526020016000815260200160001515815260200160008152602001600081526020016000151581525090565b600081519050919050565b600082825260208201905092915050565b6000819050602082019050919050565b6000819050919050565b611b7c81611b69565b82525050565b600073ffffffffffffffffffffffffffffffffffffffff82169050919050565b6000611bad82611b82565b9050919050565b611bbd81611ba2565b82525050565b60008115159050919050565b611bd881611bc3565b82525050565b61016082016000820151611bf56000850182611b73565b506020820151611c086020850182611bb4565b506040820151611c1b6040850182611b73565b506060820151611c2e6060850182611bcf565b506080820151611c416080850182611b73565b5060a0820151611c5460a0850182611b73565b5060c0820151611c6760c0850182611bcf565b5060e0820151611c7a60e0850182611b73565b50610100820151611c8f610100850182611b73565b50610120820151611ca4610120850182611b73565b50610140820151611cb9610140850182611b73565b50505050565b6000611ccb8383611bde565b6101608301905092915050565b6000602082019050919050565b6000611cf082611b3d565b611cfa8185611b48565b9350611d0583611b59565b8060005b83811015611d36578151611d1d8882611cbf565b9750611d2883611cd8565b925050600181019050611d09565b5085935050505092915050565b60006020820190508181036000830152611d5d8184611ce5565b905092915050565b6000604051905090565b600080fd5b600080fd5b611d8281611b69565b8114611d8d57600080fd5b50565b600081359050611d9f81611d79565b92915050565b600060208284031215611dbb57611dba611d6f565b5b6000611dc984828501611d90565b91505092915050565b600081519050919050565b600082825260208201905092915050565b60005b83811015611e0c578082015181840152602081019050611df1565b83811115611e1b576000848401525b50505050565b6000601f19601f8301169050919050565b6000611e3d82611dd2565b611e478185611ddd565b9350611e57818560208601611dee565b611e6081611e21565b840191505092915050565b60006101e083016000830151611e846000860182611b73565b506020830151611e976020860182611b73565b506040830151611eaa6040860182611b73565b506060830151611ebd6060860182611b73565b506080830151611ed06080860182611b73565b5060a0830151611ee360a0860182611b73565b5060c0830151611ef660c0860182611b73565b5060e0830151611f0960e0860182611b73565b50610100830151611f1e610100860182611bb4565b50610120830151848203610120860152611f388282611e32565b915050610140830151611f4f610140860182611b73565b50610160830151611f64610160860182611b73565b50610180830151611f79610180860182611b73565b506101a0830151611f8e6101a0860182611b73565b506101c0830151611fa36101c0860182611b73565b508091505092915050565b60006020820190508181036000830152611fc88184611e6b565b905092915050565b611fd981611ba2565b8114611fe457600080fd5b50565b600081359050611ff681611fd0565b92915050565b60006020828403121561201257612011611d6f565b5b600061202084828501611fe7565b91505092915050565b600081519050919050565b600082825260208201905092915050565b6000819050602082019050919050565b6101008201600082015161206c6000850182611b73565b50602082015161207f6020850182611b73565b5060408201516120926040850182611bb4565b5060608201516120a56060850182611b73565b5060808201516120b86080850182611bcf565b5060a08201516120cb60a0850182611b73565b5060c08201516120de60c0850182611b73565b5060e08201516120f160e0850182611bcf565b50505050565b60006121038383612055565b6101008301905092915050565b6000602082019050919050565b600061212882612029565b6121328185612034565b935061213d83612045565b8060005b8381101561216e57815161215588826120f7565b975061216083612110565b925050600181019050612141565b5085935050505092915050565b60006020820190508181036000830152612195818461211d565b905092915050565b60006121a882611ba2565b9050919050565b6121b88161219d565b81146121c357600080fd5b50565b6000813590506121d5816121af565b92915050565b600080604083850312156121f2576121f1611d6f565b5b6000612200858286016121c6565b925050602061221185828601611fe7565b9150509250929050565b610100820160008201516122326000850182611b73565b5060208201516122456020850182611b73565b5060408201516122586040850182611bb4565b50606082015161226b6060850182611b73565b50608082015161227e6080850182611bcf565b5060a082015161229160a0850182611b73565b5060c08201516122a460c0850182611b73565b5060e08201516122b760e0850182611bcf565b50505050565b6000610100820190506122d3600083018461221b565b92915050565b600080604083850312156122f0576122ef611d6f565b5b60006122fe85828601611d90565b925050602061230f85828601611d90565b9150509250929050565b61232281611b69565b82525050565b600060208201905061233d6000830184612319565b92915050565b6000806040838503121561235a57612359611d6f565b5b600061236885828601611d90565b925050602061237985828601611fe7565b9150509250929050565b600081519050919050565b600082825260208201905092915050565b6000819050602082019050919050565b60006123bb8383611b73565b60208301905092915050565b6000602082019050919050565b60006123df82612383565b6123e9818561238e565b93506123f48361239f565b8060005b8381101561242557815161240c88826123af565b9750612417836123c7565b9250506001810190506123f8565b5085935050505092915050565b6000602082019050818103600083015261244c81846123d4565b905092915050565b600080fd5b7f4e487b7100000000000000000000000000000000000000000000000000000000600052604160045260246000fd5b61249182611e21565b810181811067ffffffffffffffff821117156124b0576124af612459565b5b80604052505050565b60006124c3611d65565b90506124cf8282612488565b919050565b600067ffffffffffffffff8211156124ef576124ee612459565b5b602082029050602081019050919050565b600080fd5b600081519050612514816121af565b92915050565b600061252d612528846124d4565b6124b9565b905080838252602082019050602084028301858111156125505761254f612500565b5b835b8181101561257957806125658882612505565b845260208401935050602081019050612552565b5050509392505050565b600082601f83011261259857612597612454565b5b81516125a884826020860161251a565b91505092915050565b6000602082840312156125c7576125c6611d6f565b5b600082015167ffffffffffffffff8111156125e5576125e4611d74565b5b6125f184828501612583565b91505092915050565b7f4e487b7100000000000000000000000000000000000000000000000000000000600052601160045260246000fd5b600061263482611b69565b915061263f83611b69565b925082821015612652576126516125fa565b5b828203905092915050565b7f4e487b7100000000000000000000000000000000000000000000000000000000600052603260045260246000fd5b60008151905061269b81611fd0565b92915050565b6000602082840312156126b7576126b6611d6f565b5b60006126c58482850161268c565b91505092915050565b6000815190506126dd81611d79565b92915050565b6000806000606084860312156126fc576126fb611d6f565b5b600061270a868287016126ce565b935050602061271b868287016126ce565b925050604061272c868287016126ce565b9150509250925092565b60006020828403121561274c5761274b611d6f565b5b600061275a848285016126ce565b91505092915050565b600061276e82611b69565b91507fffffffffffffffffffffffffffffffffffffffffffffffffffffffffffffffff82036127a05761279f6125fa565b5b600182019050919050565b600063ffffffff82169050919050565b6127c4816127ab565b81146127cf57600080fd5b50565b6000815190506127e1816127bb565b92915050565b6000602082840312156127fd576127fc611d6f565b5b600061280b848285016127d2565b91505092915050565b600067ffffffffffffffff82111561282f5761282e612459565b5b602082029050602081019050919050565b600061285361284e84612814565b6124b9565b9050808382526020820190506020840283018581111561287657612875612500565b5b835b8181101561289f578061288b888261268c565b845260208401935050602081019050612878565b5050509392505050565b600082601f8301126128be576128bd612454565b5b81516128ce848260208601612840565b91505092915050565b6000602082840312156128ed576128ec611d6f565b5b600082015167ffffffffffffffff81111561290b5761290a611d74565b5b612917848285016128a9565b91505092915050565b600061292b82611ba2565b9050919050565b61293b81612920565b811461294657600080fd5b50565b60008151905061295881612932565b92915050565b60006020828403121561297457612973611d6f565b5b600061298284828501612949565b91505092915050565b61299481611ba2565b82525050565b60006020820190506129af600083018461298b565b92915050565b600080fd5b600067ffffffffffffffff8211156129d5576129d4612459565b5b6129de82611e21565b9050602081019050919050565b60006129fe6129f9846129ba565b6124b9565b905082815260208101848484011115612a1a57612a196129b5565b5b612a25848285611dee565b509392505050565b600082601f830112612a4257612a41612454565b5b8151612a528482602086016129eb565b91505092915050565b600060208284031215612a7157612a70611d6f565b5b600082015167ffffffffffffffff811115612a8f57612a8e611d74565b5b612a9b84828501612a2d565b91505092915050565b60078110612ab157600080fd5b50565b600081519050612ac381612aa4565b92915050565b600060208284031215612adf57612ade611d6f565b5b6000612aed84828501612ab4565b91505092915050565b7f4e487b7100000000000000000000000000000000000000000000000000000000600052602160045260246000fd5b612b2e81611bc3565b8114612b3957600080fd5b50565b600081519050612b4b81612b25565b92915050565b600080600080600060a08688031215612b6d57612b6c611d6f565b5b6000612b7b8882890161268c565b9550506020612b8c888289016126ce565b9450506040612b9d88828901612b3c565b9350506060612bae888289016126ce565b9250506080612bbf888289016126ce565b915050929550929590935056fea264697066735822122020c614f09d69a7f1eba0d3ad3d0bdef67cd690046b9df19b3106968cc8ebec5764736f6c634300080d0033",
  "immutableReferences": {},
  "source": "// SPDX-License-Identifier: MIT\npragma solidity >=0.4.22 <0.9.0;\n\nimport \"./Comptroller.sol\";\nimport \"./GoodLottery.sol\";\n\ncontract WishApi {\n    Comptroller comptroller;\n\n    struct GoodInfo {\n        uint256 goodId;\n        uint256 goodValue;\n        uint256 publishTime;\n        uint256 lockedTime;\n        uint256 maintenanceFee;\n        uint256 joinedUsers;\n        uint256 ticketCounts;\n        uint256 balance;\n        address winner;\n        string goodHash;\n        uint256 stage;\n        uint256 paybackFee;\n        uint256 winnerTime;\n        uint256 winnerBlock;\n        uint256 winnerIndex;\n    }\n\n    struct UserJoinRecord {\n        uint goodIndex;\n        uint256 goodId;\n        address user;\n        uint256 count;\n        bool joined;\n        uint256 joinTime;\n        uint256 joinBlockNum;\n        bool isWinner;\n    }\n\n    struct WinnerHistory {\n        uint256 goodId;\n        address user;\n        uint256 count;\n        bool joined;\n        uint256 joinTime;\n        uint256 joinBlockNum;\n        bool isWinner;\n        uint256 goodValue;\n        uint256 blockNum;\n        uint256 blockTime;\n        uint256 index;\n    }\n\n    constructor(Comptroller _comptroller) {\n        comptroller = _comptroller;\n    }\n\n    function getGoodsLength() public view returns (uint256 len) {\n        return comptroller.getGoods().length;\n    }\n\n    function getGoodInfo(uint256 index)\n        public\n        view\n        returns (GoodInfo memory good)\n    {\n        GoodLottery[] memory goodContracts = comptroller.getGoods();\n        if (index >= goodContracts.length) return good;\n\n        good.goodId = goodContracts[index].goodId();\n        good.goodValue = goodContracts[index].goodValue();\n        good.publishTime = goodContracts[index].publishTime();\n        good.lockedTime = goodContracts[index].lockedTime();\n        good.maintenanceFee = goodContracts[index].maintenanceFee();\n        good.joinedUsers = goodContracts[index].getUsers().length;\n        good.ticketCounts = goodContracts[index].getTickets().length;\n        good.balance = comptroller.token().balanceOf(\n            address(goodContracts[index])\n        );\n        good.winner = goodContracts[index].winner();\n        good.goodHash = goodContracts[index].goodHash();\n        good.stage = uint256(goodContracts[index].stage());\n        (\n            uint256 winnerBlock,\n            uint256 winnerTime,\n            uint256 tickIndex\n        ) = goodContracts[index].winnerTime();\n        good.winnerTime = winnerTime;\n        good.winnerBlock = winnerBlock;\n        good.winnerIndex = tickIndex;\n\n        return good;\n    }\n\n    function getUserTickets(uint256 index, address user)\n        public\n        view\n        returns (uint256[] memory)\n    {\n        GoodLottery[] memory goodContracts = comptroller.getGoods();\n        if (index >= goodContracts.length) return new uint256[](0);\n        GoodLottery good = goodContracts[index];\n        (\n            address u,\n            uint256 count,\n            bool joined,\n            uint256 joinTime,\n            uint256 joinBlockNum\n        ) = good.userMapping(user);\n        if (!joined || count == 0) {\n            return new uint256[](0);\n        }\n\n        address[] memory tickets = good.getTickets();\n        uint256[] memory ticketIds = new uint256[](count);\n\n        uint256 j = 0;\n        for (uint256 i = 0; i < tickets.length; i++) {\n            if (tickets[i] == user) {\n                ticketIds[j] = i;\n                j++;\n            }\n        }\n        return ticketIds;\n    }\n\n    function getUserRecord(uint256 index, uint256 num)\n        public\n        view\n        returns (UserJoinRecord memory record)\n    {\n        GoodLottery[] memory goodContracts = comptroller.getGoods();\n        if (index >= goodContracts.length) return record;\n        GoodLottery good = goodContracts[index];\n        address addr = good.userList(num);\n        if (addr != address(0)) {\n            record = getUserRecord(good, addr);\n            record.goodIndex = index;\n        }\n\n        return record;\n    }\n\n    function getUserRecord(GoodLottery good, address addr)\n        public\n        view\n        returns (UserJoinRecord memory record)\n    {\n        if (addr != address(0)) {\n            (\n                address user,\n                uint256 count,\n                bool joined,\n                uint256 joinTime,\n                uint256 joinBlockNum\n            ) = good.userMapping(addr);\n            record.goodId = good.goodId();\n            record.user = user;\n            record.count = count;\n            record.joined = joined;\n            record.joinTime = joinTime;\n            record.joinBlockNum = joinBlockNum;\n        }\n\n        return record;\n    }\n\n    function getWinnerHistory()\n        public\n        view\n        returns (WinnerHistory[] memory)\n    {\n        GoodLottery[] memory goodContracts = comptroller.getGoods();\n        if(goodContracts.length <= 0) {\n            return new WinnerHistory[](0);\n        }\n        WinnerHistory[] memory records = new WinnerHistory[](goodContracts.length);\n        uint j = 0;\n        uint m = goodContracts.length;\n        for (uint256 i = 0; i < goodContracts.length; i++) {\n            GoodLottery good = goodContracts[m - i - 1];\n\n            if (good.winner() != address(0)) {\n                (\n                    uint256 blockNum,\n                    uint256 blockTime,\n                    uint256 index\n                ) = good.winnerTime();\n                UserJoinRecord memory record = getUserRecord(\n                    good,\n                    good.winner()\n                );\n\n                records[j] = WinnerHistory({\n                    goodId: record.goodId,\n                    user: record.user,\n                    count: record.count,\n                    joined: record.joined,\n                    joinTime: record.joinTime,\n                    joinBlockNum: record.joinBlockNum,\n                    isWinner: true,\n                    goodValue: good.goodValue(),\n                    blockNum: blockNum,\n                    blockTime: blockTime,\n                    index: index\n                });\n                j ++;\n            }\n        }\n        return records;\n    }\n\n    function getUserHistory(address user)\n        public\n        view\n        returns (UserJoinRecord[] memory record)\n    {\n        GoodLottery[] memory goodContracts = comptroller.getGoods();\n\n        record = new UserJoinRecord[](goodContracts.length);\n        uint256 j = 0;\n        for (uint256 i = 0; i < goodContracts.length; i++) {\n            (\n                address user,\n                uint256 count,\n                bool joined,\n                uint256 joinTime,\n                uint256 joinBlockNum\n            ) = goodContracts[i].userMapping(user);\n            if (joined && count > 0) {\n                record[j] = UserJoinRecord(\n                    i,\n                    goodContracts[i].goodId(),\n                    user,\n                    count,\n                    joined,\n                    joinTime,\n                    joinBlockNum,\n                    goodContracts[i].winner() == user\n                );\n                j ++;\n            }\n        }\n        return record;\n    }\n}\n",
  "sourcePath": "/Users/jonah/SolidityProject/makewish-contract/contracts/WishApi.sol",
  "compiler": {
    "name": "solc",
    "version": "0.8.13+commit.abaa5c0e.Emscripten.clang"
  },
  "schemaVersion": "3.4.7",
  "updatedAt": "2022-05-26T02:24:10.971Z",
  "devdoc": {
    "kind": "dev",
    "methods": {},
    "version": 1
  },
  "userdoc": {
    "kind": "user",
    "methods": {},
    "version": 1
  }
}