{
  "contractName": "WishApi",
  "abi": [
    {
      "inputs": [
        {
          "internalType": "contract Comptroller",
          "name": "_comptroller",
          "type": "address"
        }
      ],
      "stateMutability": "nonpayable",
      "type": "constructor"
    },
    {
      "inputs": [],
      "name": "getGoodsLength",
      "outputs": [
        {
          "internalType": "uint256",
          "name": "len",
          "type": "uint256"
        }
      ],
      "stateMutability": "view",
      "type": "function",
      "constant": true
    },
    {
      "inputs": [
        {
          "internalType": "uint256",
          "name": "index",
          "type": "uint256"
        }
      ],
      "name": "getGoodInfo",
      "outputs": [
        {
          "components": [
            {
              "internalType": "uint256",
              "name": "goodId",
              "type": "uint256"
            },
            {
              "internalType": "uint256",
              "name": "goodValue",
              "type": "uint256"
            },
            {
              "internalType": "uint256",
              "name": "publishTime",
              "type": "uint256"
            },
            {
              "internalType": "uint256",
              "name": "lockedTime",
              "type": "uint256"
            },
            {
              "internalType": "uint256",
              "name": "maintenanceFee",
              "type": "uint256"
            },
            {
              "internalType": "uint256",
              "name": "joinedUsers",
              "type": "uint256"
            },
            {
              "internalType": "uint256",
              "name": "ticketCounts",
              "type": "uint256"
            },
            {
              "internalType": "uint256",
              "name": "balance",
              "type": "uint256"
            },
            {
              "internalType": "address",
              "name": "winner",
              "type": "address"
            },
            {
              "internalType": "string",
              "name": "goodHash",
              "type": "string"
            },
            {
              "internalType": "uint256",
              "name": "stage",
              "type": "uint256"
            },
            {
              "internalType": "uint256",
              "name": "paybackFee",
              "type": "uint256"
            },
            {
              "internalType": "uint256",
              "name": "winnerTime",
              "type": "uint256"
            },
            {
              "internalType": "uint256",
              "name": "winnerBlock",
              "type": "uint256"
            },
            {
              "internalType": "uint256",
              "name": "winnerIndex",
              "type": "uint256"
            }
          ],
          "internalType": "struct WishApi.GoodInfo",
          "name": "good",
          "type": "tuple"
        }
      ],
      "stateMutability": "view",
      "type": "function",
      "constant": true
    },
    {
      "inputs": [
        {
          "internalType": "uint256",
          "name": "index",
          "type": "uint256"
        },
        {
          "internalType": "address",
          "name": "user",
          "type": "address"
        }
      ],
      "name": "getUserTickets",
      "outputs": [
        {
          "internalType": "uint256[]",
          "name": "",
          "type": "uint256[]"
        }
      ],
      "stateMutability": "view",
      "type": "function",
      "constant": true
    },
    {
      "inputs": [
        {
          "internalType": "contract GoodLottery",
          "name": "good",
          "type": "address"
        },
        {
          "internalType": "address",
          "name": "addr",
          "type": "address"
        }
      ],
      "name": "getUserRecord",
      "outputs": [
        {
          "components": [
            {
              "internalType": "uint256",
              "name": "goodId",
              "type": "uint256"
            },
            {
              "internalType": "address",
              "name": "user",
              "type": "address"
            },
            {
              "internalType": "uint256",
              "name": "count",
              "type": "uint256"
            },
            {
              "internalType": "bool",
              "name": "joined",
              "type": "bool"
            },
            {
              "internalType": "uint256",
              "name": "joinTime",
              "type": "uint256"
            },
            {
              "internalType": "uint256",
              "name": "joinBlockNum",
              "type": "uint256"
            },
            {
              "internalType": "bool",
              "name": "isWinner",
              "type": "bool"
            }
          ],
          "internalType": "struct WishApi.UserJoinRecord",
          "name": "record",
          "type": "tuple"
        }
      ],
      "stateMutability": "view",
      "type": "function",
      "constant": true
    },
    {
      "inputs": [
        {
          "internalType": "uint256",
          "name": "index",
          "type": "uint256"
        },
        {
          "internalType": "uint256",
          "name": "num",
          "type": "uint256"
        }
      ],
      "name": "getUserRecord",
      "outputs": [
        {
          "components": [
            {
              "internalType": "uint256",
              "name": "goodId",
              "type": "uint256"
            },
            {
              "internalType": "address",
              "name": "user",
              "type": "address"
            },
            {
              "internalType": "uint256",
              "name": "count",
              "type": "uint256"
            },
            {
              "internalType": "bool",
              "name": "joined",
              "type": "bool"
            },
            {
              "internalType": "uint256",
              "name": "joinTime",
              "type": "uint256"
            },
            {
              "internalType": "uint256",
              "name": "joinBlockNum",
              "type": "uint256"
            },
            {
              "internalType": "bool",
              "name": "isWinner",
              "type": "bool"
            }
          ],
          "internalType": "struct WishApi.UserJoinRecord",
          "name": "record",
          "type": "tuple"
        }
      ],
      "stateMutability": "view",
      "type": "function",
      "constant": true
    },
    {
      "inputs": [],
      "name": "getWinnerHistory",
      "outputs": [
        {
          "components": [
            {
              "internalType": "uint256",
              "name": "goodId",
              "type": "uint256"
            },
            {
              "internalType": "address",
              "name": "user",
              "type": "address"
            },
            {
              "internalType": "uint256",
              "name": "count",
              "type": "uint256"
            },
            {
              "internalType": "bool",
              "name": "joined",
              "type": "bool"
            },
            {
              "internalType": "uint256",
              "name": "joinTime",
              "type": "uint256"
            },
            {
              "internalType": "uint256",
              "name": "joinBlockNum",
              "type": "uint256"
            },
            {
              "internalType": "bool",
              "name": "isWinner",
              "type": "bool"
            },
            {
              "internalType": "uint256",
              "name": "goodValue",
              "type": "uint256"
            },
            {
              "internalType": "uint256",
              "name": "blockNum",
              "type": "uint256"
            },
            {
              "internalType": "uint256",
              "name": "blockTime",
              "type": "uint256"
            },
            {
              "internalType": "uint256",
              "name": "index",
              "type": "uint256"
            }
          ],
          "internalType": "struct WishApi.WinnerHistory[]",
          "name": "",
          "type": "tuple[]"
        }
      ],
      "stateMutability": "view",
      "type": "function",
      "constant": true
    },
    {
      "inputs": [
        {
          "internalType": "address",
          "name": "user",
          "type": "address"
        }
      ],
      "name": "getUserHistory",
      "outputs": [
        {
          "components": [
            {
              "internalType": "uint256",
              "name": "goodId",
              "type": "uint256"
            },
            {
              "internalType": "address",
              "name": "user",
              "type": "address"
            },
            {
              "internalType": "uint256",
              "name": "count",
              "type": "uint256"
            },
            {
              "internalType": "bool",
              "name": "joined",
              "type": "bool"
            },
            {
              "internalType": "uint256",
              "name": "joinTime",
              "type": "uint256"
            },
            {
              "internalType": "uint256",
              "name": "joinBlockNum",
              "type": "uint256"
            },
            {
              "internalType": "bool",
              "name": "isWinner",
              "type": "bool"
            }
          ],
          "internalType": "struct WishApi.UserJoinRecord[]",
          "name": "record",
          "type": "tuple[]"
        }
      ],
      "stateMutability": "view",
      "type": "function",
      "constant": true
    }
  ],
  "bytecode": "0x60806040523480156200001157600080fd5b5060405162002d0b38038062002d0b8339818101604052810190620000379190620000fc565b806000806101000a81548173ffffffffffffffffffffffffffffffffffffffff021916908373ffffffffffffffffffffffffffffffffffffffff160217905550506200012e565b600080fd5b600073ffffffffffffffffffffffffffffffffffffffff82169050919050565b6000620000b08262000083565b9050919050565b6000620000c482620000a3565b9050919050565b620000d681620000b7565b8114620000e257600080fd5b50565b600081519050620000f681620000cb565b92915050565b6000602082840312156200011557620001146200007e565b5b60006200012584828501620000e5565b91505092915050565b612bcd806200013e6000396000f3fe608060405234801561001057600080fd5b506004361061007d5760003560e01c8063536031081161005b5780635360310814610100578063c62c1c6f14610130578063d1db4c8714610160578063e7a7f65c1461017e5761007d565b80633580404b146100825780633a684138146100a05780634fb3d3b1146100d0575b600080fd5b61008a6101ae565b6040516100979190611d0f565b60405180910390f35b6100ba60048036038101906100b59190611d71565b610613565b6040516100c79190611f7a565b60405180910390f35b6100ea60048036038101906100e59190611fc8565b610eb8565b6040516100f79190612132565b60405180910390f35b61011a60048036038101906101159190612192565b61123f565b6040516101279190612260565b60405180910390f35b61014a6004803603810190610145919061227b565b6113f7565b6040516101579190612260565b60405180910390f35b610168611595565b60405161017591906122ca565b60405180910390f35b610198600480360381019061019391906122e5565b611632565b6040516101a591906123d4565b60405180910390f35b606060008060009054906101000a900473ffffffffffffffffffffffffffffffffffffffff1673ffffffffffffffffffffffffffffffffffffffff16639b44f9406040518163ffffffff1660e01b8152600401600060405180830381865afa15801561021e573d6000803e3d6000fd5b505050506040513d6000823e3d601f19601f820116820180604052508101906102479190612553565b90506000815167ffffffffffffffff811115610266576102656123fb565b5b60405190808252806020026020018201604052801561029f57816020015b61028c6119b2565b8152602001906001900390816102845790505b509050600080600184516102b391906125cb565b90505b6000811061060957600073ffffffffffffffffffffffffffffffffffffffff168482815181106102e9576102e86125ff565b5b602002602001015173ffffffffffffffffffffffffffffffffffffffff1663dfbf53ae6040518163ffffffff1660e01b8152600401602060405180830381865afa15801561033b573d6000803e3d6000fd5b505050506040513d601f19601f8201168201806040525081019061035f9190612643565b73ffffffffffffffffffffffffffffffffffffffff16146105f6576000806000868481518110610392576103916125ff565b5b602002602001015173ffffffffffffffffffffffffffffffffffffffff16637676d2356040518163ffffffff1660e01b8152600401606060405180830381865afa1580156103e4573d6000803e3d6000fd5b505050506040513d601f19601f820116820180604052508101906104089190612685565b92509250925060006104bc888681518110610426576104256125ff565b5b6020026020010151898781518110610441576104406125ff565b5b602002602001015173ffffffffffffffffffffffffffffffffffffffff1663dfbf53ae6040518163ffffffff1660e01b8152600401602060405180830381865afa158015610493573d6000803e3d6000fd5b505050506040513d601f19601f820116820180604052508101906104b79190612643565b61123f565b905060405180610160016040528082600001518152602001826020015173ffffffffffffffffffffffffffffffffffffffff16815260200182604001518152602001826060015115158152602001826080015181526020018260a00151815260200160011515815260200189878151811061053a576105396125ff565b5b602002602001015173ffffffffffffffffffffffffffffffffffffffff1663c379b4be6040518163ffffffff1660e01b8152600401602060405180830381865afa15801561058c573d6000803e3d6000fd5b505050506040513d601f19601f820116820180604052508101906105b091906126d8565b8152602001858152602001848152602001838152508787815181106105d8576105d76125ff565b5b602002602001018190525085806105ee90612705565b965050505050505b80806106019061274d565b9150506102b6565b5081935050505090565b61061b611a26565b60008060009054906101000a900473ffffffffffffffffffffffffffffffffffffffff1673ffffffffffffffffffffffffffffffffffffffff16639b44f9406040518163ffffffff1660e01b8152600401600060405180830381865afa158015610689573d6000803e3d6000fd5b505050506040513d6000823e3d601f19601f820116820180604052508101906106b29190612553565b9050805183106106c25750610eb3565b8083815181106106d5576106d46125ff565b5b602002602001015173ffffffffffffffffffffffffffffffffffffffff1663df4c0ab16040518163ffffffff1660e01b8152600401602060405180830381865afa158015610727573d6000803e3d6000fd5b505050506040513d601f19601f8201168201806040525081019061074b91906127b2565b63ffffffff1682600001818152505080838151811061076d5761076c6125ff565b5b602002602001015173ffffffffffffffffffffffffffffffffffffffff1663c379b4be6040518163ffffffff1660e01b8152600401602060405180830381865afa1580156107bf573d6000803e3d6000fd5b505050506040513d601f19601f820116820180604052508101906107e391906126d8565b8260200181815250508083815181106107ff576107fe6125ff565b5b602002602001015173ffffffffffffffffffffffffffffffffffffffff1663e467fa806040518163ffffffff1660e01b8152600401602060405180830381865afa158015610851573d6000803e3d6000fd5b505050506040513d601f19601f8201168201806040525081019061087591906126d8565b826040018181525050808381518110610891576108906125ff565b5b602002602001015173ffffffffffffffffffffffffffffffffffffffff1663a8b382056040518163ffffffff1660e01b8152600401602060405180830381865afa1580156108e3573d6000803e3d6000fd5b505050506040513d601f19601f8201168201806040525081019061090791906126d8565b826060018181525050808381518110610923576109226125ff565b5b602002602001015173ffffffffffffffffffffffffffffffffffffffff1663046604496040518163ffffffff1660e01b8152600401602060405180830381865afa158015610975573d6000803e3d6000fd5b505050506040513d601f19601f8201168201806040525081019061099991906126d8565b8260800181815250508083815181106109b5576109b46125ff565b5b602002602001015173ffffffffffffffffffffffffffffffffffffffff1662ce8e3e6040518163ffffffff1660e01b8152600401600060405180830381865afa158015610a06573d6000803e3d6000fd5b505050506040513d6000823e3d601f19601f82011682018060405250810190610a2f91906128a2565b518260a0018181525050808381518110610a4c57610a4b6125ff565b5b602002602001015173ffffffffffffffffffffffffffffffffffffffff16634ed026226040518163ffffffff1660e01b8152600401600060405180830381865afa158015610a9e573d6000803e3d6000fd5b505050506040513d6000823e3d601f19601f82011682018060405250810190610ac791906128a2565b518260c001818152505060008054906101000a900473ffffffffffffffffffffffffffffffffffffffff1673ffffffffffffffffffffffffffffffffffffffff1663fc0c546a6040518163ffffffff1660e01b8152600401602060405180830381865afa158015610b3c573d6000803e3d6000fd5b505050506040513d601f19601f82011682018060405250810190610b609190612929565b73ffffffffffffffffffffffffffffffffffffffff166370a08231828581518110610b8e57610b8d6125ff565b5b60200260200101516040518263ffffffff1660e01b8152600401610bb29190612965565b602060405180830381865afa158015610bcf573d6000803e3d6000fd5b505050506040513d601f19601f82011682018060405250810190610bf391906126d8565b8260e0018181525050808381518110610c0f57610c0e6125ff565b5b602002602001015173ffffffffffffffffffffffffffffffffffffffff1663dfbf53ae6040518163ffffffff1660e01b8152600401602060405180830381865afa158015610c61573d6000803e3d6000fd5b505050506040513d601f19601f82011682018060405250810190610c859190612643565b82610100019073ffffffffffffffffffffffffffffffffffffffff16908173ffffffffffffffffffffffffffffffffffffffff1681525050808381518110610cd057610ccf6125ff565b5b602002602001015173ffffffffffffffffffffffffffffffffffffffff1663a9135d176040518163ffffffff1660e01b8152600401600060405180830381865afa158015610d22573d6000803e3d6000fd5b505050506040513d6000823e3d601f19601f82011682018060405250810190610d4b9190612a26565b826101200181905250808381518110610d6757610d666125ff565b5b602002602001015173ffffffffffffffffffffffffffffffffffffffff1663c040e6b86040518163ffffffff1660e01b8152600401602060405180830381865afa158015610db9573d6000803e3d6000fd5b505050506040513d601f19601f82011682018060405250810190610ddd9190612a94565b6006811115610def57610dee612ac1565b5b826101400181815250506000806000838681518110610e1157610e106125ff565b5b602002602001015173ffffffffffffffffffffffffffffffffffffffff16637676d2356040518163ffffffff1660e01b8152600401606060405180830381865afa158015610e63573d6000803e3d6000fd5b505050506040513d601f19601f82011682018060405250810190610e879190612685565b925092509250818561018001818152505082856101a001818152505080856101c0018181525050505050505b919050565b606060008060009054906101000a900473ffffffffffffffffffffffffffffffffffffffff1673ffffffffffffffffffffffffffffffffffffffff16639b44f9406040518163ffffffff1660e01b8152600401600060405180830381865afa158015610f28573d6000803e3d6000fd5b505050506040513d6000823e3d601f19601f82011682018060405250810190610f519190612553565b9050805167ffffffffffffffff811115610f6e57610f6d6123fb565b5b604051908082528060200260200182016040528015610fa757816020015b610f94611ab2565b815260200190600190039081610f8c5790505b5091506000805b8251811015611237576000806000806000878681518110610fd257610fd16125ff565b5b602002602001015173ffffffffffffffffffffffffffffffffffffffff1663118b95358b6040518263ffffffff1660e01b81526004016110129190612965565b60a060405180830381865afa15801561102f573d6000803e3d6000fd5b505050506040513d601f19601f820116820180604052508101906110539190612b1c565b9450945094509450945082801561106a5750600084115b1561121f576040518060e0016040528089888151811061108d5761108c6125ff565b5b602002602001015173ffffffffffffffffffffffffffffffffffffffff1663df4c0ab16040518163ffffffff1660e01b8152600401602060405180830381865afa1580156110df573d6000803e3d6000fd5b505050506040513d601f19601f8201168201806040525081019061110391906127b2565b63ffffffff1681526020018673ffffffffffffffffffffffffffffffffffffffff16815260200185815260200184151581526020018381526020018281526020018673ffffffffffffffffffffffffffffffffffffffff168a898151811061116e5761116d6125ff565b5b602002602001015173ffffffffffffffffffffffffffffffffffffffff1663dfbf53ae6040518163ffffffff1660e01b8152600401602060405180830381865afa1580156111c0573d6000803e3d6000fd5b505050506040513d601f19601f820116820180604052508101906111e49190612643565b73ffffffffffffffffffffffffffffffffffffffff16141515815250898881518110611213576112126125ff565b5b60200260200101819052505b5050505050808061122f90612705565b915050610fae565b505050919050565b611247611ab2565b600073ffffffffffffffffffffffffffffffffffffffff168273ffffffffffffffffffffffffffffffffffffffff16146113f15760008060008060008773ffffffffffffffffffffffffffffffffffffffff1663118b9535886040518263ffffffff1660e01b81526004016112bc9190612965565b60a060405180830381865afa1580156112d9573d6000803e3d6000fd5b505050506040513d601f19601f820116820180604052508101906112fd9190612b1c565b945094509450945094508773ffffffffffffffffffffffffffffffffffffffff1663df4c0ab16040518163ffffffff1660e01b8152600401602060405180830381865afa158015611352573d6000803e3d6000fd5b505050506040513d601f19601f8201168201806040525081019061137691906127b2565b63ffffffff1686600001818152505084866020019073ffffffffffffffffffffffffffffffffffffffff16908173ffffffffffffffffffffffffffffffffffffffff1681525050838660400181815250508286606001901515908115158152505081866080018181525050808660a001818152505050505050505b92915050565b6113ff611ab2565b60008060009054906101000a900473ffffffffffffffffffffffffffffffffffffffff1673ffffffffffffffffffffffffffffffffffffffff16639b44f9406040518163ffffffff1660e01b8152600401600060405180830381865afa15801561146d573d6000803e3d6000fd5b505050506040513d6000823e3d601f19601f820116820180604052508101906114969190612553565b9050805184106114a6575061158f565b60008185815181106114bb576114ba6125ff565b5b6020026020010151905060008173ffffffffffffffffffffffffffffffffffffffff16639f4216e8866040518263ffffffff1660e01b815260040161150091906122ca565b602060405180830381865afa15801561151d573d6000803e3d6000fd5b505050506040513d601f19601f820116820180604052508101906115419190612643565b9050600073ffffffffffffffffffffffffffffffffffffffff168173ffffffffffffffffffffffffffffffffffffffff161461158b57611581828261123f565b935050505061158f565b5050505b92915050565b60008060009054906101000a900473ffffffffffffffffffffffffffffffffffffffff1673ffffffffffffffffffffffffffffffffffffffff16639b44f9406040518163ffffffff1660e01b8152600401600060405180830381865afa158015611603573d6000803e3d6000fd5b505050506040513d6000823e3d601f19601f8201168201806040525081019061162c9190612553565b51905090565b606060008060009054906101000a900473ffffffffffffffffffffffffffffffffffffffff1673ffffffffffffffffffffffffffffffffffffffff16639b44f9406040518163ffffffff1660e01b8152600401600060405180830381865afa1580156116a2573d6000803e3d6000fd5b505050506040513d6000823e3d601f19601f820116820180604052508101906116cb9190612553565b90508051841061172757600067ffffffffffffffff8111156116f0576116ef6123fb565b5b60405190808252806020026020018201604052801561171e5781602001602082028036833780820191505090505b509150506119ac565b600081858151811061173c5761173b6125ff565b5b6020026020010151905060008060008060008573ffffffffffffffffffffffffffffffffffffffff1663118b95358a6040518263ffffffff1660e01b81526004016117879190612965565b60a060405180830381865afa1580156117a4573d6000803e3d6000fd5b505050506040513d601f19601f820116820180604052508101906117c89190612b1c565b945094509450945094508215806117df5750600084145b1561183c57600067ffffffffffffffff8111156117ff576117fe6123fb565b5b60405190808252806020026020018201604052801561182d5781602001602082028036833780820191505090505b509750505050505050506119ac565b60008673ffffffffffffffffffffffffffffffffffffffff16634ed026226040518163ffffffff1660e01b8152600401600060405180830381865afa158015611889573d6000803e3d6000fd5b505050506040513d6000823e3d601f19601f820116820180604052508101906118b291906128a2565b905060008567ffffffffffffffff8111156118d0576118cf6123fb565b5b6040519080825280602002602001820160405280156118fe5781602001602082028036833780820191505090505b5090506000805b835181101561199d578c73ffffffffffffffffffffffffffffffffffffffff16848281518110611938576119376125ff565b5b602002602001015173ffffffffffffffffffffffffffffffffffffffff160361198a578083838151811061196f5761196e6125ff565b5b602002602001018181525050818061198690612705565b9250505b808061199590612705565b915050611905565b50819a50505050505050505050505b92915050565b60405180610160016040528060008152602001600073ffffffffffffffffffffffffffffffffffffffff168152602001600081526020016000151581526020016000815260200160008152602001600015158152602001600081526020016000815260200160008152602001600081525090565b604051806101e001604052806000815260200160008152602001600081526020016000815260200160008152602001600081526020016000815260200160008152602001600073ffffffffffffffffffffffffffffffffffffffff1681526020016060815260200160008152602001600081526020016000815260200160008152602001600081525090565b6040518060e0016040528060008152602001600073ffffffffffffffffffffffffffffffffffffffff1681526020016000815260200160001515815260200160008152602001600081526020016000151581525090565b600081519050919050565b600082825260208201905092915050565b6000819050602082019050919050565b6000819050919050565b611b4881611b35565b82525050565b600073ffffffffffffffffffffffffffffffffffffffff82169050919050565b6000611b7982611b4e565b9050919050565b611b8981611b6e565b82525050565b60008115159050919050565b611ba481611b8f565b82525050565b61016082016000820151611bc16000850182611b3f565b506020820151611bd46020850182611b80565b506040820151611be76040850182611b3f565b506060820151611bfa6060850182611b9b565b506080820151611c0d6080850182611b3f565b5060a0820151611c2060a0850182611b3f565b5060c0820151611c3360c0850182611b9b565b5060e0820151611c4660e0850182611b3f565b50610100820151611c5b610100850182611b3f565b50610120820151611c70610120850182611b3f565b50610140820151611c85610140850182611b3f565b50505050565b6000611c978383611baa565b6101608301905092915050565b6000602082019050919050565b6000611cbc82611b09565b611cc68185611b14565b9350611cd183611b25565b8060005b83811015611d02578151611ce98882611c8b565b9750611cf483611ca4565b925050600181019050611cd5565b5085935050505092915050565b60006020820190508181036000830152611d298184611cb1565b905092915050565b6000604051905090565b600080fd5b600080fd5b611d4e81611b35565b8114611d5957600080fd5b50565b600081359050611d6b81611d45565b92915050565b600060208284031215611d8757611d86611d3b565b5b6000611d9584828501611d5c565b91505092915050565b600081519050919050565b600082825260208201905092915050565b60005b83811015611dd8578082015181840152602081019050611dbd565b83811115611de7576000848401525b50505050565b6000601f19601f8301169050919050565b6000611e0982611d9e565b611e138185611da9565b9350611e23818560208601611dba565b611e2c81611ded565b840191505092915050565b60006101e083016000830151611e506000860182611b3f565b506020830151611e636020860182611b3f565b506040830151611e766040860182611b3f565b506060830151611e896060860182611b3f565b506080830151611e9c6080860182611b3f565b5060a0830151611eaf60a0860182611b3f565b5060c0830151611ec260c0860182611b3f565b5060e0830151611ed560e0860182611b3f565b50610100830151611eea610100860182611b80565b50610120830151848203610120860152611f048282611dfe565b915050610140830151611f1b610140860182611b3f565b50610160830151611f30610160860182611b3f565b50610180830151611f45610180860182611b3f565b506101a0830151611f5a6101a0860182611b3f565b506101c0830151611f6f6101c0860182611b3f565b508091505092915050565b60006020820190508181036000830152611f948184611e37565b905092915050565b611fa581611b6e565b8114611fb057600080fd5b50565b600081359050611fc281611f9c565b92915050565b600060208284031215611fde57611fdd611d3b565b5b6000611fec84828501611fb3565b91505092915050565b600081519050919050565b600082825260208201905092915050565b6000819050602082019050919050565b60e0820160008201516120376000850182611b3f565b50602082015161204a6020850182611b80565b50604082015161205d6040850182611b3f565b5060608201516120706060850182611b9b565b5060808201516120836080850182611b3f565b5060a082015161209660a0850182611b3f565b5060c08201516120a960c0850182611b9b565b50505050565b60006120bb8383612021565b60e08301905092915050565b6000602082019050919050565b60006120df82611ff5565b6120e98185612000565b93506120f483612011565b8060005b8381101561212557815161210c88826120af565b9750612117836120c7565b9250506001810190506120f8565b5085935050505092915050565b6000602082019050818103600083015261214c81846120d4565b905092915050565b600061215f82611b6e565b9050919050565b61216f81612154565b811461217a57600080fd5b50565b60008135905061218c81612166565b92915050565b600080604083850312156121a9576121a8611d3b565b5b60006121b78582860161217d565b92505060206121c885828601611fb3565b9150509250929050565b60e0820160008201516121e86000850182611b3f565b5060208201516121fb6020850182611b80565b50604082015161220e6040850182611b3f565b5060608201516122216060850182611b9b565b5060808201516122346080850182611b3f565b5060a082015161224760a0850182611b3f565b5060c082015161225a60c0850182611b9b565b50505050565b600060e08201905061227560008301846121d2565b92915050565b6000806040838503121561229257612291611d3b565b5b60006122a085828601611d5c565b92505060206122b185828601611d5c565b9150509250929050565b6122c481611b35565b82525050565b60006020820190506122df60008301846122bb565b92915050565b600080604083850312156122fc576122fb611d3b565b5b600061230a85828601611d5c565b925050602061231b85828601611fb3565b9150509250929050565b600081519050919050565b600082825260208201905092915050565b6000819050602082019050919050565b600061235d8383611b3f565b60208301905092915050565b6000602082019050919050565b600061238182612325565b61238b8185612330565b935061239683612341565b8060005b838110156123c75781516123ae8882612351565b97506123b983612369565b92505060018101905061239a565b5085935050505092915050565b600060208201905081810360008301526123ee8184612376565b905092915050565b600080fd5b7f4e487b7100000000000000000000000000000000000000000000000000000000600052604160045260246000fd5b61243382611ded565b810181811067ffffffffffffffff82111715612452576124516123fb565b5b80604052505050565b6000612465611d31565b9050612471828261242a565b919050565b600067ffffffffffffffff821115612491576124906123fb565b5b602082029050602081019050919050565b600080fd5b6000815190506124b681612166565b92915050565b60006124cf6124ca84612476565b61245b565b905080838252602082019050602084028301858111156124f2576124f16124a2565b5b835b8181101561251b578061250788826124a7565b8452602084019350506020810190506124f4565b5050509392505050565b600082601f83011261253a576125396123f6565b5b815161254a8482602086016124bc565b91505092915050565b60006020828403121561256957612568611d3b565b5b600082015167ffffffffffffffff81111561258757612586611d40565b5b61259384828501612525565b91505092915050565b7f4e487b7100000000000000000000000000000000000000000000000000000000600052601160045260246000fd5b60006125d682611b35565b91506125e183611b35565b9250828210156125f4576125f361259c565b5b828203905092915050565b7f4e487b7100000000000000000000000000000000000000000000000000000000600052603260045260246000fd5b60008151905061263d81611f9c565b92915050565b60006020828403121561265957612658611d3b565b5b60006126678482850161262e565b91505092915050565b60008151905061267f81611d45565b92915050565b60008060006060848603121561269e5761269d611d3b565b5b60006126ac86828701612670565b93505060206126bd86828701612670565b92505060406126ce86828701612670565b9150509250925092565b6000602082840312156126ee576126ed611d3b565b5b60006126fc84828501612670565b91505092915050565b600061271082611b35565b91507fffffffffffffffffffffffffffffffffffffffffffffffffffffffffffffffff82036127425761274161259c565b5b600182019050919050565b600061275882611b35565b91506000820361276b5761276a61259c565b5b600182039050919050565b600063ffffffff82169050919050565b61278f81612776565b811461279a57600080fd5b50565b6000815190506127ac81612786565b92915050565b6000602082840312156127c8576127c7611d3b565b5b60006127d68482850161279d565b91505092915050565b600067ffffffffffffffff8211156127fa576127f96123fb565b5b602082029050602081019050919050565b600061281e612819846127df565b61245b565b90508083825260208201905060208402830185811115612841576128406124a2565b5b835b8181101561286a5780612856888261262e565b845260208401935050602081019050612843565b5050509392505050565b600082601f830112612889576128886123f6565b5b815161289984826020860161280b565b91505092915050565b6000602082840312156128b8576128b7611d3b565b5b600082015167ffffffffffffffff8111156128d6576128d5611d40565b5b6128e284828501612874565b91505092915050565b60006128f682611b6e565b9050919050565b612906816128eb565b811461291157600080fd5b50565b600081519050612923816128fd565b92915050565b60006020828403121561293f5761293e611d3b565b5b600061294d84828501612914565b91505092915050565b61295f81611b6e565b82525050565b600060208201905061297a6000830184612956565b92915050565b600080fd5b600067ffffffffffffffff8211156129a05761299f6123fb565b5b6129a982611ded565b9050602081019050919050565b60006129c96129c484612985565b61245b565b9050828152602081018484840111156129e5576129e4612980565b5b6129f0848285611dba565b509392505050565b600082601f830112612a0d57612a0c6123f6565b5b8151612a1d8482602086016129b6565b91505092915050565b600060208284031215612a3c57612a3b611d3b565b5b600082015167ffffffffffffffff811115612a5a57612a59611d40565b5b612a66848285016129f8565b91505092915050565b60078110612a7c57600080fd5b50565b600081519050612a8e81612a6f565b92915050565b600060208284031215612aaa57612aa9611d3b565b5b6000612ab884828501612a7f565b91505092915050565b7f4e487b7100000000000000000000000000000000000000000000000000000000600052602160045260246000fd5b612af981611b8f565b8114612b0457600080fd5b50565b600081519050612b1681612af0565b92915050565b600080600080600060a08688031215612b3857612b37611d3b565b5b6000612b468882890161262e565b9550506020612b5788828901612670565b9450506040612b6888828901612b07565b9350506060612b7988828901612670565b9250506080612b8a88828901612670565b915050929550929590935056fea2646970667358221220072010d6a5f6dc0a8568cf40ba4c8b950dda960cb5b77b56a0e5f39b41d726e164736f6c634300080d0033",
  "immutableReferences": {},
  "source": "// SPDX-License-Identifier: MIT\npragma solidity >=0.4.22 <0.9.0;\n\nimport \"./Comptroller.sol\";\nimport \"./GoodLottery.sol\";\n\ncontract WishApi {\n    Comptroller comptroller;\n\n    struct GoodInfo {\n        uint256 goodId;\n        uint256 goodValue;\n        uint256 publishTime;\n        uint256 lockedTime;\n        uint256 maintenanceFee;\n        uint256 joinedUsers;\n        uint256 ticketCounts;\n        uint256 balance;\n        address winner;\n        string goodHash;\n        uint256 stage;\n        uint256 paybackFee;\n        uint256 winnerTime;\n        uint256 winnerBlock;\n        uint256 winnerIndex;\n    }\n\n    struct UserJoinRecord {\n        uint256 goodId;\n        address user;\n        uint256 count;\n        bool joined;\n        uint256 joinTime;\n        uint256 joinBlockNum;\n        bool isWinner;\n    }\n\n    struct WinnerHistory {\n        uint256 goodId;\n        address user;\n        uint256 count;\n        bool joined;\n        uint256 joinTime;\n        uint256 joinBlockNum;\n        bool isWinner;\n        uint256 goodValue;\n        uint256 blockNum;\n        uint256 blockTime;\n        uint256 index;\n    }\n\n    constructor(Comptroller _comptroller) {\n        comptroller = _comptroller;\n    }\n\n    function getGoodsLength() public view returns (uint256 len) {\n        return comptroller.getGoods().length;\n    }\n\n    function getGoodInfo(uint256 index)\n        public\n        view\n        returns (GoodInfo memory good)\n    {\n        GoodLottery[] memory goodContracts = comptroller.getGoods();\n        if (index >= goodContracts.length) return good;\n\n        good.goodId = goodContracts[index].goodId();\n        good.goodValue = goodContracts[index].goodValue();\n        good.publishTime = goodContracts[index].publishTime();\n        good.lockedTime = goodContracts[index].lockedTime();\n        good.maintenanceFee = goodContracts[index].maintenanceFee();\n        good.joinedUsers = goodContracts[index].getUsers().length;\n        good.ticketCounts = goodContracts[index].getTickets().length;\n        good.balance = comptroller.token().balanceOf(\n            address(goodContracts[index])\n        );\n        good.winner = goodContracts[index].winner();\n        good.goodHash = goodContracts[index].goodHash();\n        good.stage = uint256(goodContracts[index].stage());\n        (\n            uint256 winnerBlock,\n            uint256 winnerTime,\n            uint256 tickIndex\n        ) = goodContracts[index].winnerTime();\n        good.winnerTime = winnerTime;\n        good.winnerBlock = winnerBlock;\n        good.winnerIndex = tickIndex;\n\n        return good;\n    }\n\n    function getUserTickets(uint256 index, address user)\n        public\n        view\n        returns (uint256[] memory)\n    {\n        GoodLottery[] memory goodContracts = comptroller.getGoods();\n        if (index >= goodContracts.length) return new uint256[](0);\n        GoodLottery good = goodContracts[index];\n        (\n            address u,\n            uint256 count,\n            bool joined,\n            uint256 joinTime,\n            uint256 joinBlockNum\n        ) = good.userMapping(user);\n        if (!joined || count == 0) {\n            return new uint256[](0);\n        }\n\n        address[] memory tickets = good.getTickets();\n        uint256[] memory ticketIds = new uint256[](count);\n\n        uint256 j = 0;\n        for (uint256 i = 0; i < tickets.length; i++) {\n            if (tickets[i] == user) {\n                ticketIds[j] = i;\n                j++;\n            }\n        }\n        return ticketIds;\n    }\n\n    function getUserRecord(uint256 index, uint256 num)\n        public\n        view\n        returns (UserJoinRecord memory record)\n    {\n        GoodLottery[] memory goodContracts = comptroller.getGoods();\n        if (index >= goodContracts.length) return record;\n        GoodLottery good = goodContracts[index];\n        address addr = good.userList(num);\n        if (addr != address(0)) {\n            return getUserRecord(good, addr);\n        }\n\n        return record;\n    }\n\n    function getUserRecord(GoodLottery good, address addr)\n        public\n        view\n        returns (UserJoinRecord memory record)\n    {\n        if (addr != address(0)) {\n            (\n                address user,\n                uint256 count,\n                bool joined,\n                uint256 joinTime,\n                uint256 joinBlockNum\n            ) = good.userMapping(addr);\n            record.goodId = good.goodId();\n            record.user = user;\n            record.count = count;\n            record.joined = joined;\n            record.joinTime = joinTime;\n            record.joinBlockNum = joinBlockNum;\n        }\n\n        return record;\n    }\n\n    function getWinnerHistory()\n        public\n        view\n        returns (WinnerHistory[] memory)\n    {\n        GoodLottery[] memory goodContracts = comptroller.getGoods();\n        WinnerHistory[] memory records = new WinnerHistory[](goodContracts.length);\n        uint j = 0;\n        for (uint256 i = goodContracts.length - 1; i >= 0; i--) {\n            if (goodContracts[i].winner() != address(0)) {\n                (\n                    uint256 blockNum,\n                    uint256 blockTime,\n                    uint256 index\n                ) = goodContracts[i].winnerTime();\n                UserJoinRecord memory record = getUserRecord(\n                    goodContracts[i],\n                    goodContracts[i].winner()\n                );\n\n                records[j] = WinnerHistory({\n                    goodId: record.goodId,\n                    user: record.user,\n                    count: record.count,\n                    joined: record.joined,\n                    joinTime: record.joinTime,\n                    joinBlockNum: record.joinBlockNum,\n                    isWinner: true,\n                    goodValue: goodContracts[i].goodValue(),\n                    blockNum: blockNum,\n                    blockTime: blockTime,\n                    index: index\n                });\n                j ++;\n            }\n        }\n        return records;\n    }\n\n    function getUserHistory(address user)\n        public\n        view\n        returns (UserJoinRecord[] memory record)\n    {\n        GoodLottery[] memory goodContracts = comptroller.getGoods();\n\n        record = new UserJoinRecord[](goodContracts.length);\n        uint256 j = 0;\n        for (uint256 i = 0; i < goodContracts.length; i++) {\n            (\n                address user,\n                uint256 count,\n                bool joined,\n                uint256 joinTime,\n                uint256 joinBlockNum\n            ) = goodContracts[i].userMapping(user);\n            if (joined && count > 0) {\n                record[j] = UserJoinRecord(\n                    goodContracts[i].goodId(),\n                    user,\n                    count,\n                    joined,\n                    joinTime,\n                    joinBlockNum,\n                    goodContracts[i].winner() == user\n                );\n            }\n        }\n        return record;\n    }\n}\n",
  "sourcePath": "/Users/jonah/SolidityProject/makewish-contract/contracts/WishApi.sol",
  "compiler": {
    "name": "solc",
    "version": "0.8.13+commit.abaa5c0e.Emscripten.clang"
  },
  "schemaVersion": "3.4.7",
  "updatedAt": "2022-05-25T05:31:33.559Z",
  "networkType": "ethereum",
  "devdoc": {
    "kind": "dev",
    "methods": {},
    "version": 1
  },
  "userdoc": {
    "kind": "user",
    "methods": {},
    "version": 1
  }
}