{
  "contractName": "WishApi",
  "abi": [
    {
      "inputs": [
        {
          "internalType": "contract Comptroller",
          "name": "_comptroller",
          "type": "address"
        }
      ],
      "stateMutability": "nonpayable",
      "type": "constructor"
    },
    {
      "inputs": [],
      "name": "getGoodsLength",
      "outputs": [
        {
          "internalType": "uint256",
          "name": "len",
          "type": "uint256"
        }
      ],
      "stateMutability": "view",
      "type": "function"
    },
    {
      "inputs": [],
      "name": "getGoods",
      "outputs": [
        {
          "components": [
            {
              "internalType": "uint256",
              "name": "goodIndex",
              "type": "uint256"
            },
            {
              "internalType": "uint256",
              "name": "goodId",
              "type": "uint256"
            },
            {
              "internalType": "uint256",
              "name": "goodValue",
              "type": "uint256"
            },
            {
              "internalType": "uint256",
              "name": "publishTime",
              "type": "uint256"
            },
            {
              "internalType": "uint256",
              "name": "lockedTime",
              "type": "uint256"
            },
            {
              "internalType": "uint256",
              "name": "maintenanceFee",
              "type": "uint256"
            },
            {
              "internalType": "uint256",
              "name": "joinedUsers",
              "type": "uint256"
            },
            {
              "internalType": "uint256",
              "name": "ticketCounts",
              "type": "uint256"
            },
            {
              "internalType": "uint256",
              "name": "balance",
              "type": "uint256"
            },
            {
              "internalType": "address",
              "name": "winner",
              "type": "address"
            },
            {
              "internalType": "string",
              "name": "goodHash",
              "type": "string"
            },
            {
              "internalType": "uint256",
              "name": "stage",
              "type": "uint256"
            },
            {
              "internalType": "uint256",
              "name": "paybackFee",
              "type": "uint256"
            },
            {
              "internalType": "uint256",
              "name": "winnerTime",
              "type": "uint256"
            },
            {
              "internalType": "uint256",
              "name": "winnerBlock",
              "type": "uint256"
            },
            {
              "internalType": "uint256",
              "name": "winnerIndex",
              "type": "uint256"
            },
            {
              "internalType": "address",
              "name": "pickWinnerUser",
              "type": "address"
            }
          ],
          "internalType": "struct WishApi.GoodInfo[]",
          "name": "",
          "type": "tuple[]"
        }
      ],
      "stateMutability": "view",
      "type": "function"
    },
    {
      "inputs": [
        {
          "internalType": "uint256",
          "name": "index",
          "type": "uint256"
        }
      ],
      "name": "getGoodInfo",
      "outputs": [
        {
          "components": [
            {
              "internalType": "uint256",
              "name": "goodIndex",
              "type": "uint256"
            },
            {
              "internalType": "uint256",
              "name": "goodId",
              "type": "uint256"
            },
            {
              "internalType": "uint256",
              "name": "goodValue",
              "type": "uint256"
            },
            {
              "internalType": "uint256",
              "name": "publishTime",
              "type": "uint256"
            },
            {
              "internalType": "uint256",
              "name": "lockedTime",
              "type": "uint256"
            },
            {
              "internalType": "uint256",
              "name": "maintenanceFee",
              "type": "uint256"
            },
            {
              "internalType": "uint256",
              "name": "joinedUsers",
              "type": "uint256"
            },
            {
              "internalType": "uint256",
              "name": "ticketCounts",
              "type": "uint256"
            },
            {
              "internalType": "uint256",
              "name": "balance",
              "type": "uint256"
            },
            {
              "internalType": "address",
              "name": "winner",
              "type": "address"
            },
            {
              "internalType": "string",
              "name": "goodHash",
              "type": "string"
            },
            {
              "internalType": "uint256",
              "name": "stage",
              "type": "uint256"
            },
            {
              "internalType": "uint256",
              "name": "paybackFee",
              "type": "uint256"
            },
            {
              "internalType": "uint256",
              "name": "winnerTime",
              "type": "uint256"
            },
            {
              "internalType": "uint256",
              "name": "winnerBlock",
              "type": "uint256"
            },
            {
              "internalType": "uint256",
              "name": "winnerIndex",
              "type": "uint256"
            },
            {
              "internalType": "address",
              "name": "pickWinnerUser",
              "type": "address"
            }
          ],
          "internalType": "struct WishApi.GoodInfo",
          "name": "good",
          "type": "tuple"
        }
      ],
      "stateMutability": "view",
      "type": "function"
    },
    {
      "inputs": [
        {
          "internalType": "uint256",
          "name": "index",
          "type": "uint256"
        },
        {
          "internalType": "address",
          "name": "user",
          "type": "address"
        }
      ],
      "name": "getUserTickets",
      "outputs": [
        {
          "internalType": "uint256[]",
          "name": "",
          "type": "uint256[]"
        }
      ],
      "stateMutability": "view",
      "type": "function"
    },
    {
      "inputs": [
        {
          "internalType": "uint256",
          "name": "index",
          "type": "uint256"
        }
      ],
      "name": "getUserRecords",
      "outputs": [
        {
          "components": [
            {
              "internalType": "string",
              "name": "userName",
              "type": "string"
            },
            {
              "internalType": "uint256",
              "name": "goodIndex",
              "type": "uint256"
            },
            {
              "internalType": "uint256",
              "name": "goodId",
              "type": "uint256"
            },
            {
              "internalType": "address",
              "name": "user",
              "type": "address"
            },
            {
              "internalType": "uint256",
              "name": "count",
              "type": "uint256"
            },
            {
              "internalType": "bool",
              "name": "joined",
              "type": "bool"
            },
            {
              "internalType": "bool",
              "name": "isPaybacked",
              "type": "bool"
            },
            {
              "internalType": "uint256",
              "name": "joinTime",
              "type": "uint256"
            },
            {
              "internalType": "uint256",
              "name": "joinBlockNum",
              "type": "uint256"
            },
            {
              "internalType": "bool",
              "name": "isWinner",
              "type": "bool"
            },
            {
              "internalType": "uint256",
              "name": "goodValue",
              "type": "uint256"
            },
            {
              "internalType": "uint256",
              "name": "paybackFee",
              "type": "uint256"
            }
          ],
          "internalType": "struct WishApi.UserJoinRecord[]",
          "name": "record",
          "type": "tuple[]"
        }
      ],
      "stateMutability": "view",
      "type": "function"
    },
    {
      "inputs": [
        {
          "internalType": "contract GoodLottery",
          "name": "good",
          "type": "address"
        },
        {
          "internalType": "address",
          "name": "addr",
          "type": "address"
        }
      ],
      "name": "getUserRecord",
      "outputs": [
        {
          "components": [
            {
              "internalType": "string",
              "name": "userName",
              "type": "string"
            },
            {
              "internalType": "uint256",
              "name": "goodIndex",
              "type": "uint256"
            },
            {
              "internalType": "uint256",
              "name": "goodId",
              "type": "uint256"
            },
            {
              "internalType": "address",
              "name": "user",
              "type": "address"
            },
            {
              "internalType": "uint256",
              "name": "count",
              "type": "uint256"
            },
            {
              "internalType": "bool",
              "name": "joined",
              "type": "bool"
            },
            {
              "internalType": "bool",
              "name": "isPaybacked",
              "type": "bool"
            },
            {
              "internalType": "uint256",
              "name": "joinTime",
              "type": "uint256"
            },
            {
              "internalType": "uint256",
              "name": "joinBlockNum",
              "type": "uint256"
            },
            {
              "internalType": "bool",
              "name": "isWinner",
              "type": "bool"
            },
            {
              "internalType": "uint256",
              "name": "goodValue",
              "type": "uint256"
            },
            {
              "internalType": "uint256",
              "name": "paybackFee",
              "type": "uint256"
            }
          ],
          "internalType": "struct WishApi.UserJoinRecord",
          "name": "record",
          "type": "tuple"
        }
      ],
      "stateMutability": "view",
      "type": "function"
    },
    {
      "inputs": [],
      "name": "getWinnerHistory",
      "outputs": [
        {
          "components": [
            {
              "internalType": "uint256",
              "name": "goodId",
              "type": "uint256"
            },
            {
              "internalType": "address",
              "name": "user",
              "type": "address"
            },
            {
              "internalType": "uint256",
              "name": "count",
              "type": "uint256"
            },
            {
              "internalType": "bool",
              "name": "joined",
              "type": "bool"
            },
            {
              "internalType": "uint256",
              "name": "joinTime",
              "type": "uint256"
            },
            {
              "internalType": "uint256",
              "name": "joinBlockNum",
              "type": "uint256"
            },
            {
              "internalType": "bool",
              "name": "isWinner",
              "type": "bool"
            },
            {
              "internalType": "uint256",
              "name": "goodValue",
              "type": "uint256"
            },
            {
              "internalType": "uint256",
              "name": "blockNum",
              "type": "uint256"
            },
            {
              "internalType": "uint256",
              "name": "blockTime",
              "type": "uint256"
            },
            {
              "internalType": "uint256",
              "name": "index",
              "type": "uint256"
            },
            {
              "internalType": "string",
              "name": "goodHash",
              "type": "string"
            }
          ],
          "internalType": "struct WishApi.WinnerHistory[]",
          "name": "",
          "type": "tuple[]"
        }
      ],
      "stateMutability": "view",
      "type": "function"
    },
    {
      "inputs": [
        {
          "internalType": "address",
          "name": "user",
          "type": "address"
        }
      ],
      "name": "getUserHistory",
      "outputs": [
        {
          "components": [
            {
              "internalType": "string",
              "name": "userName",
              "type": "string"
            },
            {
              "internalType": "uint256",
              "name": "goodIndex",
              "type": "uint256"
            },
            {
              "internalType": "uint256",
              "name": "goodId",
              "type": "uint256"
            },
            {
              "internalType": "address",
              "name": "user",
              "type": "address"
            },
            {
              "internalType": "uint256",
              "name": "count",
              "type": "uint256"
            },
            {
              "internalType": "bool",
              "name": "joined",
              "type": "bool"
            },
            {
              "internalType": "bool",
              "name": "isPaybacked",
              "type": "bool"
            },
            {
              "internalType": "uint256",
              "name": "joinTime",
              "type": "uint256"
            },
            {
              "internalType": "uint256",
              "name": "joinBlockNum",
              "type": "uint256"
            },
            {
              "internalType": "bool",
              "name": "isWinner",
              "type": "bool"
            },
            {
              "internalType": "uint256",
              "name": "goodValue",
              "type": "uint256"
            },
            {
              "internalType": "uint256",
              "name": "paybackFee",
              "type": "uint256"
            }
          ],
          "internalType": "struct WishApi.UserJoinRecord[]",
          "name": "",
          "type": "tuple[]"
        }
      ],
      "stateMutability": "view",
      "type": "function"
    },
    {
      "inputs": [
        {
          "internalType": "contract GoodLottery",
          "name": "good",
          "type": "address"
        },
        {
          "internalType": "address",
          "name": "user",
          "type": "address"
        }
      ],
      "name": "getUserHistoryByGood",
      "outputs": [
        {
          "components": [
            {
              "internalType": "string",
              "name": "userName",
              "type": "string"
            },
            {
              "internalType": "uint256",
              "name": "goodIndex",
              "type": "uint256"
            },
            {
              "internalType": "uint256",
              "name": "goodId",
              "type": "uint256"
            },
            {
              "internalType": "address",
              "name": "user",
              "type": "address"
            },
            {
              "internalType": "uint256",
              "name": "count",
              "type": "uint256"
            },
            {
              "internalType": "bool",
              "name": "joined",
              "type": "bool"
            },
            {
              "internalType": "bool",
              "name": "isPaybacked",
              "type": "bool"
            },
            {
              "internalType": "uint256",
              "name": "joinTime",
              "type": "uint256"
            },
            {
              "internalType": "uint256",
              "name": "joinBlockNum",
              "type": "uint256"
            },
            {
              "internalType": "bool",
              "name": "isWinner",
              "type": "bool"
            },
            {
              "internalType": "uint256",
              "name": "goodValue",
              "type": "uint256"
            },
            {
              "internalType": "uint256",
              "name": "paybackFee",
              "type": "uint256"
            }
          ],
          "internalType": "struct WishApi.UserJoinRecord[]",
          "name": "",
          "type": "tuple[]"
        }
      ],
      "stateMutability": "view",
      "type": "function"
    },
    {
      "inputs": [
        {
          "internalType": "address",
          "name": "user",
          "type": "address"
        }
      ],
      "name": "getUserTransferHistory",
      "outputs": [
        {
          "components": [
            {
              "internalType": "address",
              "name": "from",
              "type": "address"
            },
            {
              "internalType": "address",
              "name": "to",
              "type": "address"
            },
            {
              "internalType": "uint256",
              "name": "amount",
              "type": "uint256"
            },
            {
              "internalType": "uint256",
              "name": "blockNum",
              "type": "uint256"
            },
            {
              "internalType": "uint256",
              "name": "transferType",
              "type": "uint256"
            },
            {
              "internalType": "uint256",
              "name": "goodIndex",
              "type": "uint256"
            },
            {
              "internalType": "uint256",
              "name": "goodId",
              "type": "uint256"
            },
            {
              "internalType": "string",
              "name": "goodHash",
              "type": "string"
            }
          ],
          "internalType": "struct WishApi.UserTransferHistory[]",
          "name": "record",
          "type": "tuple[]"
        }
      ],
      "stateMutability": "view",
      "type": "function"
    },
    {
      "inputs": [
        {
          "internalType": "address",
          "name": "account",
          "type": "address"
        }
      ],
      "name": "getUserPublishedGoods",
      "outputs": [
        {
          "components": [
            {
              "internalType": "bool",
              "name": "isList",
              "type": "bool"
            },
            {
              "internalType": "uint256",
              "name": "goodIndex",
              "type": "uint256"
            },
            {
              "internalType": "uint32",
              "name": "goodId",
              "type": "uint32"
            },
            {
              "internalType": "uint256",
              "name": "goodValue",
              "type": "uint256"
            },
            {
              "internalType": "uint256",
              "name": "maintenanceFee",
              "type": "uint256"
            },
            {
              "internalType": "uint256",
              "name": "publishTime",
              "type": "uint256"
            },
            {
              "internalType": "uint256",
              "name": "lockedTime",
              "type": "uint256"
            },
            {
              "internalType": "string",
              "name": "goodHash",
              "type": "string"
            },
            {
              "internalType": "address",
              "name": "nftAddress",
              "type": "address"
            },
            {
              "internalType": "uint256",
              "name": "tokenId",
              "type": "uint256"
            },
            {
              "internalType": "uint256",
              "name": "status",
              "type": "uint256"
            },
            {
              "internalType": "address",
              "name": "nft",
              "type": "address"
            },
            {
              "internalType": "uint256",
              "name": "joinedUsers",
              "type": "uint256"
            },
            {
              "internalType": "uint256",
              "name": "ticketCounts",
              "type": "uint256"
            },
            {
              "internalType": "address",
              "name": "winner",
              "type": "address"
            },
            {
              "internalType": "uint256",
              "name": "paybackFee",
              "type": "uint256"
            },
            {
              "internalType": "uint256",
              "name": "winnerTime",
              "type": "uint256"
            },
            {
              "internalType": "uint256",
              "name": "winnerBlock",
              "type": "uint256"
            },
            {
              "internalType": "uint256",
              "name": "winnerIndex",
              "type": "uint256"
            },
            {
              "internalType": "address",
              "name": "goodAddress",
              "type": "address"
            }
          ],
          "internalType": "struct WishApi.UserPublishedGood[]",
          "name": "",
          "type": "tuple[]"
        }
      ],
      "stateMutability": "view",
      "type": "function"
    }
  ],
  "bytecode": "0x60806040523480156200001157600080fd5b50604051620059d2380380620059d28339818101604052810190620000379190620000fc565b806000806101000a81548173ffffffffffffffffffffffffffffffffffffffff021916908373ffffffffffffffffffffffffffffffffffffffff160217905550506200012e565b600080fd5b600073ffffffffffffffffffffffffffffffffffffffff82169050919050565b6000620000b08262000083565b9050919050565b6000620000c482620000a3565b9050919050565b620000d681620000b7565b8114620000e257600080fd5b50565b600081519050620000f681620000cb565b92915050565b6000602082840312156200011557620001146200007e565b5b60006200012584828501620000e5565b91505092915050565b615894806200013e6000396000f3fe608060405234801561001057600080fd5b50600436106100a95760003560e01c806355f4fc461161007157806355f4fc461461018c5780636d0380f3146101bc5780639b44f940146101ec578063b2da75981461020a578063d1db4c871461023a578063e7a7f65c14610258576100a9565b80632e63f768146100ae5780633580404b146100de5780633a684138146100fc5780634fb3d3b11461012c578063536031081461015c575b600080fd5b6100c860048036038101906100c39190613af6565b610288565b6040516100d59190613dd8565b60405180910390f35b6100e66105c5565b6040516100f39190613fc0565b60405180910390f35b6101166004803603810190610111919061400e565b610ab8565b60405161012391906141a8565b60405180910390f35b610146600480360381019061014191906141ca565b61135d565b6040516101539190613dd8565b60405180910390f35b61017660048036038101906101719190613af6565b6118f2565b60405161018391906142fb565b60405180910390f35b6101a660048036038101906101a1919061400e565b611abf565b6040516101b39190613dd8565b60405180910390f35b6101d660048036038101906101d191906141ca565b612118565b6040516101e391906145aa565b60405180910390f35b6101f4612b45565b60405161020191906147fb565b60405180910390f35b610224600480360381019061021f91906141ca565b612ca4565b604051610231919061498f565b60405180910390f35b610242613312565b60405161024f91906149c0565b60405180910390f35b610272600480360381019061026d91906149db565b6133af565b60405161027f9190614aca565b60405180910390f35b606060008373ffffffffffffffffffffffffffffffffffffffff1663eecf801e846040518263ffffffff1660e01b81526004016102c59190614afb565b600060405180830381865afa1580156102e2573d6000803e3d6000fd5b505050506040513d6000823e3d601f19601f8201168201806040525081019061030b9190614c73565b90506000806000806000808973ffffffffffffffffffffffffffffffffffffffff1663118b95358a6040518263ffffffff1660e01b815260040161034f9190614afb565b60c060405180830381865afa15801561036c573d6000803e3d6000fd5b505050506040513d601f19601f820116820180604052508101906103909190614cfd565b95509550955095509550955060008088511161040a57600067ffffffffffffffff8111156103c1576103c0614b1b565b5b6040519080825280602002602001820160405280156103fa57816020015b6103e7613734565b8152602001906001900390816103df5790505b50985050505050505050506105bf565b6000885167ffffffffffffffff81111561042757610426614b1b565b5b60405190808252806020026020018201604052801561046057816020015b61044d613734565b8152602001906001900390816104455790505b50905060005b89518110156105b1578c73ffffffffffffffffffffffffffffffffffffffff166393a3ffe9826040518263ffffffff1660e01b81526004016104a891906149c0565b60a060405180830381865afa1580156104c5573d6000803e3d6000fd5b505050506040513d601f19601f820116820180604052508101906104e99190614d8a565b809850819950829c50839750849d50505050505060405180610180016040528060405180602001604052806000815250815260200160008152602001600081526020018a73ffffffffffffffffffffffffffffffffffffffff168152602001898152602001600115158152602001871515815260200186815260200185815260200160001515815260200160008152602001600081525082828151811061059357610592614e05565b5b602002602001018190525080806105a990614e63565b915050610466565b508099505050505050505050505b92915050565b606060008060009054906101000a900473ffffffffffffffffffffffffffffffffffffffff1673ffffffffffffffffffffffffffffffffffffffff16639b44f9406040518163ffffffff1660e01b8152600401600060405180830381865afa158015610635573d6000803e3d6000fd5b505050506040513d6000823e3d601f19601f8201168201806040525081019061065e9190614f83565b905060008151116106c657600067ffffffffffffffff81111561068457610683614b1b565b5b6040519080825280602002602001820160405280156106bd57816020015b6106aa6137b1565b8152602001906001900390816106a25790505b50915050610ab5565b6000815167ffffffffffffffff8111156106e3576106e2614b1b565b5b60405190808252806020026020018201604052801561071c57816020015b6107096137b1565b8152602001906001900390816107015790505b5090506000808351905060005b8451811015610aac57600085600183856107439190614fcc565b61074d9190614fcc565b8151811061075e5761075d614e05565b5b60200260200101519050600073ffffffffffffffffffffffffffffffffffffffff168173ffffffffffffffffffffffffffffffffffffffff1663dfbf53ae6040518163ffffffff1660e01b8152600401602060405180830381865afa1580156107cb573d6000803e3d6000fd5b505050506040513d601f19601f820116820180604052508101906107ef9190615000565b73ffffffffffffffffffffffffffffffffffffffff1614610a985760008060008373ffffffffffffffffffffffffffffffffffffffff16637676d2356040518163ffffffff1660e01b8152600401606060405180830381865afa15801561085a573d6000803e3d6000fd5b505050506040513d601f19601f8201168201806040525081019061087e919061502d565b92509250925060006108fe858673ffffffffffffffffffffffffffffffffffffffff1663dfbf53ae6040518163ffffffff1660e01b8152600401602060405180830381865afa1580156108d5573d6000803e3d6000fd5b505050506040513d601f19601f820116820180604052508101906108f99190615000565b6118f2565b905060405180610180016040528082604001518152602001826060015173ffffffffffffffffffffffffffffffffffffffff168152602001826080015181526020018260a00151151581526020018260e00151815260200182610100015181526020016001151581526020018673ffffffffffffffffffffffffffffffffffffffff1663c379b4be6040518163ffffffff1660e01b8152600401602060405180830381865afa1580156109b5573d6000803e3d6000fd5b505050506040513d601f19601f820116820180604052508101906109d99190615080565b81526020018581526020018481526020018381526020018673ffffffffffffffffffffffffffffffffffffffff1663a9135d176040518163ffffffff1660e01b8152600401600060405180830381865afa158015610a3b573d6000803e3d6000fd5b505050506040513d6000823e3d601f19601f82011682018060405250810190610a649190615153565b815250898981518110610a7a57610a79614e05565b5b60200260200101819052508780610a9090614e63565b985050505050505b508080610aa490614e63565b915050610729565b50829450505050505b90565b610ac061382c565b60008060009054906101000a900473ffffffffffffffffffffffffffffffffffffffff1673ffffffffffffffffffffffffffffffffffffffff16639b44f9406040518163ffffffff1660e01b8152600401600060405180830381865afa158015610b2e573d6000803e3d6000fd5b505050506040513d6000823e3d601f19601f82011682018060405250810190610b579190614f83565b905080518310610b675750611358565b82826000018181525050808381518110610b8457610b83614e05565b5b602002602001015173ffffffffffffffffffffffffffffffffffffffff1663df4c0ab16040518163ffffffff1660e01b8152600401602060405180830381865afa158015610bd6573d6000803e3d6000fd5b505050506040513d601f19601f82011682018060405250810190610bfa91906151c8565b63ffffffff16826020018181525050808381518110610c1c57610c1b614e05565b5b602002602001015173ffffffffffffffffffffffffffffffffffffffff1663c379b4be6040518163ffffffff1660e01b8152600401602060405180830381865afa158015610c6e573d6000803e3d6000fd5b505050506040513d601f19601f82011682018060405250810190610c929190615080565b826040018181525050808381518110610cae57610cad614e05565b5b602002602001015173ffffffffffffffffffffffffffffffffffffffff1663e467fa806040518163ffffffff1660e01b8152600401602060405180830381865afa158015610d00573d6000803e3d6000fd5b505050506040513d601f19601f82011682018060405250810190610d249190615080565b826060018181525050808381518110610d4057610d3f614e05565b5b602002602001015173ffffffffffffffffffffffffffffffffffffffff1663a8b382056040518163ffffffff1660e01b8152600401602060405180830381865afa158015610d92573d6000803e3d6000fd5b505050506040513d601f19601f82011682018060405250810190610db69190615080565b826080018181525050808381518110610dd257610dd1614e05565b5b602002602001015173ffffffffffffffffffffffffffffffffffffffff1663046604496040518163ffffffff1660e01b8152600401602060405180830381865afa158015610e24573d6000803e3d6000fd5b505050506040513d601f19601f82011682018060405250810190610e489190615080565b8260a0018181525050808381518110610e6457610e63614e05565b5b602002602001015173ffffffffffffffffffffffffffffffffffffffff1663c15e296b6040518163ffffffff1660e01b8152600401602060405180830381865afa158015610eb6573d6000803e3d6000fd5b505050506040513d601f19601f82011682018060405250810190610eda9190615080565b8260c0018181525050808381518110610ef657610ef5614e05565b5b602002602001015173ffffffffffffffffffffffffffffffffffffffff16634ed026226040518163ffffffff1660e01b8152600401600060405180830381865afa158015610f48573d6000803e3d6000fd5b505050506040513d6000823e3d601f19601f82011682018060405250810190610f7191906152b8565b518260e001818152505060008054906101000a900473ffffffffffffffffffffffffffffffffffffffff1673ffffffffffffffffffffffffffffffffffffffff1663fc0c546a6040518163ffffffff1660e01b8152600401602060405180830381865afa158015610fe6573d6000803e3d6000fd5b505050506040513d601f19601f8201168201806040525081019061100a919061533f565b73ffffffffffffffffffffffffffffffffffffffff166370a0823182858151811061103857611037614e05565b5b60200260200101516040518263ffffffff1660e01b815260040161105c9190614afb565b602060405180830381865afa158015611079573d6000803e3d6000fd5b505050506040513d601f19601f8201168201806040525081019061109d9190615080565b826101000181815250508083815181106110ba576110b9614e05565b5b602002602001015173ffffffffffffffffffffffffffffffffffffffff1663dfbf53ae6040518163ffffffff1660e01b8152600401602060405180830381865afa15801561110c573d6000803e3d6000fd5b505050506040513d601f19601f820116820180604052508101906111309190615000565b82610120019073ffffffffffffffffffffffffffffffffffffffff16908173ffffffffffffffffffffffffffffffffffffffff168152505080838151811061117b5761117a614e05565b5b602002602001015173ffffffffffffffffffffffffffffffffffffffff1663a9135d176040518163ffffffff1660e01b8152600401600060405180830381865afa1580156111cd573d6000803e3d6000fd5b505050506040513d6000823e3d601f19601f820116820180604052508101906111f69190615153565b826101400181905250600082610160018181525050600080600083868151811061122357611222614e05565b5b602002602001015173ffffffffffffffffffffffffffffffffffffffff16637676d2356040518163ffffffff1660e01b8152600401606060405180830381865afa158015611275573d6000803e3d6000fd5b505050506040513d601f19601f82011682018060405250810190611299919061502d565b92509250925081856101a001818152505082856101c001818152505080856101e00181815250508386815181106112d3576112d2614e05565b5b602002602001015173ffffffffffffffffffffffffffffffffffffffff16631bbf17c56040518163ffffffff1660e01b8152600401602060405180830381865afa158015611325573d6000803e3d6000fd5b505050506040513d601f19601f820116820180604052508101906113499190615080565b85610180018181525050505050505b919050565b606060008060009054906101000a900473ffffffffffffffffffffffffffffffffffffffff1673ffffffffffffffffffffffffffffffffffffffff16639b44f9406040518163ffffffff1660e01b8152600401600060405180830381865afa1580156113cd573d6000803e3d6000fd5b505050506040513d6000823e3d601f19601f820116820180604052508101906113f69190614f83565b90506000808251905060005b818110156114ca57600084828151811061141f5761141e614e05565b5b602002602001015190508073ffffffffffffffffffffffffffffffffffffffff1663eecf801e886040518263ffffffff1660e01b81526004016114629190614afb565b600060405180830381865afa15801561147f573d6000803e3d6000fd5b505050506040513d6000823e3d601f19601f820116820180604052508101906114a89190614c73565b51846114b4919061536c565b93505080806114c290614e63565b915050611402565b5060008267ffffffffffffffff8111156114e7576114e6614b1b565b5b60405190808252806020026020018201604052801561152057816020015b61150d613734565b8152602001906001900390816115055790505b5090506000805b85518110156118e457600061155687838151811061154857611547614e05565b5b60200260200101518a610288565b905060005b81518110156118cf5781818151811061157757611576614e05565b5b602002602001015185858151811061159257611591614e05565b5b60200260200101819052508783815181106115b0576115af614e05565b5b602002602001015173ffffffffffffffffffffffffffffffffffffffff1663df4c0ab16040518163ffffffff1660e01b8152600401602060405180830381865afa158015611602573d6000803e3d6000fd5b505050506040513d601f19601f8201168201806040525081019061162691906151c8565b63ffffffff1685858151811061163f5761163e614e05565b5b602002602001015160400181815250508285858151811061166357611662614e05565b5b602002602001015160200181815250508973ffffffffffffffffffffffffffffffffffffffff1688848151811061169d5761169c614e05565b5b602002602001015173ffffffffffffffffffffffffffffffffffffffff1663dfbf53ae6040518163ffffffff1660e01b8152600401602060405180830381865afa1580156116ef573d6000803e3d6000fd5b505050506040513d601f19601f820116820180604052508101906117139190615000565b73ffffffffffffffffffffffffffffffffffffffff161485858151811061173d5761173c614e05565b5b602002602001015161012001901515908115158152505087838151811061176757611766614e05565b5b602002602001015173ffffffffffffffffffffffffffffffffffffffff1663c379b4be6040518163ffffffff1660e01b8152600401602060405180830381865afa1580156117b9573d6000803e3d6000fd5b505050506040513d601f19601f820116820180604052508101906117dd9190615080565b8585815181106117f0576117ef614e05565b5b602002602001015161014001818152505087838151811061181457611813614e05565b5b602002602001015173ffffffffffffffffffffffffffffffffffffffff16631bbf17c56040518163ffffffff1660e01b8152600401602060405180830381865afa158015611866573d6000803e3d6000fd5b505050506040513d601f19601f8201168201806040525081019061188a9190615080565b85858151811061189d5761189c614e05565b5b602002602001015161016001818152505083806118b990614e63565b94505080806118c790614e63565b91505061155b565b505080806118dc90614e63565b915050611527565b508195505050505050919050565b6118fa613734565b600073ffffffffffffffffffffffffffffffffffffffff168273ffffffffffffffffffffffffffffffffffffffff1614611ab9576000806000806000808873ffffffffffffffffffffffffffffffffffffffff1663118b9535896040518263ffffffff1660e01b81526004016119709190614afb565b60c060405180830381865afa15801561198d573d6000803e3d6000fd5b505050506040513d601f19601f820116820180604052508101906119b19190614cfd565b9550955095509550955095508873ffffffffffffffffffffffffffffffffffffffff1663df4c0ab16040518163ffffffff1660e01b8152600401602060405180830381865afa158015611a08573d6000803e3d6000fd5b505050506040513d601f19601f82011682018060405250810190611a2c91906151c8565b63ffffffff1687604001818152505085876060019073ffffffffffffffffffffffffffffffffffffffff16908173ffffffffffffffffffffffffffffffffffffffff168152505084876080018181525050838760a0019015159081151581525050828760c0019015159081151581525050818760e001818152505080876101000181815250505050505050505b92915050565b606060008060009054906101000a900473ffffffffffffffffffffffffffffffffffffffff1673ffffffffffffffffffffffffffffffffffffffff16639b44f9406040518163ffffffff1660e01b8152600401600060405180830381865afa158015611b2f573d6000803e3d6000fd5b505050506040513d6000823e3d601f19601f82011682018060405250810190611b589190614f83565b905080518310611b685750612113565b6000818481518110611b7d57611b7c614e05565b5b6020026020010151905060008173ffffffffffffffffffffffffffffffffffffffff16633f0e90166040518163ffffffff1660e01b8152600401600060405180830381865afa158015611bd4573d6000803e3d6000fd5b505050506040513d6000823e3d601f19601f82011682018060405250810190611bfd9190615516565b90506000815167ffffffffffffffff811115611c1c57611c1b614b1b565b5b604051908082528060200260200182016040528015611c5557816020015b611c42613734565b815260200190600190039081611c3a5790505b50905060008251905060005b8181101561210957600081600184611c799190614fcc565b611c839190614fcc565b905060008060009054906101000a900473ffffffffffffffffffffffffffffffffffffffff1673ffffffffffffffffffffffffffffffffffffffff16637f281635878481518110611cd757611cd6614e05565b5b6020026020010151600001516040518263ffffffff1660e01b8152600401611cff9190614afb565b600060405180830381865afa158015611d1c573d6000803e3d6000fd5b505050506040513d6000823e3d601f19601f82011682018060405250810190611d459190615153565b90506040518061018001604052808281526020018b81526020018873ffffffffffffffffffffffffffffffffffffffff1663df4c0ab16040518163ffffffff1660e01b8152600401602060405180830381865afa158015611daa573d6000803e3d6000fd5b505050506040513d601f19601f82011682018060405250810190611dce91906151c8565b63ffffffff168152602001878481518110611dec57611deb614e05565b5b60200260200101516000015173ffffffffffffffffffffffffffffffffffffffff168152602001878481518110611e2657611e25614e05565b5b6020026020010151604001518152602001600115158152602001600073ffffffffffffffffffffffffffffffffffffffff168973ffffffffffffffffffffffffffffffffffffffff1663dfbf53ae6040518163ffffffff1660e01b8152600401602060405180830381865afa158015611ea3573d6000803e3d6000fd5b505050506040513d601f19601f82011682018060405250810190611ec79190615000565b73ffffffffffffffffffffffffffffffffffffffff16141515158152602001878481518110611ef957611ef8614e05565b5b6020026020010151606001518152602001878481518110611f1d57611f1c614e05565b5b6020026020010151608001518152602001878481518110611f4157611f40614e05565b5b60200260200101516000015173ffffffffffffffffffffffffffffffffffffffff168973ffffffffffffffffffffffffffffffffffffffff1663dfbf53ae6040518163ffffffff1660e01b8152600401602060405180830381865afa158015611fae573d6000803e3d6000fd5b505050506040513d601f19601f82011682018060405250810190611fd29190615000565b73ffffffffffffffffffffffffffffffffffffffff1614151581526020018873ffffffffffffffffffffffffffffffffffffffff1663c379b4be6040518163ffffffff1660e01b8152600401602060405180830381865afa15801561203b573d6000803e3d6000fd5b505050506040513d601f19601f8201168201806040525081019061205f9190615080565b81526020018873ffffffffffffffffffffffffffffffffffffffff16631bbf17c56040518163ffffffff1660e01b8152600401602060405180830381865afa1580156120af573d6000803e3d6000fd5b505050506040513d601f19601f820116820180604052508101906120d39190615080565b8152508584815181106120e9576120e8614e05565b5b60200260200101819052505050808061210190614e63565b915050611c61565b5081955050505050505b919050565b606060008060009054906101000a900473ffffffffffffffffffffffffffffffffffffffff1673ffffffffffffffffffffffffffffffffffffffff16636d0380f3846040518263ffffffff1660e01b81526004016121769190614afb565b600060405180830381865afa158015612193573d6000803e3d6000fd5b505050506040513d6000823e3d601f19601f820116820180604052508101906121bc91906152b8565b90506000815167ffffffffffffffff8111156121db576121da614b1b565b5b60405190808252806020026020018201604052801561221457816020015b6122016138dc565b8152602001906001900390816121f95790505b50905060005b8251811015612b3a57600083828151811061223857612237614e05565b5b602002602001015190506000604051806102800160405280600115158152602001600081526020018373ffffffffffffffffffffffffffffffffffffffff1663df4c0ab16040518163ffffffff1660e01b8152600401602060405180830381865afa1580156122ab573d6000803e3d6000fd5b505050506040513d601f19601f820116820180604052508101906122cf91906151c8565b63ffffffff1681526020018373ffffffffffffffffffffffffffffffffffffffff1663c379b4be6040518163ffffffff1660e01b8152600401602060405180830381865afa158015612325573d6000803e3d6000fd5b505050506040513d601f19601f820116820180604052508101906123499190615080565b81526020018373ffffffffffffffffffffffffffffffffffffffff1663046604496040518163ffffffff1660e01b8152600401602060405180830381865afa158015612399573d6000803e3d6000fd5b505050506040513d601f19601f820116820180604052508101906123bd9190615080565b81526020018373ffffffffffffffffffffffffffffffffffffffff1663e467fa806040518163ffffffff1660e01b8152600401602060405180830381865afa15801561240d573d6000803e3d6000fd5b505050506040513d601f19601f820116820180604052508101906124319190615080565b81526020018373ffffffffffffffffffffffffffffffffffffffff1663a8b382056040518163ffffffff1660e01b8152600401602060405180830381865afa158015612481573d6000803e3d6000fd5b505050506040513d601f19601f820116820180604052508101906124a59190615080565b81526020018373ffffffffffffffffffffffffffffffffffffffff1663a9135d176040518163ffffffff1660e01b8152600401600060405180830381865afa1580156124f5573d6000803e3d6000fd5b505050506040513d6000823e3d601f19601f8201168201806040525081019061251e9190615153565b81526020018373ffffffffffffffffffffffffffffffffffffffff1663d06fcba86040518163ffffffff1660e01b8152600401602060405180830381865afa15801561256e573d6000803e3d6000fd5b505050506040513d601f19601f82011682018060405250810190612592919061559d565b73ffffffffffffffffffffffffffffffffffffffff1681526020018373ffffffffffffffffffffffffffffffffffffffff166317d70f7c6040518163ffffffff1660e01b8152600401602060405180830381865afa1580156125f8573d6000803e3d6000fd5b505050506040513d601f19601f8201168201806040525081019061261c9190615080565b81526020016000815260200186858151811061263b5761263a614e05565b5b602002602001015173ffffffffffffffffffffffffffffffffffffffff1681526020016000815260200160008152602001600073ffffffffffffffffffffffffffffffffffffffff168152602001600081526020016000815260200160008152602001600081526020018373ffffffffffffffffffffffffffffffffffffffff16815250905060008054906101000a900473ffffffffffffffffffffffffffffffffffffffff1673ffffffffffffffffffffffffffffffffffffffff16632e3d4819826040015187868151811061271557612714614e05565b5b60200260200101516040518363ffffffff1660e01b815260040161273a9291906155d9565b602060405180830381865afa158015612757573d6000803e3d6000fd5b505050506040513d601f19601f8201168201806040525081019061277b9190615602565b15612a735760018161014001818152505060008060008060008054906101000a900473ffffffffffffffffffffffffffffffffffffffff1673ffffffffffffffffffffffffffffffffffffffff16636ce99a7c8773ffffffffffffffffffffffffffffffffffffffff1663df4c0ab16040518163ffffffff1660e01b8152600401602060405180830381865afa158015612819573d6000803e3d6000fd5b505050506040513d601f19601f8201168201806040525081019061283d91906151c8565b6040518263ffffffff1660e01b8152600401612859919061562f565b608060405180830381865afa158015612876573d6000803e3d6000fd5b505050506040513d601f19601f8201168201806040525081019061289a919061564a565b9350935093509350818560200181815250508573ffffffffffffffffffffffffffffffffffffffff1663dfbf53ae6040518163ffffffff1660e01b8152600401602060405180830381865afa1580156128f7573d6000803e3d6000fd5b505050506040513d601f19601f8201168201806040525081019061291b9190615000565b856101c0019073ffffffffffffffffffffffffffffffffffffffff16908173ffffffffffffffffffffffffffffffffffffffff168152505060008060008873ffffffffffffffffffffffffffffffffffffffff16637676d2356040518163ffffffff1660e01b8152600401606060405180830381865afa1580156129a3573d6000803e3d6000fd5b505050506040513d601f19601f820116820180604052508101906129c7919061502d565b9250925092508188610200018181525050828861022001818152505080886102400181815250508873ffffffffffffffffffffffffffffffffffffffff16631bbf17c56040518163ffffffff1660e01b8152600401602060405180830381865afa158015612a39573d6000803e3d6000fd5b505050506040513d601f19601f82011682018060405250810190612a5d9190615080565b886101e001818152505050505050505050612b06565b8173ffffffffffffffffffffffffffffffffffffffff166328f371aa6040518163ffffffff1660e01b8152600401602060405180830381865afa158015612abe573d6000803e3d6000fd5b505050506040513d601f19601f82011682018060405250810190612ae29190615602565b15612af857600281610140018181525050612b05565b6003816101400181815250505b5b80848481518110612b1a57612b19614e05565b5b602002602001018190525050508080612b3290614e63565b91505061221a565b508092505050919050565b606060008060009054906101000a900473ffffffffffffffffffffffffffffffffffffffff1673ffffffffffffffffffffffffffffffffffffffff16639b44f9406040518163ffffffff1660e01b8152600401600060405180830381865afa158015612bb5573d6000803e3d6000fd5b505050506040513d6000823e3d601f19601f82011682018060405250810190612bde9190614f83565b905060008151905060008167ffffffffffffffff811115612c0257612c01614b1b565b5b604051908082528060200260200182016040528015612c3b57816020015b612c2861382c565b815260200190600190039081612c205790505b50905060005b82811015612c9a57612c6981600185612c5a9190614fcc565b612c649190614fcc565b610ab8565b828281518110612c7c57612c7b614e05565b5b60200260200101819052508080612c9290614e63565b915050612c41565b5080935050505090565b606060008060009054906101000a900473ffffffffffffffffffffffffffffffffffffffff1673ffffffffffffffffffffffffffffffffffffffff1663fc0c546a6040518163ffffffff1660e01b8152600401602060405180830381865afa158015612d14573d6000803e3d6000fd5b505050506040513d601f19601f82011682018060405250810190612d38919061533f565b905060008173ffffffffffffffffffffffffffffffffffffffff166337467de1856040518263ffffffff1660e01b8152600401612d759190614afb565b600060405180830381865afa158015612d92573d6000803e3d6000fd5b505050506040513d6000823e3d601f19601f82011682018060405250810190612dbb91906157ec565b9050805167ffffffffffffffff811115612dd857612dd7614b1b565b5b604051908082528060200260200182016040528015612e1157816020015b612dfe6139d5565b815260200190600190039081612df65790505b50925060008060018351612e259190614fcc565b90505b6000811115613309576000838281518110612e4657612e45614e05565b5b602002602001015190506000604051806101000160405280836000015173ffffffffffffffffffffffffffffffffffffffff168152602001836020015173ffffffffffffffffffffffffffffffffffffffff16815260200183604001518152602001836060015181526020016000815260200160008152602001600081526020016040518060400160405280600181526020017f30000000000000000000000000000000000000000000000000000000000000008152508152509050600073ffffffffffffffffffffffffffffffffffffffff16816000015173ffffffffffffffffffffffffffffffffffffffff1603612f6b57600181608001818152505080878581518110612f5957612f58614e05565b5b602002602001018190525050506132f6565b600073ffffffffffffffffffffffffffffffffffffffff16816020015173ffffffffffffffffffffffffffffffffffffffff1603612fd457600281608001818152505080878581518110612fc257612fc1614e05565b5b602002602001018190525050506132f6565b60008060008060008054906101000a900473ffffffffffffffffffffffffffffffffffffffff1673ffffffffffffffffffffffffffffffffffffffff1663ab10c76c86600001516040518263ffffffff1660e01b81526004016130379190614afb565b608060405180830381865afa158015613054573d6000803e3d6000fd5b505050506040513d601f19601f82011682018060405250810190613078919061564a565b935093509350935083156131515760038560800181815250508263ffffffff168560c0018181525050818560a00181815250508073ffffffffffffffffffffffffffffffffffffffff1663a9135d176040518163ffffffff1660e01b8152600401600060405180830381865afa1580156130f6573d6000803e3d6000fd5b505050506040513d6000823e3d601f19601f8201168201806040525081019061311f9190615153565b8560e00181905250848b898151811061313b5761313a614e05565b5b60200260200101819052505050505050506132f6565b60008054906101000a900473ffffffffffffffffffffffffffffffffffffffff1673ffffffffffffffffffffffffffffffffffffffff1663ab10c76c86602001516040518263ffffffff1660e01b81526004016131ae9190614afb565b608060405180830381865afa1580156131cb573d6000803e3d6000fd5b505050506040513d601f19601f820116820180604052508101906131ef919061564a565b8094508195508296508397505050505083156132d05760048560800181815250508263ffffffff168560c0018181525050818560a00181815250508073ffffffffffffffffffffffffffffffffffffffff1663a9135d176040518163ffffffff1660e01b8152600401600060405180830381865afa158015613275573d6000803e3d6000fd5b505050506040513d6000823e3d601f19601f8201168201806040525081019061329e9190615153565b8560e00181905250848b89815181106132ba576132b9614e05565b5b60200260200101819052505050505050506132f6565b848b89815181106132e4576132e3614e05565b5b60200260200101819052505050505050505b808061330190615835565b915050612e28565b50505050919050565b60008060009054906101000a900473ffffffffffffffffffffffffffffffffffffffff1673ffffffffffffffffffffffffffffffffffffffff16639b44f9406040518163ffffffff1660e01b8152600401600060405180830381865afa158015613380573d6000803e3d6000fd5b505050506040513d6000823e3d601f19601f820116820180604052508101906133a99190614f83565b51905090565b606060008060009054906101000a900473ffffffffffffffffffffffffffffffffffffffff1673ffffffffffffffffffffffffffffffffffffffff16639b44f9406040518163ffffffff1660e01b8152600401600060405180830381865afa15801561341f573d6000803e3d6000fd5b505050506040513d6000823e3d601f19601f820116820180604052508101906134489190614f83565b9050805184106134a457600067ffffffffffffffff81111561346d5761346c614b1b565b5b60405190808252806020026020018201604052801561349b5781602001602082028036833780820191505090505b5091505061372e565b60008185815181106134b9576134b8614e05565b5b602002602001015190506000806000806000808673ffffffffffffffffffffffffffffffffffffffff1663118b95358b6040518263ffffffff1660e01b81526004016135059190614afb565b60c060405180830381865afa158015613522573d6000803e3d6000fd5b505050506040513d601f19601f820116820180604052508101906135469190614cfd565b95509550955095509550955083158061355f5750600085145b156135bd57600067ffffffffffffffff81111561357f5761357e614b1b565b5b6040519080825280602002602001820160405280156135ad5781602001602082028036833780820191505090505b509850505050505050505061372e565b60008773ffffffffffffffffffffffffffffffffffffffff16634ed026226040518163ffffffff1660e01b8152600401600060405180830381865afa15801561360a573d6000803e3d6000fd5b505050506040513d6000823e3d601f19601f8201168201806040525081019061363391906152b8565b905060008667ffffffffffffffff81111561365157613650614b1b565b5b60405190808252806020026020018201604052801561367f5781602001602082028036833780820191505090505b5090506000805b835181101561371e578d73ffffffffffffffffffffffffffffffffffffffff168482815181106136b9576136b8614e05565b5b602002602001015173ffffffffffffffffffffffffffffffffffffffff160361370b57808383815181106136f0576136ef614e05565b5b602002602001018181525050818061370790614e63565b9250505b808061371690614e63565b915050613686565b50819b5050505050505050505050505b92915050565b604051806101800160405280606081526020016000815260200160008152602001600073ffffffffffffffffffffffffffffffffffffffff16815260200160008152602001600015158152602001600015158152602001600081526020016000815260200160001515815260200160008152602001600081525090565b60405180610180016040528060008152602001600073ffffffffffffffffffffffffffffffffffffffff16815260200160008152602001600015158152602001600081526020016000815260200160001515815260200160008152602001600081526020016000815260200160008152602001606081525090565b604051806102200160405280600081526020016000815260200160008152602001600081526020016000815260200160008152602001600081526020016000815260200160008152602001600073ffffffffffffffffffffffffffffffffffffffff168152602001606081526020016000815260200160008152602001600081526020016000815260200160008152602001600073ffffffffffffffffffffffffffffffffffffffff1681525090565b60405180610280016040528060001515815260200160008152602001600063ffffffff1681526020016000815260200160008152602001600081526020016000815260200160608152602001600073ffffffffffffffffffffffffffffffffffffffff1681526020016000815260200160008152602001600073ffffffffffffffffffffffffffffffffffffffff1681526020016000815260200160008152602001600073ffffffffffffffffffffffffffffffffffffffff16815260200160008152602001600081526020016000815260200160008152602001600073ffffffffffffffffffffffffffffffffffffffff1681525090565b604051806101000160405280600073ffffffffffffffffffffffffffffffffffffffff168152602001600073ffffffffffffffffffffffffffffffffffffffff1681526020016000815260200160008152602001600081526020016000815260200160008152602001606081525090565b6000604051905090565b600080fd5b600080fd5b600073ffffffffffffffffffffffffffffffffffffffff82169050919050565b6000613a8582613a5a565b9050919050565b6000613a9782613a7a565b9050919050565b613aa781613a8c565b8114613ab257600080fd5b50565b600081359050613ac481613a9e565b92915050565b613ad381613a7a565b8114613ade57600080fd5b50565b600081359050613af081613aca565b92915050565b60008060408385031215613b0d57613b0c613a50565b5b6000613b1b85828601613ab5565b9250506020613b2c85828601613ae1565b9150509250929050565b600081519050919050565b600082825260208201905092915050565b6000819050602082019050919050565b600081519050919050565b600082825260208201905092915050565b60005b83811015613b9c578082015181840152602081019050613b81565b83811115613bab576000848401525b50505050565b6000601f19601f8301169050919050565b6000613bcd82613b62565b613bd78185613b6d565b9350613be7818560208601613b7e565b613bf081613bb1565b840191505092915050565b6000819050919050565b613c0e81613bfb565b82525050565b613c1d81613a7a565b82525050565b60008115159050919050565b613c3881613c23565b82525050565b6000610180830160008301518482036000860152613c5c8282613bc2565b9150506020830151613c716020860182613c05565b506040830151613c846040860182613c05565b506060830151613c976060860182613c14565b506080830151613caa6080860182613c05565b5060a0830151613cbd60a0860182613c2f565b5060c0830151613cd060c0860182613c2f565b5060e0830151613ce360e0860182613c05565b50610100830151613cf8610100860182613c05565b50610120830151613d0d610120860182613c2f565b50610140830151613d22610140860182613c05565b50610160830151613d37610160860182613c05565b508091505092915050565b6000613d4e8383613c3e565b905092915050565b6000602082019050919050565b6000613d6e82613b36565b613d788185613b41565b935083602082028501613d8a85613b52565b8060005b85811015613dc65784840389528151613da78582613d42565b9450613db283613d56565b925060208a01995050600181019050613d8e565b50829750879550505050505092915050565b60006020820190508181036000830152613df28184613d63565b905092915050565b600081519050919050565b600082825260208201905092915050565b6000819050602082019050919050565b600061018083016000830151613e3f6000860182613c05565b506020830151613e526020860182613c14565b506040830151613e656040860182613c05565b506060830151613e786060860182613c2f565b506080830151613e8b6080860182613c05565b5060a0830151613e9e60a0860182613c05565b5060c0830151613eb160c0860182613c2f565b5060e0830151613ec460e0860182613c05565b50610100830151613ed9610100860182613c05565b50610120830151613eee610120860182613c05565b50610140830151613f03610140860182613c05565b50610160830151848203610160860152613f1d8282613bc2565b9150508091505092915050565b6000613f368383613e26565b905092915050565b6000602082019050919050565b6000613f5682613dfa565b613f608185613e05565b935083602082028501613f7285613e16565b8060005b85811015613fae5784840389528151613f8f8582613f2a565b9450613f9a83613f3e565b925060208a01995050600181019050613f76565b50829750879550505050505092915050565b60006020820190508181036000830152613fda8184613f4b565b905092915050565b613feb81613bfb565b8114613ff657600080fd5b50565b60008135905061400881613fe2565b92915050565b60006020828403121561402457614023613a50565b5b600061403284828501613ff9565b91505092915050565b6000610220830160008301516140546000860182613c05565b5060208301516140676020860182613c05565b50604083015161407a6040860182613c05565b50606083015161408d6060860182613c05565b5060808301516140a06080860182613c05565b5060a08301516140b360a0860182613c05565b5060c08301516140c660c0860182613c05565b5060e08301516140d960e0860182613c05565b506101008301516140ee610100860182613c05565b50610120830151614103610120860182613c14565b5061014083015184820361014086015261411d8282613bc2565b915050610160830151614134610160860182613c05565b50610180830151614149610180860182613c05565b506101a083015161415e6101a0860182613c05565b506101c08301516141736101c0860182613c05565b506101e08301516141886101e0860182613c05565b5061020083015161419d610200860182613c14565b508091505092915050565b600060208201905081810360008301526141c2818461403b565b905092915050565b6000602082840312156141e0576141df613a50565b5b60006141ee84828501613ae1565b91505092915050565b60006101808301600083015184820360008601526142158282613bc2565b915050602083015161422a6020860182613c05565b50604083015161423d6040860182613c05565b5060608301516142506060860182613c14565b5060808301516142636080860182613c05565b5060a083015161427660a0860182613c2f565b5060c083015161428960c0860182613c2f565b5060e083015161429c60e0860182613c05565b506101008301516142b1610100860182613c05565b506101208301516142c6610120860182613c2f565b506101408301516142db610140860182613c05565b506101608301516142f0610160860182613c05565b508091505092915050565b6000602082019050818103600083015261431581846141f7565b905092915050565b600081519050919050565b600082825260208201905092915050565b6000819050602082019050919050565b600063ffffffff82169050919050565b61436281614349565b82525050565b6000610280830160008301516143816000860182613c2f565b5060208301516143946020860182613c05565b5060408301516143a76040860182614359565b5060608301516143ba6060860182613c05565b5060808301516143cd6080860182613c05565b5060a08301516143e060a0860182613c05565b5060c08301516143f360c0860182613c05565b5060e083015184820360e086015261440b8282613bc2565b915050610100830151614422610100860182613c14565b50610120830151614437610120860182613c05565b5061014083015161444c610140860182613c05565b50610160830151614461610160860182613c14565b50610180830151614476610180860182613c05565b506101a083015161448b6101a0860182613c05565b506101c08301516144a06101c0860182613c14565b506101e08301516144b56101e0860182613c05565b506102008301516144ca610200860182613c05565b506102208301516144df610220860182613c05565b506102408301516144f4610240860182613c05565b50610260830151614509610260860182613c14565b508091505092915050565b60006145208383614368565b905092915050565b6000602082019050919050565b60006145408261431d565b61454a8185614328565b93508360208202850161455c85614339565b8060005b8581101561459857848403895281516145798582614514565b945061458483614528565b925060208a01995050600181019050614560565b50829750879550505050505092915050565b600060208201905081810360008301526145c48184614535565b905092915050565b600081519050919050565b600082825260208201905092915050565b6000819050602082019050919050565b6000610220830160008301516146116000860182613c05565b5060208301516146246020860182613c05565b5060408301516146376040860182613c05565b50606083015161464a6060860182613c05565b50608083015161465d6080860182613c05565b5060a083015161467060a0860182613c05565b5060c083015161468360c0860182613c05565b5060e083015161469660e0860182613c05565b506101008301516146ab610100860182613c05565b506101208301516146c0610120860182613c14565b506101408301518482036101408601526146da8282613bc2565b9150506101608301516146f1610160860182613c05565b50610180830151614706610180860182613c05565b506101a083015161471b6101a0860182613c05565b506101c08301516147306101c0860182613c05565b506101e08301516147456101e0860182613c05565b5061020083015161475a610200860182613c14565b508091505092915050565b600061477183836145f8565b905092915050565b6000602082019050919050565b6000614791826145cc565b61479b81856145d7565b9350836020820285016147ad856145e8565b8060005b858110156147e957848403895281516147ca8582614765565b94506147d583614779565b925060208a019950506001810190506147b1565b50829750879550505050505092915050565b600060208201905081810360008301526148158184614786565b905092915050565b600081519050919050565b600082825260208201905092915050565b6000819050602082019050919050565b6000610100830160008301516148626000860182613c14565b5060208301516148756020860182613c14565b5060408301516148886040860182613c05565b50606083015161489b6060860182613c05565b5060808301516148ae6080860182613c05565b5060a08301516148c160a0860182613c05565b5060c08301516148d460c0860182613c05565b5060e083015184820360e08601526148ec8282613bc2565b9150508091505092915050565b60006149058383614849565b905092915050565b6000602082019050919050565b60006149258261481d565b61492f8185614828565b93508360208202850161494185614839565b8060005b8581101561497d578484038952815161495e85826148f9565b94506149698361490d565b925060208a01995050600181019050614945565b50829750879550505050505092915050565b600060208201905081810360008301526149a9818461491a565b905092915050565b6149ba81613bfb565b82525050565b60006020820190506149d560008301846149b1565b92915050565b600080604083850312156149f2576149f1613a50565b5b6000614a0085828601613ff9565b9250506020614a1185828601613ae1565b9150509250929050565b600081519050919050565b600082825260208201905092915050565b6000819050602082019050919050565b6000614a538383613c05565b60208301905092915050565b6000602082019050919050565b6000614a7782614a1b565b614a818185614a26565b9350614a8c83614a37565b8060005b83811015614abd578151614aa48882614a47565b9750614aaf83614a5f565b925050600181019050614a90565b5085935050505092915050565b60006020820190508181036000830152614ae48184614a6c565b905092915050565b614af581613a7a565b82525050565b6000602082019050614b106000830184614aec565b92915050565b600080fd5b7f4e487b7100000000000000000000000000000000000000000000000000000000600052604160045260246000fd5b614b5382613bb1565b810181811067ffffffffffffffff82111715614b7257614b71614b1b565b5b80604052505050565b6000614b85613a46565b9050614b918282614b4a565b919050565b600067ffffffffffffffff821115614bb157614bb0614b1b565b5b602082029050602081019050919050565b600080fd5b600081519050614bd681613fe2565b92915050565b6000614bef614bea84614b96565b614b7b565b90508083825260208201905060208402830185811115614c1257614c11614bc2565b5b835b81811015614c3b5780614c278882614bc7565b845260208401935050602081019050614c14565b5050509392505050565b600082601f830112614c5a57614c59614b16565b5b8151614c6a848260208601614bdc565b91505092915050565b600060208284031215614c8957614c88613a50565b5b600082015167ffffffffffffffff811115614ca757614ca6613a55565b5b614cb384828501614c45565b91505092915050565b600081519050614ccb81613aca565b92915050565b614cda81613c23565b8114614ce557600080fd5b50565b600081519050614cf781614cd1565b92915050565b60008060008060008060c08789031215614d1a57614d19613a50565b5b6000614d2889828a01614cbc565b9650506020614d3989828a01614bc7565b9550506040614d4a89828a01614ce8565b9450506060614d5b89828a01614ce8565b9350506080614d6c89828a01614bc7565b92505060a0614d7d89828a01614bc7565b9150509295509295509295565b600080600080600060a08688031215614da657614da5613a50565b5b6000614db488828901614cbc565b9550506020614dc588828901614bc7565b9450506040614dd688828901614bc7565b9350506060614de788828901614bc7565b9250506080614df888828901614bc7565b9150509295509295909350565b7f4e487b7100000000000000000000000000000000000000000000000000000000600052603260045260246000fd5b7f4e487b7100000000000000000000000000000000000000000000000000000000600052601160045260246000fd5b6000614e6e82613bfb565b91507fffffffffffffffffffffffffffffffffffffffffffffffffffffffffffffffff8203614ea057614e9f614e34565b5b600182019050919050565b600067ffffffffffffffff821115614ec657614ec5614b1b565b5b602082029050602081019050919050565b600081519050614ee681613a9e565b92915050565b6000614eff614efa84614eab565b614b7b565b90508083825260208201905060208402830185811115614f2257614f21614bc2565b5b835b81811015614f4b5780614f378882614ed7565b845260208401935050602081019050614f24565b5050509392505050565b600082601f830112614f6a57614f69614b16565b5b8151614f7a848260208601614eec565b91505092915050565b600060208284031215614f9957614f98613a50565b5b600082015167ffffffffffffffff811115614fb757614fb6613a55565b5b614fc384828501614f55565b91505092915050565b6000614fd782613bfb565b9150614fe283613bfb565b925082821015614ff557614ff4614e34565b5b828203905092915050565b60006020828403121561501657615015613a50565b5b600061502484828501614cbc565b91505092915050565b60008060006060848603121561504657615045613a50565b5b600061505486828701614bc7565b935050602061506586828701614bc7565b925050604061507686828701614bc7565b9150509250925092565b60006020828403121561509657615095613a50565b5b60006150a484828501614bc7565b91505092915050565b600080fd5b600067ffffffffffffffff8211156150cd576150cc614b1b565b5b6150d682613bb1565b9050602081019050919050565b60006150f66150f1846150b2565b614b7b565b905082815260208101848484011115615112576151116150ad565b5b61511d848285613b7e565b509392505050565b600082601f83011261513a57615139614b16565b5b815161514a8482602086016150e3565b91505092915050565b60006020828403121561516957615168613a50565b5b600082015167ffffffffffffffff81111561518757615186613a55565b5b61519384828501615125565b91505092915050565b6151a581614349565b81146151b057600080fd5b50565b6000815190506151c28161519c565b92915050565b6000602082840312156151de576151dd613a50565b5b60006151ec848285016151b3565b91505092915050565b600067ffffffffffffffff8211156152105761520f614b1b565b5b602082029050602081019050919050565b600061523461522f846151f5565b614b7b565b9050808382526020820190506020840283018581111561525757615256614bc2565b5b835b81811015615280578061526c8882614cbc565b845260208401935050602081019050615259565b5050509392505050565b600082601f83011261529f5761529e614b16565b5b81516152af848260208601615221565b91505092915050565b6000602082840312156152ce576152cd613a50565b5b600082015167ffffffffffffffff8111156152ec576152eb613a55565b5b6152f88482850161528a565b91505092915050565b600061530c82613a7a565b9050919050565b61531c81615301565b811461532757600080fd5b50565b60008151905061533981615313565b92915050565b60006020828403121561535557615354613a50565b5b60006153638482850161532a565b91505092915050565b600061537782613bfb565b915061538283613bfb565b9250827fffffffffffffffffffffffffffffffffffffffffffffffffffffffffffffffff038211156153b7576153b6614e34565b5b828201905092915050565b600067ffffffffffffffff8211156153dd576153dc614b1b565b5b602082029050602081019050919050565b600080fd5b600060a08284031215615409576154086153ee565b5b61541360a0614b7b565b9050600061542384828501614cbc565b600083015250602061543784828501614bc7565b602083015250604061544b84828501614bc7565b604083015250606061545f84828501614bc7565b606083015250608061547384828501614bc7565b60808301525092915050565b600061549261548d846153c2565b614b7b565b90508083825260208201905060a084028301858111156154b5576154b4614bc2565b5b835b818110156154de57806154ca88826153f3565b84526020840193505060a0810190506154b7565b5050509392505050565b600082601f8301126154fd576154fc614b16565b5b815161550d84826020860161547f565b91505092915050565b60006020828403121561552c5761552b613a50565b5b600082015167ffffffffffffffff81111561554a57615549613a55565b5b615556848285016154e8565b91505092915050565b600061556a82613a7a565b9050919050565b61557a8161555f565b811461558557600080fd5b50565b60008151905061559781615571565b92915050565b6000602082840312156155b3576155b2613a50565b5b60006155c184828501615588565b91505092915050565b6155d381614349565b82525050565b60006040820190506155ee60008301856155ca565b6155fb6020830184614aec565b9392505050565b60006020828403121561561857615617613a50565b5b600061562684828501614ce8565b91505092915050565b600060208201905061564460008301846155ca565b92915050565b6000806000806080858703121561566457615663613a50565b5b600061567287828801614ce8565b9450506020615683878288016151b3565b935050604061569487828801614bc7565b92505060606156a587828801614ed7565b91505092959194509250565b600067ffffffffffffffff8211156156cc576156cb614b1b565b5b602082029050602081019050919050565b6000608082840312156156f3576156f26153ee565b5b6156fd6080614b7b565b9050600061570d84828501614cbc565b600083015250602061572184828501614cbc565b602083015250604061573584828501614bc7565b604083015250606061574984828501614bc7565b60608301525092915050565b6000615768615763846156b1565b614b7b565b9050808382526020820190506080840283018581111561578b5761578a614bc2565b5b835b818110156157b457806157a088826156dd565b84526020840193505060808101905061578d565b5050509392505050565b600082601f8301126157d3576157d2614b16565b5b81516157e3848260208601615755565b91505092915050565b60006020828403121561580257615801613a50565b5b600082015167ffffffffffffffff8111156158205761581f613a55565b5b61582c848285016157be565b91505092915050565b600061584082613bfb565b91506000820361585357615852614e34565b5b60018203905091905056fea26469706673582212202b42ff67955cddcc0c919ae2823403e6e49f42c659e3e1e2f7601cce88a75d4c64736f6c634300080d0033",
  "immutableReferences": {},
  "source": "// SPDX-License-Identifier: MIT\npragma solidity >=0.4.22 <0.9.0;\n\nimport \"./Comptroller.sol\";\nimport \"./GoodLottery.sol\";\nimport \"./GoodInterface.sol\";\nimport \"./WishToken.sol\";\nimport \"./GoodLotteryNFT.sol\";\n\ncontract WishApi {\n    Comptroller comptroller;\n\n    struct GoodInfo {\n        uint256 goodIndex;\n        uint256 goodId;\n        uint256 goodValue;\n        uint256 publishTime;\n        uint256 lockedTime;\n        uint256 maintenanceFee;\n        uint256 joinedUsers;\n        uint256 ticketCounts;\n        uint256 balance;\n        address winner;\n        string goodHash;\n        uint256 stage;\n        uint256 paybackFee;\n        uint256 winnerTime;\n        uint256 winnerBlock;\n        uint256 winnerIndex;\n        address pickWinnerUser;\n    }\n\n    struct UserJoinRecord {\n        string userName;\n        uint256 goodIndex;\n        uint256 goodId;\n        address user;\n        uint256 count;\n        bool joined;\n        bool isPaybacked;\n        uint256 joinTime;\n        uint256 joinBlockNum;\n        bool isWinner;\n        uint256 goodValue;\n        uint256 paybackFee;\n    }\n\n    struct WinnerHistory {\n        uint256 goodId;\n        address user;\n        uint256 count;\n        bool joined;\n        uint256 joinTime;\n        uint256 joinBlockNum;\n        bool isWinner;\n        uint256 goodValue;\n        uint256 blockNum;\n        uint256 blockTime;\n        uint256 index;\n        string goodHash;\n    }\n\n    struct UserTransferHistory {\n        address from;\n        address to;\n        uint256 amount;\n        uint256 blockNum;\n        uint256 transferType;\n        uint256 goodIndex;\n        uint256 goodId;\n        string goodHash;\n    }\n\n    struct UserPublishedGood {\n        bool isList;\n        uint256 goodIndex;\n        uint32 goodId;\n        uint256 goodValue;\n        uint256 maintenanceFee;\n        uint256 publishTime;\n        uint256 lockedTime;\n        string goodHash;\n        address nftAddress;\n        uint256 tokenId;\n        uint256 status;\n        address nft;\n        uint256 joinedUsers;\n        uint256 ticketCounts;\n        address winner;\n        uint256 paybackFee;\n        uint256 winnerTime;\n        uint256 winnerBlock;\n        uint256 winnerIndex;\n        address goodAddress;\n    }\n\n    constructor(Comptroller _comptroller) {\n        comptroller = _comptroller;\n    }\n\n    function getGoodsLength() public view returns (uint256 len) {\n        return comptroller.getGoods().length;\n    }\n\n    function getGoods() public view returns (GoodInfo[] memory) {\n        GoodLottery[] memory goodContracts = comptroller.getGoods();\n\n        uint256 len = goodContracts.length;\n        GoodInfo[] memory records = new GoodInfo[](len);\n\n        for (uint256 i = 0; i < len; i++) {\n            records[i] = getGoodInfo(len - 1 - i);\n        }\n        return records;\n    }\n\n    function getGoodInfo(uint256 index)\n        public\n        view\n        returns (GoodInfo memory good)\n    {\n        GoodLottery[] memory goodContracts = comptroller.getGoods();\n        if (index >= goodContracts.length) return good;\n\n        good.goodIndex = index;\n        good.goodId = goodContracts[index].goodId();\n        good.goodValue = goodContracts[index].goodValue();\n        good.publishTime = goodContracts[index].publishTime();\n        good.lockedTime = goodContracts[index].lockedTime();\n        good.maintenanceFee = goodContracts[index].maintenanceFee();\n        good.joinedUsers = goodContracts[index].joinedUsers();\n        good.ticketCounts = goodContracts[index].getTickets().length;\n        good.balance = comptroller.token().balanceOf(\n            address(goodContracts[index])\n        );\n        good.winner = goodContracts[index].winner();\n        good.goodHash = goodContracts[index].goodHash();\n        good.stage = 0;\n        (\n            uint256 winnerBlock,\n            uint256 winnerTime,\n            uint256 tickIndex\n        ) = goodContracts[index].winnerTime();\n        good.winnerTime = winnerTime;\n        good.winnerBlock = winnerBlock;\n        good.winnerIndex = tickIndex;\n        good.paybackFee = goodContracts[index].paybackFee();\n\n        return good;\n    }\n\n    function getUserTickets(uint256 index, address user)\n        public\n        view\n        returns (uint256[] memory)\n    {\n        GoodLottery[] memory goodContracts = comptroller.getGoods();\n        if (index >= goodContracts.length) return new uint256[](0);\n        GoodLottery good = goodContracts[index];\n        (\n            address u,\n            uint256 count,\n            bool joined,\n            bool isPaybacked,\n            uint256 joinTime,\n            uint256 joinBlockNum\n        ) = good.userMapping(user);\n\n        if (!joined || count == 0) {\n            return new uint256[](0);\n        }\n\n        address[] memory tickets = good.getTickets();\n        uint256[] memory ticketIds = new uint256[](count);\n\n        uint256 j = 0;\n        for (uint256 i = 0; i < tickets.length; i++) {\n            if (tickets[i] == user) {\n                ticketIds[j] = i;\n                j++;\n            }\n        }\n        return ticketIds;\n    }\n\n    function getUserRecords(uint256 index)\n        public\n        view\n        returns (UserJoinRecord[] memory record)\n    {\n        GoodLottery[] memory goodContracts = comptroller.getGoods();\n        if (index >= goodContracts.length) return record;\n        GoodLottery good = goodContracts[index];\n        GoodInterface.UserJoinRecord[] memory records = good\n            .getUserJoinRecords();\n        UserJoinRecord[] memory result = new UserJoinRecord[](records.length);\n\n        uint256 len = records.length;\n        for (uint256 i = 0; i < len; i++) {\n            uint256 j = len - 1 - i;\n\n            string memory userName = comptroller.userNames(records[j].user);\n\n            result[i] = UserJoinRecord(\n                userName,\n                index,\n                good.goodId(),\n                records[j].user,\n                records[j].count,\n                true,\n                good.winner() != address(0),\n                records[j].joinTime,\n                records[j].joinBlockNum,\n                good.winner() == records[j].user,\n                good.goodValue(),\n                good.paybackFee()\n            );\n        }\n\n        return result;\n    }\n\n    function getUserRecord(GoodLottery good, address addr)\n        public\n        view\n        returns (UserJoinRecord memory record)\n    {\n        if (addr != address(0)) {\n            (\n                address user,\n                uint256 count,\n                bool joined,\n                bool isPaybacked,\n                uint256 joinTime,\n                uint256 joinBlockNum\n            ) = good.userMapping(addr);\n            record.goodId = good.goodId();\n            record.user = user;\n            record.count = count;\n            record.joined = joined;\n            record.isPaybacked = isPaybacked;\n            record.joinTime = joinTime;\n            record.joinBlockNum = joinBlockNum;\n        }\n\n        return record;\n    }\n\n    function getWinnerHistory() public view returns (WinnerHistory[] memory) {\n        GoodLottery[] memory goodContracts = comptroller.getGoods();\n\n        if (goodContracts.length <= 0) {\n            return new WinnerHistory[](0);\n        }\n        WinnerHistory[] memory records = new WinnerHistory[](\n            goodContracts.length\n        );\n        uint256 j = 0;\n        uint256 m = goodContracts.length;\n        for (uint256 i = 0; i < goodContracts.length; i++) {\n            GoodLottery good = goodContracts[m - i - 1];\n\n            if (good.winner() != address(0)) {\n                (uint256 blockNum, uint256 blockTime, uint256 index) = good\n                    .winnerTime();\n                UserJoinRecord memory record = getUserRecord(\n                    good,\n                    good.winner()\n                );\n\n                records[j] = WinnerHistory({\n                    goodId: record.goodId,\n                    user: record.user,\n                    count: record.count,\n                    joined: record.joined,\n                    joinTime: record.joinTime,\n                    joinBlockNum: record.joinBlockNum,\n                    isWinner: true,\n                    goodValue: good.goodValue(),\n                    blockNum: blockNum,\n                    blockTime: blockTime,\n                    index: index,\n                    goodHash: good.goodHash()\n                });\n                j++;\n            }\n        }\n        return records;\n    }\n\n    function getUserHistory(address user)\n        public\n        view\n        returns (UserJoinRecord[] memory)\n    {\n        GoodLottery[] memory goodContracts = comptroller.getGoods();\n        uint256 count = 0;\n        uint256 goods = goodContracts.length;\n        for (uint256 i = 0; i < goods; i++) {\n            GoodLottery good = goodContracts[i];\n            count += good.getUserJoinRecordIndexs(user).length;\n        }\n\n        UserJoinRecord[] memory record = new UserJoinRecord[](count);\n        uint256 j = 0;\n\n        for (uint256 i = 0; i < goodContracts.length; i++) {\n            UserJoinRecord[] memory rs = getUserHistoryByGood(\n                goodContracts[i],\n                user\n            );\n            for (uint256 z = 0; z < rs.length; z++) {\n                record[j] = rs[z];\n                record[j].goodId = goodContracts[i].goodId();\n                record[j].goodIndex = i;\n                record[j].isWinner = goodContracts[i].winner() == user;\n                record[j].goodValue = goodContracts[i].goodValue();\n                record[j].paybackFee = goodContracts[i].paybackFee();\n                j++;\n            }\n        }\n        return record;\n    }\n\n    function getUserHistoryByGood(GoodLottery good, address user)\n        public\n        view\n        returns (UserJoinRecord[] memory)\n    {\n        uint256[] memory indexs = good.getUserJoinRecordIndexs(user);\n        (\n            address user,\n            uint256 count,\n            bool joined,\n            bool isPaybacked,\n            uint256 joinTime,\n            uint256 joinBlockNum\n        ) = good.userMapping(user);\n        uint256 startIndex = 0;\n        if (indexs.length <= 0) {\n            return new UserJoinRecord[](0);\n        }\n        UserJoinRecord[] memory records = new UserJoinRecord[](indexs.length);\n\n        for (uint256 z = 0; z < indexs.length; z++) {\n            (user, startIndex, count, joinTime, joinBlockNum) = good\n                .userJoinRecords(z);\n            records[z] = UserJoinRecord(\n                \"\",\n                0,\n                0,\n                user,\n                count,\n                true,\n                isPaybacked,\n                joinTime,\n                joinBlockNum,\n                false,\n                0,\n                0\n            );\n        }\n        return records;\n    }\n\n    function getUserTransferHistory(address user)\n        public\n        view\n        returns (UserTransferHistory[] memory record)\n    {\n        WishToken tokenApi = WishToken(comptroller.token());\n\n        WishToken.UserTransferHistory[] memory list = tokenApi\n            .getUserTransferHistories(user);\n        record = new UserTransferHistory[](list.length);\n\n        uint256 i = 0;\n        for (uint256 j = list.length - 1; j > 0; j--) {\n            WishToken.UserTransferHistory memory history = list[j];\n            UserTransferHistory memory result = UserTransferHistory({\n                from: history.from,\n                to: history.to,\n                amount: history.amount,\n                blockNum: history.transferBlock,\n                transferType: 0,\n                goodIndex: 0,\n                goodId: 0,\n                goodHash: \"0\"\n            });\n\n            if (result.from == address(0)) {\n                result.transferType = 1;\n                record[i] = result;\n                continue;\n            }\n\n            if (result.to == address(0)) {\n                result.transferType = 2;\n                record[i] = result;\n                continue;\n            }\n\n            (\n                bool isList,\n                uint32 goodId,\n                uint256 goodIndex,\n                GoodLottery good\n            ) = comptroller.goodAddressMapping(result.from);\n            if (isList) {\n                result.transferType = 3;\n                result.goodId = goodId;\n                result.goodIndex = goodIndex;\n                result.goodHash = good.goodHash();\n                record[i] = result;\n                continue;\n            }\n\n            (isList, goodId, goodIndex, good) = comptroller.goodAddressMapping(\n                result.to\n            );\n            if (isList) {\n                result.transferType = 4;\n                result.goodId = goodId;\n                result.goodIndex = goodIndex;\n                result.goodHash = good.goodHash();\n                record[i] = result;\n                continue;\n            }\n\n            record[i] = result;\n        }\n    }\n\n    function getUserPublishedGoods(address account)\n        public\n        view\n        returns (UserPublishedGood[] memory)\n    {\n        address[] memory goods = comptroller.getUserPublishedGoods(account);\n\n        UserPublishedGood[] memory records = new UserPublishedGood[](\n            goods.length\n        );\n\n        for (uint256 i = 0; i < goods.length; i++) {\n            GoodLotteryNFT nft = GoodLotteryNFT(goods[i]);\n            UserPublishedGood memory record = UserPublishedGood({\n                isList: true,\n                goodId: nft.goodId(),\n                goodIndex: 0,\n                goodValue: nft.goodValue(),\n                maintenanceFee: nft.maintenanceFee(),\n                publishTime: nft.publishTime(),\n                lockedTime: nft.lockedTime(),\n                goodHash: nft.goodHash(),\n                nftAddress: address(nft.nftToken()),\n                tokenId: nft.tokenId(),\n                status: 0,\n                nft: goods[i],\n                joinedUsers: 0,\n                ticketCounts: 0,\n                winner: address(0),\n                paybackFee: 0,\n                winnerBlock: 0,\n                winnerTime: 0,\n                winnerIndex: 0,\n                goodAddress: address(nft)\n            });\n            if (comptroller.goodIsList(record.goodId, goods[i])) {\n                record.status = 1;\n                (\n                    bool isList,\n                    uint32 goodId,\n                    uint256 goodIndex,\n                    GoodLottery good\n                ) = comptroller.goodsMapping(nft.goodId());\n                record.goodIndex = goodIndex;\n                record.winner = nft.winner();\n                (\n                    uint256 winnerBlock,\n                    uint256 winnerTime,\n                    uint256 tickIndex\n                ) = nft.winnerTime();\n                record.winnerTime = winnerTime;\n                record.winnerBlock = winnerBlock;\n                record.winnerIndex = tickIndex;\n                record.paybackFee = nft.paybackFee();\n            } else if (nft.isApproved()) {\n                record.status = 2;\n            } else {\n                record.status = 3;\n            }\n\n            records[i] = record;\n        }\n        return records;\n    }\n}\n",
  "sourcePath": "/Users/jonah/SolidityProject/makewish-contract/contracts/WishApi.sol",
  "compiler": {
    "name": "solc",
    "version": "0.8.13+commit.abaa5c0e.Emscripten.clang"
  },
  "schemaVersion": "3.4.7",
  "updatedAt": "2022-06-02T03:56:10.492Z",
  "devdoc": {
    "kind": "dev",
    "methods": {},
    "version": 1
  },
  "userdoc": {
    "kind": "user",
    "methods": {},
    "version": 1
  }
}