{
  "contractName": "WishApi",
  "abi": [
    {
      "inputs": [
        {
          "internalType": "contract Comptroller",
          "name": "_comptroller",
          "type": "address"
        }
      ],
      "stateMutability": "nonpayable",
      "type": "constructor"
    },
    {
      "inputs": [],
      "name": "getGoodsLength",
      "outputs": [
        {
          "internalType": "uint256",
          "name": "len",
          "type": "uint256"
        }
      ],
      "stateMutability": "view",
      "type": "function"
    },
    {
      "inputs": [],
      "name": "getGoods",
      "outputs": [
        {
          "components": [
            {
              "internalType": "uint256",
              "name": "goodIndex",
              "type": "uint256"
            },
            {
              "internalType": "uint256",
              "name": "goodId",
              "type": "uint256"
            },
            {
              "internalType": "uint256",
              "name": "goodValue",
              "type": "uint256"
            },
            {
              "internalType": "uint256",
              "name": "publishTime",
              "type": "uint256"
            },
            {
              "internalType": "uint256",
              "name": "lockedTime",
              "type": "uint256"
            },
            {
              "internalType": "uint256",
              "name": "maintenanceFee",
              "type": "uint256"
            },
            {
              "internalType": "uint256",
              "name": "joinedUsers",
              "type": "uint256"
            },
            {
              "internalType": "uint256",
              "name": "ticketCounts",
              "type": "uint256"
            },
            {
              "internalType": "uint256",
              "name": "balance",
              "type": "uint256"
            },
            {
              "internalType": "address",
              "name": "winner",
              "type": "address"
            },
            {
              "internalType": "string",
              "name": "goodHash",
              "type": "string"
            },
            {
              "internalType": "uint256",
              "name": "stage",
              "type": "uint256"
            },
            {
              "internalType": "uint256",
              "name": "paybackFee",
              "type": "uint256"
            },
            {
              "internalType": "uint256",
              "name": "winnerTime",
              "type": "uint256"
            },
            {
              "internalType": "uint256",
              "name": "winnerBlock",
              "type": "uint256"
            },
            {
              "internalType": "uint256",
              "name": "winnerIndex",
              "type": "uint256"
            }
          ],
          "internalType": "struct WishApi.GoodInfo[]",
          "name": "",
          "type": "tuple[]"
        }
      ],
      "stateMutability": "view",
      "type": "function"
    },
    {
      "inputs": [
        {
          "internalType": "uint256",
          "name": "index",
          "type": "uint256"
        }
      ],
      "name": "getGoodInfo",
      "outputs": [
        {
          "components": [
            {
              "internalType": "uint256",
              "name": "goodIndex",
              "type": "uint256"
            },
            {
              "internalType": "uint256",
              "name": "goodId",
              "type": "uint256"
            },
            {
              "internalType": "uint256",
              "name": "goodValue",
              "type": "uint256"
            },
            {
              "internalType": "uint256",
              "name": "publishTime",
              "type": "uint256"
            },
            {
              "internalType": "uint256",
              "name": "lockedTime",
              "type": "uint256"
            },
            {
              "internalType": "uint256",
              "name": "maintenanceFee",
              "type": "uint256"
            },
            {
              "internalType": "uint256",
              "name": "joinedUsers",
              "type": "uint256"
            },
            {
              "internalType": "uint256",
              "name": "ticketCounts",
              "type": "uint256"
            },
            {
              "internalType": "uint256",
              "name": "balance",
              "type": "uint256"
            },
            {
              "internalType": "address",
              "name": "winner",
              "type": "address"
            },
            {
              "internalType": "string",
              "name": "goodHash",
              "type": "string"
            },
            {
              "internalType": "uint256",
              "name": "stage",
              "type": "uint256"
            },
            {
              "internalType": "uint256",
              "name": "paybackFee",
              "type": "uint256"
            },
            {
              "internalType": "uint256",
              "name": "winnerTime",
              "type": "uint256"
            },
            {
              "internalType": "uint256",
              "name": "winnerBlock",
              "type": "uint256"
            },
            {
              "internalType": "uint256",
              "name": "winnerIndex",
              "type": "uint256"
            }
          ],
          "internalType": "struct WishApi.GoodInfo",
          "name": "good",
          "type": "tuple"
        }
      ],
      "stateMutability": "view",
      "type": "function"
    },
    {
      "inputs": [
        {
          "internalType": "uint256",
          "name": "index",
          "type": "uint256"
        },
        {
          "internalType": "address",
          "name": "user",
          "type": "address"
        }
      ],
      "name": "getUserTickets",
      "outputs": [
        {
          "internalType": "uint256[]",
          "name": "",
          "type": "uint256[]"
        }
      ],
      "stateMutability": "view",
      "type": "function"
    },
    {
      "inputs": [
        {
          "internalType": "uint256",
          "name": "index",
          "type": "uint256"
        }
      ],
      "name": "getUserRecords",
      "outputs": [
        {
          "components": [
            {
              "internalType": "string",
              "name": "userName",
              "type": "string"
            },
            {
              "internalType": "uint256",
              "name": "goodIndex",
              "type": "uint256"
            },
            {
              "internalType": "uint256",
              "name": "goodId",
              "type": "uint256"
            },
            {
              "internalType": "address",
              "name": "user",
              "type": "address"
            },
            {
              "internalType": "uint256",
              "name": "count",
              "type": "uint256"
            },
            {
              "internalType": "bool",
              "name": "joined",
              "type": "bool"
            },
            {
              "internalType": "bool",
              "name": "isPaybacked",
              "type": "bool"
            },
            {
              "internalType": "uint256",
              "name": "joinTime",
              "type": "uint256"
            },
            {
              "internalType": "uint256",
              "name": "joinBlockNum",
              "type": "uint256"
            },
            {
              "internalType": "bool",
              "name": "isWinner",
              "type": "bool"
            },
            {
              "internalType": "uint256",
              "name": "goodValue",
              "type": "uint256"
            },
            {
              "internalType": "uint256",
              "name": "paybackFee",
              "type": "uint256"
            }
          ],
          "internalType": "struct WishApi.UserJoinRecord[]",
          "name": "record",
          "type": "tuple[]"
        }
      ],
      "stateMutability": "view",
      "type": "function"
    },
    {
      "inputs": [
        {
          "internalType": "contract GoodLottery",
          "name": "good",
          "type": "address"
        },
        {
          "internalType": "address",
          "name": "addr",
          "type": "address"
        }
      ],
      "name": "getUserRecord",
      "outputs": [
        {
          "components": [
            {
              "internalType": "string",
              "name": "userName",
              "type": "string"
            },
            {
              "internalType": "uint256",
              "name": "goodIndex",
              "type": "uint256"
            },
            {
              "internalType": "uint256",
              "name": "goodId",
              "type": "uint256"
            },
            {
              "internalType": "address",
              "name": "user",
              "type": "address"
            },
            {
              "internalType": "uint256",
              "name": "count",
              "type": "uint256"
            },
            {
              "internalType": "bool",
              "name": "joined",
              "type": "bool"
            },
            {
              "internalType": "bool",
              "name": "isPaybacked",
              "type": "bool"
            },
            {
              "internalType": "uint256",
              "name": "joinTime",
              "type": "uint256"
            },
            {
              "internalType": "uint256",
              "name": "joinBlockNum",
              "type": "uint256"
            },
            {
              "internalType": "bool",
              "name": "isWinner",
              "type": "bool"
            },
            {
              "internalType": "uint256",
              "name": "goodValue",
              "type": "uint256"
            },
            {
              "internalType": "uint256",
              "name": "paybackFee",
              "type": "uint256"
            }
          ],
          "internalType": "struct WishApi.UserJoinRecord",
          "name": "record",
          "type": "tuple"
        }
      ],
      "stateMutability": "view",
      "type": "function"
    },
    {
      "inputs": [],
      "name": "getWinnerHistory",
      "outputs": [
        {
          "components": [
            {
              "internalType": "uint256",
              "name": "goodId",
              "type": "uint256"
            },
            {
              "internalType": "address",
              "name": "user",
              "type": "address"
            },
            {
              "internalType": "uint256",
              "name": "count",
              "type": "uint256"
            },
            {
              "internalType": "bool",
              "name": "joined",
              "type": "bool"
            },
            {
              "internalType": "uint256",
              "name": "joinTime",
              "type": "uint256"
            },
            {
              "internalType": "uint256",
              "name": "joinBlockNum",
              "type": "uint256"
            },
            {
              "internalType": "bool",
              "name": "isWinner",
              "type": "bool"
            },
            {
              "internalType": "uint256",
              "name": "goodValue",
              "type": "uint256"
            },
            {
              "internalType": "uint256",
              "name": "blockNum",
              "type": "uint256"
            },
            {
              "internalType": "uint256",
              "name": "blockTime",
              "type": "uint256"
            },
            {
              "internalType": "uint256",
              "name": "index",
              "type": "uint256"
            },
            {
              "internalType": "string",
              "name": "fileHash",
              "type": "string"
            }
          ],
          "internalType": "struct WishApi.WinnerHistory[]",
          "name": "",
          "type": "tuple[]"
        }
      ],
      "stateMutability": "view",
      "type": "function"
    },
    {
      "inputs": [
        {
          "internalType": "address",
          "name": "user",
          "type": "address"
        }
      ],
      "name": "getUserHistory",
      "outputs": [
        {
          "components": [
            {
              "internalType": "string",
              "name": "userName",
              "type": "string"
            },
            {
              "internalType": "uint256",
              "name": "goodIndex",
              "type": "uint256"
            },
            {
              "internalType": "uint256",
              "name": "goodId",
              "type": "uint256"
            },
            {
              "internalType": "address",
              "name": "user",
              "type": "address"
            },
            {
              "internalType": "uint256",
              "name": "count",
              "type": "uint256"
            },
            {
              "internalType": "bool",
              "name": "joined",
              "type": "bool"
            },
            {
              "internalType": "bool",
              "name": "isPaybacked",
              "type": "bool"
            },
            {
              "internalType": "uint256",
              "name": "joinTime",
              "type": "uint256"
            },
            {
              "internalType": "uint256",
              "name": "joinBlockNum",
              "type": "uint256"
            },
            {
              "internalType": "bool",
              "name": "isWinner",
              "type": "bool"
            },
            {
              "internalType": "uint256",
              "name": "goodValue",
              "type": "uint256"
            },
            {
              "internalType": "uint256",
              "name": "paybackFee",
              "type": "uint256"
            }
          ],
          "internalType": "struct WishApi.UserJoinRecord[]",
          "name": "",
          "type": "tuple[]"
        }
      ],
      "stateMutability": "view",
      "type": "function"
    },
    {
      "inputs": [
        {
          "internalType": "contract GoodLottery",
          "name": "good",
          "type": "address"
        },
        {
          "internalType": "address",
          "name": "user",
          "type": "address"
        }
      ],
      "name": "getUserHistoryByGood",
      "outputs": [
        {
          "components": [
            {
              "internalType": "string",
              "name": "userName",
              "type": "string"
            },
            {
              "internalType": "uint256",
              "name": "goodIndex",
              "type": "uint256"
            },
            {
              "internalType": "uint256",
              "name": "goodId",
              "type": "uint256"
            },
            {
              "internalType": "address",
              "name": "user",
              "type": "address"
            },
            {
              "internalType": "uint256",
              "name": "count",
              "type": "uint256"
            },
            {
              "internalType": "bool",
              "name": "joined",
              "type": "bool"
            },
            {
              "internalType": "bool",
              "name": "isPaybacked",
              "type": "bool"
            },
            {
              "internalType": "uint256",
              "name": "joinTime",
              "type": "uint256"
            },
            {
              "internalType": "uint256",
              "name": "joinBlockNum",
              "type": "uint256"
            },
            {
              "internalType": "bool",
              "name": "isWinner",
              "type": "bool"
            },
            {
              "internalType": "uint256",
              "name": "goodValue",
              "type": "uint256"
            },
            {
              "internalType": "uint256",
              "name": "paybackFee",
              "type": "uint256"
            }
          ],
          "internalType": "struct WishApi.UserJoinRecord[]",
          "name": "",
          "type": "tuple[]"
        }
      ],
      "stateMutability": "view",
      "type": "function"
    },
    {
      "inputs": [
        {
          "internalType": "address",
          "name": "user",
          "type": "address"
        }
      ],
      "name": "getUserTransferHistory",
      "outputs": [
        {
          "components": [
            {
              "internalType": "address",
              "name": "from",
              "type": "address"
            },
            {
              "internalType": "address",
              "name": "to",
              "type": "address"
            },
            {
              "internalType": "uint256",
              "name": "amount",
              "type": "uint256"
            },
            {
              "internalType": "uint256",
              "name": "blockNum",
              "type": "uint256"
            },
            {
              "internalType": "uint256",
              "name": "transferType",
              "type": "uint256"
            },
            {
              "internalType": "uint256",
              "name": "goodIndex",
              "type": "uint256"
            },
            {
              "internalType": "uint256",
              "name": "goodId",
              "type": "uint256"
            },
            {
              "internalType": "string",
              "name": "fileHash",
              "type": "string"
            }
          ],
          "internalType": "struct WishApi.UserTransferHistory[]",
          "name": "record",
          "type": "tuple[]"
        }
      ],
      "stateMutability": "view",
      "type": "function"
    },
    {
      "inputs": [
        {
          "internalType": "address",
          "name": "account",
          "type": "address"
        }
      ],
      "name": "getUserPublishedGoods",
      "outputs": [
        {
          "components": [
            {
              "internalType": "bool",
              "name": "isList",
              "type": "bool"
            },
            {
              "internalType": "uint256",
              "name": "goodIndex",
              "type": "uint256"
            },
            {
              "internalType": "uint32",
              "name": "goodId",
              "type": "uint32"
            },
            {
              "internalType": "uint256",
              "name": "goodValue",
              "type": "uint256"
            },
            {
              "internalType": "uint256",
              "name": "maintenanceFee",
              "type": "uint256"
            },
            {
              "internalType": "uint256",
              "name": "publishTime",
              "type": "uint256"
            },
            {
              "internalType": "uint256",
              "name": "lockedTime",
              "type": "uint256"
            },
            {
              "internalType": "string",
              "name": "goodHash",
              "type": "string"
            },
            {
              "internalType": "address",
              "name": "nftAddress",
              "type": "address"
            },
            {
              "internalType": "uint256",
              "name": "tokenId",
              "type": "uint256"
            },
            {
              "internalType": "uint256",
              "name": "status",
              "type": "uint256"
            },
            {
              "internalType": "address",
              "name": "nft",
              "type": "address"
            },
            {
              "internalType": "uint256",
              "name": "joinedUsers",
              "type": "uint256"
            },
            {
              "internalType": "uint256",
              "name": "ticketCounts",
              "type": "uint256"
            },
            {
              "internalType": "address",
              "name": "winner",
              "type": "address"
            },
            {
              "internalType": "uint256",
              "name": "paybackFee",
              "type": "uint256"
            },
            {
              "internalType": "uint256",
              "name": "winnerTime",
              "type": "uint256"
            },
            {
              "internalType": "uint256",
              "name": "winnerBlock",
              "type": "uint256"
            },
            {
              "internalType": "uint256",
              "name": "winnerIndex",
              "type": "uint256"
            },
            {
              "internalType": "address",
              "name": "goodAddress",
              "type": "address"
            }
          ],
          "internalType": "struct WishApi.UserPublishedGood[]",
          "name": "",
          "type": "tuple[]"
        }
      ],
      "stateMutability": "view",
      "type": "function"
    }
  ],
  "bytecode": "0x60806040523480156200001157600080fd5b506040516200598b3803806200598b8339818101604052810190620000379190620000fc565b806000806101000a81548173ffffffffffffffffffffffffffffffffffffffff021916908373ffffffffffffffffffffffffffffffffffffffff160217905550506200012e565b600080fd5b600073ffffffffffffffffffffffffffffffffffffffff82169050919050565b6000620000b08262000083565b9050919050565b6000620000c482620000a3565b9050919050565b620000d681620000b7565b8114620000e257600080fd5b50565b600081519050620000f681620000cb565b92915050565b6000602082840312156200011557620001146200007e565b5b60006200012584828501620000e5565b91505092915050565b61584d806200013e6000396000f3fe608060405234801561001057600080fd5b50600436106100a95760003560e01c806355f4fc461161007157806355f4fc461461018c5780636d0380f3146101bc5780639b44f940146101ec578063b2da75981461020a578063d1db4c871461023a578063e7a7f65c14610258576100a9565b80632e63f768146100ae5780633580404b146100de5780633a684138146100fc5780634fb3d3b11461012c578063536031081461015c575b600080fd5b6100c860048036038101906100c39190613ad9565b610288565b6040516100d59190613dbb565b60405180910390f35b6100e66105c5565b6040516100f39190613fa3565b60405180910390f35b61011660048036038101906101119190613ff1565b610ab8565b6040516101239190614176565b60405180910390f35b61014660048036038101906101419190614198565b61135d565b6040516101539190613dbb565b60405180910390f35b61017660048036038101906101719190613ad9565b6118f2565b60405161018391906142c9565b60405180910390f35b6101a660048036038101906101a19190613ff1565b611abf565b6040516101b39190613dbb565b60405180910390f35b6101d660048036038101906101d19190614198565b612118565b6040516101e39190614578565b60405180910390f35b6101f4612b45565b60405161020191906147b4565b60405180910390f35b610224600480360381019061021f9190614198565b612ca4565b6040516102319190614948565b60405180910390f35b610242613312565b60405161024f9190614979565b60405180910390f35b610272600480360381019061026d9190614994565b6133af565b60405161027f9190614a83565b60405180910390f35b606060008373ffffffffffffffffffffffffffffffffffffffff1663eecf801e846040518263ffffffff1660e01b81526004016102c59190614ab4565b600060405180830381865afa1580156102e2573d6000803e3d6000fd5b505050506040513d6000823e3d601f19601f8201168201806040525081019061030b9190614c2c565b90506000806000806000808973ffffffffffffffffffffffffffffffffffffffff1663118b95358a6040518263ffffffff1660e01b815260040161034f9190614ab4565b60c060405180830381865afa15801561036c573d6000803e3d6000fd5b505050506040513d601f19601f820116820180604052508101906103909190614cb6565b95509550955095509550955060008088511161040a57600067ffffffffffffffff8111156103c1576103c0614ad4565b5b6040519080825280602002602001820160405280156103fa57816020015b6103e7613734565b8152602001906001900390816103df5790505b50985050505050505050506105bf565b6000885167ffffffffffffffff81111561042757610426614ad4565b5b60405190808252806020026020018201604052801561046057816020015b61044d613734565b8152602001906001900390816104455790505b50905060005b89518110156105b1578c73ffffffffffffffffffffffffffffffffffffffff166393a3ffe9826040518263ffffffff1660e01b81526004016104a89190614979565b60a060405180830381865afa1580156104c5573d6000803e3d6000fd5b505050506040513d601f19601f820116820180604052508101906104e99190614d43565b809850819950829c50839750849d50505050505060405180610180016040528060405180602001604052806000815250815260200160008152602001600081526020018a73ffffffffffffffffffffffffffffffffffffffff168152602001898152602001600115158152602001871515815260200186815260200185815260200160001515815260200160008152602001600081525082828151811061059357610592614dbe565b5b602002602001018190525080806105a990614e1c565b915050610466565b508099505050505050505050505b92915050565b606060008060009054906101000a900473ffffffffffffffffffffffffffffffffffffffff1673ffffffffffffffffffffffffffffffffffffffff16639b44f9406040518163ffffffff1660e01b8152600401600060405180830381865afa158015610635573d6000803e3d6000fd5b505050506040513d6000823e3d601f19601f8201168201806040525081019061065e9190614f3c565b905060008151116106c657600067ffffffffffffffff81111561068457610683614ad4565b5b6040519080825280602002602001820160405280156106bd57816020015b6106aa6137b1565b8152602001906001900390816106a25790505b50915050610ab5565b6000815167ffffffffffffffff8111156106e3576106e2614ad4565b5b60405190808252806020026020018201604052801561071c57816020015b6107096137b1565b8152602001906001900390816107015790505b5090506000808351905060005b8451811015610aac57600085600183856107439190614f85565b61074d9190614f85565b8151811061075e5761075d614dbe565b5b60200260200101519050600073ffffffffffffffffffffffffffffffffffffffff168173ffffffffffffffffffffffffffffffffffffffff1663dfbf53ae6040518163ffffffff1660e01b8152600401602060405180830381865afa1580156107cb573d6000803e3d6000fd5b505050506040513d601f19601f820116820180604052508101906107ef9190614fb9565b73ffffffffffffffffffffffffffffffffffffffff1614610a985760008060008373ffffffffffffffffffffffffffffffffffffffff16637676d2356040518163ffffffff1660e01b8152600401606060405180830381865afa15801561085a573d6000803e3d6000fd5b505050506040513d601f19601f8201168201806040525081019061087e9190614fe6565b92509250925060006108fe858673ffffffffffffffffffffffffffffffffffffffff1663dfbf53ae6040518163ffffffff1660e01b8152600401602060405180830381865afa1580156108d5573d6000803e3d6000fd5b505050506040513d601f19601f820116820180604052508101906108f99190614fb9565b6118f2565b905060405180610180016040528082604001518152602001826060015173ffffffffffffffffffffffffffffffffffffffff168152602001826080015181526020018260a00151151581526020018260e00151815260200182610100015181526020016001151581526020018673ffffffffffffffffffffffffffffffffffffffff1663c379b4be6040518163ffffffff1660e01b8152600401602060405180830381865afa1580156109b5573d6000803e3d6000fd5b505050506040513d601f19601f820116820180604052508101906109d99190615039565b81526020018581526020018481526020018381526020018673ffffffffffffffffffffffffffffffffffffffff1663a9135d176040518163ffffffff1660e01b8152600401600060405180830381865afa158015610a3b573d6000803e3d6000fd5b505050506040513d6000823e3d601f19601f82011682018060405250810190610a64919061510c565b815250898981518110610a7a57610a79614dbe565b5b60200260200101819052508780610a9090614e1c565b985050505050505b508080610aa490614e1c565b915050610729565b50829450505050505b90565b610ac061382c565b60008060009054906101000a900473ffffffffffffffffffffffffffffffffffffffff1673ffffffffffffffffffffffffffffffffffffffff16639b44f9406040518163ffffffff1660e01b8152600401600060405180830381865afa158015610b2e573d6000803e3d6000fd5b505050506040513d6000823e3d601f19601f82011682018060405250810190610b579190614f3c565b905080518310610b675750611358565b82826000018181525050808381518110610b8457610b83614dbe565b5b602002602001015173ffffffffffffffffffffffffffffffffffffffff1663df4c0ab16040518163ffffffff1660e01b8152600401602060405180830381865afa158015610bd6573d6000803e3d6000fd5b505050506040513d601f19601f82011682018060405250810190610bfa9190615181565b63ffffffff16826020018181525050808381518110610c1c57610c1b614dbe565b5b602002602001015173ffffffffffffffffffffffffffffffffffffffff1663c379b4be6040518163ffffffff1660e01b8152600401602060405180830381865afa158015610c6e573d6000803e3d6000fd5b505050506040513d601f19601f82011682018060405250810190610c929190615039565b826040018181525050808381518110610cae57610cad614dbe565b5b602002602001015173ffffffffffffffffffffffffffffffffffffffff1663e467fa806040518163ffffffff1660e01b8152600401602060405180830381865afa158015610d00573d6000803e3d6000fd5b505050506040513d601f19601f82011682018060405250810190610d249190615039565b826060018181525050808381518110610d4057610d3f614dbe565b5b602002602001015173ffffffffffffffffffffffffffffffffffffffff1663a8b382056040518163ffffffff1660e01b8152600401602060405180830381865afa158015610d92573d6000803e3d6000fd5b505050506040513d601f19601f82011682018060405250810190610db69190615039565b826080018181525050808381518110610dd257610dd1614dbe565b5b602002602001015173ffffffffffffffffffffffffffffffffffffffff1663046604496040518163ffffffff1660e01b8152600401602060405180830381865afa158015610e24573d6000803e3d6000fd5b505050506040513d601f19601f82011682018060405250810190610e489190615039565b8260a0018181525050808381518110610e6457610e63614dbe565b5b602002602001015173ffffffffffffffffffffffffffffffffffffffff1663c15e296b6040518163ffffffff1660e01b8152600401602060405180830381865afa158015610eb6573d6000803e3d6000fd5b505050506040513d601f19601f82011682018060405250810190610eda9190615039565b8260c0018181525050808381518110610ef657610ef5614dbe565b5b602002602001015173ffffffffffffffffffffffffffffffffffffffff16634ed026226040518163ffffffff1660e01b8152600401600060405180830381865afa158015610f48573d6000803e3d6000fd5b505050506040513d6000823e3d601f19601f82011682018060405250810190610f719190615271565b518260e001818152505060008054906101000a900473ffffffffffffffffffffffffffffffffffffffff1673ffffffffffffffffffffffffffffffffffffffff1663fc0c546a6040518163ffffffff1660e01b8152600401602060405180830381865afa158015610fe6573d6000803e3d6000fd5b505050506040513d601f19601f8201168201806040525081019061100a91906152f8565b73ffffffffffffffffffffffffffffffffffffffff166370a0823182858151811061103857611037614dbe565b5b60200260200101516040518263ffffffff1660e01b815260040161105c9190614ab4565b602060405180830381865afa158015611079573d6000803e3d6000fd5b505050506040513d601f19601f8201168201806040525081019061109d9190615039565b826101000181815250508083815181106110ba576110b9614dbe565b5b602002602001015173ffffffffffffffffffffffffffffffffffffffff1663dfbf53ae6040518163ffffffff1660e01b8152600401602060405180830381865afa15801561110c573d6000803e3d6000fd5b505050506040513d601f19601f820116820180604052508101906111309190614fb9565b82610120019073ffffffffffffffffffffffffffffffffffffffff16908173ffffffffffffffffffffffffffffffffffffffff168152505080838151811061117b5761117a614dbe565b5b602002602001015173ffffffffffffffffffffffffffffffffffffffff1663a9135d176040518163ffffffff1660e01b8152600401600060405180830381865afa1580156111cd573d6000803e3d6000fd5b505050506040513d6000823e3d601f19601f820116820180604052508101906111f6919061510c565b826101400181905250600082610160018181525050600080600083868151811061122357611222614dbe565b5b602002602001015173ffffffffffffffffffffffffffffffffffffffff16637676d2356040518163ffffffff1660e01b8152600401606060405180830381865afa158015611275573d6000803e3d6000fd5b505050506040513d601f19601f820116820180604052508101906112999190614fe6565b92509250925081856101a001818152505082856101c001818152505080856101e00181815250508386815181106112d3576112d2614dbe565b5b602002602001015173ffffffffffffffffffffffffffffffffffffffff16631bbf17c56040518163ffffffff1660e01b8152600401602060405180830381865afa158015611325573d6000803e3d6000fd5b505050506040513d601f19601f820116820180604052508101906113499190615039565b85610180018181525050505050505b919050565b606060008060009054906101000a900473ffffffffffffffffffffffffffffffffffffffff1673ffffffffffffffffffffffffffffffffffffffff16639b44f9406040518163ffffffff1660e01b8152600401600060405180830381865afa1580156113cd573d6000803e3d6000fd5b505050506040513d6000823e3d601f19601f820116820180604052508101906113f69190614f3c565b90506000808251905060005b818110156114ca57600084828151811061141f5761141e614dbe565b5b602002602001015190508073ffffffffffffffffffffffffffffffffffffffff1663eecf801e886040518263ffffffff1660e01b81526004016114629190614ab4565b600060405180830381865afa15801561147f573d6000803e3d6000fd5b505050506040513d6000823e3d601f19601f820116820180604052508101906114a89190614c2c565b51846114b49190615325565b93505080806114c290614e1c565b915050611402565b5060008267ffffffffffffffff8111156114e7576114e6614ad4565b5b60405190808252806020026020018201604052801561152057816020015b61150d613734565b8152602001906001900390816115055790505b5090506000805b85518110156118e457600061155687838151811061154857611547614dbe565b5b60200260200101518a610288565b905060005b81518110156118cf5781818151811061157757611576614dbe565b5b602002602001015185858151811061159257611591614dbe565b5b60200260200101819052508783815181106115b0576115af614dbe565b5b602002602001015173ffffffffffffffffffffffffffffffffffffffff1663df4c0ab16040518163ffffffff1660e01b8152600401602060405180830381865afa158015611602573d6000803e3d6000fd5b505050506040513d601f19601f820116820180604052508101906116269190615181565b63ffffffff1685858151811061163f5761163e614dbe565b5b602002602001015160400181815250508285858151811061166357611662614dbe565b5b602002602001015160200181815250508973ffffffffffffffffffffffffffffffffffffffff1688848151811061169d5761169c614dbe565b5b602002602001015173ffffffffffffffffffffffffffffffffffffffff1663dfbf53ae6040518163ffffffff1660e01b8152600401602060405180830381865afa1580156116ef573d6000803e3d6000fd5b505050506040513d601f19601f820116820180604052508101906117139190614fb9565b73ffffffffffffffffffffffffffffffffffffffff161485858151811061173d5761173c614dbe565b5b602002602001015161012001901515908115158152505087838151811061176757611766614dbe565b5b602002602001015173ffffffffffffffffffffffffffffffffffffffff1663c379b4be6040518163ffffffff1660e01b8152600401602060405180830381865afa1580156117b9573d6000803e3d6000fd5b505050506040513d601f19601f820116820180604052508101906117dd9190615039565b8585815181106117f0576117ef614dbe565b5b602002602001015161014001818152505087838151811061181457611813614dbe565b5b602002602001015173ffffffffffffffffffffffffffffffffffffffff16631bbf17c56040518163ffffffff1660e01b8152600401602060405180830381865afa158015611866573d6000803e3d6000fd5b505050506040513d601f19601f8201168201806040525081019061188a9190615039565b85858151811061189d5761189c614dbe565b5b602002602001015161016001818152505083806118b990614e1c565b94505080806118c790614e1c565b91505061155b565b505080806118dc90614e1c565b915050611527565b508195505050505050919050565b6118fa613734565b600073ffffffffffffffffffffffffffffffffffffffff168273ffffffffffffffffffffffffffffffffffffffff1614611ab9576000806000806000808873ffffffffffffffffffffffffffffffffffffffff1663118b9535896040518263ffffffff1660e01b81526004016119709190614ab4565b60c060405180830381865afa15801561198d573d6000803e3d6000fd5b505050506040513d601f19601f820116820180604052508101906119b19190614cb6565b9550955095509550955095508873ffffffffffffffffffffffffffffffffffffffff1663df4c0ab16040518163ffffffff1660e01b8152600401602060405180830381865afa158015611a08573d6000803e3d6000fd5b505050506040513d601f19601f82011682018060405250810190611a2c9190615181565b63ffffffff1687604001818152505085876060019073ffffffffffffffffffffffffffffffffffffffff16908173ffffffffffffffffffffffffffffffffffffffff168152505084876080018181525050838760a0019015159081151581525050828760c0019015159081151581525050818760e001818152505080876101000181815250505050505050505b92915050565b606060008060009054906101000a900473ffffffffffffffffffffffffffffffffffffffff1673ffffffffffffffffffffffffffffffffffffffff16639b44f9406040518163ffffffff1660e01b8152600401600060405180830381865afa158015611b2f573d6000803e3d6000fd5b505050506040513d6000823e3d601f19601f82011682018060405250810190611b589190614f3c565b905080518310611b685750612113565b6000818481518110611b7d57611b7c614dbe565b5b6020026020010151905060008173ffffffffffffffffffffffffffffffffffffffff16633f0e90166040518163ffffffff1660e01b8152600401600060405180830381865afa158015611bd4573d6000803e3d6000fd5b505050506040513d6000823e3d601f19601f82011682018060405250810190611bfd91906154cf565b90506000815167ffffffffffffffff811115611c1c57611c1b614ad4565b5b604051908082528060200260200182016040528015611c5557816020015b611c42613734565b815260200190600190039081611c3a5790505b50905060008251905060005b8181101561210957600081600184611c799190614f85565b611c839190614f85565b905060008060009054906101000a900473ffffffffffffffffffffffffffffffffffffffff1673ffffffffffffffffffffffffffffffffffffffff16637f281635878481518110611cd757611cd6614dbe565b5b6020026020010151600001516040518263ffffffff1660e01b8152600401611cff9190614ab4565b600060405180830381865afa158015611d1c573d6000803e3d6000fd5b505050506040513d6000823e3d601f19601f82011682018060405250810190611d45919061510c565b90506040518061018001604052808281526020018b81526020018873ffffffffffffffffffffffffffffffffffffffff1663df4c0ab16040518163ffffffff1660e01b8152600401602060405180830381865afa158015611daa573d6000803e3d6000fd5b505050506040513d601f19601f82011682018060405250810190611dce9190615181565b63ffffffff168152602001878481518110611dec57611deb614dbe565b5b60200260200101516000015173ffffffffffffffffffffffffffffffffffffffff168152602001878481518110611e2657611e25614dbe565b5b6020026020010151604001518152602001600115158152602001600073ffffffffffffffffffffffffffffffffffffffff168973ffffffffffffffffffffffffffffffffffffffff1663dfbf53ae6040518163ffffffff1660e01b8152600401602060405180830381865afa158015611ea3573d6000803e3d6000fd5b505050506040513d601f19601f82011682018060405250810190611ec79190614fb9565b73ffffffffffffffffffffffffffffffffffffffff16141515158152602001878481518110611ef957611ef8614dbe565b5b6020026020010151606001518152602001878481518110611f1d57611f1c614dbe565b5b6020026020010151608001518152602001878481518110611f4157611f40614dbe565b5b60200260200101516000015173ffffffffffffffffffffffffffffffffffffffff168973ffffffffffffffffffffffffffffffffffffffff1663dfbf53ae6040518163ffffffff1660e01b8152600401602060405180830381865afa158015611fae573d6000803e3d6000fd5b505050506040513d601f19601f82011682018060405250810190611fd29190614fb9565b73ffffffffffffffffffffffffffffffffffffffff1614151581526020018873ffffffffffffffffffffffffffffffffffffffff1663c379b4be6040518163ffffffff1660e01b8152600401602060405180830381865afa15801561203b573d6000803e3d6000fd5b505050506040513d601f19601f8201168201806040525081019061205f9190615039565b81526020018873ffffffffffffffffffffffffffffffffffffffff16631bbf17c56040518163ffffffff1660e01b8152600401602060405180830381865afa1580156120af573d6000803e3d6000fd5b505050506040513d601f19601f820116820180604052508101906120d39190615039565b8152508584815181106120e9576120e8614dbe565b5b60200260200101819052505050808061210190614e1c565b915050611c61565b5081955050505050505b919050565b606060008060009054906101000a900473ffffffffffffffffffffffffffffffffffffffff1673ffffffffffffffffffffffffffffffffffffffff16636d0380f3846040518263ffffffff1660e01b81526004016121769190614ab4565b600060405180830381865afa158015612193573d6000803e3d6000fd5b505050506040513d6000823e3d601f19601f820116820180604052508101906121bc9190615271565b90506000815167ffffffffffffffff8111156121db576121da614ad4565b5b60405190808252806020026020018201604052801561221457816020015b6122016138bf565b8152602001906001900390816121f95790505b50905060005b8251811015612b3a57600083828151811061223857612237614dbe565b5b602002602001015190506000604051806102800160405280600115158152602001600081526020018373ffffffffffffffffffffffffffffffffffffffff1663df4c0ab16040518163ffffffff1660e01b8152600401602060405180830381865afa1580156122ab573d6000803e3d6000fd5b505050506040513d601f19601f820116820180604052508101906122cf9190615181565b63ffffffff1681526020018373ffffffffffffffffffffffffffffffffffffffff1663c379b4be6040518163ffffffff1660e01b8152600401602060405180830381865afa158015612325573d6000803e3d6000fd5b505050506040513d601f19601f820116820180604052508101906123499190615039565b81526020018373ffffffffffffffffffffffffffffffffffffffff1663046604496040518163ffffffff1660e01b8152600401602060405180830381865afa158015612399573d6000803e3d6000fd5b505050506040513d601f19601f820116820180604052508101906123bd9190615039565b81526020018373ffffffffffffffffffffffffffffffffffffffff1663e467fa806040518163ffffffff1660e01b8152600401602060405180830381865afa15801561240d573d6000803e3d6000fd5b505050506040513d601f19601f820116820180604052508101906124319190615039565b81526020018373ffffffffffffffffffffffffffffffffffffffff1663a8b382056040518163ffffffff1660e01b8152600401602060405180830381865afa158015612481573d6000803e3d6000fd5b505050506040513d601f19601f820116820180604052508101906124a59190615039565b81526020018373ffffffffffffffffffffffffffffffffffffffff1663a9135d176040518163ffffffff1660e01b8152600401600060405180830381865afa1580156124f5573d6000803e3d6000fd5b505050506040513d6000823e3d601f19601f8201168201806040525081019061251e919061510c565b81526020018373ffffffffffffffffffffffffffffffffffffffff1663d06fcba86040518163ffffffff1660e01b8152600401602060405180830381865afa15801561256e573d6000803e3d6000fd5b505050506040513d601f19601f820116820180604052508101906125929190615556565b73ffffffffffffffffffffffffffffffffffffffff1681526020018373ffffffffffffffffffffffffffffffffffffffff166317d70f7c6040518163ffffffff1660e01b8152600401602060405180830381865afa1580156125f8573d6000803e3d6000fd5b505050506040513d601f19601f8201168201806040525081019061261c9190615039565b81526020016000815260200186858151811061263b5761263a614dbe565b5b602002602001015173ffffffffffffffffffffffffffffffffffffffff1681526020016000815260200160008152602001600073ffffffffffffffffffffffffffffffffffffffff168152602001600081526020016000815260200160008152602001600081526020018373ffffffffffffffffffffffffffffffffffffffff16815250905060008054906101000a900473ffffffffffffffffffffffffffffffffffffffff1673ffffffffffffffffffffffffffffffffffffffff16632e3d4819826040015187868151811061271557612714614dbe565b5b60200260200101516040518363ffffffff1660e01b815260040161273a929190615592565b602060405180830381865afa158015612757573d6000803e3d6000fd5b505050506040513d601f19601f8201168201806040525081019061277b91906155bb565b15612a735760018161014001818152505060008060008060008054906101000a900473ffffffffffffffffffffffffffffffffffffffff1673ffffffffffffffffffffffffffffffffffffffff16636ce99a7c8773ffffffffffffffffffffffffffffffffffffffff1663df4c0ab16040518163ffffffff1660e01b8152600401602060405180830381865afa158015612819573d6000803e3d6000fd5b505050506040513d601f19601f8201168201806040525081019061283d9190615181565b6040518263ffffffff1660e01b815260040161285991906155e8565b608060405180830381865afa158015612876573d6000803e3d6000fd5b505050506040513d601f19601f8201168201806040525081019061289a9190615603565b9350935093509350818560200181815250508573ffffffffffffffffffffffffffffffffffffffff1663dfbf53ae6040518163ffffffff1660e01b8152600401602060405180830381865afa1580156128f7573d6000803e3d6000fd5b505050506040513d601f19601f8201168201806040525081019061291b9190614fb9565b856101c0019073ffffffffffffffffffffffffffffffffffffffff16908173ffffffffffffffffffffffffffffffffffffffff168152505060008060008873ffffffffffffffffffffffffffffffffffffffff16637676d2356040518163ffffffff1660e01b8152600401606060405180830381865afa1580156129a3573d6000803e3d6000fd5b505050506040513d601f19601f820116820180604052508101906129c79190614fe6565b9250925092508188610200018181525050828861022001818152505080886102400181815250508873ffffffffffffffffffffffffffffffffffffffff16631bbf17c56040518163ffffffff1660e01b8152600401602060405180830381865afa158015612a39573d6000803e3d6000fd5b505050506040513d601f19601f82011682018060405250810190612a5d9190615039565b886101e001818152505050505050505050612b06565b8173ffffffffffffffffffffffffffffffffffffffff166328f371aa6040518163ffffffff1660e01b8152600401602060405180830381865afa158015612abe573d6000803e3d6000fd5b505050506040513d601f19601f82011682018060405250810190612ae291906155bb565b15612af857600281610140018181525050612b05565b6003816101400181815250505b5b80848481518110612b1a57612b19614dbe565b5b602002602001018190525050508080612b3290614e1c565b91505061221a565b508092505050919050565b606060008060009054906101000a900473ffffffffffffffffffffffffffffffffffffffff1673ffffffffffffffffffffffffffffffffffffffff16639b44f9406040518163ffffffff1660e01b8152600401600060405180830381865afa158015612bb5573d6000803e3d6000fd5b505050506040513d6000823e3d601f19601f82011682018060405250810190612bde9190614f3c565b905060008151905060008167ffffffffffffffff811115612c0257612c01614ad4565b5b604051908082528060200260200182016040528015612c3b57816020015b612c2861382c565b815260200190600190039081612c205790505b50905060005b82811015612c9a57612c6981600185612c5a9190614f85565b612c649190614f85565b610ab8565b828281518110612c7c57612c7b614dbe565b5b60200260200101819052508080612c9290614e1c565b915050612c41565b5080935050505090565b606060008060009054906101000a900473ffffffffffffffffffffffffffffffffffffffff1673ffffffffffffffffffffffffffffffffffffffff1663fc0c546a6040518163ffffffff1660e01b8152600401602060405180830381865afa158015612d14573d6000803e3d6000fd5b505050506040513d601f19601f82011682018060405250810190612d3891906152f8565b905060008173ffffffffffffffffffffffffffffffffffffffff166337467de1856040518263ffffffff1660e01b8152600401612d759190614ab4565b600060405180830381865afa158015612d92573d6000803e3d6000fd5b505050506040513d6000823e3d601f19601f82011682018060405250810190612dbb91906157a5565b9050805167ffffffffffffffff811115612dd857612dd7614ad4565b5b604051908082528060200260200182016040528015612e1157816020015b612dfe6139b8565b815260200190600190039081612df65790505b50925060008060018351612e259190614f85565b90505b6000811115613309576000838281518110612e4657612e45614dbe565b5b602002602001015190506000604051806101000160405280836000015173ffffffffffffffffffffffffffffffffffffffff168152602001836020015173ffffffffffffffffffffffffffffffffffffffff16815260200183604001518152602001836060015181526020016000815260200160008152602001600081526020016040518060400160405280600181526020017f30000000000000000000000000000000000000000000000000000000000000008152508152509050600073ffffffffffffffffffffffffffffffffffffffff16816000015173ffffffffffffffffffffffffffffffffffffffff1603612f6b57600181608001818152505080878581518110612f5957612f58614dbe565b5b602002602001018190525050506132f6565b600073ffffffffffffffffffffffffffffffffffffffff16816020015173ffffffffffffffffffffffffffffffffffffffff1603612fd457600281608001818152505080878581518110612fc257612fc1614dbe565b5b602002602001018190525050506132f6565b60008060008060008054906101000a900473ffffffffffffffffffffffffffffffffffffffff1673ffffffffffffffffffffffffffffffffffffffff1663ab10c76c86600001516040518263ffffffff1660e01b81526004016130379190614ab4565b608060405180830381865afa158015613054573d6000803e3d6000fd5b505050506040513d601f19601f820116820180604052508101906130789190615603565b935093509350935083156131515760038560800181815250508263ffffffff168560c0018181525050818560a00181815250508073ffffffffffffffffffffffffffffffffffffffff1663a9135d176040518163ffffffff1660e01b8152600401600060405180830381865afa1580156130f6573d6000803e3d6000fd5b505050506040513d6000823e3d601f19601f8201168201806040525081019061311f919061510c565b8560e00181905250848b898151811061313b5761313a614dbe565b5b60200260200101819052505050505050506132f6565b60008054906101000a900473ffffffffffffffffffffffffffffffffffffffff1673ffffffffffffffffffffffffffffffffffffffff1663ab10c76c86602001516040518263ffffffff1660e01b81526004016131ae9190614ab4565b608060405180830381865afa1580156131cb573d6000803e3d6000fd5b505050506040513d601f19601f820116820180604052508101906131ef9190615603565b8094508195508296508397505050505083156132d05760048560800181815250508263ffffffff168560c0018181525050818560a00181815250508073ffffffffffffffffffffffffffffffffffffffff1663a9135d176040518163ffffffff1660e01b8152600401600060405180830381865afa158015613275573d6000803e3d6000fd5b505050506040513d6000823e3d601f19601f8201168201806040525081019061329e919061510c565b8560e00181905250848b89815181106132ba576132b9614dbe565b5b60200260200101819052505050505050506132f6565b848b89815181106132e4576132e3614dbe565b5b60200260200101819052505050505050505b8080613301906157ee565b915050612e28565b50505050919050565b60008060009054906101000a900473ffffffffffffffffffffffffffffffffffffffff1673ffffffffffffffffffffffffffffffffffffffff16639b44f9406040518163ffffffff1660e01b8152600401600060405180830381865afa158015613380573d6000803e3d6000fd5b505050506040513d6000823e3d601f19601f820116820180604052508101906133a99190614f3c565b51905090565b606060008060009054906101000a900473ffffffffffffffffffffffffffffffffffffffff1673ffffffffffffffffffffffffffffffffffffffff16639b44f9406040518163ffffffff1660e01b8152600401600060405180830381865afa15801561341f573d6000803e3d6000fd5b505050506040513d6000823e3d601f19601f820116820180604052508101906134489190614f3c565b9050805184106134a457600067ffffffffffffffff81111561346d5761346c614ad4565b5b60405190808252806020026020018201604052801561349b5781602001602082028036833780820191505090505b5091505061372e565b60008185815181106134b9576134b8614dbe565b5b602002602001015190506000806000806000808673ffffffffffffffffffffffffffffffffffffffff1663118b95358b6040518263ffffffff1660e01b81526004016135059190614ab4565b60c060405180830381865afa158015613522573d6000803e3d6000fd5b505050506040513d601f19601f820116820180604052508101906135469190614cb6565b95509550955095509550955083158061355f5750600085145b156135bd57600067ffffffffffffffff81111561357f5761357e614ad4565b5b6040519080825280602002602001820160405280156135ad5781602001602082028036833780820191505090505b509850505050505050505061372e565b60008773ffffffffffffffffffffffffffffffffffffffff16634ed026226040518163ffffffff1660e01b8152600401600060405180830381865afa15801561360a573d6000803e3d6000fd5b505050506040513d6000823e3d601f19601f820116820180604052508101906136339190615271565b905060008667ffffffffffffffff81111561365157613650614ad4565b5b60405190808252806020026020018201604052801561367f5781602001602082028036833780820191505090505b5090506000805b835181101561371e578d73ffffffffffffffffffffffffffffffffffffffff168482815181106136b9576136b8614dbe565b5b602002602001015173ffffffffffffffffffffffffffffffffffffffff160361370b57808383815181106136f0576136ef614dbe565b5b602002602001018181525050818061370790614e1c565b9250505b808061371690614e1c565b915050613686565b50819b5050505050505050505050505b92915050565b604051806101800160405280606081526020016000815260200160008152602001600073ffffffffffffffffffffffffffffffffffffffff16815260200160008152602001600015158152602001600015158152602001600081526020016000815260200160001515815260200160008152602001600081525090565b60405180610180016040528060008152602001600073ffffffffffffffffffffffffffffffffffffffff16815260200160008152602001600015158152602001600081526020016000815260200160001515815260200160008152602001600081526020016000815260200160008152602001606081525090565b604051806102000160405280600081526020016000815260200160008152602001600081526020016000815260200160008152602001600081526020016000815260200160008152602001600073ffffffffffffffffffffffffffffffffffffffff1681526020016060815260200160008152602001600081526020016000815260200160008152602001600081525090565b60405180610280016040528060001515815260200160008152602001600063ffffffff1681526020016000815260200160008152602001600081526020016000815260200160608152602001600073ffffffffffffffffffffffffffffffffffffffff1681526020016000815260200160008152602001600073ffffffffffffffffffffffffffffffffffffffff1681526020016000815260200160008152602001600073ffffffffffffffffffffffffffffffffffffffff16815260200160008152602001600081526020016000815260200160008152602001600073ffffffffffffffffffffffffffffffffffffffff1681525090565b604051806101000160405280600073ffffffffffffffffffffffffffffffffffffffff168152602001600073ffffffffffffffffffffffffffffffffffffffff1681526020016000815260200160008152602001600081526020016000815260200160008152602001606081525090565b6000604051905090565b600080fd5b600080fd5b600073ffffffffffffffffffffffffffffffffffffffff82169050919050565b6000613a6882613a3d565b9050919050565b6000613a7a82613a5d565b9050919050565b613a8a81613a6f565b8114613a9557600080fd5b50565b600081359050613aa781613a81565b92915050565b613ab681613a5d565b8114613ac157600080fd5b50565b600081359050613ad381613aad565b92915050565b60008060408385031215613af057613aef613a33565b5b6000613afe85828601613a98565b9250506020613b0f85828601613ac4565b9150509250929050565b600081519050919050565b600082825260208201905092915050565b6000819050602082019050919050565b600081519050919050565b600082825260208201905092915050565b60005b83811015613b7f578082015181840152602081019050613b64565b83811115613b8e576000848401525b50505050565b6000601f19601f8301169050919050565b6000613bb082613b45565b613bba8185613b50565b9350613bca818560208601613b61565b613bd381613b94565b840191505092915050565b6000819050919050565b613bf181613bde565b82525050565b613c0081613a5d565b82525050565b60008115159050919050565b613c1b81613c06565b82525050565b6000610180830160008301518482036000860152613c3f8282613ba5565b9150506020830151613c546020860182613be8565b506040830151613c676040860182613be8565b506060830151613c7a6060860182613bf7565b506080830151613c8d6080860182613be8565b5060a0830151613ca060a0860182613c12565b5060c0830151613cb360c0860182613c12565b5060e0830151613cc660e0860182613be8565b50610100830151613cdb610100860182613be8565b50610120830151613cf0610120860182613c12565b50610140830151613d05610140860182613be8565b50610160830151613d1a610160860182613be8565b508091505092915050565b6000613d318383613c21565b905092915050565b6000602082019050919050565b6000613d5182613b19565b613d5b8185613b24565b935083602082028501613d6d85613b35565b8060005b85811015613da95784840389528151613d8a8582613d25565b9450613d9583613d39565b925060208a01995050600181019050613d71565b50829750879550505050505092915050565b60006020820190508181036000830152613dd58184613d46565b905092915050565b600081519050919050565b600082825260208201905092915050565b6000819050602082019050919050565b600061018083016000830151613e226000860182613be8565b506020830151613e356020860182613bf7565b506040830151613e486040860182613be8565b506060830151613e5b6060860182613c12565b506080830151613e6e6080860182613be8565b5060a0830151613e8160a0860182613be8565b5060c0830151613e9460c0860182613c12565b5060e0830151613ea760e0860182613be8565b50610100830151613ebc610100860182613be8565b50610120830151613ed1610120860182613be8565b50610140830151613ee6610140860182613be8565b50610160830151848203610160860152613f008282613ba5565b9150508091505092915050565b6000613f198383613e09565b905092915050565b6000602082019050919050565b6000613f3982613ddd565b613f438185613de8565b935083602082028501613f5585613df9565b8060005b85811015613f915784840389528151613f728582613f0d565b9450613f7d83613f21565b925060208a01995050600181019050613f59565b50829750879550505050505092915050565b60006020820190508181036000830152613fbd8184613f2e565b905092915050565b613fce81613bde565b8114613fd957600080fd5b50565b600081359050613feb81613fc5565b92915050565b60006020828403121561400757614006613a33565b5b600061401584828501613fdc565b91505092915050565b6000610200830160008301516140376000860182613be8565b50602083015161404a6020860182613be8565b50604083015161405d6040860182613be8565b5060608301516140706060860182613be8565b5060808301516140836080860182613be8565b5060a083015161409660a0860182613be8565b5060c08301516140a960c0860182613be8565b5060e08301516140bc60e0860182613be8565b506101008301516140d1610100860182613be8565b506101208301516140e6610120860182613bf7565b506101408301518482036101408601526141008282613ba5565b915050610160830151614117610160860182613be8565b5061018083015161412c610180860182613be8565b506101a08301516141416101a0860182613be8565b506101c08301516141566101c0860182613be8565b506101e083015161416b6101e0860182613be8565b508091505092915050565b60006020820190508181036000830152614190818461401e565b905092915050565b6000602082840312156141ae576141ad613a33565b5b60006141bc84828501613ac4565b91505092915050565b60006101808301600083015184820360008601526141e38282613ba5565b91505060208301516141f86020860182613be8565b50604083015161420b6040860182613be8565b50606083015161421e6060860182613bf7565b5060808301516142316080860182613be8565b5060a083015161424460a0860182613c12565b5060c083015161425760c0860182613c12565b5060e083015161426a60e0860182613be8565b5061010083015161427f610100860182613be8565b50610120830151614294610120860182613c12565b506101408301516142a9610140860182613be8565b506101608301516142be610160860182613be8565b508091505092915050565b600060208201905081810360008301526142e381846141c5565b905092915050565b600081519050919050565b600082825260208201905092915050565b6000819050602082019050919050565b600063ffffffff82169050919050565b61433081614317565b82525050565b60006102808301600083015161434f6000860182613c12565b5060208301516143626020860182613be8565b5060408301516143756040860182614327565b5060608301516143886060860182613be8565b50608083015161439b6080860182613be8565b5060a08301516143ae60a0860182613be8565b5060c08301516143c160c0860182613be8565b5060e083015184820360e08601526143d98282613ba5565b9150506101008301516143f0610100860182613bf7565b50610120830151614405610120860182613be8565b5061014083015161441a610140860182613be8565b5061016083015161442f610160860182613bf7565b50610180830151614444610180860182613be8565b506101a08301516144596101a0860182613be8565b506101c083015161446e6101c0860182613bf7565b506101e08301516144836101e0860182613be8565b50610200830151614498610200860182613be8565b506102208301516144ad610220860182613be8565b506102408301516144c2610240860182613be8565b506102608301516144d7610260860182613bf7565b508091505092915050565b60006144ee8383614336565b905092915050565b6000602082019050919050565b600061450e826142eb565b61451881856142f6565b93508360208202850161452a85614307565b8060005b85811015614566578484038952815161454785826144e2565b9450614552836144f6565b925060208a0199505060018101905061452e565b50829750879550505050505092915050565b600060208201905081810360008301526145928184614503565b905092915050565b600081519050919050565b600082825260208201905092915050565b6000819050602082019050919050565b6000610200830160008301516145df6000860182613be8565b5060208301516145f26020860182613be8565b5060408301516146056040860182613be8565b5060608301516146186060860182613be8565b50608083015161462b6080860182613be8565b5060a083015161463e60a0860182613be8565b5060c083015161465160c0860182613be8565b5060e083015161466460e0860182613be8565b50610100830151614679610100860182613be8565b5061012083015161468e610120860182613bf7565b506101408301518482036101408601526146a88282613ba5565b9150506101608301516146bf610160860182613be8565b506101808301516146d4610180860182613be8565b506101a08301516146e96101a0860182613be8565b506101c08301516146fe6101c0860182613be8565b506101e08301516147136101e0860182613be8565b508091505092915050565b600061472a83836145c6565b905092915050565b6000602082019050919050565b600061474a8261459a565b61475481856145a5565b935083602082028501614766856145b6565b8060005b858110156147a25784840389528151614783858261471e565b945061478e83614732565b925060208a0199505060018101905061476a565b50829750879550505050505092915050565b600060208201905081810360008301526147ce818461473f565b905092915050565b600081519050919050565b600082825260208201905092915050565b6000819050602082019050919050565b60006101008301600083015161481b6000860182613bf7565b50602083015161482e6020860182613bf7565b5060408301516148416040860182613be8565b5060608301516148546060860182613be8565b5060808301516148676080860182613be8565b5060a083015161487a60a0860182613be8565b5060c083015161488d60c0860182613be8565b5060e083015184820360e08601526148a58282613ba5565b9150508091505092915050565b60006148be8383614802565b905092915050565b6000602082019050919050565b60006148de826147d6565b6148e881856147e1565b9350836020820285016148fa856147f2565b8060005b85811015614936578484038952815161491785826148b2565b9450614922836148c6565b925060208a019950506001810190506148fe565b50829750879550505050505092915050565b6000602082019050818103600083015261496281846148d3565b905092915050565b61497381613bde565b82525050565b600060208201905061498e600083018461496a565b92915050565b600080604083850312156149ab576149aa613a33565b5b60006149b985828601613fdc565b92505060206149ca85828601613ac4565b9150509250929050565b600081519050919050565b600082825260208201905092915050565b6000819050602082019050919050565b6000614a0c8383613be8565b60208301905092915050565b6000602082019050919050565b6000614a30826149d4565b614a3a81856149df565b9350614a45836149f0565b8060005b83811015614a76578151614a5d8882614a00565b9750614a6883614a18565b925050600181019050614a49565b5085935050505092915050565b60006020820190508181036000830152614a9d8184614a25565b905092915050565b614aae81613a5d565b82525050565b6000602082019050614ac96000830184614aa5565b92915050565b600080fd5b7f4e487b7100000000000000000000000000000000000000000000000000000000600052604160045260246000fd5b614b0c82613b94565b810181811067ffffffffffffffff82111715614b2b57614b2a614ad4565b5b80604052505050565b6000614b3e613a29565b9050614b4a8282614b03565b919050565b600067ffffffffffffffff821115614b6a57614b69614ad4565b5b602082029050602081019050919050565b600080fd5b600081519050614b8f81613fc5565b92915050565b6000614ba8614ba384614b4f565b614b34565b90508083825260208201905060208402830185811115614bcb57614bca614b7b565b5b835b81811015614bf45780614be08882614b80565b845260208401935050602081019050614bcd565b5050509392505050565b600082601f830112614c1357614c12614acf565b5b8151614c23848260208601614b95565b91505092915050565b600060208284031215614c4257614c41613a33565b5b600082015167ffffffffffffffff811115614c6057614c5f613a38565b5b614c6c84828501614bfe565b91505092915050565b600081519050614c8481613aad565b92915050565b614c9381613c06565b8114614c9e57600080fd5b50565b600081519050614cb081614c8a565b92915050565b60008060008060008060c08789031215614cd357614cd2613a33565b5b6000614ce189828a01614c75565b9650506020614cf289828a01614b80565b9550506040614d0389828a01614ca1565b9450506060614d1489828a01614ca1565b9350506080614d2589828a01614b80565b92505060a0614d3689828a01614b80565b9150509295509295509295565b600080600080600060a08688031215614d5f57614d5e613a33565b5b6000614d6d88828901614c75565b9550506020614d7e88828901614b80565b9450506040614d8f88828901614b80565b9350506060614da088828901614b80565b9250506080614db188828901614b80565b9150509295509295909350565b7f4e487b7100000000000000000000000000000000000000000000000000000000600052603260045260246000fd5b7f4e487b7100000000000000000000000000000000000000000000000000000000600052601160045260246000fd5b6000614e2782613bde565b91507fffffffffffffffffffffffffffffffffffffffffffffffffffffffffffffffff8203614e5957614e58614ded565b5b600182019050919050565b600067ffffffffffffffff821115614e7f57614e7e614ad4565b5b602082029050602081019050919050565b600081519050614e9f81613a81565b92915050565b6000614eb8614eb384614e64565b614b34565b90508083825260208201905060208402830185811115614edb57614eda614b7b565b5b835b81811015614f045780614ef08882614e90565b845260208401935050602081019050614edd565b5050509392505050565b600082601f830112614f2357614f22614acf565b5b8151614f33848260208601614ea5565b91505092915050565b600060208284031215614f5257614f51613a33565b5b600082015167ffffffffffffffff811115614f7057614f6f613a38565b5b614f7c84828501614f0e565b91505092915050565b6000614f9082613bde565b9150614f9b83613bde565b925082821015614fae57614fad614ded565b5b828203905092915050565b600060208284031215614fcf57614fce613a33565b5b6000614fdd84828501614c75565b91505092915050565b600080600060608486031215614fff57614ffe613a33565b5b600061500d86828701614b80565b935050602061501e86828701614b80565b925050604061502f86828701614b80565b9150509250925092565b60006020828403121561504f5761504e613a33565b5b600061505d84828501614b80565b91505092915050565b600080fd5b600067ffffffffffffffff82111561508657615085614ad4565b5b61508f82613b94565b9050602081019050919050565b60006150af6150aa8461506b565b614b34565b9050828152602081018484840111156150cb576150ca615066565b5b6150d6848285613b61565b509392505050565b600082601f8301126150f3576150f2614acf565b5b815161510384826020860161509c565b91505092915050565b60006020828403121561512257615121613a33565b5b600082015167ffffffffffffffff8111156151405761513f613a38565b5b61514c848285016150de565b91505092915050565b61515e81614317565b811461516957600080fd5b50565b60008151905061517b81615155565b92915050565b60006020828403121561519757615196613a33565b5b60006151a58482850161516c565b91505092915050565b600067ffffffffffffffff8211156151c9576151c8614ad4565b5b602082029050602081019050919050565b60006151ed6151e8846151ae565b614b34565b905080838252602082019050602084028301858111156152105761520f614b7b565b5b835b8181101561523957806152258882614c75565b845260208401935050602081019050615212565b5050509392505050565b600082601f83011261525857615257614acf565b5b81516152688482602086016151da565b91505092915050565b60006020828403121561528757615286613a33565b5b600082015167ffffffffffffffff8111156152a5576152a4613a38565b5b6152b184828501615243565b91505092915050565b60006152c582613a5d565b9050919050565b6152d5816152ba565b81146152e057600080fd5b50565b6000815190506152f2816152cc565b92915050565b60006020828403121561530e5761530d613a33565b5b600061531c848285016152e3565b91505092915050565b600061533082613bde565b915061533b83613bde565b9250827fffffffffffffffffffffffffffffffffffffffffffffffffffffffffffffffff038211156153705761536f614ded565b5b828201905092915050565b600067ffffffffffffffff82111561539657615395614ad4565b5b602082029050602081019050919050565b600080fd5b600060a082840312156153c2576153c16153a7565b5b6153cc60a0614b34565b905060006153dc84828501614c75565b60008301525060206153f084828501614b80565b602083015250604061540484828501614b80565b604083015250606061541884828501614b80565b606083015250608061542c84828501614b80565b60808301525092915050565b600061544b6154468461537b565b614b34565b90508083825260208201905060a0840283018581111561546e5761546d614b7b565b5b835b81811015615497578061548388826153ac565b84526020840193505060a081019050615470565b5050509392505050565b600082601f8301126154b6576154b5614acf565b5b81516154c6848260208601615438565b91505092915050565b6000602082840312156154e5576154e4613a33565b5b600082015167ffffffffffffffff81111561550357615502613a38565b5b61550f848285016154a1565b91505092915050565b600061552382613a5d565b9050919050565b61553381615518565b811461553e57600080fd5b50565b6000815190506155508161552a565b92915050565b60006020828403121561556c5761556b613a33565b5b600061557a84828501615541565b91505092915050565b61558c81614317565b82525050565b60006040820190506155a76000830185615583565b6155b46020830184614aa5565b9392505050565b6000602082840312156155d1576155d0613a33565b5b60006155df84828501614ca1565b91505092915050565b60006020820190506155fd6000830184615583565b92915050565b6000806000806080858703121561561d5761561c613a33565b5b600061562b87828801614ca1565b945050602061563c8782880161516c565b935050604061564d87828801614b80565b925050606061565e87828801614e90565b91505092959194509250565b600067ffffffffffffffff82111561568557615684614ad4565b5b602082029050602081019050919050565b6000608082840312156156ac576156ab6153a7565b5b6156b66080614b34565b905060006156c684828501614c75565b60008301525060206156da84828501614c75565b60208301525060406156ee84828501614b80565b604083015250606061570284828501614b80565b60608301525092915050565b600061572161571c8461566a565b614b34565b9050808382526020820190506080840283018581111561574457615743614b7b565b5b835b8181101561576d57806157598882615696565b845260208401935050608081019050615746565b5050509392505050565b600082601f83011261578c5761578b614acf565b5b815161579c84826020860161570e565b91505092915050565b6000602082840312156157bb576157ba613a33565b5b600082015167ffffffffffffffff8111156157d9576157d8613a38565b5b6157e584828501615777565b91505092915050565b60006157f982613bde565b91506000820361580c5761580b614ded565b5b60018203905091905056fea2646970667358221220ca881c59702dba45bcf768972296dd2e6c5a7acb67555280e1f9dd0773a018f364736f6c634300080d0033",
  "immutableReferences": {},
  "source": "// SPDX-License-Identifier: MIT\npragma solidity >=0.4.22 <0.9.0;\n\nimport \"./Comptroller.sol\";\nimport \"./GoodLottery.sol\";\nimport \"./GoodInterface.sol\";\nimport \"./WishToken.sol\";\nimport \"./GoodLotteryNFT.sol\";\n\ncontract WishApi {\n    Comptroller comptroller;\n\n    struct GoodInfo {\n        uint256 goodIndex;\n        uint256 goodId;\n        uint256 goodValue;\n        uint256 publishTime;\n        uint256 lockedTime;\n        uint256 maintenanceFee;\n        uint256 joinedUsers;\n        uint256 ticketCounts;\n        uint256 balance;\n        address winner;\n        string goodHash;\n        uint256 stage;\n        uint256 paybackFee;\n        uint256 winnerTime;\n        uint256 winnerBlock;\n        uint256 winnerIndex;\n    }\n\n    struct UserJoinRecord {\n        string userName;\n        uint256 goodIndex;\n        uint256 goodId;\n        address user;\n        uint256 count;\n        bool joined;\n        bool isPaybacked;\n        uint256 joinTime;\n        uint256 joinBlockNum;\n        bool isWinner;\n        uint256 goodValue;\n        uint256 paybackFee;\n    }\n\n    struct WinnerHistory {\n        uint256 goodId;\n        address user;\n        uint256 count;\n        bool joined;\n        uint256 joinTime;\n        uint256 joinBlockNum;\n        bool isWinner;\n        uint256 goodValue;\n        uint256 blockNum;\n        uint256 blockTime;\n        uint256 index;\n        string fileHash;\n    }\n\n    struct UserTransferHistory {\n        address from;\n        address to;\n        uint256 amount;\n        uint256 blockNum;\n        uint256 transferType;\n        uint256 goodIndex;\n        uint256 goodId;\n        string fileHash;\n    }\n\n    struct UserPublishedGood {\n        bool isList;\n        uint256 goodIndex;\n        uint32 goodId;\n        uint256 goodValue;\n        uint256 maintenanceFee;\n        uint256 publishTime;\n        uint256 lockedTime;\n        string goodHash;\n        address nftAddress;\n        uint256 tokenId;\n        uint256 status;\n        address nft;\n        uint256 joinedUsers;\n        uint256 ticketCounts;\n        address winner;\n        uint256 paybackFee;\n        uint256 winnerTime;\n        uint256 winnerBlock;\n        uint256 winnerIndex;\n        address goodAddress;\n    }\n\n    constructor(Comptroller _comptroller) {\n        comptroller = _comptroller;\n    }\n\n    function getGoodsLength() public view returns (uint256 len) {\n        return comptroller.getGoods().length;\n    }\n\n    function getGoods() public view returns (GoodInfo[] memory) {\n        GoodLottery[] memory goodContracts = comptroller.getGoods();\n\n        uint256 len = goodContracts.length;\n        GoodInfo[] memory records = new GoodInfo[](len);\n\n        for (uint256 i = 0; i < len; i++) {\n            records[i] = getGoodInfo(len - 1 - i);\n        }\n        return records;\n    }\n\n    function getGoodInfo(uint256 index)\n        public\n        view\n        returns (GoodInfo memory good)\n    {\n        GoodLottery[] memory goodContracts = comptroller.getGoods();\n        if (index >= goodContracts.length) return good;\n\n        good.goodIndex = index;\n        good.goodId = goodContracts[index].goodId();\n        good.goodValue = goodContracts[index].goodValue();\n        good.publishTime = goodContracts[index].publishTime();\n        good.lockedTime = goodContracts[index].lockedTime();\n        good.maintenanceFee = goodContracts[index].maintenanceFee();\n        good.joinedUsers = goodContracts[index].joinedUsers();\n        good.ticketCounts = goodContracts[index].getTickets().length;\n        good.balance = comptroller.token().balanceOf(\n            address(goodContracts[index])\n        );\n        good.winner = goodContracts[index].winner();\n        good.goodHash = goodContracts[index].goodHash();\n        good.stage = 0;\n        (\n            uint256 winnerBlock,\n            uint256 winnerTime,\n            uint256 tickIndex\n        ) = goodContracts[index].winnerTime();\n        good.winnerTime = winnerTime;\n        good.winnerBlock = winnerBlock;\n        good.winnerIndex = tickIndex;\n        good.paybackFee = goodContracts[index].paybackFee();\n\n        return good;\n    }\n\n    function getUserTickets(uint256 index, address user)\n        public\n        view\n        returns (uint256[] memory)\n    {\n        GoodLottery[] memory goodContracts = comptroller.getGoods();\n        if (index >= goodContracts.length) return new uint256[](0);\n        GoodLottery good = goodContracts[index];\n        (\n            address u,\n            uint256 count,\n            bool joined,\n            bool isPaybacked,\n            uint256 joinTime,\n            uint256 joinBlockNum\n        ) = good.userMapping(user);\n\n        if (!joined || count == 0) {\n            return new uint256[](0);\n        }\n\n        address[] memory tickets = good.getTickets();\n        uint256[] memory ticketIds = new uint256[](count);\n\n        uint256 j = 0;\n        for (uint256 i = 0; i < tickets.length; i++) {\n            if (tickets[i] == user) {\n                ticketIds[j] = i;\n                j++;\n            }\n        }\n        return ticketIds;\n    }\n\n    function getUserRecords(uint256 index)\n        public\n        view\n        returns (UserJoinRecord[] memory record)\n    {\n        GoodLottery[] memory goodContracts = comptroller.getGoods();\n        if (index >= goodContracts.length) return record;\n        GoodLottery good = goodContracts[index];\n        GoodInterface.UserJoinRecord[] memory records = good\n            .getUserJoinRecords();\n        UserJoinRecord[] memory result = new UserJoinRecord[](records.length);\n\n        uint256 len = records.length;\n        for (uint256 i = 0; i < len; i++) {\n            uint256 j = len - 1 - i;\n\n            string memory userName = comptroller.userNames(records[j].user);\n\n            result[i] = UserJoinRecord(\n                userName,\n                index,\n                good.goodId(),\n                records[j].user,\n                records[j].count,\n                true,\n                good.winner() != address(0),\n                records[j].joinTime,\n                records[j].joinBlockNum,\n                good.winner() == records[j].user,\n                good.goodValue(),\n                good.paybackFee()\n            );\n        }\n\n        return result;\n    }\n\n    function getUserRecord(GoodLottery good, address addr)\n        public\n        view\n        returns (UserJoinRecord memory record)\n    {\n        if (addr != address(0)) {\n            (\n                address user,\n                uint256 count,\n                bool joined,\n                bool isPaybacked,\n                uint256 joinTime,\n                uint256 joinBlockNum\n            ) = good.userMapping(addr);\n            record.goodId = good.goodId();\n            record.user = user;\n            record.count = count;\n            record.joined = joined;\n            record.isPaybacked = isPaybacked;\n            record.joinTime = joinTime;\n            record.joinBlockNum = joinBlockNum;\n        }\n\n        return record;\n    }\n\n    function getWinnerHistory() public view returns (WinnerHistory[] memory) {\n        GoodLottery[] memory goodContracts = comptroller.getGoods();\n\n        if (goodContracts.length <= 0) {\n            return new WinnerHistory[](0);\n        }\n        WinnerHistory[] memory records = new WinnerHistory[](\n            goodContracts.length\n        );\n        uint256 j = 0;\n        uint256 m = goodContracts.length;\n        for (uint256 i = 0; i < goodContracts.length; i++) {\n            GoodLottery good = goodContracts[m - i - 1];\n\n            if (good.winner() != address(0)) {\n                (uint256 blockNum, uint256 blockTime, uint256 index) = good\n                    .winnerTime();\n                UserJoinRecord memory record = getUserRecord(\n                    good,\n                    good.winner()\n                );\n\n                records[j] = WinnerHistory({\n                    goodId: record.goodId,\n                    user: record.user,\n                    count: record.count,\n                    joined: record.joined,\n                    joinTime: record.joinTime,\n                    joinBlockNum: record.joinBlockNum,\n                    isWinner: true,\n                    goodValue: good.goodValue(),\n                    blockNum: blockNum,\n                    blockTime: blockTime,\n                    index: index,\n                    fileHash: good.goodHash()\n                });\n                j++;\n            }\n        }\n        return records;\n    }\n\n    function getUserHistory(address user)\n        public\n        view\n        returns (UserJoinRecord[] memory)\n    {\n        GoodLottery[] memory goodContracts = comptroller.getGoods();\n        uint256 count = 0;\n        uint256 goods = goodContracts.length;\n        for (uint256 i = 0; i < goods; i++) {\n            GoodLottery good = goodContracts[i];\n            count += good.getUserJoinRecordIndexs(user).length;\n        }\n\n        UserJoinRecord[] memory record = new UserJoinRecord[](count);\n        uint256 j = 0;\n\n        for (uint256 i = 0; i < goodContracts.length; i++) {\n            UserJoinRecord[] memory rs = getUserHistoryByGood(\n                goodContracts[i],\n                user\n            );\n            for (uint256 z = 0; z < rs.length; z++) {\n                record[j] = rs[z];\n                record[j].goodId = goodContracts[i].goodId();\n                record[j].goodIndex = i;\n                record[j].isWinner = goodContracts[i].winner() == user;\n                record[j].goodValue = goodContracts[i].goodValue();\n                record[j].paybackFee = goodContracts[i].paybackFee();\n                j++;\n            }\n        }\n        return record;\n    }\n\n    function getUserHistoryByGood(GoodLottery good, address user)\n        public\n        view\n        returns (UserJoinRecord[] memory)\n    {\n        uint256[] memory indexs = good.getUserJoinRecordIndexs(user);\n        (\n            address user,\n            uint256 count,\n            bool joined,\n            bool isPaybacked,\n            uint256 joinTime,\n            uint256 joinBlockNum\n        ) = good.userMapping(user);\n        uint256 startIndex = 0;\n        if (indexs.length <= 0) {\n            return new UserJoinRecord[](0);\n        }\n        UserJoinRecord[] memory records = new UserJoinRecord[](indexs.length);\n\n        for (uint256 z = 0; z < indexs.length; z++) {\n            (user, startIndex, count, joinTime, joinBlockNum) = good\n                .userJoinRecords(z);\n            records[z] = UserJoinRecord(\n                \"\",\n                0,\n                0,\n                user,\n                count,\n                true,\n                isPaybacked,\n                joinTime,\n                joinBlockNum,\n                false,\n                0,\n                0\n            );\n        }\n        return records;\n    }\n\n    function getUserTransferHistory(address user)\n        public\n        view\n        returns (UserTransferHistory[] memory record)\n    {\n        WishToken tokenApi = WishToken(comptroller.token());\n\n        WishToken.UserTransferHistory[] memory list = tokenApi\n            .getUserTransferHistories(user);\n        record = new UserTransferHistory[](list.length);\n\n        uint256 i = 0;\n        for (uint256 j = list.length - 1; j > 0; j--) {\n            WishToken.UserTransferHistory memory history = list[j];\n            UserTransferHistory memory result = UserTransferHistory({\n                from: history.from,\n                to: history.to,\n                amount: history.amount,\n                blockNum: history.transferBlock,\n                transferType: 0,\n                goodIndex: 0,\n                goodId: 0,\n                fileHash: \"0\"\n            });\n\n            if (result.from == address(0)) {\n                result.transferType = 1;\n                record[i] = result;\n                continue;\n            }\n\n            if (result.to == address(0)) {\n                result.transferType = 2;\n                record[i] = result;\n                continue;\n            }\n\n            (\n                bool isList,\n                uint32 goodId,\n                uint256 goodIndex,\n                GoodLottery good\n            ) = comptroller.goodAddressMapping(result.from);\n            if (isList) {\n                result.transferType = 3;\n                result.goodId = goodId;\n                result.goodIndex = goodIndex;\n                result.fileHash = good.goodHash();\n                record[i] = result;\n                continue;\n            }\n\n            (isList, goodId, goodIndex, good) = comptroller.goodAddressMapping(\n                result.to\n            );\n            if (isList) {\n                result.transferType = 4;\n                result.goodId = goodId;\n                result.goodIndex = goodIndex;\n                result.fileHash = good.goodHash();\n                record[i] = result;\n                continue;\n            }\n\n            record[i] = result;\n        }\n    }\n\n    function getUserPublishedGoods(address account)\n        public\n        view\n        returns (UserPublishedGood[] memory)\n    {\n        address[] memory goods = comptroller.getUserPublishedGoods(account);\n\n        UserPublishedGood[] memory records = new UserPublishedGood[](\n            goods.length\n        );\n\n        for (uint256 i = 0; i < goods.length; i++) {\n            GoodLotteryNFT nft = GoodLotteryNFT(goods[i]);\n            UserPublishedGood memory record = UserPublishedGood({\n                isList: true,\n                goodId: nft.goodId(),\n                goodIndex: 0,\n                goodValue: nft.goodValue(),\n                maintenanceFee: nft.maintenanceFee(),\n                publishTime: nft.publishTime(),\n                lockedTime: nft.lockedTime(),\n                goodHash: nft.goodHash(),\n                nftAddress: address(nft.nftToken()),\n                tokenId: nft.tokenId(),\n                status: 0,\n                nft: goods[i],\n                joinedUsers: 0,\n                ticketCounts: 0,\n                winner: address(0),\n                paybackFee: 0,\n                winnerBlock: 0,\n                winnerTime: 0,\n                winnerIndex: 0,\n                goodAddress: address(nft)\n            });\n            if (comptroller.goodIsList(record.goodId, goods[i])) {\n                record.status = 1;\n                (\n                    bool isList,\n                    uint32 goodId,\n                    uint256 goodIndex,\n                    GoodLottery good\n                ) = comptroller.goodsMapping(nft.goodId());\n                record.goodIndex = goodIndex;\n                record.winner = nft.winner();\n                (\n                    uint256 winnerBlock,\n                    uint256 winnerTime,\n                    uint256 tickIndex\n                ) = nft.winnerTime();\n                record.winnerTime = winnerTime;\n                record.winnerBlock = winnerBlock;\n                record.winnerIndex = tickIndex;\n                record.paybackFee = nft.paybackFee();\n            } else if (nft.isApproved()) {\n                record.status = 2;\n            } else {\n                record.status = 3;\n            }\n\n            records[i] = record;\n        }\n        return records;\n    }\n}\n",
  "sourcePath": "/Users/jonah/SolidityProject/makewish-contract/contracts/WishApi.sol",
  "compiler": {
    "name": "solc",
    "version": "0.8.13+commit.abaa5c0e.Emscripten.clang"
  },
  "schemaVersion": "3.4.7",
  "updatedAt": "2022-06-02T02:24:16.252Z",
  "devdoc": {
    "kind": "dev",
    "methods": {},
    "version": 1
  },
  "userdoc": {
    "kind": "user",
    "methods": {},
    "version": 1
  }
}